{
  "address": "0x421E698B19E1c363EbC1B3becE4cD05Be4026982",
  "abi": [
    {
      "inputs": [
        {
          "internalType": "address",
          "name": "_memberToken",
          "type": "address"
        },
        {
          "internalType": "address",
          "name": "_controllerRegistry",
          "type": "address"
        },
        {
          "internalType": "address",
          "name": "_proxyFactoryAddress",
          "type": "address"
        },
        {
          "internalType": "address",
          "name": "_gnosisMasterAddress",
          "type": "address"
        },
        {
          "internalType": "address",
          "name": "_podEnsRegistrar",
          "type": "address"
        }
      ],
      "stateMutability": "nonpayable",
      "type": "constructor"
    },
    {
      "anonymous": false,
      "inputs": [
        {
          "indexed": false,
          "internalType": "uint256",
          "name": "podId",
          "type": "uint256"
        },
        {
          "indexed": false,
          "internalType": "address",
          "name": "safe",
          "type": "address"
        },
        {
          "indexed": false,
          "internalType": "address",
          "name": "admin",
          "type": "address"
        }
      ],
      "name": "CreatePod",
      "type": "event"
    },
    {
      "anonymous": false,
      "inputs": [
        {
          "indexed": true,
          "internalType": "address",
          "name": "previousOwner",
          "type": "address"
        },
        {
          "indexed": true,
          "internalType": "address",
          "name": "newOwner",
          "type": "address"
        }
      ],
      "name": "OwnershipTransferred",
      "type": "event"
    },
    {
      "anonymous": false,
      "inputs": [
        {
          "indexed": false,
          "internalType": "uint256",
          "name": "podId",
          "type": "uint256"
        },
        {
          "indexed": false,
          "internalType": "address",
          "name": "admin",
          "type": "address"
        }
      ],
      "name": "UpdatePodAdmin",
      "type": "event"
    },
    {
      "inputs": [],
      "name": "FUNCTION_SIG_ENABLE",
      "outputs": [
        {
          "internalType": "string",
          "name": "",
          "type": "string"
        }
      ],
      "stateMutability": "view",
      "type": "function"
    },
    {
      "inputs": [],
      "name": "FUNCTION_SIG_EXEC",
      "outputs": [
        {
          "internalType": "string",
          "name": "",
          "type": "string"
        }
      ],
      "stateMutability": "view",
      "type": "function"
    },
    {
      "inputs": [],
      "name": "FUNCTION_SIG_SETUP",
      "outputs": [
        {
          "internalType": "string",
          "name": "",
          "type": "string"
        }
      ],
      "stateMutability": "view",
      "type": "function"
    },
    {
      "inputs": [
        {
          "internalType": "address",
          "name": "operator",
          "type": "address"
        },
        {
          "internalType": "address",
          "name": "from",
          "type": "address"
        },
        {
          "internalType": "address",
          "name": "to",
          "type": "address"
        },
        {
          "internalType": "uint256[]",
          "name": "ids",
          "type": "uint256[]"
        },
        {
          "internalType": "uint256[]",
          "name": "",
          "type": "uint256[]"
        },
        {
          "internalType": "bytes",
          "name": "data",
          "type": "bytes"
        }
      ],
      "name": "beforeTokenTransfer",
      "outputs": [],
      "stateMutability": "nonpayable",
      "type": "function"
    },
    {
      "inputs": [],
      "name": "controllerRegistry",
      "outputs": [
        {
          "internalType": "contract IControllerRegistry",
          "name": "",
          "type": "address"
        }
      ],
      "stateMutability": "view",
      "type": "function"
    },
    {
      "inputs": [
        {
          "internalType": "address[]",
          "name": "_members",
          "type": "address[]"
        },
        {
          "internalType": "uint256",
          "name": "threshold",
          "type": "uint256"
        },
        {
          "internalType": "address",
          "name": "_admin",
          "type": "address"
        },
        {
          "internalType": "bytes32",
          "name": "_label",
          "type": "bytes32"
        },
        {
          "internalType": "string",
          "name": "_ensString",
          "type": "string"
        }
      ],
      "name": "createPod",
      "outputs": [],
      "stateMutability": "nonpayable",
      "type": "function"
    },
    {
      "inputs": [
        {
          "internalType": "address",
          "name": "_admin",
          "type": "address"
        },
        {
          "internalType": "address",
          "name": "_safe",
          "type": "address"
        },
        {
          "internalType": "bytes32",
          "name": "_label",
          "type": "bytes32"
        },
        {
          "internalType": "string",
          "name": "_ensString",
          "type": "string"
        }
      ],
      "name": "createPodWithSafe",
      "outputs": [],
      "stateMutability": "nonpayable",
      "type": "function"
    },
    {
      "inputs": [
        {
          "internalType": "address",
          "name": "_context",
          "type": "address"
        }
      ],
      "name": "delegateSetup",
      "outputs": [],
      "stateMutability": "nonpayable",
      "type": "function"
    },
    {
      "inputs": [
        {
          "internalType": "address",
          "name": "module",
          "type": "address"
        }
      ],
      "name": "enableModule",
      "outputs": [],
      "stateMutability": "nonpayable",
      "type": "function"
    },
    {
      "inputs": [
        {
          "internalType": "address",
          "name": "safe",
          "type": "address"
        }
      ],
      "name": "getSafeMembers",
      "outputs": [
        {
          "internalType": "address[]",
          "name": "",
          "type": "address[]"
        }
      ],
      "stateMutability": "view",
      "type": "function"
    },
    {
      "inputs": [],
      "name": "gnosisMasterAddress",
      "outputs": [
        {
          "internalType": "address",
          "name": "",
          "type": "address"
        }
      ],
      "stateMutability": "view",
      "type": "function"
    },
    {
      "inputs": [
        {
          "internalType": "address",
          "name": "safe",
          "type": "address"
        },
        {
          "internalType": "address",
          "name": "member",
          "type": "address"
        }
      ],
      "name": "isSafeMember",
      "outputs": [
        {
          "internalType": "bool",
          "name": "",
          "type": "bool"
        }
      ],
      "stateMutability": "view",
      "type": "function"
    },
    {
      "inputs": [
        {
          "internalType": "address",
          "name": "safe",
          "type": "address"
        }
      ],
      "name": "isSafeModuleEnabled",
      "outputs": [
        {
          "internalType": "bool",
          "name": "",
          "type": "bool"
        }
      ],
      "stateMutability": "view",
      "type": "function"
    },
    {
      "inputs": [],
      "name": "memberToken",
      "outputs": [
        {
          "internalType": "contract IMemberToken",
          "name": "",
          "type": "address"
        }
      ],
      "stateMutability": "view",
      "type": "function"
    },
    {
      "inputs": [
        {
          "internalType": "uint256",
          "name": "_podId",
          "type": "uint256"
        },
        {
          "internalType": "address",
          "name": "_newController",
          "type": "address"
        },
        {
          "internalType": "address",
          "name": "_prevModule",
          "type": "address"
        }
      ],
      "name": "migratePodController",
      "outputs": [],
      "stateMutability": "nonpayable",
      "type": "function"
    },
    {
      "inputs": [],
      "name": "owner",
      "outputs": [
        {
          "internalType": "address",
          "name": "",
          "type": "address"
        }
      ],
      "stateMutability": "view",
      "type": "function"
    },
    {
      "inputs": [
        {
          "internalType": "uint256",
          "name": "",
          "type": "uint256"
        }
      ],
      "name": "podAdmin",
      "outputs": [
        {
          "internalType": "address",
          "name": "",
          "type": "address"
        }
      ],
      "stateMutability": "view",
      "type": "function"
    },
    {
      "inputs": [],
      "name": "podEnsRegistrar",
      "outputs": [
        {
          "internalType": "contract IPodEnsRegistrar",
          "name": "",
          "type": "address"
        }
      ],
      "stateMutability": "view",
      "type": "function"
    },
    {
      "inputs": [
        {
          "internalType": "uint256",
          "name": "",
          "type": "uint256"
        }
      ],
      "name": "podIdToSafe",
      "outputs": [
        {
          "internalType": "address",
          "name": "",
          "type": "address"
        }
      ],
      "stateMutability": "view",
      "type": "function"
    },
    {
      "inputs": [],
      "name": "proxyFactoryAddress",
      "outputs": [
        {
          "internalType": "address",
          "name": "",
          "type": "address"
        }
      ],
      "stateMutability": "view",
      "type": "function"
    },
    {
      "inputs": [],
      "name": "renounceOwnership",
      "outputs": [],
      "stateMutability": "nonpayable",
      "type": "function"
    },
    {
      "inputs": [
        {
          "internalType": "address",
          "name": "",
          "type": "address"
        }
      ],
      "name": "safeToPodId",
      "outputs": [
        {
          "internalType": "uint256",
          "name": "",
          "type": "uint256"
        }
      ],
      "stateMutability": "view",
      "type": "function"
    },
    {
      "inputs": [
        {
          "internalType": "address",
          "name": "newOwner",
          "type": "address"
        }
      ],
      "name": "transferOwnership",
      "outputs": [],
      "stateMutability": "nonpayable",
      "type": "function"
    },
    {
      "inputs": [
        {
          "internalType": "uint256",
          "name": "_podId",
          "type": "uint256"
        },
        {
          "internalType": "address",
          "name": "_newAdmin",
          "type": "address"
        }
      ],
      "name": "updatePodAdmin",
      "outputs": [],
      "stateMutability": "nonpayable",
      "type": "function"
    },
    {
      "inputs": [
        {
          "internalType": "address",
          "name": "_podEnsRegistrar",
          "type": "address"
        }
      ],
      "name": "updatePodEnsRegistrar",
      "outputs": [],
      "stateMutability": "nonpayable",
      "type": "function"
    },
    {
      "inputs": [
        {
          "internalType": "uint256",
          "name": "_podId",
          "type": "uint256"
        },
        {
          "internalType": "address",
          "name": "_podAdmin",
          "type": "address"
        },
        {
          "internalType": "address",
          "name": "_safeAddress",
          "type": "address"
        }
      ],
      "name": "updatePodState",
      "outputs": [],
      "stateMutability": "nonpayable",
      "type": "function"
    }
  ],
  "transactionHash": "0x70ee598b2a6759f9089c467d1f79c8cb3494eda7538943e4d96f9d902327d224",
  "args": [
    "0xF071d42DD65CAa10c7C199745c8DEB7E06F8ECda",
    "0x5207cB90E7CEF18fFc2307Ba0f4b634F1561C361",
    "0xa6B71E26C5e0845f74c812102Ca7114b6a896AB2",
    "0xd9Db270c1B5E3Bd161E8c8503c55cEABeE709552",
    "0xB1F58c804c977104C9Cd650b5988a3F0eCE93FC7"
  ],
  "solcInputHash": "2d5dcd053b59c33bb5368b158a104ff4",
  "bytecode": "0x6101006040523480156200001257600080fd5b506040516200305738038062003057833981016040819052620000359162000289565b6001600160601b0319606084811b821660805283901b1660a052620000616200005b3390565b6200021c565b6001600160a01b038516620000af5760405162461bcd60e51b815260206004820152600f60248201526e496e76616c6964206164647265737360881b60448201526064015b60405180910390fd5b6001600160a01b038416620000f95760405162461bcd60e51b815260206004820152600f60248201526e496e76616c6964206164647265737360881b6044820152606401620000a6565b6001600160a01b038316620001435760405162461bcd60e51b815260206004820152600f60248201526e496e76616c6964206164647265737360881b6044820152606401620000a6565b6001600160a01b0382166200018d5760405162461bcd60e51b815260206004820152600f60248201526e496e76616c6964206164647265737360881b6044820152606401620000a6565b6001600160a01b038116620001d75760405162461bcd60e51b815260206004820152600f60248201526e496e76616c6964206164647265737360881b6044820152606401620000a6565b606094851b6001600160601b031990811660c0529390941b90921660e0525050600180546001600160a01b0319166001600160a01b03909216919091179055620002f9565b600080546001600160a01b038381166001600160a01b0319831681178455604051919092169283917f8be0079c531659141344cd1fd0a4f28419497f9722a3daafe3b4186f6b6457e09190a35050565b80516001600160a01b03811681146200028457600080fd5b919050565b600080600080600060a08688031215620002a257600080fd5b620002ad866200026c565b9450620002bd602087016200026c565b9350620002cd604087016200026c565b9250620002dd606087016200026c565b9150620002ed608087016200026c565b90509295509295909350565b60805160601c60a05160601c60c05160601c60e05160601c612ce762000370600039600081816103a00152818161087e0152610d930152600081816102bc01528181610f6301528181611060015261174d01526000818161037901526115b80152600081816103c7015261158b0152612ce76000f3fe608060405234801561001057600080fd5b50600436106101ae5760003560e01c80638d092f5d116100ee578063c7e2a4fc11610097578063e1fc2cc111610071578063e1fc2cc11461043f578063f0f39f5d14610452578063f2fde38b14610465578063fe258da71461047857600080fd5b8063c7e2a4fc146103e9578063cf00cec91461040c578063d5a844911461042c57600080fd5b8063b06a4120116100c8578063b06a412014610374578063bbc4541b1461039b578063be5405d2146103c257600080fd5b80638d092f5d146103275780638da5cb5b14610350578063afe5c8ff1461036157600080fd5b8063514648bb1161015b57806362067cd11161013557806362067cd1146102f1578063715018a61461030457806374d4f6d01461030c578063827be3cc1461031f57600080fd5b8063514648bb146102a45780635cb54384146102b7578063610b5925146102de57600080fd5b806337c591fa1161018c57806337c591fa1461022d578063436f8d031461025b5780634a9b5db71461029c57600080fd5b806326a13d30146101b35780632c8cde8214610205578063346e5c481461021a575b600080fd5b6101ef6040518060400160405280601681526020017f64656c656761746553657475702861646472657373290000000000000000000081525081565b6040516101fc9190612ad8565b60405180910390f35b610218610213366004612780565b61048b565b005b6102186102283660046128c2565b6104ae565b61024d61023b36600461255e565b60026020526000908152604090205481565b6040519081526020016101fc565b610284610269366004612890565b6004602052600090815260409020546001600160a01b031681565b6040516001600160a01b0390911681526020016101fc565b6101ef610653565b6102186102b2366004612690565b61066f565b6102847f000000000000000000000000000000000000000000000000000000000000000081565b6102186102ec36600461255e565b61080a565b6102186102ff3660046128e7565b610821565b610218610a81565b61021861031a36600461255e565b610ae7565b6101ef610b3c565b610284610335366004612890565b6003602052600090815260409020546001600160a01b031681565b6000546001600160a01b0316610284565b600154610284906001600160a01b031681565b6102847f000000000000000000000000000000000000000000000000000000000000000081565b6102847f000000000000000000000000000000000000000000000000000000000000000081565b6102847f000000000000000000000000000000000000000000000000000000000000000081565b6103fc6103f736600461255e565b610b58565b60405190151581526020016101fc565b61041f61041a36600461255e565b610bf1565b6040516101fc9190612a2e565b61021861043a36600461255e565b610c68565b61021861044d3660046128e7565b610d2c565b6102186104603660046125d1565b611055565b61021861047336600461255e565b6112b8565b6103fc610486366004612598565b611397565b60006104978686611434565b90506104a686828686866116b2565b505050505050565b6000828152600460209081526040808320546003909252909120546001600160a01b039182169116806105285760405162461bcd60e51b815260206004820152601160248201527f506f6420646f65736e277420657869737400000000000000000000000000000060448201526064015b60405180910390fd5b6001600160a01b03821661059357336001600160a01b0382161461058e5760405162461bcd60e51b815260206004820152601b60248201527f4f6e6c7920736166652063616e20616464206e65772061646d696e0000000000604482015260640161051f565b6105eb565b336001600160a01b038316146105eb5760405162461bcd60e51b815260206004820152601b60248201527f4f6e6c792061646d696e2063616e207570646174652061646d696e0000000000604482015260640161051f565b60008481526004602090815260409182902080546001600160a01b0319166001600160a01b0387169081179091558251878152918201527ffef38cfc44da305e6203142455e0a2b129109e8fd7b40914acff6874f170e3df910160405180910390a150505050565b6040518060800160405280605a8152602001612c12605a913981565b6001600160a01b0383166106c55760405162461bcd60e51b815260206004820152601460248201527f696e76616c696420736166652061646472657373000000000000000000000000604482015260640161051f565b6001600160a01b0383166000908152600260205260409020541561072b5760405162461bcd60e51b815260206004820152601360248201527f7361666520616c726561647920696e2075736500000000000000000000000000604482015260640161051f565b61073483610b58565b6107805760405162461bcd60e51b815260206004820152601b60248201527f73616665206d6f64756c65206d75737420626520656e61626c65640000000000604482015260640161051f565b61078a8333611397565b8061079d5750336001600160a01b038416145b6107e95760405162461bcd60e51b815260206004820152601d60248201527f63616c6c6572206d7573742062652073616665206f72206d656d626572000000604482015260640161051f565b60006107f484610bf1565b905061080381858786866116b2565b5050505050565b6001600160a01b0381161561081e57600080fd5b50565b6001600160a01b0381166108695760405162461bcd60e51b815260206004820152600f60248201526e496e76616c6964206164647265737360881b604482015260640161051f565b60405163c3c5a54760e01b81523360048201527f00000000000000000000000000000000000000000000000000000000000000006001600160a01b03169063c3c5a5479060240160206040518083038186803b1580156108c857600080fd5b505afa1580156108dc573d6000803e3d6000fd5b505050506040513d601f19601f82011682018060405250810190610900919061286e565b61094c5760405162461bcd60e51b815260206004820152601960248201527f436f6e74726f6c6c6572206e6f74207265676973746572656400000000000000604482015260640161051f565b6000838152600460205260409020546001600160a01b031615801561098657506000838152600360205260409020546001600160a01b0316155b80156109a857506001600160a01b038116600090815260026020526040902054155b6109f45760405162461bcd60e51b815260206004820152601260248201527f506f6420616c7265616479206578697374730000000000000000000000000000604482015260640161051f565b600083815260046020908152604080832080546001600160a01b038781166001600160a01b03199283168117909355600385528386208054918816919092168117909155845260028352928190208690558051868152918201929092527ffef38cfc44da305e6203142455e0a2b129109e8fd7b40914acff6874f170e3df910160405180910390a1505050565b6000546001600160a01b03163314610adb5760405162461bcd60e51b815260206004820181905260248201527f4f776e61626c653a2063616c6c6572206973206e6f7420746865206f776e6572604482015260640161051f565b610ae56000611988565b565b60405163610b592560e01b81526001600160a01b0382166004820152309063610b592590602401600060405180830381600087803b158015610b2857600080fd5b505af1158015610803573d6000803e3d6000fd5b604051806080016040528060468152602001612c6c6046913981565b6040517f2d9ad53d0000000000000000000000000000000000000000000000000000000081523060048201526000906001600160a01b03831690632d9ad53d9060240160206040518083038186803b158015610bb357600080fd5b505afa158015610bc7573d6000803e3d6000fd5b505050506040513d601f19601f82011682018060405250810190610beb919061286e565b92915050565b6060816001600160a01b031663a0e67e2b6040518163ffffffff1660e01b815260040160006040518083038186803b158015610c2c57600080fd5b505afa158015610c40573d6000803e3d6000fd5b505050506040513d6000823e601f3d908101601f19168201604052610beb91908101906126fc565b6000546001600160a01b03163314610cc25760405162461bcd60e51b815260206004820181905260248201527f4f776e61626c653a2063616c6c6572206973206e6f7420746865206f776e6572604482015260640161051f565b6001600160a01b038116610d0a5760405162461bcd60e51b815260206004820152600f60248201526e496e76616c6964206164647265737360881b604482015260640161051f565b600180546001600160a01b0319166001600160a01b0392909216919091179055565b6001600160a01b038216610d745760405162461bcd60e51b815260206004820152600f60248201526e496e76616c6964206164647265737360881b604482015260640161051f565b60405163c3c5a54760e01b81526001600160a01b0383811660048301527f0000000000000000000000000000000000000000000000000000000000000000169063c3c5a5479060240160206040518083038186803b158015610dd557600080fd5b505afa158015610de9573d6000803e3d6000fd5b505050506040513d601f19601f82011682018060405250810190610e0d919061286e565b610e595760405162461bcd60e51b815260206004820152601960248201527f436f6e74726f6c6c6572206e6f74207265676973746572656400000000000000604482015260640161051f565b6000838152600460209081526040808320546003909252909120546001600160a01b03918216911633821480610e975750336001600160a01b038216145b610ee35760405162461bcd60e51b815260206004820152601360248201527f55736572206e6f7420617574686f72697a656400000000000000000000000000604482015260640161051f565b600085815260046020818152604080842080546001600160a01b031990811690915560038352818520805490911690556001600160a01b03858116855260029092528084209390935591517f82786654000000000000000000000000000000000000000000000000000000008152908101879052858216602482015285917f00000000000000000000000000000000000000000000000000000000000000001690638278665490604401600060405180830381600087803b158015610fa757600080fd5b505af1158015610fbb573d6000803e3d6000fd5b50505050610fca8286866119d8565b6040517f62067cd1000000000000000000000000000000000000000000000000000000008152600481018790526001600160a01b03848116602483015283811660448301528216906362067cd190606401600060405180830381600087803b15801561103557600080fd5b505af1158015611049573d6000803e3d6000fd5b50505050505050505050565b336001600160a01b037f000000000000000000000000000000000000000000000000000000000000000016146110cd5760405162461bcd60e51b815260206004820152600e60248201527f4e6f7420417574686f72697a6564000000000000000000000000000000000000604482015260640161051f565b6001600160a01b038616301480156111025750600160ff16816000815181106110f8576110f8612bd0565b016020015160f81c145b1561110c576104a6565b60005b83518110156112af57600084828151811061112c5761112c612bd0565b60209081029190910181015160008181526003835260408082205460049094529020549092506001600160a01b03918216919081169089166111f657816001600160a01b03168a6001600160a01b031614806111995750806001600160a01b03168a6001600160a01b0316145b806111ac57506001600160a01b038a1630145b6111e75760405162461bcd60e51b815260206004820152600c60248201526b139bc8149d5b195cc814d95d60a21b604482015260640161051f565b6111f18883611d48565b611298565b6001600160a01b03881661128d57816001600160a01b03168a6001600160a01b031614806112355750806001600160a01b03168a6001600160a01b0316145b8061124857506001600160a01b038a1630145b6112835760405162461bcd60e51b815260206004820152600c60248201526b139bc8149d5b195cc814d95d60a21b604482015260640161051f565b6111f18983611ef9565b6112988989846121d5565b5050506001816112a89190612b40565b905061110f565b50505050505050565b6000546001600160a01b031633146113125760405162461bcd60e51b815260206004820181905260248201527f4f776e61626c653a2063616c6c6572206973206e6f7420746865206f776e6572604482015260640161051f565b6001600160a01b03811661138e5760405162461bcd60e51b815260206004820152602660248201527f4f776e61626c653a206e6577206f776e657220697320746865207a65726f206160448201527f6464726573730000000000000000000000000000000000000000000000000000606482015260840161051f565b61081e81611988565b6040517f2f54bf6e0000000000000000000000000000000000000000000000000000000081526001600160a01b03828116600483015260009190841690632f54bf6e9060240160206040518083038186803b1580156113f557600080fd5b505afa158015611409573d6000803e3d6000fd5b505050506040513d601f19601f8201168201806040525081019061142d919061286e565b9392505050565b604080518082018252601681527f64656c656761746553657475702861646472657373290000000000000000000060208201529051306024820152600091829160440160408051601f19818403018152908290529161149291612999565b60405180910390206001600160e01b0319166020820180516001600160e01b03838183161783525050505090506000604051806080016040528060468152602001612c6c60469139858530856000806000806040516024016114fb989796959493929190612a6f565b60408051601f19818403018152908290529161151691612999565b60408051918290039091206020830180516001600160e01b03167fffffffff00000000000000000000000000000000000000000000000000000000909216919091179052517f61b69abd0000000000000000000000000000000000000000000000000000000081529091506001600160a01b037f000000000000000000000000000000000000000000000000000000000000000016906361b69abd906115e2907f00000000000000000000000000000000000000000000000000000000000000009085906004016129b5565b602060405180830381600087803b1580156115fc57600080fd5b505af192505050801561162c575060408051601f3d908101601f191682019092526116299181019061257b565b60015b6116a8573d80801561165a576040519150601f19603f3d011682016040523d82523d6000602084013e61165f565b606091505b5060405162461bcd60e51b815260206004820152601d60248201527f4372656174652050726f787920576974682044617461204661696c6564000000604482015260640161051f565b9250610beb915050565b604080516001808252818301909252600091602082018180368337019050509050600160f81b816000815181106116eb576116eb612bd0565b60200101907effffffffffffffffffffffffffffffffffffffffffffffffffffffffffffff1916908160001a9053506040517f9aa0055e0000000000000000000000000000000000000000000000000000000081526000906001600160a01b037f00000000000000000000000000000000000000000000000000000000000000001690639aa0055e90611784908a908690600401612a41565b602060405180830381600087803b15801561179e57600080fd5b505af11580156117b2573d6000803e3d6000fd5b505050506040513d601f19601f820116820180604052508101906117d691906128a9565b604080518281526001600160a01b03898116602083015288168183015290519192507fd04d9c55c49ed7b3098ec7ff52a43f347e36f88ba52ff5c27cf6ee33e2dde622919081900360600190a1604080518281526001600160a01b03871660208201527ffef38cfc44da305e6203142455e0a2b129109e8fd7b40914acff6874f170e3df910160405180910390a16001600160a01b0385161561189b57600081815260046020526040902080546001600160a01b0319166001600160a01b0387161790555b600081815260036020908152604080832080546001600160a01b0319166001600160a01b038b8116918217909255808552600290935281842085905560015491517f98eed3e900000000000000000000000000000000000000000000000000000000815260048101899052602481019390935233604484015216906398eed3e990606401602060405180830381600087803b15801561193957600080fd5b505af115801561194d573d6000803e3d6000fd5b505050506040513d601f19601f82011682018060405250810190611971919061257b565b905061197e878286612377565b5050505050505050565b600080546001600160a01b038381166001600160a01b0319831681178455604051919092169283917f8be0079c531659141344cd1fd0a4f28419497f9722a3daafe3b4186f6b6457e09190a35050565b6040516001600160a01b038316602482015260009060440160408051601f198184030181529181526020820180516001600160e01b031663610b592560e01b1790525163468721a760e01b81529091506000906001600160a01b0386169063468721a790611a509088908590879082906004016129d7565b602060405180830381600087803b158015611a6a57600080fd5b505af1158015611a7e573d6000803e3d6000fd5b505050506040513d601f19601f82011682018060405250810190611aa2919061286e565b905080611af15760405162461bcd60e51b815260206004820152601a60248201527f4d6967726174696f6e206661696c6564206f6e20656e61626c65000000000000604482015260640161051f565b6040517fcc2f84520000000000000000000000000000000000000000000000000000000081526001600160a01b038481166004830152600160248301526000919087169063cc2f84529060440160006040518083038186803b158015611b5657600080fd5b505afa158015611b6a573d6000803e3d6000fd5b505050506040513d6000823e601f3d908101601f19168201604052611b929190810190612739565b509050306001600160a01b031681600081518110611bb257611bb2612bd0565b60200260200101516001600160a01b031614611c105760405162461bcd60e51b815260206004820152601460248201527f696e636f727265637420707265764d6f64756c65000000000000000000000000604482015260640161051f565b6040516001600160a01b038516602482015230604482015260009060640160408051601f198184030181529181526020820180516001600160e01b03167fe009cfde000000000000000000000000000000000000000000000000000000001790525163468721a760e01b81529091506000906001600160a01b0389169063468721a790611ca7908b908590879082906004016129d7565b602060405180830381600087803b158015611cc157600080fd5b505af1158015611cd5573d6000803e3d6000fd5b505050506040513d601f19601f82011682018060405250810190611cf9919061286e565b90508061197e5760405162461bcd60e51b815260206004820152601b60248201527f4d6967726174696f6e206661696c6564206f6e2064697361626c650000000000604482015260640161051f565b6000816001600160a01b031663e75235b86040518163ffffffff1660e01b8152600401602060405180830381600087803b158015611d8557600080fd5b505af1158015611d99573d6000803e3d6000fd5b505050506040513d601f19601f82011682018060405250810190611dbd91906128a9565b6040516001600160a01b03851660248201526044810182905290915060009060640160408051601f198184030181529181526020820180516001600160e01b03167f0d582f13000000000000000000000000000000000000000000000000000000001790525163468721a760e01b81529091506000906001600160a01b0385169063468721a790611e589087908590879082906004016129d7565b602060405180830381600087803b158015611e7257600080fd5b505af1158015611e86573d6000803e3d6000fd5b505050506040513d601f19601f82011682018060405250810190611eaa919061286e565b9050806108035760405162461bcd60e51b815260206004820152601960248201527f4d6f64756c65205472616e73616374696f6e204661696c656400000000000000604482015260640161051f565b6000816001600160a01b031663e75235b86040518163ffffffff1660e01b8152600401602060405180830381600087803b158015611f3657600080fd5b505af1158015611f4a573d6000803e3d6000fd5b505050506040513d601f19601f82011682018060405250810190611f6e91906128a9565b90506000826001600160a01b031663a0e67e2b6040518163ffffffff1660e01b815260040160006040518083038186803b158015611fab57600080fd5b505afa158015611fbf573d6000803e3d6000fd5b505050506040513d6000823e601f3d908101601f19168201604052611fe791908101906126fc565b90506000805b825181101561207057856001600160a01b031683828151811061201257612012612bd0565b60200260200101516001600160a01b0316141561205e5780612037576001915061205e565b82612043600183612b58565b8151811061205357612053612bd0565b602002602001015191505b8061206881612b9f565b915050611fed565b5082600183516120809190612b58565b101561209457612091600184612b58565b92505b6040516001600160a01b038083166024830152861660448201526064810184905260009060840160408051601f198184030181529181526020820180516001600160e01b03167ff8dc5dd9000000000000000000000000000000000000000000000000000000001790525163468721a760e01b81529091506000906001600160a01b0387169063468721a7906121349089908590879082906004016129d7565b602060405180830381600087803b15801561214e57600080fd5b505af1158015612162573d6000803e3d6000fd5b505050506040513d601f19601f82011682018060405250810190612186919061286e565b9050806112af5760405162461bcd60e51b815260206004820152601960248201527f4d6f64756c65205472616e73616374696f6e204661696c656400000000000000604482015260640161051f565b6000816001600160a01b031663a0e67e2b6040518163ffffffff1660e01b815260040160006040518083038186803b15801561221057600080fd5b505afa158015612224573d6000803e3d6000fd5b505050506040513d6000823e601f3d908101601f1916820160405261224c91908101906126fc565b90506000805b82518110156122d557856001600160a01b031683828151811061227757612277612bd0565b60200260200101516001600160a01b031614156122c3578061229c57600191506122c3565b826122a8600183612b58565b815181106122b8576122b8612bd0565b602002602001015191505b806122cd81612b9f565b915050612252565b506040516001600160a01b03808316602483015280871660448301528516606482015260009060840160408051601f198184030181529181526020820180516001600160e01b03167fe318b52b000000000000000000000000000000000000000000000000000000001790525163468721a760e01b81529091506000906001600160a01b0386169063468721a7906121349088908590879082906004016129d7565b60008160405160240161238a9190612ad8565b60408051601f198184030181529181526020820180516001600160e01b03167fc47f0027000000000000000000000000000000000000000000000000000000001790525163468721a760e01b81529091506000906001600160a01b0386169063468721a790611e589087908590879082906004016129d7565b803561240e81612bfc565b919050565b600082601f83011261242457600080fd5b8151602061243961243483612b1c565b612aeb565b80838252828201915082860187848660051b890101111561245957600080fd5b60005b8581101561248157815161246f81612bfc565b8452928401929084019060010161245c565b5090979650505050505050565b600082601f83011261249f57600080fd5b813560206124af61243483612b1c565b80838252828201915082860187848660051b89010111156124cf57600080fd5b60005b85811015612481578135845292840192908401906001016124d2565b600082601f8301126124ff57600080fd5b813567ffffffffffffffff81111561251957612519612be6565b61252c601f8201601f1916602001612aeb565b81815284602083860101111561254157600080fd5b816020850160208301376000918101602001919091529392505050565b60006020828403121561257057600080fd5b813561142d81612bfc565b60006020828403121561258d57600080fd5b815161142d81612bfc565b600080604083850312156125ab57600080fd5b82356125b681612bfc565b915060208301356125c681612bfc565b809150509250929050565b60008060008060008060c087890312156125ea57600080fd5b86356125f581612bfc565b9550602087013561260581612bfc565b9450604087013561261581612bfc565b9350606087013567ffffffffffffffff8082111561263257600080fd5b61263e8a838b0161248e565b9450608089013591508082111561265457600080fd5b6126608a838b0161248e565b935060a089013591508082111561267657600080fd5b5061268389828a016124ee565b9150509295509295509295565b600080600080608085870312156126a657600080fd5b84356126b181612bfc565b935060208501356126c181612bfc565b925060408501359150606085013567ffffffffffffffff8111156126e457600080fd5b6126f0878288016124ee565b91505092959194509250565b60006020828403121561270e57600080fd5b815167ffffffffffffffff81111561272557600080fd5b61273184828501612413565b949350505050565b6000806040838503121561274c57600080fd5b825167ffffffffffffffff81111561276357600080fd5b61276f85828601612413565b92505060208301516125c681612bfc565b600080600080600060a0868803121561279857600080fd5b853567ffffffffffffffff808211156127b057600080fd5b818801915088601f8301126127c457600080fd5b813560206127d461243483612b1c565b8083825282820191508286018d848660051b89010111156127f457600080fd5b600096505b8487101561282057803561280c81612bfc565b8352600196909601959183019183016127f9565b509950508901359650612837905060408901612403565b945060608801359350608088013591508082111561285457600080fd5b50612861888289016124ee565b9150509295509295909350565b60006020828403121561288057600080fd5b8151801515811461142d57600080fd5b6000602082840312156128a257600080fd5b5035919050565b6000602082840312156128bb57600080fd5b5051919050565b600080604083850312156128d557600080fd5b8235915060208301356125c681612bfc565b6000806000606084860312156128fc57600080fd5b83359250602084013561290e81612bfc565b9150604084013561291e81612bfc565b809150509250925092565b600081518084526020808501945080840160005b838110156129625781516001600160a01b03168752958201959082019060010161293d565b509495945050505050565b60008151808452612985816020860160208601612b6f565b601f01601f19169290920160200192915050565b600082516129ab818460208701612b6f565b9190910192915050565b6001600160a01b0383168152604060208201526000612731604083018461296d565b6001600160a01b03851681528360208201526080604082015260006129ff608083018561296d565b905060028310612a1f57634e487b7160e01b600052602160045260246000fd5b82606083015295945050505050565b60208152600061142d6020830184612929565b604081526000612a546040830185612929565b8281036020840152612a66818561296d565b95945050505050565b6000610100808352612a838184018c612929565b90508960208401526001600160a01b03808a1660408501528382036060850152612aad828a61296d565b978116608085015295861660a0840152505060c081019290925290911660e090910152949350505050565b60208152600061142d602083018461296d565b604051601f8201601f1916810167ffffffffffffffff81118282101715612b1457612b14612be6565b604052919050565b600067ffffffffffffffff821115612b3657612b36612be6565b5060051b60200190565b60008219821115612b5357612b53612bba565b500190565b600082821015612b6a57612b6a612bba565b500390565b60005b83811015612b8a578181015183820152602001612b72565b83811115612b99576000848401525b50505050565b6000600019821415612bb357612bb3612bba565b5060010190565b634e487b7160e01b600052601160045260246000fd5b634e487b7160e01b600052603260045260246000fd5b634e487b7160e01b600052604160045260246000fd5b6001600160a01b038116811461081e57600080fdfe657865635472616e73616374696f6e28616464726573732c75696e743235362c62797465732c75696e74382c75696e743235362c75696e743235362c75696e743235362c616464726573732c616464726573732c627974657329736574757028616464726573735b5d2c75696e743235362c616464726573732c62797465732c616464726573732c616464726573732c75696e743235362c6164647265737329a264697066735822122074af06f2688e502a9dd1799e07b0a29b9e0c3f0b92c58503c19364ed1cf050ea64736f6c63430008070033",
  "devdoc": {
    "kind": "dev",
    "methods": {
      "beforeTokenTransfer(address,address,address,uint256[],uint256[],bytes)": {
        "params": {
          "data": "Passes a flag for an initial creation event",
          "from": "The address sending the membership token",
          "ids": "An array of membership token ids to be transfered",
          "operator": "The address that initiated the action",
          "to": "The address recieveing the membership token"
        }
      },
      "constructor": {
        "details": "Will instantiate safe teller with gnosis master and proxy addresses",
        "params": {
          "_controllerRegistry": "The address of the ControllerRegistry contract",
          "_gnosisMasterAddress": "The gnosis master address",
          "_memberToken": "The address of the MemberToken contract",
          "_proxyFactoryAddress": "The proxy factory address"
        }
      },
      "createPod(address[],uint256,address,bytes32,string)": {
        "params": {
          "_admin": "The address of the pod admin",
          "_ensString": "string of pod ens name (i.e.'mypod.pod.xyz')",
          "_label": "label hash of pod name (i.e labelhash('mypod'))",
          "_members": "The addresses of the members of the pod",
          "threshold": "The number of members that are required to sign a transaction"
        }
      },
      "createPodWithSafe(address,address,bytes32,string)": {
        "details": "Used to create a pod with an existing safeWill automatically distribute membership NFTs to current safe members",
        "params": {
          "_admin": "The address of the pod admin",
          "_ensString": "string of pod ens name (i.e.'mypod.pod.xyz')",
          "_label": "label hash of pod name (i.e labelhash('mypod'))",
          "_safe": "The address of existing safe"
        }
      },
      "migratePodController(uint256,address,address)": {
        "details": "This will nullify all pod state on this controllerUpdate state on _newControllerUpdate controller to _newController in Safe and MemberToken",
        "params": {
          "_newController": "The address of the new pod controller",
          "_podId": "The id number of the pod",
          "_prevModule": "The module that points to the orca module in the safe's ModuleManager linked list"
        }
      },
      "owner()": {
        "details": "Returns the address of the current owner."
      },
      "renounceOwnership()": {
        "details": "Leaves the contract without owner. It will not be possible to call `onlyOwner` functions anymore. Can only be called by the current owner. NOTE: Renouncing ownership will leave the contract without an owner, thereby removing any functionality that is only available to the owner."
      },
      "transferOwnership(address)": {
        "details": "Transfers ownership of the contract to a new account (`newOwner`). Can only be called by the current owner."
      },
      "updatePodAdmin(uint256,address)": {
        "params": {
          "_newAdmin": "The address of the new pod admin",
          "_podId": "The id number of the pod"
        }
      },
      "updatePodState(uint256,address,address)": {
        "details": "This is called by another version of controller to migrate a pod to this versionWill only accept calls from registered controllersCan only be called once.",
        "params": {
          "_podAdmin": "The address of the pod admin",
          "_podId": "The id number of the pod",
          "_safeAddress": "The address of the safe"
        }
      }
    },
    "version": 1
  },
  "userdoc": {
    "kind": "user",
    "methods": {},
    "version": 1
  },
  "storageLayout": {
    "storage": [
      {
        "astId": 775,
        "contract": "contracts/Controller.sol:Controller",
        "label": "_owner",
        "offset": 0,
        "slot": "0",
        "type": "t_address"
      },
      {
        "astId": 3562,
        "contract": "contracts/Controller.sol:Controller",
        "label": "podEnsRegistrar",
        "offset": 0,
        "slot": "1",
        "type": "t_contract(IPodEnsRegistrar)5475"
      },
      {
        "astId": 3566,
        "contract": "contracts/Controller.sol:Controller",
        "label": "safeToPodId",
        "offset": 0,
        "slot": "2",
        "type": "t_mapping(t_address,t_uint256)"
      },
      {
        "astId": 3570,
        "contract": "contracts/Controller.sol:Controller",
        "label": "podIdToSafe",
        "offset": 0,
        "slot": "3",
        "type": "t_mapping(t_uint256,t_address)"
      },
      {
        "astId": 3574,
        "contract": "contracts/Controller.sol:Controller",
        "label": "podAdmin",
        "offset": 0,
        "slot": "4",
        "type": "t_mapping(t_uint256,t_address)"
      }
    ],
    "types": {
      "t_address": {
        "encoding": "inplace",
        "label": "address",
        "numberOfBytes": "20"
      },
      "t_contract(IPodEnsRegistrar)5475": {
        "encoding": "inplace",
        "label": "contract IPodEnsRegistrar",
        "numberOfBytes": "20"
      },
      "t_mapping(t_address,t_uint256)": {
        "encoding": "mapping",
        "key": "t_address",
        "label": "mapping(address => uint256)",
        "numberOfBytes": "32",
        "value": "t_uint256"
      },
      "t_mapping(t_uint256,t_address)": {
        "encoding": "mapping",
        "key": "t_uint256",
        "label": "mapping(uint256 => address)",
        "numberOfBytes": "32",
        "value": "t_address"
      },
      "t_uint256": {
        "encoding": "inplace",
        "label": "uint256",
        "numberOfBytes": "32"
      }
    }
  }
}