{
  "address": "0x5207cB90E7CEF18fFc2307Ba0f4b634F1561C361",
  "abi": [
    {
      "anonymous": false,
      "inputs": [
        {
          "indexed": false,
          "internalType": "address",
          "name": "newController",
          "type": "address"
        }
      ],
      "name": "ControllerRegister",
      "type": "event"
    },
    {
      "anonymous": false,
      "inputs": [
        {
          "indexed": false,
          "internalType": "address",
          "name": "newController",
          "type": "address"
        }
      ],
      "name": "ControllerRemove",
      "type": "event"
    },
    {
      "anonymous": false,
      "inputs": [
        {
          "indexed": true,
          "internalType": "address",
          "name": "previousOwner",
          "type": "address"
        },
        {
          "indexed": true,
          "internalType": "address",
          "name": "newOwner",
          "type": "address"
        }
      ],
      "name": "OwnershipTransferred",
      "type": "event"
    },
    {
      "inputs": [
        {
          "internalType": "address",
          "name": "",
          "type": "address"
        }
      ],
      "name": "controllerRegistry",
      "outputs": [
        {
          "internalType": "bool",
          "name": "",
          "type": "bool"
        }
      ],
      "stateMutability": "view",
      "type": "function"
    },
    {
      "inputs": [
        {
          "internalType": "address",
          "name": "_controller",
          "type": "address"
        }
      ],
      "name": "isRegistered",
      "outputs": [
        {
          "internalType": "bool",
          "name": "",
          "type": "bool"
        }
      ],
      "stateMutability": "view",
      "type": "function"
    },
    {
      "inputs": [],
      "name": "owner",
      "outputs": [
        {
          "internalType": "address",
          "name": "",
          "type": "address"
        }
      ],
      "stateMutability": "view",
      "type": "function"
    },
    {
      "inputs": [
        {
          "internalType": "address",
          "name": "_controller",
          "type": "address"
        }
      ],
      "name": "registerController",
      "outputs": [],
      "stateMutability": "nonpayable",
      "type": "function"
    },
    {
      "inputs": [
        {
          "internalType": "address",
          "name": "_controller",
          "type": "address"
        }
      ],
      "name": "removeController",
      "outputs": [],
      "stateMutability": "nonpayable",
      "type": "function"
    },
    {
      "inputs": [],
      "name": "renounceOwnership",
      "outputs": [],
      "stateMutability": "nonpayable",
      "type": "function"
    },
    {
      "inputs": [
        {
          "internalType": "address",
          "name": "newOwner",
          "type": "address"
        }
      ],
      "name": "transferOwnership",
      "outputs": [],
      "stateMutability": "nonpayable",
      "type": "function"
    }
  ],
  "transactionHash": "0x126c50e86850f4d4bb0c5a100bc1572d754043c730dd0c820a7b15201cc97fc5",
  "args": [],
  "solcInputHash": "2d5dcd053b59c33bb5368b158a104ff4",
  "bytecode": "0x608060405234801561001057600080fd5b5061001a3361001f565b61006f565b600080546001600160a01b038381166001600160a01b0319831681178455604051919092169283917f8be0079c531659141344cd1fd0a4f28419497f9722a3daafe3b4186f6b6457e09190a35050565b61057f8061007e6000396000f3fe608060405234801561001057600080fd5b506004361061007d5760003560e01c8063c3c5a5471161005b578063c3c5a547146100df578063d91ae8c21461010b578063f2fde38b1461011e578063f6a74ed71461013157600080fd5b806301df60a414610082578063715018a6146100ba5780638da5cb5b146100c4575b600080fd5b6100a5610090366004610519565b60016020526000908152604090205460ff1681565b60405190151581526020015b60405180910390f35b6100c2610144565b005b6000546040516001600160a01b0390911681526020016100b1565b6100a56100ed366004610519565b6001600160a01b031660009081526001602052604090205460ff1690565b6100c2610119366004610519565b6101af565b6100c261012c366004610519565b6102c2565b6100c261013f366004610519565b6103a4565b6000546001600160a01b031633146101a35760405162461bcd60e51b815260206004820181905260248201527f4f776e61626c653a2063616c6c6572206973206e6f7420746865206f776e657260448201526064015b60405180910390fd5b6101ad60006104b1565b565b6000546001600160a01b031633146102095760405162461bcd60e51b815260206004820181905260248201527f4f776e61626c653a2063616c6c6572206973206e6f7420746865206f776e6572604482015260640161019a565b6001600160a01b03811661025f5760405162461bcd60e51b815260206004820152600f60248201527f496e76616c696420616464726573730000000000000000000000000000000000604482015260640161019a565b6040516001600160a01b03821681527f9713ba9c15f2a00e5eec60574362fa39c45d80fc1e6a0d97b6b7593eed4b25ed9060200160405180910390a16001600160a01b03166000908152600160208190526040909120805460ff19169091179055565b6000546001600160a01b0316331461031c5760405162461bcd60e51b815260206004820181905260248201527f4f776e61626c653a2063616c6c6572206973206e6f7420746865206f776e6572604482015260640161019a565b6001600160a01b0381166103985760405162461bcd60e51b815260206004820152602660248201527f4f776e61626c653a206e6577206f776e657220697320746865207a65726f206160448201527f6464726573730000000000000000000000000000000000000000000000000000606482015260840161019a565b6103a1816104b1565b50565b6000546001600160a01b031633146103fe5760405162461bcd60e51b815260206004820181905260248201527f4f776e61626c653a2063616c6c6572206973206e6f7420746865206f776e6572604482015260640161019a565b6001600160a01b0381166104545760405162461bcd60e51b815260206004820152600f60248201527f496e76616c696420616464726573730000000000000000000000000000000000604482015260640161019a565b6040516001600160a01b03821681527f6570671ae1af213b3b25d236e7cd633f016b2433e178e4e9b36a29906d6f7fb39060200160405180910390a16001600160a01b03166000908152600160205260409020805460ff19169055565b600080546001600160a01b038381167fffffffffffffffffffffffff0000000000000000000000000000000000000000831681178455604051919092169283917f8be0079c531659141344cd1fd0a4f28419497f9722a3daafe3b4186f6b6457e09190a35050565b60006020828403121561052b57600080fd5b81356001600160a01b038116811461054257600080fd5b939250505056fea2646970667358221220e547ff06193ed0af3669a0a4d936021b2643cf4df7dc982d0c742192e1ba402664736f6c63430008070033",
  "devdoc": {
    "kind": "dev",
    "methods": {
      "isRegistered(address)": {
        "params": {
          "_controller": "The address to check if registered as a controller"
        },
        "returns": {
          "_0": "Boolean representing if the address is a registered as a controller"
        }
      },
      "owner()": {
        "details": "Returns the address of the current owner."
      },
      "registerController(address)": {
        "params": {
          "_controller": "The address to register as a controller"
        }
      },
      "removeController(address)": {
        "params": {
          "_controller": "The address to remove as a controller"
        }
      },
      "renounceOwnership()": {
        "details": "Leaves the contract without owner. It will not be possible to call `onlyOwner` functions anymore. Can only be called by the current owner. NOTE: Renouncing ownership will leave the contract without an owner, thereby removing any functionality that is only available to the owner."
      },
      "transferOwnership(address)": {
        "details": "Transfers ownership of the contract to a new account (`newOwner`). Can only be called by the current owner."
      }
    },
    "version": 1
  },
  "userdoc": {
    "kind": "user",
    "methods": {},
    "version": 1
  },
  "storageLayout": {
    "storage": [
      {
        "astId": 775,
        "contract": "contracts/ControllerRegistry.sol:ControllerRegistry",
        "label": "_owner",
        "offset": 0,
        "slot": "0",
        "type": "t_address"
      },
      {
        "astId": 4299,
        "contract": "contracts/ControllerRegistry.sol:ControllerRegistry",
        "label": "controllerRegistry",
        "offset": 0,
        "slot": "1",
        "type": "t_mapping(t_address,t_bool)"
      }
    ],
    "types": {
      "t_address": {
        "encoding": "inplace",
        "label": "address",
        "numberOfBytes": "20"
      },
      "t_bool": {
        "encoding": "inplace",
        "label": "bool",
        "numberOfBytes": "1"
      },
      "t_mapping(t_address,t_bool)": {
        "encoding": "mapping",
        "key": "t_address",
        "label": "mapping(address => bool)",
        "numberOfBytes": "32",
        "value": "t_bool"
      }
    }
  }
}