{
  "address": "0xC3973B0A9D591F28C508DB7669ab2AEA465ce585",
  "abi": [
    {
      "inputs": [
        {
          "internalType": "address",
          "name": "_memberToken",
          "type": "address"
        },
        {
          "internalType": "address",
          "name": "_controllerRegistry",
          "type": "address"
        },
        {
          "internalType": "address",
          "name": "_proxyFactoryAddress",
          "type": "address"
        },
        {
          "internalType": "address",
          "name": "_gnosisMasterAddress",
          "type": "address"
        },
        {
          "internalType": "address",
          "name": "_podEnsRegistrar",
          "type": "address"
        },
        {
          "internalType": "address",
          "name": "_fallbackHandlerAddress",
          "type": "address"
        }
      ],
      "stateMutability": "nonpayable",
      "type": "constructor"
    },
    {
      "anonymous": false,
      "inputs": [
        {
          "indexed": false,
          "internalType": "uint256",
          "name": "podId",
          "type": "uint256"
        },
        {
          "indexed": false,
          "internalType": "address",
          "name": "safe",
          "type": "address"
        },
        {
          "indexed": false,
          "internalType": "address",
          "name": "admin",
          "type": "address"
        },
        {
          "indexed": false,
          "internalType": "string",
          "name": "ensName",
          "type": "string"
        }
      ],
      "name": "CreatePod",
      "type": "event"
    },
    {
      "anonymous": false,
      "inputs": [
        {
          "indexed": false,
          "internalType": "uint256",
          "name": "podId",
          "type": "uint256"
        }
      ],
      "name": "DeregisterPod",
      "type": "event"
    },
    {
      "anonymous": false,
      "inputs": [
        {
          "indexed": true,
          "internalType": "address",
          "name": "previousOwner",
          "type": "address"
        },
        {
          "indexed": true,
          "internalType": "address",
          "name": "newOwner",
          "type": "address"
        }
      ],
      "name": "OwnershipTransferred",
      "type": "event"
    },
    {
      "anonymous": false,
      "inputs": [
        {
          "indexed": false,
          "internalType": "uint256",
          "name": "podId",
          "type": "uint256"
        },
        {
          "indexed": false,
          "internalType": "address",
          "name": "admin",
          "type": "address"
        }
      ],
      "name": "UpdatePodAdmin",
      "type": "event"
    },
    {
      "inputs": [],
      "name": "ENCODED_SIG_DISABLE_MOD",
      "outputs": [
        {
          "internalType": "bytes4",
          "name": "",
          "type": "bytes4"
        }
      ],
      "stateMutability": "view",
      "type": "function"
    },
    {
      "inputs": [],
      "name": "ENCODED_SIG_ENABLE_MOD",
      "outputs": [
        {
          "internalType": "bytes4",
          "name": "",
          "type": "bytes4"
        }
      ],
      "stateMutability": "view",
      "type": "function"
    },
    {
      "inputs": [],
      "name": "ENCODED_SIG_SET_GUARD",
      "outputs": [
        {
          "internalType": "bytes4",
          "name": "",
          "type": "bytes4"
        }
      ],
      "stateMutability": "view",
      "type": "function"
    },
    {
      "inputs": [],
      "name": "FUNCTION_SIG_ENABLE",
      "outputs": [
        {
          "internalType": "string",
          "name": "",
          "type": "string"
        }
      ],
      "stateMutability": "view",
      "type": "function"
    },
    {
      "inputs": [],
      "name": "FUNCTION_SIG_EXEC",
      "outputs": [
        {
          "internalType": "string",
          "name": "",
          "type": "string"
        }
      ],
      "stateMutability": "view",
      "type": "function"
    },
    {
      "inputs": [],
      "name": "FUNCTION_SIG_SETUP",
      "outputs": [
        {
          "internalType": "string",
          "name": "",
          "type": "string"
        }
      ],
      "stateMutability": "view",
      "type": "function"
    },
    {
      "inputs": [],
      "name": "VERSION",
      "outputs": [
        {
          "internalType": "string",
          "name": "",
          "type": "string"
        }
      ],
      "stateMutability": "view",
      "type": "function"
    },
    {
      "inputs": [
        {
          "internalType": "address",
          "name": "",
          "type": "address"
        }
      ],
      "name": "areModulesLocked",
      "outputs": [
        {
          "internalType": "bool",
          "name": "",
          "type": "bool"
        }
      ],
      "stateMutability": "view",
      "type": "function"
    },
    {
      "inputs": [
        {
          "internalType": "address",
          "name": "operator",
          "type": "address"
        },
        {
          "internalType": "address",
          "name": "from",
          "type": "address"
        },
        {
          "internalType": "address",
          "name": "to",
          "type": "address"
        },
        {
          "internalType": "uint256[]",
          "name": "ids",
          "type": "uint256[]"
        },
        {
          "internalType": "uint256[]",
          "name": "",
          "type": "uint256[]"
        },
        {
          "internalType": "bytes",
          "name": "data",
          "type": "bytes"
        }
      ],
      "name": "beforeTokenTransfer",
      "outputs": [],
      "stateMutability": "nonpayable",
      "type": "function"
    },
    {
      "inputs": [
        {
          "internalType": "bytes32",
          "name": "",
          "type": "bytes32"
        },
        {
          "internalType": "bool",
          "name": "",
          "type": "bool"
        }
      ],
      "name": "checkAfterExecution",
      "outputs": [],
      "stateMutability": "view",
      "type": "function"
    },
    {
      "inputs": [
        {
          "internalType": "address",
          "name": "to",
          "type": "address"
        },
        {
          "internalType": "uint256",
          "name": "value",
          "type": "uint256"
        },
        {
          "internalType": "bytes",
          "name": "data",
          "type": "bytes"
        },
        {
          "internalType": "enum Enum.Operation",
          "name": "operation",
          "type": "uint8"
        },
        {
          "internalType": "uint256",
          "name": "safeTxGas",
          "type": "uint256"
        },
        {
          "internalType": "uint256",
          "name": "baseGas",
          "type": "uint256"
        },
        {
          "internalType": "uint256",
          "name": "gasPrice",
          "type": "uint256"
        },
        {
          "internalType": "address",
          "name": "gasToken",
          "type": "address"
        },
        {
          "internalType": "address payable",
          "name": "refundReceiver",
          "type": "address"
        },
        {
          "internalType": "bytes",
          "name": "signatures",
          "type": "bytes"
        },
        {
          "internalType": "address",
          "name": "msgSender",
          "type": "address"
        }
      ],
      "name": "checkTransaction",
      "outputs": [],
      "stateMutability": "view",
      "type": "function"
    },
    {
      "inputs": [],
      "name": "controllerRegistry",
      "outputs": [
        {
          "internalType": "contract IControllerRegistry",
          "name": "",
          "type": "address"
        }
      ],
      "stateMutability": "view",
      "type": "function"
    },
    {
      "inputs": [
        {
          "internalType": "address[]",
          "name": "_members",
          "type": "address[]"
        },
        {
          "internalType": "uint256",
          "name": "threshold",
          "type": "uint256"
        },
        {
          "internalType": "address",
          "name": "_admin",
          "type": "address"
        },
        {
          "internalType": "bytes32",
          "name": "_label",
          "type": "bytes32"
        },
        {
          "internalType": "string",
          "name": "_ensString",
          "type": "string"
        },
        {
          "internalType": "uint256",
          "name": "expectedPodId",
          "type": "uint256"
        },
        {
          "internalType": "string",
          "name": "_imageUrl",
          "type": "string"
        }
      ],
      "name": "createPod",
      "outputs": [],
      "stateMutability": "nonpayable",
      "type": "function"
    },
    {
      "inputs": [
        {
          "internalType": "address",
          "name": "_admin",
          "type": "address"
        },
        {
          "internalType": "address",
          "name": "_safe",
          "type": "address"
        },
        {
          "internalType": "bytes32",
          "name": "_label",
          "type": "bytes32"
        },
        {
          "internalType": "string",
          "name": "_ensString",
          "type": "string"
        },
        {
          "internalType": "uint256",
          "name": "expectedPodId",
          "type": "uint256"
        },
        {
          "internalType": "string",
          "name": "_imageUrl",
          "type": "string"
        }
      ],
      "name": "createPodWithSafe",
      "outputs": [],
      "stateMutability": "nonpayable",
      "type": "function"
    },
    {
      "inputs": [
        {
          "internalType": "address",
          "name": "_context",
          "type": "address"
        }
      ],
      "name": "delegateSetup",
      "outputs": [],
      "stateMutability": "nonpayable",
      "type": "function"
    },
    {
      "inputs": [
        {
          "internalType": "address",
          "name": "safe",
          "type": "address"
        },
        {
          "internalType": "address",
          "name": "reverseRegistrar",
          "type": "address"
        },
        {
          "internalType": "address",
          "name": "previousModule",
          "type": "address"
        },
        {
          "internalType": "address",
          "name": "module",
          "type": "address"
        }
      ],
      "name": "disableModule",
      "outputs": [],
      "stateMutability": "nonpayable",
      "type": "function"
    },
    {
      "inputs": [
        {
          "internalType": "uint256",
          "name": "podId",
          "type": "uint256"
        },
        {
          "internalType": "bytes32",
          "name": "label",
          "type": "bytes32"
        },
        {
          "internalType": "address",
          "name": "previousModule",
          "type": "address"
        }
      ],
      "name": "ejectSafe",
      "outputs": [],
      "stateMutability": "nonpayable",
      "type": "function"
    },
    {
      "inputs": [
        {
          "internalType": "address",
          "name": "module",
          "type": "address"
        }
      ],
      "name": "enableModule",
      "outputs": [],
      "stateMutability": "nonpayable",
      "type": "function"
    },
    {
      "inputs": [],
      "name": "fallbackHandlerAddress",
      "outputs": [
        {
          "internalType": "address",
          "name": "",
          "type": "address"
        }
      ],
      "stateMutability": "view",
      "type": "function"
    },
    {
      "inputs": [
        {
          "internalType": "address",
          "name": "safe",
          "type": "address"
        }
      ],
      "name": "getSafeMembers",
      "outputs": [
        {
          "internalType": "address[]",
          "name": "",
          "type": "address[]"
        }
      ],
      "stateMutability": "view",
      "type": "function"
    },
    {
      "inputs": [],
      "name": "gnosisMasterAddress",
      "outputs": [
        {
          "internalType": "address",
          "name": "",
          "type": "address"
        }
      ],
      "stateMutability": "view",
      "type": "function"
    },
    {
      "inputs": [
        {
          "internalType": "address",
          "name": "safe",
          "type": "address"
        },
        {
          "internalType": "address",
          "name": "member",
          "type": "address"
        }
      ],
      "name": "isSafeMember",
      "outputs": [
        {
          "internalType": "bool",
          "name": "",
          "type": "bool"
        }
      ],
      "stateMutability": "view",
      "type": "function"
    },
    {
      "inputs": [
        {
          "internalType": "address",
          "name": "safe",
          "type": "address"
        }
      ],
      "name": "isSafeModuleEnabled",
      "outputs": [
        {
          "internalType": "bool",
          "name": "",
          "type": "bool"
        }
      ],
      "stateMutability": "view",
      "type": "function"
    },
    {
      "inputs": [
        {
          "internalType": "uint256",
          "name": "",
          "type": "uint256"
        }
      ],
      "name": "isTransferLocked",
      "outputs": [
        {
          "internalType": "bool",
          "name": "",
          "type": "bool"
        }
      ],
      "stateMutability": "view",
      "type": "function"
    },
    {
      "inputs": [],
      "name": "memberToken",
      "outputs": [
        {
          "internalType": "contract IMemberToken",
          "name": "",
          "type": "address"
        }
      ],
      "stateMutability": "view",
      "type": "function"
    },
    {
      "inputs": [
        {
          "internalType": "uint256",
          "name": "_podId",
          "type": "uint256"
        },
        {
          "internalType": "address",
          "name": "_newController",
          "type": "address"
        },
        {
          "internalType": "address",
          "name": "_prevModule",
          "type": "address"
        }
      ],
      "name": "migratePodController",
      "outputs": [],
      "stateMutability": "nonpayable",
      "type": "function"
    },
    {
      "inputs": [],
      "name": "owner",
      "outputs": [
        {
          "internalType": "address",
          "name": "",
          "type": "address"
        }
      ],
      "stateMutability": "view",
      "type": "function"
    },
    {
      "inputs": [
        {
          "internalType": "uint256",
          "name": "",
          "type": "uint256"
        }
      ],
      "name": "podAdmin",
      "outputs": [
        {
          "internalType": "address",
          "name": "",
          "type": "address"
        }
      ],
      "stateMutability": "view",
      "type": "function"
    },
    {
      "inputs": [],
      "name": "podEnsRegistrar",
      "outputs": [
        {
          "internalType": "contract IPodEnsRegistrar",
          "name": "",
          "type": "address"
        }
      ],
      "stateMutability": "view",
      "type": "function"
    },
    {
      "inputs": [
        {
          "internalType": "uint256",
          "name": "",
          "type": "uint256"
        }
      ],
      "name": "podIdToSafe",
      "outputs": [
        {
          "internalType": "address",
          "name": "",
          "type": "address"
        }
      ],
      "stateMutability": "view",
      "type": "function"
    },
    {
      "inputs": [],
      "name": "proxyFactoryAddress",
      "outputs": [
        {
          "internalType": "address",
          "name": "",
          "type": "address"
        }
      ],
      "stateMutability": "view",
      "type": "function"
    },
    {
      "inputs": [],
      "name": "renounceOwnership",
      "outputs": [],
      "stateMutability": "nonpayable",
      "type": "function"
    },
    {
      "inputs": [
        {
          "internalType": "address",
          "name": "",
          "type": "address"
        }
      ],
      "name": "safeToPodId",
      "outputs": [
        {
          "internalType": "uint256",
          "name": "",
          "type": "uint256"
        }
      ],
      "stateMutability": "view",
      "type": "function"
    },
    {
      "inputs": [
        {
          "internalType": "uint256",
          "name": "_podId",
          "type": "uint256"
        },
        {
          "internalType": "bool",
          "name": "_isLocked",
          "type": "bool"
        }
      ],
      "name": "setPodModuleLock",
      "outputs": [],
      "stateMutability": "nonpayable",
      "type": "function"
    },
    {
      "inputs": [
        {
          "internalType": "uint256",
          "name": "_podId",
          "type": "uint256"
        },
        {
          "internalType": "bool",
          "name": "_isTransferLocked",
          "type": "bool"
        }
      ],
      "name": "setPodTransferLock",
      "outputs": [],
      "stateMutability": "nonpayable",
      "type": "function"
    },
    {
      "inputs": [
        {
          "internalType": "bytes4",
          "name": "interfaceId",
          "type": "bytes4"
        }
      ],
      "name": "supportsInterface",
      "outputs": [
        {
          "internalType": "bool",
          "name": "",
          "type": "bool"
        }
      ],
      "stateMutability": "pure",
      "type": "function"
    },
    {
      "inputs": [
        {
          "internalType": "address",
          "name": "newOwner",
          "type": "address"
        }
      ],
      "name": "transferOwnership",
      "outputs": [],
      "stateMutability": "nonpayable",
      "type": "function"
    },
    {
      "inputs": [
        {
          "internalType": "uint256",
          "name": "_podId",
          "type": "uint256"
        },
        {
          "internalType": "address",
          "name": "_newAdmin",
          "type": "address"
        }
      ],
      "name": "updatePodAdmin",
      "outputs": [],
      "stateMutability": "nonpayable",
      "type": "function"
    },
    {
      "inputs": [
        {
          "internalType": "address",
          "name": "_podEnsRegistrar",
          "type": "address"
        }
      ],
      "name": "updatePodEnsRegistrar",
      "outputs": [],
      "stateMutability": "nonpayable",
      "type": "function"
    },
    {
      "inputs": [
        {
          "internalType": "uint256",
          "name": "_podId",
          "type": "uint256"
        },
        {
          "internalType": "address",
          "name": "_podAdmin",
          "type": "address"
        },
        {
          "internalType": "address",
          "name": "_safeAddress",
          "type": "address"
        }
      ],
      "name": "updatePodState",
      "outputs": [],
      "stateMutability": "nonpayable",
      "type": "function"
    }
  ],
  "transactionHash": "0xadb89fe79c3291c983a2c36b244818921f9e0bd7403c981e59dfe73f32a4501f",
  "args": [
    "0x8DC995523c9c1C6180c50d0CE0733621E63ef8E1",
    "0x0285727ab1A03873e142dfDb940635E15Dd92d18",
    "0xa6B71E26C5e0845f74c812102Ca7114b6a896AB2",
    "0xd9Db270c1B5E3Bd161E8c8503c55cEABeE709552",
    "0x10aD2ddE17f19dC65E51274a7B5f7f0a64BAF325",
    "0xd5D82B6aDDc9027B22dCA772Aa68D5d74cdBdF44"
  ],
  "solcInputHash": "91e63e742fce228bf12c7979a1d3605e",
  "bytecode": "0x6101206040523480156200001257600080fd5b5060405162004a0038038062004a008339810160408190526200003591620002df565b6001600160601b0319606085811b821660805284811b821660a05282901b1660c05262000069620000633390565b62000270565b6001600160a01b038616620000b75760405162461bcd60e51b815260206004820152600f60248201526e496e76616c6964206164647265737360881b60448201526064015b60405180910390fd5b6001600160a01b038516620001015760405162461bcd60e51b815260206004820152600f60248201526e496e76616c6964206164647265737360881b6044820152606401620000ae565b6001600160a01b0384166200014b5760405162461bcd60e51b815260206004820152600f60248201526e496e76616c6964206164647265737360881b6044820152606401620000ae565b6001600160a01b038316620001955760405162461bcd60e51b815260206004820152600f60248201526e496e76616c6964206164647265737360881b6044820152606401620000ae565b6001600160a01b038216620001df5760405162461bcd60e51b815260206004820152600f60248201526e496e76616c6964206164647265737360881b6044820152606401620000ae565b6001600160a01b038116620002295760405162461bcd60e51b815260206004820152600f60248201526e496e76616c6964206164647265737360881b6044820152606401620000ae565b50606094851b6001600160601b031990811660e0529390941b909216610100525050600280546001600160a01b0319166001600160a01b0390921691909117905562000360565b600180546001600160a01b038381166001600160a01b0319831681179093556040519116919082907f8be0079c531659141344cd1fd0a4f28419497f9722a3daafe3b4186f6b6457e090600090a35050565b80516001600160a01b0381168114620002da57600080fd5b919050565b60008060008060008060c08789031215620002f957600080fd5b6200030487620002c2565b95506200031460208801620002c2565b94506200032460408801620002c2565b93506200033460608801620002c2565b92506200034460808801620002c2565b91506200035460a08801620002c2565b90509295509295509295565b60805160601c60a05160601c60c05160601c60e05160601c6101005160601c61460d620003f36000396000818161058701528181610d000152611e850152600081816103f501528181611c14015281816120560152818161215501526126570152600081816106410152612c5901526000818161054d0152612d390152600081816105ae0152612d0c015261460d6000f3fe608060405234801561001057600080fd5b50600436106102c85760003560e01c80639913627f1161017b578063dd9f4e63116100d8578063e86646541161008c578063f2fde38b11610071578063f2fde38b146106fa578063fe258da71461070d578063ffa1ad741461072057600080fd5b8063e8664654146106c0578063f0f39f5d146106e757600080fd5b8063e1fc2cc1116100bd578063e1fc2cc114610663578063e365490f14610676578063e40225641461069957600080fd5b8063dd9f4e6314610629578063e10040451461063c57600080fd5b8063be5405d21161012f578063cf00cec911610114578063cf00cec9146105e3578063d2cd157a14610603578063d5a844911461061657600080fd5b8063be5405d2146105a9578063c7e2a4fc146105d057600080fd5b8063b06a412011610160578063b06a412014610548578063b2b648e91461056f578063bbc4541b1461058257600080fd5b80639913627f14610512578063afe5c8ff1461053557600080fd5b806362067cd111610229578063827be3cc116101dd5780638da5cb5b116101c25780638da5cb5b146104af57806392c5961a146104c0578063932713681461050057600080fd5b8063827be3cc1461047e5780638d092f5d1461048657600080fd5b806374d4f6d01161020e57806374d4f6d01461044557806375f0bb52146104585780637d49f1db1461046b57600080fd5b806362067cd11461042a578063715018a61461043d57600080fd5b80633ef3a75c116102805780634a9b5db7116102655780634a9b5db7146103e85780635cb54384146103f0578063610b59251461041757600080fd5b80633ef3a75c14610394578063436f8d03146103a757600080fd5b806326a13d30116102b157806326a13d301461030a578063346e5c481461035357806337c591fa1461036657600080fd5b806301ffc9a7146102cd578063146c4361146102f5575b600080fd5b6102e06102db366004613fc0565b61075c565b60405190151581526020015b60405180910390f35b610308610303366004613f9b565b6107c5565b005b6103466040518060400160405280601681526020017f64656c656761746553657475702861646472657373290000000000000000000081525081565b6040516102ec9190614342565b610308610361366004614003565b610907565b610386610374366004613ad9565b60036020526000908152604090205481565b6040519081526020016102ec565b6103086103a2366004613c67565b610ad1565b6103d06103b5366004613fea565b6005602052600090815260409020546001600160a01b031681565b6040516001600160a01b0390911681526020016102ec565b610346610c70565b6103d07f000000000000000000000000000000000000000000000000000000000000000081565b610308610425366004613ad9565b610c8c565b610308610438366004614028565b610ca3565b610308610f52565b610308610453366004613ad9565b610fb8565b610308610466366004613ce8565b611014565b610308610479366004613e49565b611184565b6103466111ab565b6103d0610494366004613fea565b6004602052600090815260409020546001600160a01b031681565b6001546001600160a01b03166103d0565b6104e77fe009cfde76304ae4f68fc946b1f438cd7befba1599b95737584c332ee622b62981565b6040516001600160e01b031990911681526020016102ec565b61030861050e366004613f9b565b5050565b6102e0610520366004613fea565b60066020526000908152604090205460ff1681565b6002546103d0906001600160a01b031681565b6103d07f000000000000000000000000000000000000000000000000000000000000000081565b61030861057d366004613b4c565b6111c7565b6103d07f000000000000000000000000000000000000000000000000000000000000000081565b6103d07f000000000000000000000000000000000000000000000000000000000000000081565b6102e06105de366004613ad9565b6113eb565b6105f66105f1366004613ad9565b611465565b6040516102ec919061419d565b61030861061136600461406a565b6114dc565b610308610624366004613ad9565b611cc1565b610308610637366004613f9b565b611d85565b6103d07f000000000000000000000000000000000000000000000000000000000000000081565b610308610671366004614028565b611e1e565b6102e0610684366004613ad9565b60006020819052908152604090205460ff1681565b6104e77fe19a9dd9915bcd0262210387ba8f90d343aab4a5989aaae0ed7f2b6edddaff1a81565b6104e77f610b5925afff994a89367f36d1195efacee9e03780fb400aacb2ff998042ec3581565b6103086106f5366004613ba8565b61214a565b610308610708366004613ad9565b612440565b6102e061071b366004613b13565b61251f565b6103466040518060400160405280600581526020017f312e332e3000000000000000000000000000000000000000000000000000000081525081565b60006001600160e01b031982167fe6d7a83a0000000000000000000000000000000000000000000000000000000014806107bf57506001600160e01b031982167f01ffc9a700000000000000000000000000000000000000000000000000000000145b92915050565b6000828152600560209081526040808320546004909252909120546001600160a01b0391821691168161085457336001600160a01b0382161461084f5760405162461bcd60e51b815260206004820152601f60248201527f4f6e6c7920736166652063616e20736574207472616e73666572206c6f636b0060448201526064015b60405180910390fd5b6108e5565b336001600160a01b03831614806108735750336001600160a01b038216145b6108e55760405162461bcd60e51b815260206004820152602860248201527f4f6e6c792061646d696e206f7220736166652063616e20736574207472616e7360448201527f666572206c6f636b0000000000000000000000000000000000000000000000006064820152608401610846565b5050600091825260066020526040909120805460ff1916911515919091179055565b6000828152600560209081526040808320546004909252909120546001600160a01b0391821691168061097c5760405162461bcd60e51b815260206004820152601160248201527f506f6420646f65736e27742065786973740000000000000000000000000000006044820152606401610846565b6001600160a01b0382166109e757336001600160a01b038216146109e25760405162461bcd60e51b815260206004820152601b60248201527f4f6e6c7920736166652063616e20616464206e65772061646d696e00000000006044820152606401610846565b610a3f565b336001600160a01b03831614610a3f5760405162461bcd60e51b815260206004820152601b60248201527f4f6e6c792061646d696e2063616e207570646174652061646d696e00000000006044820152606401610846565b6001600160a01b038082166000908152602081905260409020805460ff1916918516151591909117905560008481526005602090815260409182902080546001600160a01b0319166001600160a01b0387169081179091558251878152918201527ffef38cfc44da305e6203142455e0a2b129109e8fd7b40914acff6874f170e3df910160405180910390a150505050565b6001600160a01b038516610b275760405162461bcd60e51b815260206004820152601460248201527f696e76616c6964207361666520616464726573730000000000000000000000006044820152606401610846565b6001600160a01b03851660009081526003602052604090205415610b8d5760405162461bcd60e51b815260206004820152601360248201527f7361666520616c726561647920696e20757365000000000000000000000000006044820152606401610846565b610b96856113eb565b610be25760405162461bcd60e51b815260206004820152601b60248201527f73616665206d6f64756c65206d75737420626520656e61626c656400000000006044820152606401610846565b610bec853361251f565b80610bff5750336001600160a01b038616145b610c4b5760405162461bcd60e51b815260206004820152601d60248201527f63616c6c6572206d7573742062652073616665206f72206d656d6265720000006044820152606401610846565b6000610c5686611465565b9050610c67818789888888886125bc565b50505050505050565b6040518060800160405280605a8152602001614538605a913981565b6001600160a01b03811615610ca057600080fd5b50565b6001600160a01b038116610ceb5760405162461bcd60e51b815260206004820152600f60248201526e496e76616c6964206164647265737360881b6044820152606401610846565b60405163c3c5a54760e01b81523360048201527f00000000000000000000000000000000000000000000000000000000000000006001600160a01b03169063c3c5a5479060240160206040518083038186803b158015610d4a57600080fd5b505afa158015610d5e573d6000803e3d6000fd5b505050506040513d601f19601f82011682018060405250810190610d829190613f65565b610dce5760405162461bcd60e51b815260206004820152601960248201527f436f6e74726f6c6c6572206e6f742072656769737465726564000000000000006044820152606401610846565b6000838152600560205260409020546001600160a01b0316158015610e0857506000838152600460205260409020546001600160a01b0316155b8015610e2a57506001600160a01b038116600090815260036020526040902054155b610e765760405162461bcd60e51b815260206004820152601260248201527f506f6420616c72656164792065786973747300000000000000000000000000006044820152606401610846565b6001600160a01b03821615610eca57600083815260056020908152604080832080546001600160a01b0319166001600160a01b038781169190911790915584168352908290529020805460ff191660011790555b600083815260046020908152604080832080546001600160a01b0319166001600160a01b038616908117909155835260039091529020839055610f0c81612a46565b604080518481526001600160a01b03841660208201527ffef38cfc44da305e6203142455e0a2b129109e8fd7b40914acff6874f170e3df910160405180910390a1505050565b6001546001600160a01b03163314610fac5760405162461bcd60e51b815260206004820181905260248201527f4f776e61626c653a2063616c6c6572206973206e6f7420746865206f776e65726044820152606401610846565b610fb66000612b5b565b565b60405163610b592560e01b81526001600160a01b0382166004820152309063610b592590602401600060405180830381600087803b158015610ff957600080fd5b505af115801561100d573d6000803e3d6000fd5b5050505050565b3360008181526020819052604090205460ff166110315750611177565b60048a51106111755763610b592560e01b61104b8b614429565b6001600160e01b03191614156110a35760405162461bcd60e51b815260206004820152601560248201527f43616e6e6f7420456e61626c65204d6f64756c657300000000000000000000006044820152606401610846565b637004e7ef60e11b6110b48b614429565b6001600160e01b031916141561110c5760405162461bcd60e51b815260206004820152601660248201527f43616e6e6f742044697361626c65204d6f64756c6573000000000000000000006044820152606401610846565b63e19a9dd960e01b61111d8b614429565b6001600160e01b03191614156111755760405162461bcd60e51b815260206004820152601360248201527f43616e6e6f74204368616e6765204775617264000000000000000000000000006044820152606401610846565b505b5050505050505050505050565b60006111908888612bad565b90506111a1888288888888886125bc565b5050505050505050565b6040518060800160405280604681526020016145926046913981565b604051632d9ad53d60e01b81526001600160a01b038281166004830152859190821690632d9ad53d9060240160206040518083038186803b15801561120b57600080fd5b505afa15801561121f573d6000803e3d6000fd5b505050506040513d601f19601f820116820180604052508101906112439190613f65565b61124d57506113e5565b604051602060248201526000604482018190529060640160408051601f198184030181529181526020820180516001600160e01b031663c47f002760e01b1790525163468721a760e01b81529091506001600160a01b0383169063468721a7906112c290889060009086908290600401614146565b602060405180830381600087803b1580156112dc57600080fd5b505af11580156112f0573d6000803e3d6000fd5b505050506040513d601f19601f820116820180604052508101906113149190613f65565b506040516001600160a01b0380861660248301528416604482015260009060640160408051601f198184030181529181526020820180516001600160e01b0316637004e7ef60e11b1790525163468721a760e01b81529091506001600160a01b0384169063468721a790611393908a9060009086908290600401614146565b602060405180830381600087803b1580156113ad57600080fd5b505af11580156113c1573d6000803e3d6000fd5b505050506040513d601f19601f820116820180604052508101906111a19190613f65565b50505050565b604051632d9ad53d60e01b81523060048201526000906001600160a01b03831690632d9ad53d9060240160206040518083038186803b15801561142d57600080fd5b505afa158015611441573d6000803e3d6000fd5b505050506040513d601f19601f820116820180604052508101906107bf9190613f65565b6060816001600160a01b031663a0e67e2b6040518163ffffffff1660e01b815260040160006040518083038186803b1580156114a057600080fd5b505afa1580156114b4573d6000803e3d6000fd5b505050506040513d6000823e601f3d908101601f191682016040526107bf9190810190613dcd565b6000838152600460205260409020546001600160a01b0316806115415760405162461bcd60e51b815260206004820152601260248201527f706f64206e6f74207265676973746572656400000000000000000000000000006044820152606401610846565b6040517fcf00cec90000000000000000000000000000000000000000000000000000000081526001600160a01b0382166004820152600090309063cf00cec99060240160006040518083038186803b15801561159c57600080fd5b505afa1580156115b0573d6000803e3d6000fd5b505050506040513d6000823e601f3d908101601f191682016040526115d89190810190613dcd565b90506000600260009054906101000a90046001600160a01b03166001600160a01b03166304f3bcec6040518163ffffffff1660e01b815260040160206040518083038186803b15801561162a57600080fd5b505afa15801561163e573d6000803e3d6000fd5b505050506040513d601f19601f820116820180604052508101906116629190613af6565b60025460405163cfeac6a560e01b8152600481018890529192506000916001600160a01b039091169063cfeac6a59060240160206040518083038186803b1580156116ac57600080fd5b505afa1580156116c0573d6000803e3d6000fd5b505050506040513d601f19601f820116820180604052508101906116e49190613f82565b6040517f3b3b57de000000000000000000000000000000000000000000000000000000008152600481018290529091506000906001600160a01b03841690633b3b57de9060240160206040518083038186803b15801561174357600080fd5b505afa158015611757573d6000803e3d6000fd5b505050506040513d601f19601f8201168201806040525081019061177b9190613af6565b9050846001600160a01b0316816001600160a01b0316146117de5760405162461bcd60e51b815260206004820152601b60248201527f7361666520616e64206c6162656c206469646e2774206d6174636800000000006044820152606401610846565b60025460405163043c4ea360e21b81526001600160a01b03909116906310f13a8c9061180e9085906004016142a7565b600060405180830381600087803b15801561182857600080fd5b505af115801561183c573d6000803e3d6000fd5b505060025460405163043c4ea360e21b81526001600160a01b0390911692506310f13a8c9150611870908590600401614317565b600060405180830381600087803b15801561188a57600080fd5b505af115801561189e573d6000803e3d6000fd5b50506002546040517fd5fa2b0000000000000000000000000000000000000000000000000000000000815260048101869052600060248201526001600160a01b03909116925063d5fa2b009150604401600060405180830381600087803b15801561190857600080fd5b505af115801561191c573d6000803e3d6000fd5b50506002546040517fd22057a9000000000000000000000000000000000000000000000000000000008152600481018b9052600060248201526001600160a01b03909116925063d22057a99150604401600060405180830381600087803b15801561198657600080fd5b505af115801561199a573d6000803e3d6000fd5b5050506000898152600560205260409020546001600160a01b0316159050611a47576000888152600560205260409020546001600160a01b03163314611a225760405162461bcd60e51b815260206004820152600d60248201527f6d7573742062652061646d696e000000000000000000000000000000000000006044820152606401610846565b6001600160a01b0385166000908152602081905260409020805460ff19169055611a9f565b336001600160a01b03861614611a9f5760405162461bcd60e51b815260206004820152601960248201527f7478206d7573742062652073656e742066726f6d2073616665000000000000006044820152606401610846565b306001600160a01b031663b2b648e986600260009054906101000a90046001600160a01b03166001600160a01b031663808698536040518163ffffffff1660e01b815260040160206040518083038186803b158015611afd57600080fd5b505afa158015611b11573d6000803e3d6000fd5b505050506040513d601f19601f82011682018060405250810190611b359190613af6565b6040516001600160e01b031960e085901b1681526001600160a01b03928316600482015290821660248201529089166044820152306064820152608401600060405180830381600087803b158015611b8c57600080fd5b505af1158015611ba0573d6000803e3d6000fd5b505050600089815260056020908152604080832080546001600160a01b0319908116909155600480845282852080549092169091556001600160a01b038a81168552600390935281842093909355517fb898410d0000000000000000000000000000000000000000000000000000000081527f0000000000000000000000000000000000000000000000000000000000000000909116925063b898410d91611c4c9188918d91016141de565b600060405180830381600087803b158015611c6657600080fd5b505af1158015611c7a573d6000803e3d6000fd5b505050507fbf40bbc71e7cad18fa06345bce0dcaecb93fb664d0808f5afe28904c1d1b25da88604051611caf91815260200190565b60405180910390a15050505050505050565b6001546001600160a01b03163314611d1b5760405162461bcd60e51b815260206004820181905260248201527f4f776e61626c653a2063616c6c6572206973206e6f7420746865206f776e65726044820152606401610846565b6001600160a01b038116611d635760405162461bcd60e51b815260206004820152600f60248201526e496e76616c6964206164647265737360881b6044820152606401610846565b600280546001600160a01b0319166001600160a01b0392909216919091179055565b6000828152600560205260409020546001600160a01b03163314611deb5760405162461bcd60e51b815260206004820181905260248201527f4d7573742062652061646d696e20746f20736574206d6f64756c65206c6f636b6044820152606401610846565b6000828152600460209081526040808320546001600160a01b03168352908290529020805460ff19168215151790555050565b6001600160a01b038216611e665760405162461bcd60e51b815260206004820152600f60248201526e496e76616c6964206164647265737360881b6044820152606401610846565b60405163c3c5a54760e01b81526001600160a01b0383811660048301527f0000000000000000000000000000000000000000000000000000000000000000169063c3c5a5479060240160206040518083038186803b158015611ec757600080fd5b505afa158015611edb573d6000803e3d6000fd5b505050506040513d601f19601f82011682018060405250810190611eff9190613f65565b611f4b5760405162461bcd60e51b815260206004820152601960248201527f436f6e74726f6c6c6572206e6f742072656769737465726564000000000000006044820152606401610846565b6000838152600560209081526040808320546004909252909120546001600160a01b03918216911633821480611f895750336001600160a01b038216145b611fd55760405162461bcd60e51b815260206004820152601360248201527f55736572206e6f7420617574686f72697a6564000000000000000000000000006044820152606401610846565b600085815260056020908152604080832080546001600160a01b0319908116909155600480845282852080549092169091556001600160a01b038581168552600390935281842093909355517f82786654000000000000000000000000000000000000000000000000000000008152918201879052858116602483015285917f000000000000000000000000000000000000000000000000000000000000000090911690638278665490604401600060405180830381600087803b15801561209c57600080fd5b505af11580156120b0573d6000803e3d6000fd5b505050506120bf828686612e3c565b6040517f62067cd1000000000000000000000000000000000000000000000000000000008152600481018790526001600160a01b03848116602483015283811660448301528216906362067cd190606401600060405180830381600087803b15801561212a57600080fd5b505af115801561213e573d6000803e3d6000fd5b50505050505050505050565b336001600160a01b037f000000000000000000000000000000000000000000000000000000000000000016146121c25760405162461bcd60e51b815260206004820152600e60248201527f4e6f7420417574686f72697a65640000000000000000000000000000000000006044820152606401610846565b6001600160a01b038616301480156121db575060008151115b80156122045750600160ff16816000815181106121fa576121fa6144e8565b016020015160f81c145b1561220e57612438565b60005b8351811015610c6757600084828151811061222e5761222e6144e8565b60209081029190910181015160008181526004835260408082205460059094529020549092506001600160a01b0391821691168115801561227657506001600160a01b038816155b156122845750505050612438565b6001600160a01b03891661232057816001600160a01b03168a6001600160a01b031614806122c35750806001600160a01b03168a6001600160a01b0316145b806122d657506001600160a01b038a1630145b6123115760405162461bcd60e51b815260206004820152600c60248201526b139bc8149d5b195cc814d95d60a21b6044820152606401610846565b61231b8883613193565b612421565b6001600160a01b0388166123b757816001600160a01b03168a6001600160a01b0316148061235f5750806001600160a01b03168a6001600160a01b0316145b8061237257506001600160a01b038a1630145b6123ad5760405162461bcd60e51b815260206004820152600c60248201526b139bc8149d5b195cc814d95d60a21b6044820152606401610846565b61231b8983613344565b60008381526006602052604090205460ff16156124165760405162461bcd60e51b815260206004820152601660248201527f506f64204973205472616e73666572204c6f636b6564000000000000000000006044820152606401610846565b612421898984613620565b50505060018161243191906143e6565b9050612211565b505050505050565b6001546001600160a01b0316331461249a5760405162461bcd60e51b815260206004820181905260248201527f4f776e61626c653a2063616c6c6572206973206e6f7420746865206f776e65726044820152606401610846565b6001600160a01b0381166125165760405162461bcd60e51b815260206004820152602660248201527f4f776e61626c653a206e6577206f776e657220697320746865207a65726f206160448201527f64647265737300000000000000000000000000000000000000000000000000006064820152608401610846565b610ca081612b5b565b6040517f2f54bf6e0000000000000000000000000000000000000000000000000000000081526001600160a01b03828116600483015260009190841690632f54bf6e9060240160206040518083038186803b15801561257d57600080fd5b505afa158015612591573d6000803e3d6000fd5b505050506040513d601f19601f820116820180604052508101906125b59190613f65565b9392505050565b604080516001808252818301909252600091602082018180368337019050509050600160f81b816000815181106125f5576125f56144e8565b60200101907effffffffffffffffffffffffffffffffffffffffffffffffffffffffffffff1916908160001a9053506040517f9aa0055e0000000000000000000000000000000000000000000000000000000081526000906001600160a01b037f00000000000000000000000000000000000000000000000000000000000000001690639aa0055e9061268e908c9086906004016141b0565b602060405180830381600087803b1580156126a857600080fd5b505af11580156126bc573d6000803e3d6000fd5b505050506040513d601f19601f820116820180604052508101906126e09190613f82565b90508381146127315760405162461bcd60e51b815260206004820152601e60248201527f706f64206964206469646e2774206d617463682c2074727920616761696e00006044820152606401610846565b7fb298a97e1ae845f4ac62f176cde255ccfe5ac42197eae12459c99761bad66a48818989886040516127669493929190614355565b60405180910390a1604080518281526001600160a01b03891660208201527ffef38cfc44da305e6203142455e0a2b129109e8fd7b40914acff6874f170e3df910160405180910390a16001600160a01b03871615612809576001600160a01b0388166000908152602081905260409020805460ff19166001179055600081815260056020526040902080546001600160a01b0319166001600160a01b0389161790555b600081815260046020818152604080842080546001600160a01b0319166001600160a01b038e8116918217909255808652600390935281852086905560025491517f98eed3e90000000000000000000000000000000000000000000000000000000081529384018b9052602484019290925233604484015216906398eed3e990606401602060405180830381600087803b1580156128a657600080fd5b505af11580156128ba573d6000803e3d6000fd5b505050506040513d601f19601f820116820180604052508101906128de9190613af6565b90506128eb8982886137c2565b60025460405163cfeac6a560e01b8152600481018990526000916001600160a01b03169063cfeac6a59060240160206040518083038186803b15801561293057600080fd5b505afa158015612944573d6000803e3d6000fd5b505050506040513d601f19601f820116820180604052508101906129689190613f82565b60025460405163043c4ea360e21b81529192506001600160a01b0316906310f13a8c9061299b9084908990600401614269565b600060405180830381600087803b1580156129b557600080fd5b505af11580156129c9573d6000803e3d6000fd5b50506002546001600160a01b031691506310f13a8c9050826129ea86613835565b6040518363ffffffff1660e01b8152600401612a079291906142ec565b600060405180830381600087803b158015612a2157600080fd5b505af1158015612a35573d6000803e3d6000fd5b505050505050505050505050505050565b60405130602482015260009060440160408051601f198184030181529181526020820180516001600160e01b031663e19a9dd960e01b1790525163468721a760e01b81529091506000906001600160a01b0384169063468721a790612ab5908690859087908290600401614146565b602060405180830381600087803b158015612acf57600080fd5b505af1158015612ae3573d6000803e3d6000fd5b505050506040513d601f19601f82011682018060405250810190612b079190613f65565b905080612b565760405162461bcd60e51b815260206004820152601660248201527f436f756c64206e6f7420656e61626c65206775617264000000000000000000006044820152606401610846565b505050565b600180546001600160a01b038381166001600160a01b0319831681179093556040519116919082907f8be0079c531659141344cd1fd0a4f28419497f9722a3daafe3b4186f6b6457e090600090a35050565b604080518082018252601681527f64656c656761746553657475702861646472657373290000000000000000000060208201529051306024820152600091829160440160408051601f198184030181529082905291612c0b91614108565b60405180910390206001600160e01b0319166020820180516001600160e01b0383818316178352505050509050600060405180608001604052806046815260200161459260469139858530857f00000000000000000000000000000000000000000000000000000000000000006000806000604051602401612c94989796959493929190614200565b60408051601f198184030181529082905291612caf91614108565b60408051918290039091206020830180516001600160e01b03166001600160e01b0319909216919091179052517f61b69abd0000000000000000000000000000000000000000000000000000000081529091506001600160a01b037f000000000000000000000000000000000000000000000000000000000000000016906361b69abd90612d63907f0000000000000000000000000000000000000000000000000000000000000000908590600401614124565b602060405180830381600087803b158015612d7d57600080fd5b505af1925050508015612dad575060408051601f3d908101601f19168201909252612daa91810190613af6565b60015b612e29573d808015612ddb576040519150601f19603f3d011682016040523d82523d6000602084013e612de0565b606091505b5060405162461bcd60e51b815260206004820152601d60248201527f4372656174652050726f787920576974682044617461204661696c65640000006044820152606401610846565b612e3281612a46565b92506107bf915050565b6040516001600160a01b038316602482015260009060440160408051601f198184030181529181526020820180516001600160e01b031663610b592560e01b1790525163468721a760e01b81529091506000906001600160a01b0386169063468721a790612eb4908890859087908290600401614146565b602060405180830381600087803b158015612ece57600080fd5b505af1158015612ee2573d6000803e3d6000fd5b505050506040513d601f19601f82011682018060405250810190612f069190613f65565b905080612f555760405162461bcd60e51b815260206004820152601a60248201527f4d6967726174696f6e206661696c6564206f6e20656e61626c650000000000006044820152606401610846565b6040517fcc2f84520000000000000000000000000000000000000000000000000000000081526001600160a01b038481166004830152600160248301526000919087169063cc2f84529060440160006040518083038186803b158015612fba57600080fd5b505afa158015612fce573d6000803e3d6000fd5b505050506040513d6000823e601f3d908101601f19168201604052612ff69190810190613e02565b509050306001600160a01b031681600081518110613016576130166144e8565b60200260200101516001600160a01b0316146130745760405162461bcd60e51b815260206004820152601460248201527f696e636f727265637420707265764d6f64756c650000000000000000000000006044820152606401610846565b6040516001600160a01b038516602482015230604482015260009060640160408051601f198184030181529181526020820180516001600160e01b0316637004e7ef60e11b1790525163468721a760e01b81529091506000906001600160a01b0389169063468721a7906130f2908b90859087908290600401614146565b602060405180830381600087803b15801561310c57600080fd5b505af1158015613120573d6000803e3d6000fd5b505050506040513d601f19601f820116820180604052508101906131449190613f65565b9050806111a15760405162461bcd60e51b815260206004820152601b60248201527f4d6967726174696f6e206661696c6564206f6e2064697361626c6500000000006044820152606401610846565b6000816001600160a01b031663e75235b86040518163ffffffff1660e01b8152600401602060405180830381600087803b1580156131d057600080fd5b505af11580156131e4573d6000803e3d6000fd5b505050506040513d601f19601f820116820180604052508101906132089190613f82565b6040516001600160a01b03851660248201526044810182905290915060009060640160408051601f198184030181529181526020820180516001600160e01b03167f0d582f13000000000000000000000000000000000000000000000000000000001790525163468721a760e01b81529091506000906001600160a01b0385169063468721a7906132a3908790859087908290600401614146565b602060405180830381600087803b1580156132bd57600080fd5b505af11580156132d1573d6000803e3d6000fd5b505050506040513d601f19601f820116820180604052508101906132f59190613f65565b90508061100d5760405162461bcd60e51b815260206004820152601960248201527f4d6f64756c65205472616e73616374696f6e204661696c6564000000000000006044820152606401610846565b6000816001600160a01b031663e75235b86040518163ffffffff1660e01b8152600401602060405180830381600087803b15801561338157600080fd5b505af1158015613395573d6000803e3d6000fd5b505050506040513d601f19601f820116820180604052508101906133b99190613f82565b90506000826001600160a01b031663a0e67e2b6040518163ffffffff1660e01b815260040160006040518083038186803b1580156133f657600080fd5b505afa15801561340a573d6000803e3d6000fd5b505050506040513d6000823e601f3d908101601f191682016040526134329190810190613dcd565b90506000805b82518110156134bb57856001600160a01b031683828151811061345d5761345d6144e8565b60200260200101516001600160a01b031614156134a9578061348257600191506134a9565b8261348e600183614412565b8151811061349e5761349e6144e8565b602002602001015191505b806134b38161448d565b915050613438565b5082600183516134cb9190614412565b10156134df576134dc600184614412565b92505b6040516001600160a01b038083166024830152861660448201526064810184905260009060840160408051601f198184030181529181526020820180516001600160e01b03167ff8dc5dd9000000000000000000000000000000000000000000000000000000001790525163468721a760e01b81529091506000906001600160a01b0387169063468721a79061357f908990859087908290600401614146565b602060405180830381600087803b15801561359957600080fd5b505af11580156135ad573d6000803e3d6000fd5b505050506040513d601f19601f820116820180604052508101906135d19190613f65565b905080610c675760405162461bcd60e51b815260206004820152601960248201527f4d6f64756c65205472616e73616374696f6e204661696c6564000000000000006044820152606401610846565b6000816001600160a01b031663a0e67e2b6040518163ffffffff1660e01b815260040160006040518083038186803b15801561365b57600080fd5b505afa15801561366f573d6000803e3d6000fd5b505050506040513d6000823e601f3d908101601f191682016040526136979190810190613dcd565b90506000805b825181101561372057856001600160a01b03168382815181106136c2576136c26144e8565b60200260200101516001600160a01b0316141561370e57806136e7576001915061370e565b826136f3600183614412565b81518110613703576137036144e8565b602002602001015191505b806137188161448d565b91505061369d565b506040516001600160a01b03808316602483015280871660448301528516606482015260009060840160408051601f198184030181529181526020820180516001600160e01b03167fe318b52b000000000000000000000000000000000000000000000000000000001790525163468721a760e01b81529091506000906001600160a01b0386169063468721a79061357f908890859087908290600401614146565b6000816040516024016137d59190614342565b60408051601f198184030181529181526020820180516001600160e01b031663c47f002760e01b1790525163468721a760e01b81529091506000906001600160a01b0386169063468721a7906132a3908790859087908290600401614146565b60608161387557505060408051808201909152600181527f3000000000000000000000000000000000000000000000000000000000000000602082015290565b8160005b811561389f57806138898161448d565b91506138989050600a836143fe565b9150613879565b60008167ffffffffffffffff8111156138ba576138ba6144fe565b6040519080825280601f01601f1916602001820160405280156138e4576020820181803683370190505b5090505b8415613967576138f9600183614412565b9150613906600a866144a8565b6139119060306143e6565b60f81b818381518110613926576139266144e8565b60200101907effffffffffffffffffffffffffffffffffffffffffffffffffffffffffffff1916908160001a905350613960600a866143fe565b94506138e8565b949350505050565b803561397a81614514565b919050565b600082601f83011261399057600080fd5b815160206139a56139a0836143c2565b614391565b80838252828201915082860187848660051b89010111156139c557600080fd5b60005b858110156139ed5781516139db81614514565b845292840192908401906001016139c8565b5090979650505050505050565b600082601f830112613a0b57600080fd5b81356020613a1b6139a0836143c2565b80838252828201915082860187848660051b8901011115613a3b57600080fd5b60005b858110156139ed57813584529284019290840190600101613a3e565b600082601f830112613a6b57600080fd5b813567ffffffffffffffff811115613a8557613a856144fe565b613a98601f8201601f1916602001614391565b818152846020838601011115613aad57600080fd5b816020850160208301376000918101602001919091529392505050565b80356002811061397a57600080fd5b600060208284031215613aeb57600080fd5b81356125b581614514565b600060208284031215613b0857600080fd5b81516125b581614514565b60008060408385031215613b2657600080fd5b8235613b3181614514565b91506020830135613b4181614514565b809150509250929050565b60008060008060808587031215613b6257600080fd5b8435613b6d81614514565b93506020850135613b7d81614514565b92506040850135613b8d81614514565b91506060850135613b9d81614514565b939692955090935050565b60008060008060008060c08789031215613bc157600080fd5b8635613bcc81614514565b95506020870135613bdc81614514565b94506040870135613bec81614514565b9350606087013567ffffffffffffffff80821115613c0957600080fd5b613c158a838b016139fa565b94506080890135915080821115613c2b57600080fd5b613c378a838b016139fa565b935060a0890135915080821115613c4d57600080fd5b50613c5a89828a01613a5a565b9150509295509295509295565b60008060008060008060c08789031215613c8057600080fd5b8635613c8b81614514565b95506020870135613c9b81614514565b945060408701359350606087013567ffffffffffffffff80821115613cbf57600080fd5b613ccb8a838b01613a5a565b94506080890135935060a0890135915080821115613c4d57600080fd5b60008060008060008060008060008060006101608c8e031215613d0a57600080fd5b613d138c61396f565b9a5060208c0135995067ffffffffffffffff8060408e01351115613d3657600080fd5b613d468e60408f01358f01613a5a565b9950613d5460608e01613aca565b985060808d0135975060a08d0135965060c08d01359550613d7760e08e0161396f565b9450613d866101008e0161396f565b9350806101208e01351115613d9a57600080fd5b50613dac8d6101208e01358e01613a5a565b9150613dbb6101408d0161396f565b90509295989b509295989b9093969950565b600060208284031215613ddf57600080fd5b815167ffffffffffffffff811115613df657600080fd5b6139678482850161397f565b60008060408385031215613e1557600080fd5b825167ffffffffffffffff811115613e2c57600080fd5b613e388582860161397f565b9250506020830151613b4181614514565b600080600080600080600060e0888a031215613e6457600080fd5b873567ffffffffffffffff80821115613e7c57600080fd5b818a0191508a601f830112613e9057600080fd5b81356020613ea06139a0836143c2565b8083825282820191508286018f848660051b8901011115613ec057600080fd5b600096505b84871015613eec578035613ed881614514565b835260019690960195918301918301613ec5565b509b50508b01359850613f03905060408b0161396f565b965060608a0135955060808a0135915080821115613f2057600080fd5b613f2c8b838c01613a5a565b945060a08a0135935060c08a0135915080821115613f4957600080fd5b50613f568a828b01613a5a565b91505092959891949750929550565b600060208284031215613f7757600080fd5b81516125b581614529565b600060208284031215613f9457600080fd5b5051919050565b60008060408385031215613fae57600080fd5b823591506020830135613b4181614529565b600060208284031215613fd257600080fd5b81356001600160e01b0319811681146125b557600080fd5b600060208284031215613ffc57600080fd5b5035919050565b6000806040838503121561401657600080fd5b823591506020830135613b4181614514565b60008060006060848603121561403d57600080fd5b83359250602084013561404f81614514565b9150604084013561405f81614514565b809150509250925092565b60008060006060848603121561407f57600080fd5b8335925060208401359150604084013561405f81614514565b600081518084526020808501945080840160005b838110156140d15781516001600160a01b0316875295820195908201906001016140ac565b509495945050505050565b600081518084526140f4816020860160208601614461565b601f01601f19169290920160200192915050565b6000825161411a818460208701614461565b9190910192915050565b6001600160a01b038316815260406020820152600061396760408301846140dc565b6001600160a01b038516815283602082015260806040820152600061416e60808301856140dc565b90506002831061418e57634e487b7160e01b600052602160045260246000fd5b82606083015295945050505050565b6020815260006125b56020830184614098565b6040815260006141c36040830185614098565b82810360208401526141d581856140dc565b95945050505050565b6040815260006141f16040830185614098565b90508260208301529392505050565b60006101008083526142148184018c614098565b90508960208401526001600160a01b03808a166040850152838203606085015261423e828a6140dc565b978116608085015295861660a0840152505060c081019290925290911660e090910152949350505050565b82815260606020820152600061429560608301600681526530bb30ba30b960d11b602082015260400190565b82810360408401526141d581856140dc565b8181526060602082015260006142d360608301600681526530bb30ba30b960d11b602082015260400190565b8281036040840152600081526020810191505092915050565b8281526060602082015260006142956060830160058152641c1bd9125960da1b602082015260400190565b8181526060602082015260006142d36060830160058152641c1bd9125960da1b602082015260400190565b6020815260006125b560208301846140dc565b84815260006001600160a01b0380861660208401528085166040840152506080606083015261438760808301846140dc565b9695505050505050565b604051601f8201601f1916810167ffffffffffffffff811182821017156143ba576143ba6144fe565b604052919050565b600067ffffffffffffffff8211156143dc576143dc6144fe565b5060051b60200190565b600082198211156143f9576143f96144bc565b500190565b60008261440d5761440d6144d2565b500490565b600082821015614424576144246144bc565b500390565b6000815160208301516001600160e01b0319808216935060048310156144595780818460040360031b1b83161693505b505050919050565b60005b8381101561447c578181015183820152602001614464565b838111156113e55750506000910152565b60006000198214156144a1576144a16144bc565b5060010190565b6000826144b7576144b76144d2565b500690565b634e487b7160e01b600052601160045260246000fd5b634e487b7160e01b600052601260045260246000fd5b634e487b7160e01b600052603260045260246000fd5b634e487b7160e01b600052604160045260246000fd5b6001600160a01b0381168114610ca057600080fd5b8015158114610ca057600080fdfe657865635472616e73616374696f6e28616464726573732c75696e743235362c62797465732c75696e74382c75696e743235362c75696e743235362c75696e743235362c616464726573732c616464726573732c627974657329736574757028616464726573735b5d2c75696e743235362c616464726573732c62797465732c616464726573732c616464726573732c75696e743235362c6164647265737329a2646970667358221220fb37f3c6a56f5c273ef95212d282803eae5ae634982db3d4f8d4462fe68946b564736f6c63430008070033",
  "devdoc": {
    "kind": "dev",
    "methods": {
      "beforeTokenTransfer(address,address,address,uint256[],uint256[],bytes)": {
        "params": {
          "data": "Passes a flag for an initial creation event",
          "from": "The address sending the membership token",
          "ids": "An array of membership token ids to be transfered",
          "operator": "The address that initiated the action",
          "to": "The address recieveing the membership token"
        }
      },
      "checkTransaction(address,uint256,bytes,uint8,uint256,uint256,uint256,address,address,bytes,address)": {
        "details": "This will be called by the safe at execution time time",
        "params": {
          "baseGas": "Gas costs that are independent of the transaction execution(e.g. base transaction fee, signature check, payment of the refund)",
          "data": "Data payload of Safe transaction.",
          "gasPrice": "Gas price that should be used for the payment calculation.",
          "gasToken": "Token address (or 0 if ETH) that is used for the payment.",
          "msgSender": "Account executing safe transaction",
          "operation": "Operation type of Safe transaction.",
          "refundReceiver": "Address of receiver of gas payment (or 0 if tx.origin).",
          "safeTxGas": "Gas that should be used for the Safe transaction.",
          "signatures": "Packed signature data ({bytes32 r}{bytes32 s}{uint8 v})",
          "to": "Destination address of Safe transaction.",
          "value": "Ether value of Safe transaction."
        }
      },
      "constructor": {
        "details": "Will instantiate safe teller with gnosis master and proxy addresses",
        "params": {
          "_controllerRegistry": "The address of the ControllerRegistry contract",
          "_gnosisMasterAddress": "The gnosis master address",
          "_memberToken": "The address of the MemberToken contract",
          "_proxyFactoryAddress": "The proxy factory address"
        }
      },
      "createPod(address[],uint256,address,bytes32,string,uint256,string)": {
        "params": {
          "_admin": "The address of the pod admin",
          "_ensString": "string of pod ens name (i.e.'mypod.pod.xyz')",
          "_label": "label hash of pod name (i.e labelhash('mypod'))",
          "_members": "The addresses of the members of the pod",
          "threshold": "The number of members that are required to sign a transaction"
        }
      },
      "createPodWithSafe(address,address,bytes32,string,uint256,string)": {
        "details": "Used to create a pod with an existing safeWill automatically distribute membership NFTs to current safe members",
        "params": {
          "_admin": "The address of the pod admin",
          "_ensString": "string of pod ens name (i.e.'mypod.pod.xyz')",
          "_label": "label hash of pod name (i.e labelhash('mypod'))",
          "_safe": "The address of existing safe"
        }
      },
      "ejectSafe(uint256,bytes32,address)": {
        "params": {
          "label": "- labelhash of pod ENS name, i.e., `labelhash(\"mypod\")`",
          "podId": "- ID of pod being ejected",
          "previousModule": "- previous module"
        }
      },
      "migratePodController(uint256,address,address)": {
        "details": "This will nullify all pod state on this controllerUpdate state on _newControllerUpdate controller to _newController in Safe and MemberToken",
        "params": {
          "_newController": "The address of the new pod controller",
          "_podId": "The id number of the pod",
          "_prevModule": "The module that points to the orca module in the safe's ModuleManager linked list"
        }
      },
      "owner()": {
        "details": "Returns the address of the current owner."
      },
      "renounceOwnership()": {
        "details": "Leaves the contract without owner. It will not be possible to call `onlyOwner` functions anymore. Can only be called by the current owner. NOTE: Renouncing ownership will leave the contract without an owner, thereby removing any functionality that is only available to the owner."
      },
      "setPodModuleLock(uint256,bool)": {
        "details": "Allows admin to unlock the safe modules and allow them to be edited by members",
        "params": {
          "_isLocked": "true - pod modules cannot be added/removed",
          "_podId": "The id number of the pod"
        }
      },
      "setPodTransferLock(uint256,bool)": {
        "params": {
          "_isTransferLocked": "The address of the new pod admin",
          "_podId": "The id number of the pod"
        }
      },
      "supportsInterface(bytes4)": {
        "details": "Returns true if this contract implements the interface defined by `interfaceId`. See the corresponding https://eips.ethereum.org/EIPS/eip-165#how-interfaces-are-identified[EIP section] to learn more about how these ids are created. This function call must use less than 30 000 gas."
      },
      "transferOwnership(address)": {
        "details": "Transfers ownership of the contract to a new account (`newOwner`). Can only be called by the current owner."
      },
      "updatePodAdmin(uint256,address)": {
        "params": {
          "_newAdmin": "The address of the new pod admin",
          "_podId": "The id number of the pod"
        }
      },
      "updatePodState(uint256,address,address)": {
        "details": "This is called by another version of controller to migrate a pod to this versionWill only accept calls from registered controllersCan only be called once.",
        "params": {
          "_podAdmin": "The address of the pod admin",
          "_podId": "The id number of the pod",
          "_safeAddress": "The address of the safe"
        }
      }
    },
    "version": 1
  },
  "userdoc": {
    "kind": "user",
    "methods": {
      "disableModule(address,address,address,address)": {
        "notice": "Removes the reverse registrar entry and disables module. Intended as clean up during the safe ejection process. Note that an already ejected safe cannot clear the reverse registry entry."
      },
      "ejectSafe(uint256,bytes32,address)": {
        "notice": "Ejects a safe from the Orca ecosystem. Also handles clean up for safes that have already been ejected. Note that the reverse registry entry cannot be cleaned up if the safe has already been ejected."
      }
    },
    "version": 1
  },
  "storageLayout": {
    "storage": [
      {
        "astId": 6252,
        "contract": "contracts/ControllerV1.sol:ControllerV1",
        "label": "areModulesLocked",
        "offset": 0,
        "slot": "0",
        "type": "t_mapping(t_address,t_bool)"
      },
      {
        "astId": 1342,
        "contract": "contracts/ControllerV1.sol:ControllerV1",
        "label": "_owner",
        "offset": 0,
        "slot": "1",
        "type": "t_address"
      },
      {
        "astId": 4193,
        "contract": "contracts/ControllerV1.sol:ControllerV1",
        "label": "podEnsRegistrar",
        "offset": 0,
        "slot": "2",
        "type": "t_contract(IPodEnsRegistrar)7093"
      },
      {
        "astId": 4200,
        "contract": "contracts/ControllerV1.sol:ControllerV1",
        "label": "safeToPodId",
        "offset": 0,
        "slot": "3",
        "type": "t_mapping(t_address,t_uint256)"
      },
      {
        "astId": 4205,
        "contract": "contracts/ControllerV1.sol:ControllerV1",
        "label": "podIdToSafe",
        "offset": 0,
        "slot": "4",
        "type": "t_mapping(t_uint256,t_address)"
      },
      {
        "astId": 4209,
        "contract": "contracts/ControllerV1.sol:ControllerV1",
        "label": "podAdmin",
        "offset": 0,
        "slot": "5",
        "type": "t_mapping(t_uint256,t_address)"
      },
      {
        "astId": 4213,
        "contract": "contracts/ControllerV1.sol:ControllerV1",
        "label": "isTransferLocked",
        "offset": 0,
        "slot": "6",
        "type": "t_mapping(t_uint256,t_bool)"
      }
    ],
    "types": {
      "t_address": {
        "encoding": "inplace",
        "label": "address",
        "numberOfBytes": "20"
      },
      "t_bool": {
        "encoding": "inplace",
        "label": "bool",
        "numberOfBytes": "1"
      },
      "t_contract(IPodEnsRegistrar)7093": {
        "encoding": "inplace",
        "label": "contract IPodEnsRegistrar",
        "numberOfBytes": "20"
      },
      "t_mapping(t_address,t_bool)": {
        "encoding": "mapping",
        "key": "t_address",
        "label": "mapping(address => bool)",
        "numberOfBytes": "32",
        "value": "t_bool"
      },
      "t_mapping(t_address,t_uint256)": {
        "encoding": "mapping",
        "key": "t_address",
        "label": "mapping(address => uint256)",
        "numberOfBytes": "32",
        "value": "t_uint256"
      },
      "t_mapping(t_uint256,t_address)": {
        "encoding": "mapping",
        "key": "t_uint256",
        "label": "mapping(uint256 => address)",
        "numberOfBytes": "32",
        "value": "t_address"
      },
      "t_mapping(t_uint256,t_bool)": {
        "encoding": "mapping",
        "key": "t_uint256",
        "label": "mapping(uint256 => bool)",
        "numberOfBytes": "32",
        "value": "t_bool"
      },
      "t_uint256": {
        "encoding": "inplace",
        "label": "uint256",
        "numberOfBytes": "32"
      }
    }
  }
}