{
  "address": "0x8532CeC262110baB9CE79429eac92F5f7334B54f",
  "abi": [
    {
      "inputs": [
        {
          "internalType": "address",
          "name": "_memberToken",
          "type": "address"
        },
        {
          "internalType": "address",
          "name": "_controllerRegistry",
          "type": "address"
        },
        {
          "internalType": "address",
          "name": "_proxyFactoryAddress",
          "type": "address"
        },
        {
          "internalType": "address",
          "name": "_gnosisMasterAddress",
          "type": "address"
        },
        {
          "internalType": "address",
          "name": "_podENSRegisrar",
          "type": "address"
        }
      ],
      "stateMutability": "nonpayable",
      "type": "constructor"
    },
    {
      "anonymous": false,
      "inputs": [
        {
          "indexed": false,
          "internalType": "uint256",
          "name": "podId",
          "type": "uint256"
        },
        {
          "indexed": false,
          "internalType": "address",
          "name": "safe",
          "type": "address"
        },
        {
          "indexed": false,
          "internalType": "address",
          "name": "admin",
          "type": "address"
        }
      ],
      "name": "CreatePod",
      "type": "event"
    },
    {
      "anonymous": false,
      "inputs": [
        {
          "indexed": false,
          "internalType": "uint256",
          "name": "podId",
          "type": "uint256"
        },
        {
          "indexed": false,
          "internalType": "address",
          "name": "admin",
          "type": "address"
        }
      ],
      "name": "UpdatePodAdmin",
      "type": "event"
    },
    {
      "inputs": [],
      "name": "FUNCTION_SIG_ENABLE",
      "outputs": [
        {
          "internalType": "string",
          "name": "",
          "type": "string"
        }
      ],
      "stateMutability": "view",
      "type": "function"
    },
    {
      "inputs": [],
      "name": "FUNCTION_SIG_EXEC",
      "outputs": [
        {
          "internalType": "string",
          "name": "",
          "type": "string"
        }
      ],
      "stateMutability": "view",
      "type": "function"
    },
    {
      "inputs": [],
      "name": "FUNCTION_SIG_SETUP",
      "outputs": [
        {
          "internalType": "string",
          "name": "",
          "type": "string"
        }
      ],
      "stateMutability": "view",
      "type": "function"
    },
    {
      "inputs": [
        {
          "internalType": "address",
          "name": "operator",
          "type": "address"
        },
        {
          "internalType": "address",
          "name": "from",
          "type": "address"
        },
        {
          "internalType": "address",
          "name": "to",
          "type": "address"
        },
        {
          "internalType": "uint256[]",
          "name": "ids",
          "type": "uint256[]"
        },
        {
          "internalType": "uint256[]",
          "name": "",
          "type": "uint256[]"
        },
        {
          "internalType": "bytes",
          "name": "data",
          "type": "bytes"
        }
      ],
      "name": "beforeTokenTransfer",
      "outputs": [],
      "stateMutability": "nonpayable",
      "type": "function"
    },
    {
      "inputs": [],
      "name": "controllerRegistry",
      "outputs": [
        {
          "internalType": "contract IControllerRegistry",
          "name": "",
          "type": "address"
        }
      ],
      "stateMutability": "view",
      "type": "function"
    },
    {
      "inputs": [
        {
          "internalType": "address[]",
          "name": "_members",
          "type": "address[]"
        },
        {
          "internalType": "uint256",
          "name": "threshold",
          "type": "uint256"
        },
        {
          "internalType": "address",
          "name": "_admin",
          "type": "address"
        },
        {
          "internalType": "bytes32",
          "name": "_label",
          "type": "bytes32"
        },
        {
          "internalType": "string",
          "name": "_ensString",
          "type": "string"
        }
      ],
      "name": "createPod",
      "outputs": [],
      "stateMutability": "nonpayable",
      "type": "function"
    },
    {
      "inputs": [
        {
          "internalType": "address",
          "name": "_admin",
          "type": "address"
        },
        {
          "internalType": "address",
          "name": "_safe",
          "type": "address"
        },
        {
          "internalType": "bytes32",
          "name": "_label",
          "type": "bytes32"
        },
        {
          "internalType": "string",
          "name": "_ensString",
          "type": "string"
        }
      ],
      "name": "createPodWithSafe",
      "outputs": [],
      "stateMutability": "nonpayable",
      "type": "function"
    },
    {
      "inputs": [
        {
          "internalType": "address",
          "name": "_context",
          "type": "address"
        }
      ],
      "name": "delegateSetup",
      "outputs": [],
      "stateMutability": "nonpayable",
      "type": "function"
    },
    {
      "inputs": [
        {
          "internalType": "address",
          "name": "module",
          "type": "address"
        }
      ],
      "name": "enableModule",
      "outputs": [],
      "stateMutability": "nonpayable",
      "type": "function"
    },
    {
      "inputs": [
        {
          "internalType": "address",
          "name": "safe",
          "type": "address"
        }
      ],
      "name": "getSafeMembers",
      "outputs": [
        {
          "internalType": "address[]",
          "name": "",
          "type": "address[]"
        }
      ],
      "stateMutability": "view",
      "type": "function"
    },
    {
      "inputs": [],
      "name": "gnosisMasterAddress",
      "outputs": [
        {
          "internalType": "address",
          "name": "",
          "type": "address"
        }
      ],
      "stateMutability": "view",
      "type": "function"
    },
    {
      "inputs": [
        {
          "internalType": "address",
          "name": "safe",
          "type": "address"
        },
        {
          "internalType": "address",
          "name": "member",
          "type": "address"
        }
      ],
      "name": "isSafeMember",
      "outputs": [
        {
          "internalType": "bool",
          "name": "",
          "type": "bool"
        }
      ],
      "stateMutability": "view",
      "type": "function"
    },
    {
      "inputs": [
        {
          "internalType": "address",
          "name": "safe",
          "type": "address"
        }
      ],
      "name": "isSafeModuleEnabled",
      "outputs": [
        {
          "internalType": "bool",
          "name": "",
          "type": "bool"
        }
      ],
      "stateMutability": "view",
      "type": "function"
    },
    {
      "inputs": [],
      "name": "memberToken",
      "outputs": [
        {
          "internalType": "contract IMemberToken",
          "name": "",
          "type": "address"
        }
      ],
      "stateMutability": "view",
      "type": "function"
    },
    {
      "inputs": [
        {
          "internalType": "uint256",
          "name": "_podId",
          "type": "uint256"
        },
        {
          "internalType": "address",
          "name": "_newController",
          "type": "address"
        },
        {
          "internalType": "address",
          "name": "_prevModule",
          "type": "address"
        }
      ],
      "name": "migratePodController",
      "outputs": [],
      "stateMutability": "nonpayable",
      "type": "function"
    },
    {
      "inputs": [
        {
          "internalType": "uint256",
          "name": "",
          "type": "uint256"
        }
      ],
      "name": "podAdmin",
      "outputs": [
        {
          "internalType": "address",
          "name": "",
          "type": "address"
        }
      ],
      "stateMutability": "view",
      "type": "function"
    },
    {
      "inputs": [],
      "name": "podENSRegistrar",
      "outputs": [
        {
          "internalType": "contract IPodENSRegistrar",
          "name": "",
          "type": "address"
        }
      ],
      "stateMutability": "view",
      "type": "function"
    },
    {
      "inputs": [
        {
          "internalType": "uint256",
          "name": "",
          "type": "uint256"
        }
      ],
      "name": "podIdToSafe",
      "outputs": [
        {
          "internalType": "address",
          "name": "",
          "type": "address"
        }
      ],
      "stateMutability": "view",
      "type": "function"
    },
    {
      "inputs": [],
      "name": "proxyFactoryAddress",
      "outputs": [
        {
          "internalType": "address",
          "name": "",
          "type": "address"
        }
      ],
      "stateMutability": "view",
      "type": "function"
    },
    {
      "inputs": [
        {
          "internalType": "address",
          "name": "",
          "type": "address"
        }
      ],
      "name": "safeToPodId",
      "outputs": [
        {
          "internalType": "uint256",
          "name": "",
          "type": "uint256"
        }
      ],
      "stateMutability": "view",
      "type": "function"
    },
    {
      "inputs": [
        {
          "internalType": "uint256",
          "name": "_podId",
          "type": "uint256"
        },
        {
          "internalType": "address",
          "name": "_newAdmin",
          "type": "address"
        }
      ],
      "name": "updatePodAdmin",
      "outputs": [],
      "stateMutability": "nonpayable",
      "type": "function"
    },
    {
      "inputs": [
        {
          "internalType": "uint256",
          "name": "_podId",
          "type": "uint256"
        },
        {
          "internalType": "address",
          "name": "_podAdmin",
          "type": "address"
        },
        {
          "internalType": "address",
          "name": "_safeAddress",
          "type": "address"
        }
      ],
      "name": "updatePodState",
      "outputs": [],
      "stateMutability": "nonpayable",
      "type": "function"
    }
  ],
  "transactionHash": "0x30a6a77c61e19baf0d8f7b142925287b4907eafb31dbf442d417abe43ddd8e96",
  "args": [
    "0xf11a8D9D3FeEdEAFd8857Acdd39728a48a5D9610",
    "0xCf80fE424555B75c5ce7eF03D00c59c05DDd340A",
    "0xa6B71E26C5e0845f74c812102Ca7114b6a896AB2",
    "0xd9Db270c1B5E3Bd161E8c8503c55cEABeE709552",
    "0x5f9Eae977Abb26D34963Ab5B304D064aBE8CdB65"
  ],
  "solcInputHash": "78757493a29ceb6d610721ade959dff6",
  "bytecode": "0x6101006040523480156200001257600080fd5b5060405162004ccd38038062004ccd8339818101604052810190620000389190620003b9565b82828173ffffffffffffffffffffffffffffffffffffffff1660808173ffffffffffffffffffffffffffffffffffffffff1660601b815250508073ffffffffffffffffffffffffffffffffffffffff1660a08173ffffffffffffffffffffffffffffffffffffffff1660601b815250505050600073ffffffffffffffffffffffffffffffffffffffff168573ffffffffffffffffffffffffffffffffffffffff1614156200011d576040517f08c379a0000000000000000000000000000000000000000000000000000000008152600401620001149062000468565b60405180910390fd5b600073ffffffffffffffffffffffffffffffffffffffff168473ffffffffffffffffffffffffffffffffffffffff16141562000190576040517f08c379a0000000000000000000000000000000000000000000000000000000008152600401620001879062000468565b60405180910390fd5b600073ffffffffffffffffffffffffffffffffffffffff168373ffffffffffffffffffffffffffffffffffffffff16141562000203576040517f08c379a0000000000000000000000000000000000000000000000000000000008152600401620001fa9062000468565b60405180910390fd5b600073ffffffffffffffffffffffffffffffffffffffff168273ffffffffffffffffffffffffffffffffffffffff16141562000276576040517f08c379a00000000000000000000000000000000000000000000000000000000081526004016200026d9062000468565b60405180910390fd5b600073ffffffffffffffffffffffffffffffffffffffff168173ffffffffffffffffffffffffffffffffffffffff161415620002e9576040517f08c379a0000000000000000000000000000000000000000000000000000000008152600401620002e09062000468565b60405180910390fd5b8473ffffffffffffffffffffffffffffffffffffffff1660c08173ffffffffffffffffffffffffffffffffffffffff1660601b815250508373ffffffffffffffffffffffffffffffffffffffff1660e08173ffffffffffffffffffffffffffffffffffffffff1660601b81525050806000806101000a81548173ffffffffffffffffffffffffffffffffffffffff021916908373ffffffffffffffffffffffffffffffffffffffff160217905550505050505062000517565b600081519050620003b381620004fd565b92915050565b600080600080600060a08688031215620003d857620003d7620004cf565b5b6000620003e888828901620003a2565b9550506020620003fb88828901620003a2565b94505060406200040e88828901620003a2565b93505060606200042188828901620003a2565b92505060806200043488828901620003a2565b9150509295509295909350565b600062000450600f836200048a565b91506200045d82620004d4565b602082019050919050565b60006020820190508181036000830152620004838162000441565b9050919050565b600082825260208201905092915050565b6000620004a882620004af565b9050919050565b600073ffffffffffffffffffffffffffffffffffffffff82169050919050565b600080fd5b7f496e76616c696420616464726573730000000000000000000000000000000000600082015250565b62000508816200049b565b81146200051457600080fd5b50565b60805160601c60a05160601c60c05160601c60e05160601c61473f6200058e60003960008181610a2e01528181610e75015261106f01526000818161095e0152818161135b0152818161146a0152611c49015260008181610e510152611aa6015260008181610e990152611a6a015261473f6000f3fe608060405234801561001057600080fd5b50600436106101425760003560e01c8063827be3cc116100b8578063c50bb1641161007c578063c50bb16414610351578063c7e2a4fc1461036f578063cf00cec91461039f578063e1fc2cc1146103cf578063f0f39f5d146103eb578063fe258da71461040757610142565b8063827be3cc146102a95780638d092f5d146102c7578063b06a4120146102f7578063bbc4541b14610315578063be5405d21461033357610142565b80634a9b5db71161010a5780634a9b5db7146101fd578063514648bb1461021b5780635cb5438414610237578063610b59251461025557806362067cd11461027157806374d4f6d01461028d57610142565b806326a13d30146101475780632c8cde8214610165578063346e5c481461018157806337c591fa1461019d578063436f8d03146101cd575b600080fd5b61014f610437565b60405161015c9190613bac565b60405180910390f35b61017f600480360381019061017a919061328b565b610470565b005b61019b600480360381019061019691906133c5565b610493565b005b6101b760048036038101906101b29190612fe8565b61071b565b6040516101c49190613e0e565b60405180910390f35b6101e760048036038101906101e2919061336b565b610733565b6040516101f491906138b2565b60405180910390f35b610205610766565b6040516102129190613bac565b60405180910390f35b61023560048036038101906102309190613163565b610782565b005b61023f61095c565b60405161024c9190613b76565b60405180910390f35b61026f600480360381019061026a9190612fe8565b610980565b005b61028b60048036038101906102869190613405565b6109bc565b005b6102a760048036038101906102a29190612fe8565b610d92565b005b6102b1610e00565b6040516102be9190613bac565b60405180910390f35b6102e160048036038101906102dc919061336b565b610e1c565b6040516102ee91906138b2565b60405180910390f35b6102ff610e4f565b60405161030c91906138b2565b60405180910390f35b61031d610e73565b60405161032a9190613b5b565b60405180910390f35b61033b610e97565b60405161034891906138b2565b60405180910390f35b610359610ebb565b6040516103669190613b91565b60405180910390f35b61038960048036038101906103849190612fe8565b610edf565b6040516103969190613b17565b60405180910390f35b6103b960048036038101906103b49190612fe8565b610f71565b6040516103c69190613a32565b60405180910390f35b6103e960048036038101906103e49190613405565b610ffd565b005b61040560048036038101906104009190613082565b611468565b005b610421600480360381019061041c9190613042565b611867565b60405161042e9190613b17565b60405180910390f35b6040518060400160405280601681526020017f64656c656761746553657475702861646472657373290000000000000000000081525081565b600061047c86866118fa565b905061048b8682868686611bab565b505050505050565b60006003600084815260200190815260200160002060009054906101000a900473ffffffffffffffffffffffffffffffffffffffff16905060006002600085815260200190815260200160002060009054906101000a900473ffffffffffffffffffffffffffffffffffffffff169050600073ffffffffffffffffffffffffffffffffffffffff168173ffffffffffffffffffffffffffffffffffffffff161415610573576040517f08c379a000000000000000000000000000000000000000000000000000000000815260040161056a90613dae565b60405180910390fd5b600073ffffffffffffffffffffffffffffffffffffffff168273ffffffffffffffffffffffffffffffffffffffff16141561061b578073ffffffffffffffffffffffffffffffffffffffff163373ffffffffffffffffffffffffffffffffffffffff1614610616576040517f08c379a000000000000000000000000000000000000000000000000000000000815260040161060d90613d4e565b60405180910390fd5b61068a565b8173ffffffffffffffffffffffffffffffffffffffff163373ffffffffffffffffffffffffffffffffffffffff1614610689576040517f08c379a000000000000000000000000000000000000000000000000000000000815260040161068090613d6e565b60405180910390fd5b5b826003600086815260200190815260200160002060006101000a81548173ffffffffffffffffffffffffffffffffffffffff021916908373ffffffffffffffffffffffffffffffffffffffff1602179055507ffef38cfc44da305e6203142455e0a2b129109e8fd7b40914acff6874f170e3df848460405161070d929190613e29565b60405180910390a150505050565b60016020528060005260406000206000915090505481565b60036020528060005260406000206000915054906101000a900473ffffffffffffffffffffffffffffffffffffffff1681565b6040518060800160405280605a815260200161466a605a913981565b600073ffffffffffffffffffffffffffffffffffffffff168373ffffffffffffffffffffffffffffffffffffffff1614156107f2576040517f08c379a00000000000000000000000000000000000000000000000000000000081526004016107e990613c4e565b60405180910390fd5b6000600160008573ffffffffffffffffffffffffffffffffffffffff1673ffffffffffffffffffffffffffffffffffffffff1681526020019081526020016000205414610874576040517f08c379a000000000000000000000000000000000000000000000000000000000815260040161086b90613c0e565b60405180910390fd5b61087d83610edf565b6108bc576040517f08c379a00000000000000000000000000000000000000000000000000000000081526004016108b390613cee565b60405180910390fd5b6108c68333611867565b806108fc57508273ffffffffffffffffffffffffffffffffffffffff163373ffffffffffffffffffffffffffffffffffffffff16145b61093b576040517f08c379a000000000000000000000000000000000000000000000000000000000815260040161093290613cce565b60405180910390fd5b600061094684610f71565b90506109558185878686611bab565b5050505050565b7f000000000000000000000000000000000000000000000000000000000000000081565b600073ffffffffffffffffffffffffffffffffffffffff168173ffffffffffffffffffffffffffffffffffffffff16146109b957600080fd5b50565b600073ffffffffffffffffffffffffffffffffffffffff168173ffffffffffffffffffffffffffffffffffffffff161415610a2c576040517f08c379a0000000000000000000000000000000000000000000000000000000008152600401610a2390613bee565b60405180910390fd5b7f000000000000000000000000000000000000000000000000000000000000000073ffffffffffffffffffffffffffffffffffffffff1663c3c5a547336040518263ffffffff1660e01b8152600401610a8591906138b2565b60206040518083038186803b158015610a9d57600080fd5b505afa158015610ab1573d6000803e3d6000fd5b505050506040513d601f19601f82011682018060405250810190610ad5919061333e565b610b14576040517f08c379a0000000000000000000000000000000000000000000000000000000008152600401610b0b90613d0e565b60405180910390fd5b600073ffffffffffffffffffffffffffffffffffffffff166003600085815260200190815260200160002060009054906101000a900473ffffffffffffffffffffffffffffffffffffffff1673ffffffffffffffffffffffffffffffffffffffff16148015610be25750600073ffffffffffffffffffffffffffffffffffffffff166002600085815260200190815260200160002060009054906101000a900473ffffffffffffffffffffffffffffffffffffffff1673ffffffffffffffffffffffffffffffffffffffff16145b8015610c2d57506000600160008373ffffffffffffffffffffffffffffffffffffffff1673ffffffffffffffffffffffffffffffffffffffff16815260200190815260200160002054145b610c6c576040517f08c379a0000000000000000000000000000000000000000000000000000000008152600401610c6390613d8e565b60405180910390fd5b816003600085815260200190815260200160002060006101000a81548173ffffffffffffffffffffffffffffffffffffffff021916908373ffffffffffffffffffffffffffffffffffffffff160217905550806002600085815260200190815260200160002060006101000a81548173ffffffffffffffffffffffffffffffffffffffff021916908373ffffffffffffffffffffffffffffffffffffffff16021790555082600160008373ffffffffffffffffffffffffffffffffffffffff1673ffffffffffffffffffffffffffffffffffffffff168152602001908152602001600020819055507ffef38cfc44da305e6203142455e0a2b129109e8fd7b40914acff6874f170e3df8383604051610d85929190613e29565b60405180910390a1505050565b3073ffffffffffffffffffffffffffffffffffffffff1663610b5925826040518263ffffffff1660e01b8152600401610dcb91906138b2565b600060405180830381600087803b158015610de557600080fd5b505af1158015610df9573d6000803e3d6000fd5b5050505050565b6040518060800160405280604681526020016146c46046913981565b60026020528060005260406000206000915054906101000a900473ffffffffffffffffffffffffffffffffffffffff1681565b7f000000000000000000000000000000000000000000000000000000000000000081565b7f000000000000000000000000000000000000000000000000000000000000000081565b7f000000000000000000000000000000000000000000000000000000000000000081565b60008054906101000a900473ffffffffffffffffffffffffffffffffffffffff1681565b60008173ffffffffffffffffffffffffffffffffffffffff16632d9ad53d306040518263ffffffff1660e01b8152600401610f1a91906138b2565b60206040518083038186803b158015610f3257600080fd5b505afa158015610f46573d6000803e3d6000fd5b505050506040513d601f19601f82011682018060405250810190610f6a919061333e565b9050919050565b60608173ffffffffffffffffffffffffffffffffffffffff1663a0e67e2b6040518163ffffffff1660e01b815260040160006040518083038186803b158015610fb957600080fd5b505afa158015610fcd573d6000803e3d6000fd5b505050506040513d6000823e3d601f19601f82011682018060405250810190610ff691906131e6565b9050919050565b600073ffffffffffffffffffffffffffffffffffffffff168273ffffffffffffffffffffffffffffffffffffffff16141561106d576040517f08c379a000000000000000000000000000000000000000000000000000000000815260040161106490613bee565b60405180910390fd5b7f000000000000000000000000000000000000000000000000000000000000000073ffffffffffffffffffffffffffffffffffffffff1663c3c5a547836040518263ffffffff1660e01b81526004016110c691906138b2565b60206040518083038186803b1580156110de57600080fd5b505afa1580156110f2573d6000803e3d6000fd5b505050506040513d601f19601f82011682018060405250810190611116919061333e565b611155576040517f08c379a000000000000000000000000000000000000000000000000000000000815260040161114c90613d0e565b60405180910390fd5b60006003600085815260200190815260200160002060009054906101000a900473ffffffffffffffffffffffffffffffffffffffff16905060006002600086815260200190815260200160002060009054906101000a900473ffffffffffffffffffffffffffffffffffffffff1690508173ffffffffffffffffffffffffffffffffffffffff163373ffffffffffffffffffffffffffffffffffffffff16148061122a57508073ffffffffffffffffffffffffffffffffffffffff163373ffffffffffffffffffffffffffffffffffffffff16145b611269576040517f08c379a000000000000000000000000000000000000000000000000000000000815260040161126090613dee565b60405180910390fd5b600084905060006003600088815260200190815260200160002060006101000a81548173ffffffffffffffffffffffffffffffffffffffff021916908373ffffffffffffffffffffffffffffffffffffffff16021790555060006002600088815260200190815260200160002060006101000a81548173ffffffffffffffffffffffffffffffffffffffff021916908373ffffffffffffffffffffffffffffffffffffffff1602179055506000600160008473ffffffffffffffffffffffffffffffffffffffff1673ffffffffffffffffffffffffffffffffffffffff168152602001908152602001600020819055507f000000000000000000000000000000000000000000000000000000000000000073ffffffffffffffffffffffffffffffffffffffff16638278665487876040518363ffffffff1660e01b81526004016113b4929190613e29565b600060405180830381600087803b1580156113ce57600080fd5b505af11580156113e2573d6000803e3d6000fd5b505050506113f1828686611f4e565b8073ffffffffffffffffffffffffffffffffffffffff166362067cd18785856040518463ffffffff1660e01b815260040161142e93929190613e52565b600060405180830381600087803b15801561144857600080fd5b505af115801561145c573d6000803e3d6000fd5b50505050505050505050565b7f000000000000000000000000000000000000000000000000000000000000000073ffffffffffffffffffffffffffffffffffffffff163373ffffffffffffffffffffffffffffffffffffffff16146114f6576040517f08c379a00000000000000000000000000000000000000000000000000000000081526004016114ed90613c8e565b60405180910390fd5b3073ffffffffffffffffffffffffffffffffffffffff168673ffffffffffffffffffffffffffffffffffffffff161480156115585750600160ff16816000815181106115455761154461428f565b5b602001015160f81c60f81b60f81c60ff16145b156115625761185f565b60005b835181101561185d5760008482815181106115835761158261428f565b5b6020026020010151905060006002600083815260200190815260200160002060009054906101000a900473ffffffffffffffffffffffffffffffffffffffff16905060006003600084815260200190815260200160002060009054906101000a900473ffffffffffffffffffffffffffffffffffffffff169050600073ffffffffffffffffffffffffffffffffffffffff168973ffffffffffffffffffffffffffffffffffffffff16141561171b578173ffffffffffffffffffffffffffffffffffffffff168a73ffffffffffffffffffffffffffffffffffffffff16148061169757508073ffffffffffffffffffffffffffffffffffffffff168a73ffffffffffffffffffffffffffffffffffffffff16145b806116cd57503073ffffffffffffffffffffffffffffffffffffffff168a73ffffffffffffffffffffffffffffffffffffffff16145b61170c576040517f08c379a000000000000000000000000000000000000000000000000000000000815260040161170390613bce565b60405180910390fd5b611716888361234b565b611846565b600073ffffffffffffffffffffffffffffffffffffffff168873ffffffffffffffffffffffffffffffffffffffff161415611839578173ffffffffffffffffffffffffffffffffffffffff168a73ffffffffffffffffffffffffffffffffffffffff1614806117b557508073ffffffffffffffffffffffffffffffffffffffff168a73ffffffffffffffffffffffffffffffffffffffff16145b806117eb57503073ffffffffffffffffffffffffffffffffffffffff168a73ffffffffffffffffffffffffffffffffffffffff16145b61182a576040517f08c379a000000000000000000000000000000000000000000000000000000000815260040161182190613bce565b60405180910390fd5b6118348983612541565b611845565b611844898984612893565b5b5b5050506001816118569190613fe4565b9050611565565b505b505050505050565b60008273ffffffffffffffffffffffffffffffffffffffff16632f54bf6e836040518263ffffffff1660e01b81526004016118a291906138b2565b60206040518083038186803b1580156118ba57600080fd5b505afa1580156118ce573d6000803e3d6000fd5b505050506040513d601f19601f820116820180604052508101906118f2919061333e565b905092915050565b6000806040518060400160405280601681526020017f64656c65676174655365747570286164647265737329000000000000000000008152503060405160240161194491906138b2565b60405160208183030381529060405290604051611961919061389b565b60405180910390207bffffffffffffffffffffffffffffffffffffffffffffffffffffffff19166020820180517bffffffffffffffffffffffffffffffffffffffffffffffffffffffff8381831617835250505050905060006040518060800160405280604681526020016146c460469139858530856000806000806040516024016119f4989796959493929190613a8b565b60405160208183030381529060405290604051611a11919061389b565b60405180910390207bffffffffffffffffffffffffffffffffffffffffffffffffffffffff19166020820180517bffffffffffffffffffffffffffffffffffffffffffffffffffffffff838183161783525050505090507f000000000000000000000000000000000000000000000000000000000000000073ffffffffffffffffffffffffffffffffffffffff166361b69abd7f0000000000000000000000000000000000000000000000000000000000000000836040518363ffffffff1660e01b8152600401611ae3929190613964565b602060405180830381600087803b158015611afd57600080fd5b505af1925050508015611b2e57506040513d601f19601f82011682018060405250810190611b2b9190613015565b60015b611b9f573d8060008114611b5e576040519150601f19603f3d011682016040523d82523d6000602084013e611b63565b606091505b506040517f08c379a0000000000000000000000000000000000000000000000000000000008152600401611b9690613cae565b60405180910390fd5b80935050505092915050565b6000600167ffffffffffffffff811115611bc857611bc76142be565b5b6040519080825280601f01601f191660200182016040528015611bfa5781602001600182028036833780820191505090505b509050600160f81b81600081518110611c1657611c1561428f565b5b60200101907effffffffffffffffffffffffffffffffffffffffffffffffffffffffffffff1916908160001a90535060007f000000000000000000000000000000000000000000000000000000000000000073ffffffffffffffffffffffffffffffffffffffff16639aa0055e88846040518363ffffffff1660e01b8152600401611ca2929190613a54565b602060405180830381600087803b158015611cbc57600080fd5b505af1158015611cd0573d6000803e3d6000fd5b505050506040513d601f19601f82011682018060405250810190611cf49190613398565b90507fd04d9c55c49ed7b3098ec7ff52a43f347e36f88ba52ff5c27cf6ee33e2dde622818787604051611d2993929190613e52565b60405180910390a17ffef38cfc44da305e6203142455e0a2b129109e8fd7b40914acff6874f170e3df8186604051611d62929190613e29565b60405180910390a1600073ffffffffffffffffffffffffffffffffffffffff168573ffffffffffffffffffffffffffffffffffffffff1614611df157846003600083815260200190815260200160002060006101000a81548173ffffffffffffffffffffffffffffffffffffffff021916908373ffffffffffffffffffffffffffffffffffffffff1602179055505b856002600083815260200190815260200160002060006101000a81548173ffffffffffffffffffffffffffffffffffffffff021916908373ffffffffffffffffffffffffffffffffffffffff16021790555080600160008873ffffffffffffffffffffffffffffffffffffffff1673ffffffffffffffffffffffffffffffffffffffff1681526020019081526020016000208190555060008060009054906101000a900473ffffffffffffffffffffffffffffffffffffffff1673ffffffffffffffffffffffffffffffffffffffff1663ae33385986896040518363ffffffff1660e01b8152600401611ee5929190613b32565b602060405180830381600087803b158015611eff57600080fd5b505af1158015611f13573d6000803e3d6000fd5b505050506040513d601f19601f82011682018060405250810190611f379190613015565b9050611f44878286612b40565b5050505050505050565b600082604051602401611f6191906138b2565b6040516020818303038152906040527f610b5925000000000000000000000000000000000000000000000000000000007bffffffffffffffffffffffffffffffffffffffffffffffffffffffff19166020820180517bffffffffffffffffffffffffffffffffffffffffffffffffffffffff8381831617835250505050905060008473ffffffffffffffffffffffffffffffffffffffff1663468721a78660008560006040518563ffffffff1660e01b81526004016120239493929190613994565b602060405180830381600087803b15801561203d57600080fd5b505af1158015612051573d6000803e3d6000fd5b505050506040513d601f19601f82011682018060405250810190612075919061333e565b9050806120b7576040517f08c379a00000000000000000000000000000000000000000000000000000000081526004016120ae90613c6e565b60405180910390fd5b60008573ffffffffffffffffffffffffffffffffffffffff1663cc2f84528560016040518363ffffffff1660e01b81526004016120f59291906139e0565b60006040518083038186803b15801561210d57600080fd5b505afa158015612121573d6000803e3d6000fd5b505050506040513d6000823e3d601f19601f8201168201806040525081019061214a919061322f565b5090503073ffffffffffffffffffffffffffffffffffffffff16816000815181106121785761217761428f565b5b602002602001015173ffffffffffffffffffffffffffffffffffffffff16146121d6576040517f08c379a00000000000000000000000000000000000000000000000000000000081526004016121cd90613dce565b60405180910390fd5b600084306040516024016121eb9291906138cd565b6040516020818303038152906040527fe009cfde000000000000000000000000000000000000000000000000000000007bffffffffffffffffffffffffffffffffffffffffffffffffffffffff19166020820180517bffffffffffffffffffffffffffffffffffffffffffffffffffffffff8381831617835250505050905060008773ffffffffffffffffffffffffffffffffffffffff1663468721a78960008560006040518563ffffffff1660e01b81526004016122ad9493929190613994565b602060405180830381600087803b1580156122c757600080fd5b505af11580156122db573d6000803e3d6000fd5b505050506040513d601f19601f820116820180604052508101906122ff919061333e565b905080612341576040517f08c379a000000000000000000000000000000000000000000000000000000000815260040161233890613c2e565b60405180910390fd5b5050505050505050565b60008173ffffffffffffffffffffffffffffffffffffffff1663e75235b86040518163ffffffff1660e01b8152600401602060405180830381600087803b15801561239557600080fd5b505af11580156123a9573d6000803e3d6000fd5b505050506040513d601f19601f820116820180604052508101906123cd9190613398565b9050600083826040516024016123e4929190613a09565b6040516020818303038152906040527f0d582f13000000000000000000000000000000000000000000000000000000007bffffffffffffffffffffffffffffffffffffffffffffffffffffffff19166020820180517bffffffffffffffffffffffffffffffffffffffffffffffffffffffff8381831617835250505050905060008373ffffffffffffffffffffffffffffffffffffffff1663468721a78560008560006040518563ffffffff1660e01b81526004016124a69493929190613994565b602060405180830381600087803b1580156124c057600080fd5b505af11580156124d4573d6000803e3d6000fd5b505050506040513d601f19601f820116820180604052508101906124f8919061333e565b90508061253a576040517f08c379a000000000000000000000000000000000000000000000000000000000815260040161253190613d2e565b60405180910390fd5b5050505050565b60008173ffffffffffffffffffffffffffffffffffffffff1663e75235b86040518163ffffffff1660e01b8152600401602060405180830381600087803b15801561258b57600080fd5b505af115801561259f573d6000803e3d6000fd5b505050506040513d601f19601f820116820180604052508101906125c39190613398565b905060008273ffffffffffffffffffffffffffffffffffffffff1663a0e67e2b6040518163ffffffff1660e01b815260040160006040518083038186803b15801561260d57600080fd5b505afa158015612621573d6000803e3d6000fd5b505050506040513d6000823e3d601f19601f8201168201806040525081019061264a91906131e6565b90506000805b82518110156126f7578573ffffffffffffffffffffffffffffffffffffffff168382815181106126835761268261428f565b5b602002602001015173ffffffffffffffffffffffffffffffffffffffff1614156126e45760008114156126b957600191506126e3565b826001826126c7919061403a565b815181106126d8576126d761428f565b5b602002602001015191505b5b80806126ef906141e8565b915050612650565b508260018351612707919061403a565b101561271d5760018361271a919061403a565b92505b60008186856040516024016127349392919061392d565b6040516020818303038152906040527ff8dc5dd9000000000000000000000000000000000000000000000000000000007bffffffffffffffffffffffffffffffffffffffffffffffffffffffff19166020820180517bffffffffffffffffffffffffffffffffffffffffffffffffffffffff8381831617835250505050905060008573ffffffffffffffffffffffffffffffffffffffff1663468721a78760008560006040518563ffffffff1660e01b81526004016127f69493929190613994565b602060405180830381600087803b15801561281057600080fd5b505af1158015612824573d6000803e3d6000fd5b505050506040513d601f19601f82011682018060405250810190612848919061333e565b90508061288a576040517f08c379a000000000000000000000000000000000000000000000000000000000815260040161288190613d2e565b60405180910390fd5b50505050505050565b60008173ffffffffffffffffffffffffffffffffffffffff1663a0e67e2b6040518163ffffffff1660e01b815260040160006040518083038186803b1580156128db57600080fd5b505afa1580156128ef573d6000803e3d6000fd5b505050506040513d6000823e3d601f19601f8201168201806040525081019061291891906131e6565b9050600080600090505b82518110156129c9578573ffffffffffffffffffffffffffffffffffffffff168382815181106129555761295461428f565b5b602002602001015173ffffffffffffffffffffffffffffffffffffffff1614156129b657600081141561298b57600191506129b5565b82600182612999919061403a565b815181106129aa576129a961428f565b5b602002602001015191505b5b80806129c1906141e8565b915050612922565b5060008186866040516024016129e1939291906138f6565b6040516020818303038152906040527fe318b52b000000000000000000000000000000000000000000000000000000007bffffffffffffffffffffffffffffffffffffffffffffffffffffffff19166020820180517bffffffffffffffffffffffffffffffffffffffffffffffffffffffff8381831617835250505050905060008473ffffffffffffffffffffffffffffffffffffffff1663468721a78660008560006040518563ffffffff1660e01b8152600401612aa39493929190613994565b602060405180830381600087803b158015612abd57600080fd5b505af1158015612ad1573d6000803e3d6000fd5b505050506040513d601f19601f82011682018060405250810190612af5919061333e565b905080612b37576040517f08c379a0000000000000000000000000000000000000000000000000000000008152600401612b2e90613d2e565b60405180910390fd5b50505050505050565b600081604051602401612b539190613bac565b6040516020818303038152906040527fc47f0027000000000000000000000000000000000000000000000000000000007bffffffffffffffffffffffffffffffffffffffffffffffffffffffff19166020820180517bffffffffffffffffffffffffffffffffffffffffffffffffffffffff8381831617835250505050905060008473ffffffffffffffffffffffffffffffffffffffff1663468721a78560008560006040518563ffffffff1660e01b8152600401612c159493929190613994565b602060405180830381600087803b158015612c2f57600080fd5b505af1158015612c43573d6000803e3d6000fd5b505050506040513d601f19601f82011682018060405250810190612c67919061333e565b905080612ca9576040517f08c379a0000000000000000000000000000000000000000000000000000000008152600401612ca090613d2e565b60405180910390fd5b5050505050565b6000612cc3612cbe84613eae565b613e89565b90508083825260208201905082856020860282011115612ce657612ce56142f2565b5b60005b85811015612d165781612cfc8882612e84565b845260208401935060208301925050600181019050612ce9565b5050509392505050565b6000612d33612d2e84613eae565b613e89565b90508083825260208201905082856020860282011115612d5657612d556142f2565b5b60005b85811015612d865781612d6c8882612e99565b845260208401935060208301925050600181019050612d59565b5050509392505050565b6000612da3612d9e84613eda565b613e89565b90508083825260208201905082856020860282011115612dc657612dc56142f2565b5b60005b85811015612df65781612ddc8882612fbe565b845260208401935060208301925050600181019050612dc9565b5050509392505050565b6000612e13612e0e84613f06565b613e89565b905082815260208101848484011115612e2f57612e2e6142f7565b5b612e3a848285614175565b509392505050565b6000612e55612e5084613f37565b613e89565b905082815260208101848484011115612e7157612e706142f7565b5b612e7c848285614175565b509392505050565b600081359050612e938161460d565b92915050565b600081519050612ea88161460d565b92915050565b600082601f830112612ec357612ec26142ed565b5b8135612ed3848260208601612cb0565b91505092915050565b600082601f830112612ef157612ef06142ed565b5b8151612f01848260208601612d20565b91505092915050565b600082601f830112612f1f57612f1e6142ed565b5b8135612f2f848260208601612d90565b91505092915050565b600081519050612f4781614624565b92915050565b600081359050612f5c8161463b565b92915050565b600082601f830112612f7757612f766142ed565b5b8135612f87848260208601612e00565b91505092915050565b600082601f830112612fa557612fa46142ed565b5b8135612fb5848260208601612e42565b91505092915050565b600081359050612fcd81614652565b92915050565b600081519050612fe281614652565b92915050565b600060208284031215612ffe57612ffd614301565b5b600061300c84828501612e84565b91505092915050565b60006020828403121561302b5761302a614301565b5b600061303984828501612e99565b91505092915050565b6000806040838503121561305957613058614301565b5b600061306785828601612e84565b925050602061307885828601612e84565b9150509250929050565b60008060008060008060c0878903121561309f5761309e614301565b5b60006130ad89828a01612e84565b96505060206130be89828a01612e84565b95505060406130cf89828a01612e84565b945050606087013567ffffffffffffffff8111156130f0576130ef6142fc565b5b6130fc89828a01612f0a565b935050608087013567ffffffffffffffff81111561311d5761311c6142fc565b5b61312989828a01612f0a565b92505060a087013567ffffffffffffffff81111561314a576131496142fc565b5b61315689828a01612f62565b9150509295509295509295565b6000806000806080858703121561317d5761317c614301565b5b600061318b87828801612e84565b945050602061319c87828801612e84565b93505060406131ad87828801612f4d565b925050606085013567ffffffffffffffff8111156131ce576131cd6142fc565b5b6131da87828801612f90565b91505092959194509250565b6000602082840312156131fc576131fb614301565b5b600082015167ffffffffffffffff81111561321a576132196142fc565b5b61322684828501612edc565b91505092915050565b6000806040838503121561324657613245614301565b5b600083015167ffffffffffffffff811115613264576132636142fc565b5b61327085828601612edc565b925050602061328185828601612e99565b9150509250929050565b600080600080600060a086880312156132a7576132a6614301565b5b600086013567ffffffffffffffff8111156132c5576132c46142fc565b5b6132d188828901612eae565b95505060206132e288828901612fbe565b94505060406132f388828901612e84565b935050606061330488828901612f4d565b925050608086013567ffffffffffffffff811115613325576133246142fc565b5b61333188828901612f90565b9150509295509295909350565b60006020828403121561335457613353614301565b5b600061336284828501612f38565b91505092915050565b60006020828403121561338157613380614301565b5b600061338f84828501612fbe565b91505092915050565b6000602082840312156133ae576133ad614301565b5b60006133bc84828501612fd3565b91505092915050565b600080604083850312156133dc576133db614301565b5b60006133ea85828601612fbe565b92505060206133fb85828601612e84565b9150509250929050565b60008060006060848603121561341e5761341d614301565b5b600061342c86828701612fbe565b935050602061343d86828701612e84565b925050604061344e86828701612e84565b9150509250925092565b60006134648383613470565b60208301905092915050565b6134798161406e565b82525050565b6134888161406e565b82525050565b600061349982613f78565b6134a38185613fa6565b93506134ae83613f68565b8060005b838110156134df5781516134c68882613458565b97506134d183613f99565b9250506001810190506134b2565b5085935050505092915050565b6134f581614080565b82525050565b6135048161408c565b82525050565b600061351582613f83565b61351f8185613fb7565b935061352f818560208601614184565b61353881614306565b840191505092915050565b61354c816140d3565b82525050565b61355b816140e5565b82525050565b61356a816140f7565b82525050565b61357981614109565b82525050565b6135888161411b565b82525050565b6135978161412d565b82525050565b6135a68161413f565b82525050565b60006135b782613f8e565b6135c18185613fc8565b93506135d1818560208601614184565b6135da81614306565b840191505092915050565b60006135f082613f8e565b6135fa8185613fd9565b935061360a818560208601614184565b80840191505092915050565b6000613623600c83613fc8565b915061362e82614317565b602082019050919050565b6000613646600f83613fc8565b915061365182614340565b602082019050919050565b6000613669601383613fc8565b915061367482614369565b602082019050919050565b600061368c601b83613fc8565b915061369782614392565b602082019050919050565b60006136af601483613fc8565b91506136ba826143bb565b602082019050919050565b60006136d2601a83613fc8565b91506136dd826143e4565b602082019050919050565b60006136f5600e83613fc8565b91506137008261440d565b602082019050919050565b6000613718601d83613fc8565b915061372382614436565b602082019050919050565b600061373b601d83613fc8565b91506137468261445f565b602082019050919050565b600061375e601b83613fc8565b915061376982614488565b602082019050919050565b6000613781601983613fc8565b915061378c826144b1565b602082019050919050565b60006137a4601983613fc8565b91506137af826144da565b602082019050919050565b60006137c7601b83613fc8565b91506137d282614503565b602082019050919050565b60006137ea601b83613fc8565b91506137f58261452c565b602082019050919050565b600061380d601283613fc8565b915061381882614555565b602082019050919050565b6000613830601183613fc8565b915061383b8261457e565b602082019050919050565b6000613853601483613fc8565b915061385e826145a7565b602082019050919050565b6000613876601383613fc8565b9150613881826145d0565b602082019050919050565b613895816140c9565b82525050565b60006138a782846135e5565b915081905092915050565b60006020820190506138c7600083018461347f565b92915050565b60006040820190506138e2600083018561347f565b6138ef602083018461347f565b9392505050565b600060608201905061390b600083018661347f565b613918602083018561347f565b613925604083018461347f565b949350505050565b6000606082019050613942600083018661347f565b61394f602083018561347f565b61395c604083018461388c565b949350505050565b6000604082019050613979600083018561347f565b818103602083015261398b818461350a565b90509392505050565b60006080820190506139a9600083018761347f565b6139b6602083018661358e565b81810360408301526139c8818561350a565b90506139d7606083018461357f565b95945050505050565b60006040820190506139f5600083018561347f565b613a02602083018461359d565b9392505050565b6000604082019050613a1e600083018561347f565b613a2b602083018461388c565b9392505050565b60006020820190508181036000830152613a4c818461348e565b905092915050565b60006040820190508181036000830152613a6e818561348e565b90508181036020830152613a82818461350a565b90509392505050565b6000610100820190508181036000830152613aa6818b61348e565b9050613ab5602083018a61388c565b613ac26040830189613570565b8181036060830152613ad4818861350a565b9050613ae3608083018761347f565b613af060a083018661347f565b613afd60c083018561388c565b613b0a60e083018461347f565b9998505050505050505050565b6000602082019050613b2c60008301846134ec565b92915050565b6000604082019050613b4760008301856134fb565b613b54602083018461347f565b9392505050565b6000602082019050613b706000830184613543565b92915050565b6000602082019050613b8b6000830184613552565b92915050565b6000602082019050613ba66000830184613561565b92915050565b60006020820190508181036000830152613bc681846135ac565b905092915050565b60006020820190508181036000830152613be781613616565b9050919050565b60006020820190508181036000830152613c0781613639565b9050919050565b60006020820190508181036000830152613c278161365c565b9050919050565b60006020820190508181036000830152613c478161367f565b9050919050565b60006020820190508181036000830152613c67816136a2565b9050919050565b60006020820190508181036000830152613c87816136c5565b9050919050565b60006020820190508181036000830152613ca7816136e8565b9050919050565b60006020820190508181036000830152613cc78161370b565b9050919050565b60006020820190508181036000830152613ce78161372e565b9050919050565b60006020820190508181036000830152613d0781613751565b9050919050565b60006020820190508181036000830152613d2781613774565b9050919050565b60006020820190508181036000830152613d4781613797565b9050919050565b60006020820190508181036000830152613d67816137ba565b9050919050565b60006020820190508181036000830152613d87816137dd565b9050919050565b60006020820190508181036000830152613da781613800565b9050919050565b60006020820190508181036000830152613dc781613823565b9050919050565b60006020820190508181036000830152613de781613846565b9050919050565b60006020820190508181036000830152613e0781613869565b9050919050565b6000602082019050613e23600083018461388c565b92915050565b6000604082019050613e3e600083018561388c565b613e4b602083018461347f565b9392505050565b6000606082019050613e67600083018661388c565b613e74602083018561347f565b613e81604083018461347f565b949350505050565b6000613e93613ea4565b9050613e9f82826141b7565b919050565b6000604051905090565b600067ffffffffffffffff821115613ec957613ec86142be565b5b602082029050602081019050919050565b600067ffffffffffffffff821115613ef557613ef46142be565b5b602082029050602081019050919050565b600067ffffffffffffffff821115613f2157613f206142be565b5b613f2a82614306565b9050602081019050919050565b600067ffffffffffffffff821115613f5257613f516142be565b5b613f5b82614306565b9050602081019050919050565b6000819050602082019050919050565b600081519050919050565b600081519050919050565b600081519050919050565b6000602082019050919050565b600082825260208201905092915050565b600082825260208201905092915050565b600082825260208201905092915050565b600081905092915050565b6000613fef826140c9565b9150613ffa836140c9565b9250827fffffffffffffffffffffffffffffffffffffffffffffffffffffffffffffffff0382111561402f5761402e614231565b5b828201905092915050565b6000614045826140c9565b9150614050836140c9565b92508282101561406357614062614231565b5b828203905092915050565b6000614079826140a9565b9050919050565b60008115159050919050565b6000819050919050565b60008190506140a4826145f9565b919050565b600073ffffffffffffffffffffffffffffffffffffffff82169050919050565b6000819050919050565b60006140de82614151565b9050919050565b60006140f082614151565b9050919050565b600061410282614151565b9050919050565b600061411482614151565b9050919050565b600061412682614096565b9050919050565b6000614138826140c9565b9050919050565b600061414a826140c9565b9050919050565b600061415c82614163565b9050919050565b600061416e826140a9565b9050919050565b82818337600083830152505050565b60005b838110156141a2578082015181840152602081019050614187565b838111156141b1576000848401525b50505050565b6141c082614306565b810181811067ffffffffffffffff821117156141df576141de6142be565b5b80604052505050565b60006141f3826140c9565b91507fffffffffffffffffffffffffffffffffffffffffffffffffffffffffffffffff82141561422657614225614231565b5b600182019050919050565b7f4e487b7100000000000000000000000000000000000000000000000000000000600052601160045260246000fd5b7f4e487b7100000000000000000000000000000000000000000000000000000000600052602160045260246000fd5b7f4e487b7100000000000000000000000000000000000000000000000000000000600052603260045260246000fd5b7f4e487b7100000000000000000000000000000000000000000000000000000000600052604160045260246000fd5b600080fd5b600080fd5b600080fd5b600080fd5b600080fd5b6000601f19601f8301169050919050565b7f4e6f2052756c6573205365740000000000000000000000000000000000000000600082015250565b7f496e76616c696420616464726573730000000000000000000000000000000000600082015250565b7f7361666520616c726561647920696e2075736500000000000000000000000000600082015250565b7f4d6967726174696f6e206661696c6564206f6e2064697361626c650000000000600082015250565b7f696e76616c696420736166652061646472657373000000000000000000000000600082015250565b7f4d6967726174696f6e206661696c6564206f6e20656e61626c65000000000000600082015250565b7f4e6f7420417574686f72697a6564000000000000000000000000000000000000600082015250565b7f4372656174652050726f787920576974682044617461204661696c6564000000600082015250565b7f63616c6c6572206d7573742062652073616665206f72206d656d626572000000600082015250565b7f73616665206d6f64756c65206d75737420626520656e61626c65640000000000600082015250565b7f436f6e74726f6c6c6572206e6f74207265676973746572656400000000000000600082015250565b7f4d6f64756c65205472616e73616374696f6e204661696c656400000000000000600082015250565b7f4f6e6c7920736166652063616e20616464206e65772061646d696e0000000000600082015250565b7f4f6e6c792061646d696e2063616e207570646174652061646d696e0000000000600082015250565b7f506f6420616c7265616479206578697374730000000000000000000000000000600082015250565b7f506f6420646f65736e2774206578697374000000000000000000000000000000600082015250565b7f696e636f727265637420707265764d6f64756c65000000000000000000000000600082015250565b7f55736572206e6f7420617574686f72697a656400000000000000000000000000600082015250565b6002811061460a57614609614260565b5b50565b6146168161406e565b811461462157600080fd5b50565b61462d81614080565b811461463857600080fd5b50565b6146448161408c565b811461464f57600080fd5b50565b61465b816140c9565b811461466657600080fd5b5056fe657865635472616e73616374696f6e28616464726573732c75696e743235362c62797465732c75696e74382c75696e743235362c75696e743235362c75696e743235362c616464726573732c616464726573732c627974657329736574757028616464726573735b5d2c75696e743235362c616464726573732c62797465732c616464726573732c616464726573732c75696e743235362c6164647265737329a26469706673582212202c0a23271960f2b0d6d48d3a5aefa2411b8dea8fd8f8ada421bbdf68b5cfbe3664736f6c63430008070033",
  "devdoc": {
    "kind": "dev",
    "methods": {
      "beforeTokenTransfer(address,address,address,uint256[],uint256[],bytes)": {
        "params": {
          "data": "Passes a flag for an initial creation event",
          "from": "The address sending the membership token",
          "ids": "An array of membership token ids to be transfered",
          "operator": "The address that initiated the action",
          "to": "The address recieveing the membership token"
        }
      },
      "constructor": {
        "details": "Will instantiate safe teller with gnosis master and proxy addresses",
        "params": {
          "_controllerRegistry": "The address of the ControllerRegistry contract",
          "_gnosisMasterAddress": "The gnosis master address",
          "_memberToken": "The address of the MemberToken contract",
          "_proxyFactoryAddress": "The proxy factory address"
        }
      },
      "createPod(address[],uint256,address,bytes32,string)": {
        "params": {
          "_admin": "The address of the pod admin",
          "_ensString": "string of pod ens name (i.e.'mypod.pod.xyz')",
          "_label": "label hash of pod name (i.e labelhash('mypod'))",
          "_members": "The addresses of the members of the pod",
          "threshold": "The number of members that are required to sign a transaction"
        }
      },
      "createPodWithSafe(address,address,bytes32,string)": {
        "details": "Used to create a pod with an existing safeWill automatically distribute membership NFTs to current safe members",
        "params": {
          "_admin": "The address of the pod admin",
          "_ensString": "string of pod ens name (i.e.'mypod.pod.xyz')",
          "_label": "label hash of pod name (i.e labelhash('mypod'))",
          "_safe": "The address of existing safe"
        }
      },
      "migratePodController(uint256,address,address)": {
        "details": "This will nullify all pod state on this controllerUpdate state on _newControllerUpdate controller to _newController in Safe and MemberToken",
        "params": {
          "_newController": "The address of the new pod controller",
          "_podId": "The id number of the pod",
          "_prevModule": "The module that points to the orca module in the safe's ModuleManager linked list"
        }
      },
      "updatePodAdmin(uint256,address)": {
        "params": {
          "_newAdmin": "The address of the new pod admin",
          "_podId": "The id number of the pod"
        }
      },
      "updatePodState(uint256,address,address)": {
        "details": "This is called by another version of controller to migrate a pod to this versionWill only accept calls from registered controllersCan only be called once.",
        "params": {
          "_podAdmin": "The address of the pod admin",
          "_podId": "The id number of the pod",
          "_safeAddress": "The address of the safe"
        }
      }
    },
    "version": 1
  },
  "userdoc": {
    "kind": "user",
    "methods": {},
    "version": 1
  },
  "storageLayout": {
    "storage": [
      {
        "astId": 2327,
        "contract": "contracts/Controller.sol:Controller",
        "label": "podENSRegistrar",
        "offset": 0,
        "slot": "0",
        "type": "t_contract(IPodENSRegistrar)4039"
      },
      {
        "astId": 2331,
        "contract": "contracts/Controller.sol:Controller",
        "label": "safeToPodId",
        "offset": 0,
        "slot": "1",
        "type": "t_mapping(t_address,t_uint256)"
      },
      {
        "astId": 2335,
        "contract": "contracts/Controller.sol:Controller",
        "label": "podIdToSafe",
        "offset": 0,
        "slot": "2",
        "type": "t_mapping(t_uint256,t_address)"
      },
      {
        "astId": 2339,
        "contract": "contracts/Controller.sol:Controller",
        "label": "podAdmin",
        "offset": 0,
        "slot": "3",
        "type": "t_mapping(t_uint256,t_address)"
      }
    ],
    "types": {
      "t_address": {
        "encoding": "inplace",
        "label": "address",
        "numberOfBytes": "20"
      },
      "t_contract(IPodENSRegistrar)4039": {
        "encoding": "inplace",
        "label": "contract IPodENSRegistrar",
        "numberOfBytes": "20"
      },
      "t_mapping(t_address,t_uint256)": {
        "encoding": "mapping",
        "key": "t_address",
        "label": "mapping(address => uint256)",
        "numberOfBytes": "32",
        "value": "t_uint256"
      },
      "t_mapping(t_uint256,t_address)": {
        "encoding": "mapping",
        "key": "t_uint256",
        "label": "mapping(uint256 => address)",
        "numberOfBytes": "32",
        "value": "t_address"
      },
      "t_uint256": {
        "encoding": "inplace",
        "label": "uint256",
        "numberOfBytes": "32"
      }
    }
  }
}