{
  "address": "0x54567ff8b2cd52BfcD0b902Fb9eD654c4F739e94",
  "abi": [
    {
      "inputs": [
        {
          "internalType": "address",
          "name": "_controllerRegistry",
          "type": "address"
        }
      ],
      "stateMutability": "nonpayable",
      "type": "constructor"
    },
    {
      "anonymous": false,
      "inputs": [
        {
          "indexed": true,
          "internalType": "address",
          "name": "account",
          "type": "address"
        },
        {
          "indexed": true,
          "internalType": "address",
          "name": "operator",
          "type": "address"
        },
        {
          "indexed": false,
          "internalType": "bool",
          "name": "approved",
          "type": "bool"
        }
      ],
      "name": "ApprovalForAll",
      "type": "event"
    },
    {
      "anonymous": false,
      "inputs": [
        {
          "indexed": false,
          "internalType": "uint256",
          "name": "podId",
          "type": "uint256"
        },
        {
          "indexed": false,
          "internalType": "address",
          "name": "newController",
          "type": "address"
        }
      ],
      "name": "MigrateMemberController",
      "type": "event"
    },
    {
      "anonymous": false,
      "inputs": [
        {
          "indexed": true,
          "internalType": "address",
          "name": "operator",
          "type": "address"
        },
        {
          "indexed": true,
          "internalType": "address",
          "name": "from",
          "type": "address"
        },
        {
          "indexed": true,
          "internalType": "address",
          "name": "to",
          "type": "address"
        },
        {
          "indexed": false,
          "internalType": "uint256[]",
          "name": "ids",
          "type": "uint256[]"
        },
        {
          "indexed": false,
          "internalType": "uint256[]",
          "name": "values",
          "type": "uint256[]"
        }
      ],
      "name": "TransferBatch",
      "type": "event"
    },
    {
      "anonymous": false,
      "inputs": [
        {
          "indexed": true,
          "internalType": "address",
          "name": "operator",
          "type": "address"
        },
        {
          "indexed": true,
          "internalType": "address",
          "name": "from",
          "type": "address"
        },
        {
          "indexed": true,
          "internalType": "address",
          "name": "to",
          "type": "address"
        },
        {
          "indexed": false,
          "internalType": "uint256",
          "name": "id",
          "type": "uint256"
        },
        {
          "indexed": false,
          "internalType": "uint256",
          "name": "value",
          "type": "uint256"
        }
      ],
      "name": "TransferSingle",
      "type": "event"
    },
    {
      "anonymous": false,
      "inputs": [
        {
          "indexed": false,
          "internalType": "string",
          "name": "value",
          "type": "string"
        },
        {
          "indexed": true,
          "internalType": "uint256",
          "name": "id",
          "type": "uint256"
        }
      ],
      "name": "URI",
      "type": "event"
    },
    {
      "inputs": [
        {
          "internalType": "address",
          "name": "account",
          "type": "address"
        },
        {
          "internalType": "uint256",
          "name": "id",
          "type": "uint256"
        }
      ],
      "name": "balanceOf",
      "outputs": [
        {
          "internalType": "uint256",
          "name": "",
          "type": "uint256"
        }
      ],
      "stateMutability": "view",
      "type": "function"
    },
    {
      "inputs": [
        {
          "internalType": "address[]",
          "name": "accounts",
          "type": "address[]"
        },
        {
          "internalType": "uint256[]",
          "name": "ids",
          "type": "uint256[]"
        }
      ],
      "name": "balanceOfBatch",
      "outputs": [
        {
          "internalType": "uint256[]",
          "name": "",
          "type": "uint256[]"
        }
      ],
      "stateMutability": "view",
      "type": "function"
    },
    {
      "inputs": [
        {
          "internalType": "address",
          "name": "_account",
          "type": "address"
        },
        {
          "internalType": "uint256",
          "name": "_id",
          "type": "uint256"
        }
      ],
      "name": "burn",
      "outputs": [],
      "stateMutability": "nonpayable",
      "type": "function"
    },
    {
      "inputs": [],
      "name": "controllerRegistry",
      "outputs": [
        {
          "internalType": "contract IControllerRegistry",
          "name": "",
          "type": "address"
        }
      ],
      "stateMutability": "view",
      "type": "function"
    },
    {
      "inputs": [
        {
          "internalType": "address[]",
          "name": "_accounts",
          "type": "address[]"
        },
        {
          "internalType": "bytes",
          "name": "data",
          "type": "bytes"
        }
      ],
      "name": "createPod",
      "outputs": [
        {
          "internalType": "uint256",
          "name": "",
          "type": "uint256"
        }
      ],
      "stateMutability": "nonpayable",
      "type": "function"
    },
    {
      "inputs": [
        {
          "internalType": "uint256",
          "name": "id",
          "type": "uint256"
        }
      ],
      "name": "exists",
      "outputs": [
        {
          "internalType": "bool",
          "name": "",
          "type": "bool"
        }
      ],
      "stateMutability": "view",
      "type": "function"
    },
    {
      "inputs": [],
      "name": "getNextAvailablePodId",
      "outputs": [
        {
          "internalType": "uint256",
          "name": "",
          "type": "uint256"
        }
      ],
      "stateMutability": "view",
      "type": "function"
    },
    {
      "inputs": [
        {
          "internalType": "address",
          "name": "account",
          "type": "address"
        },
        {
          "internalType": "address",
          "name": "operator",
          "type": "address"
        }
      ],
      "name": "isApprovedForAll",
      "outputs": [
        {
          "internalType": "bool",
          "name": "",
          "type": "bool"
        }
      ],
      "stateMutability": "view",
      "type": "function"
    },
    {
      "inputs": [
        {
          "internalType": "uint256",
          "name": "",
          "type": "uint256"
        }
      ],
      "name": "memberController",
      "outputs": [
        {
          "internalType": "address",
          "name": "",
          "type": "address"
        }
      ],
      "stateMutability": "view",
      "type": "function"
    },
    {
      "inputs": [
        {
          "internalType": "uint256",
          "name": "_podId",
          "type": "uint256"
        },
        {
          "internalType": "address",
          "name": "_newController",
          "type": "address"
        }
      ],
      "name": "migrateMemberController",
      "outputs": [],
      "stateMutability": "nonpayable",
      "type": "function"
    },
    {
      "inputs": [
        {
          "internalType": "address",
          "name": "_account",
          "type": "address"
        },
        {
          "internalType": "uint256",
          "name": "_id",
          "type": "uint256"
        },
        {
          "internalType": "bytes",
          "name": "data",
          "type": "bytes"
        }
      ],
      "name": "mint",
      "outputs": [],
      "stateMutability": "nonpayable",
      "type": "function"
    },
    {
      "inputs": [
        {
          "internalType": "address[]",
          "name": "_accounts",
          "type": "address[]"
        },
        {
          "internalType": "uint256",
          "name": "_id",
          "type": "uint256"
        },
        {
          "internalType": "bytes",
          "name": "data",
          "type": "bytes"
        }
      ],
      "name": "mintSingleBatch",
      "outputs": [],
      "stateMutability": "nonpayable",
      "type": "function"
    },
    {
      "inputs": [],
      "name": "nextAvailablePodId",
      "outputs": [
        {
          "internalType": "uint256",
          "name": "",
          "type": "uint256"
        }
      ],
      "stateMutability": "view",
      "type": "function"
    },
    {
      "inputs": [
        {
          "internalType": "address",
          "name": "from",
          "type": "address"
        },
        {
          "internalType": "address",
          "name": "to",
          "type": "address"
        },
        {
          "internalType": "uint256[]",
          "name": "ids",
          "type": "uint256[]"
        },
        {
          "internalType": "uint256[]",
          "name": "amounts",
          "type": "uint256[]"
        },
        {
          "internalType": "bytes",
          "name": "data",
          "type": "bytes"
        }
      ],
      "name": "safeBatchTransferFrom",
      "outputs": [],
      "stateMutability": "nonpayable",
      "type": "function"
    },
    {
      "inputs": [
        {
          "internalType": "address",
          "name": "from",
          "type": "address"
        },
        {
          "internalType": "address",
          "name": "to",
          "type": "address"
        },
        {
          "internalType": "uint256",
          "name": "id",
          "type": "uint256"
        },
        {
          "internalType": "uint256",
          "name": "amount",
          "type": "uint256"
        },
        {
          "internalType": "bytes",
          "name": "data",
          "type": "bytes"
        }
      ],
      "name": "safeTransferFrom",
      "outputs": [],
      "stateMutability": "nonpayable",
      "type": "function"
    },
    {
      "inputs": [
        {
          "internalType": "address",
          "name": "operator",
          "type": "address"
        },
        {
          "internalType": "bool",
          "name": "approved",
          "type": "bool"
        }
      ],
      "name": "setApprovalForAll",
      "outputs": [],
      "stateMutability": "nonpayable",
      "type": "function"
    },
    {
      "inputs": [
        {
          "internalType": "bytes4",
          "name": "interfaceId",
          "type": "bytes4"
        }
      ],
      "name": "supportsInterface",
      "outputs": [
        {
          "internalType": "bool",
          "name": "",
          "type": "bool"
        }
      ],
      "stateMutability": "view",
      "type": "function"
    },
    {
      "inputs": [
        {
          "internalType": "uint256",
          "name": "id",
          "type": "uint256"
        }
      ],
      "name": "totalSupply",
      "outputs": [
        {
          "internalType": "uint256",
          "name": "",
          "type": "uint256"
        }
      ],
      "stateMutability": "view",
      "type": "function"
    },
    {
      "inputs": [
        {
          "internalType": "uint256",
          "name": "",
          "type": "uint256"
        }
      ],
      "name": "uri",
      "outputs": [
        {
          "internalType": "string",
          "name": "",
          "type": "string"
        }
      ],
      "stateMutability": "view",
      "type": "function"
    }
  ],
  "transactionHash": "0xb2bd600c865dcb7b0d97dbede75986236712667d79cac2d1c92b0a71e68a17df",
  "args": [
    "0xF93A40fcB9CC207eD7864F968f015bCe95035f8b"
  ],
  "solcInputHash": "78757493a29ceb6d610721ade959dff6",
  "bytecode": "0x608060405260006006553480156200001657600080fd5b5060405162003ed738038062003ed783398181016040528101906200003c919062000222565b6040518060400160405280600381526020017f504f44000000000000000000000000000000000000000000000000000000000081525062000083816200013f60201b60201c565b50600073ffffffffffffffffffffffffffffffffffffffff168173ffffffffffffffffffffffffffffffffffffffff161415620000f7576040517f08c379a0000000000000000000000000000000000000000000000000000000008152600401620000ee906200027b565b60405180910390fd5b80600460006101000a81548173ffffffffffffffffffffffffffffffffffffffff021916908373ffffffffffffffffffffffffffffffffffffffff160217905550506200038f565b8060029080519060200190620001579291906200015b565b5050565b8280546200016990620002e2565b90600052602060002090601f0160209004810192826200018d5760008555620001d9565b82601f10620001a857805160ff1916838001178555620001d9565b82800160010185558215620001d9579182015b82811115620001d8578251825591602001919060010190620001bb565b5b509050620001e89190620001ec565b5090565b5b8082111562000207576000816000905550600101620001ed565b5090565b6000815190506200021c8162000375565b92915050565b6000602082840312156200023b576200023a62000347565b5b60006200024b848285016200020b565b91505092915050565b600062000263600f836200029d565b915062000270826200034c565b602082019050919050565b60006020820190508181036000830152620002968162000254565b9050919050565b600082825260208201905092915050565b6000620002bb82620002c2565b9050919050565b600073ffffffffffffffffffffffffffffffffffffffff82169050919050565b60006002820490506001821680620002fb57607f821691505b6020821081141562000312576200031162000318565b5b50919050565b7f4e487b7100000000000000000000000000000000000000000000000000000000600052602260045260246000fd5b600080fd5b7f496e76616c696420616464726573730000000000000000000000000000000000600082015250565b6200038081620002ae565b81146200038c57600080fd5b50565b613b38806200039f6000396000f3fe608060405234801561001057600080fd5b50600436106101205760003560e01c806382786654116100ad578063bbc4541b11610071578063bbc4541b1461033d578063bd85b0391461035b578063db609ada1461038b578063e985e9c5146103a7578063f242432a146103d757610120565b8063827866541461029d57806394d008ef146102b95780639aa0055e146102d55780639dc29fac14610305578063a22cb4651461032157610120565b8063355eb493116100f4578063355eb493146101d15780634e1273f4146102015780634f558e79146102315780635e9337021461026157806378f716c31461027f57610120565b8062fdd58e1461012557806301ffc9a7146101555780630e89341c146101855780632eb2c2d6146101b5575b600080fd5b61013f600480360381019061013a9190612506565b6103f3565b60405161014c9190613054565b60405180910390f35b61016f600480360381019061016a919061275d565b6104bc565b60405161017c9190612d9c565b60405180910390f35b61019f600480360381019061019a91906127b7565b61059e565b6040516101ac9190612dd2565b60405180910390f35b6101cf60048036038101906101ca9190612360565b610632565b005b6101eb60048036038101906101e691906127b7565b6106d3565b6040516101f89190612bf0565b60405180910390f35b61021b600480360381019061021691906125b5565b610706565b6040516102289190612d43565b60405180910390f35b61024b600480360381019061024691906127b7565b61081f565b6040516102589190612d9c565b60405180910390f35b610269610833565b6040516102769190613054565b60405180910390f35b61028761083d565b6040516102949190613054565b60405180910390f35b6102b760048036038101906102b291906127e4565b610843565b005b6102d360048036038101906102ce9190612546565b610acd565b005b6102ef60048036038101906102ea919061262d565b610adf565b6040516102fc9190613054565b60405180910390f35b61031f600480360381019061031a9190612506565b610c5c565b005b61033b600480360381019061033691906124c6565b610c6c565b005b610345610ded565b6040516103529190612db7565b60405180910390f35b610375600480360381019061037091906127b7565b610e13565b6040516103829190613054565b60405180910390f35b6103a560048036038101906103a091906126a5565b610e30565b005b6103c160048036038101906103bc9190612320565b610e7d565b6040516103ce9190612d9c565b60405180910390f35b6103f160048036038101906103ec919061242f565b610f11565b005b60008073ffffffffffffffffffffffffffffffffffffffff168373ffffffffffffffffffffffffffffffffffffffff161415610464576040517f08c379a000000000000000000000000000000000000000000000000000000000815260040161045b90612e54565b60405180910390fd5b60008083815260200190815260200160002060008473ffffffffffffffffffffffffffffffffffffffff1673ffffffffffffffffffffffffffffffffffffffff16815260200190815260200160002054905092915050565b60007fd9b67a26000000000000000000000000000000000000000000000000000000007bffffffffffffffffffffffffffffffffffffffffffffffffffffffff1916827bffffffffffffffffffffffffffffffffffffffffffffffffffffffff1916148061058757507f0e89341c000000000000000000000000000000000000000000000000000000007bffffffffffffffffffffffffffffffffffffffffffffffffffffffff1916827bffffffffffffffffffffffffffffffffffffffffffffffffffffffff1916145b80610597575061059682610fb2565b5b9050919050565b6060600280546105ad90613356565b80601f01602080910402602001604051908101604052809291908181526020018280546105d990613356565b80156106265780601f106105fb57610100808354040283529160200191610626565b820191906000526020600020905b81548152906001019060200180831161060957829003601f168201915b50505050509050919050565b61063a61101c565b73ffffffffffffffffffffffffffffffffffffffff168573ffffffffffffffffffffffffffffffffffffffff161480610680575061067f8561067a61101c565b610e7d565b5b6106bf576040517f08c379a00000000000000000000000000000000000000000000000000000000081526004016106b690612ef4565b60405180910390fd5b6106cc8585858585611024565b5050505050565b60056020528060005260406000206000915054906101000a900473ffffffffffffffffffffffffffffffffffffffff1681565b6060815183511461074c576040517f08c379a000000000000000000000000000000000000000000000000000000000815260040161074390612ff4565b60405180910390fd5b6000835167ffffffffffffffff8111156107695761076861348f565b5b6040519080825280602002602001820160405280156107975781602001602082028036833780820191505090505b50905060005b8451811015610814576107e48582815181106107bc576107bb613460565b5b60200260200101518583815181106107d7576107d6613460565b5b60200260200101516103f3565b8282815181106107f7576107f6613460565b5b6020026020010181815250508061080d906133b9565b905061079d565b508091505092915050565b60008061082b83610e13565b119050919050565b6000600654905090565b60065481565b600073ffffffffffffffffffffffffffffffffffffffff168173ffffffffffffffffffffffffffffffffffffffff1614156108b3576040517f08c379a00000000000000000000000000000000000000000000000000000000081526004016108aa90612e34565b60405180910390fd5b6005600083815260200190815260200160002060009054906101000a900473ffffffffffffffffffffffffffffffffffffffff1673ffffffffffffffffffffffffffffffffffffffff163373ffffffffffffffffffffffffffffffffffffffff1614610954576040517f08c379a000000000000000000000000000000000000000000000000000000000815260040161094b90612f94565b60405180910390fd5b600460009054906101000a900473ffffffffffffffffffffffffffffffffffffffff1673ffffffffffffffffffffffffffffffffffffffff1663c3c5a547826040518263ffffffff1660e01b81526004016109af9190612bf0565b60206040518083038186803b1580156109c757600080fd5b505afa1580156109db573d6000803e3d6000fd5b505050506040513d601f19601f820116820180604052508101906109ff9190612730565b610a3e576040517f08c379a0000000000000000000000000000000000000000000000000000000008152600401610a3590612f74565b60405180910390fd5b806005600084815260200190815260200160002060006101000a81548173ffffffffffffffffffffffffffffffffffffffff021916908373ffffffffffffffffffffffffffffffffffffffff1602179055507fc30443aa4d8d4b5e33b0904fa6687e345e706027fbe9140b5e6459f17077df228282604051610ac192919061306f565b60405180910390a15050565b610ada8383600184611338565b505050565b6000806006549050600160066000828254610afa91906131e0565b92505081905550600460009054906101000a900473ffffffffffffffffffffffffffffffffffffffff1673ffffffffffffffffffffffffffffffffffffffff1663c3c5a547336040518263ffffffff1660e01b8152600401610b5c9190612bf0565b60206040518083038186803b158015610b7457600080fd5b505afa158015610b88573d6000803e3d6000fd5b505050506040513d601f19601f82011682018060405250810190610bac9190612730565b610beb576040517f08c379a0000000000000000000000000000000000000000000000000000000008152600401610be290612f74565b60405180910390fd5b336005600083815260200190815260200160002060006101000a81548173ffffffffffffffffffffffffffffffffffffffff021916908373ffffffffffffffffffffffffffffffffffffffff1602179055506000845114610c5257610c51848285610e30565b5b8091505092915050565b610c6882826001611374565b5050565b8173ffffffffffffffffffffffffffffffffffffffff16610c8b61101c565b73ffffffffffffffffffffffffffffffffffffffff161415610ce2576040517f08c379a0000000000000000000000000000000000000000000000000000000008152600401610cd990612fb4565b60405180910390fd5b8060016000610cef61101c565b73ffffffffffffffffffffffffffffffffffffffff1673ffffffffffffffffffffffffffffffffffffffff16815260200190815260200160002060008473ffffffffffffffffffffffffffffffffffffffff1673ffffffffffffffffffffffffffffffffffffffff16815260200190815260200160002060006101000a81548160ff0219169083151502179055508173ffffffffffffffffffffffffffffffffffffffff16610d9c61101c565b73ffffffffffffffffffffffffffffffffffffffff167f17307eab39ab6107e8899845ad3d59bd9653f200f220920489ca2b5937696c3183604051610de19190612d9c565b60405180910390a35050565b600460009054906101000a900473ffffffffffffffffffffffffffffffffffffffff1681565b600060036000838152602001908152602001600020549050919050565b60005b8351811015610e7757610e63848281518110610e5257610e51613460565b5b602002602001015184600185611338565b600181610e7091906131e0565b9050610e33565b50505050565b6000600160008473ffffffffffffffffffffffffffffffffffffffff1673ffffffffffffffffffffffffffffffffffffffff16815260200190815260200160002060008373ffffffffffffffffffffffffffffffffffffffff1673ffffffffffffffffffffffffffffffffffffffff16815260200190815260200160002060009054906101000a900460ff16905092915050565b610f1961101c565b73ffffffffffffffffffffffffffffffffffffffff168573ffffffffffffffffffffffffffffffffffffffff161480610f5f5750610f5e85610f5961101c565b610e7d565b5b610f9e576040517f08c379a0000000000000000000000000000000000000000000000000000000008152600401610f9590612e94565b60405180910390fd5b610fab85858585856113ae565b5050505050565b60007f01ffc9a7000000000000000000000000000000000000000000000000000000007bffffffffffffffffffffffffffffffffffffffffffffffffffffffff1916827bffffffffffffffffffffffffffffffffffffffffffffffffffffffff1916149050919050565b600033905090565b8151835114611068576040517f08c379a000000000000000000000000000000000000000000000000000000000815260040161105f90613014565b60405180910390fd5b600073ffffffffffffffffffffffffffffffffffffffff168473ffffffffffffffffffffffffffffffffffffffff1614156110d8576040517f08c379a00000000000000000000000000000000000000000000000000000000081526004016110cf90612ed4565b60405180910390fd5b60006110e261101c565b90506110f2818787878787611630565b60005b84518110156112a357600085828151811061111357611112613460565b5b60200260200101519050600085838151811061113257611131613460565b5b60200260200101519050600080600084815260200190815260200160002060008b73ffffffffffffffffffffffffffffffffffffffff1673ffffffffffffffffffffffffffffffffffffffff168152602001908152602001600020549050818110156111d3576040517f08c379a00000000000000000000000000000000000000000000000000000000081526004016111ca90612f34565b60405180910390fd5b81810360008085815260200190815260200160002060008c73ffffffffffffffffffffffffffffffffffffffff1673ffffffffffffffffffffffffffffffffffffffff168152602001908152602001600020819055508160008085815260200190815260200160002060008b73ffffffffffffffffffffffffffffffffffffffff1673ffffffffffffffffffffffffffffffffffffffff168152602001908152602001600020600082825461128891906131e0565b925050819055505050508061129c906133b9565b90506110f5565b508473ffffffffffffffffffffffffffffffffffffffff168673ffffffffffffffffffffffffffffffffffffffff168273ffffffffffffffffffffffffffffffffffffffff167f4a39dc06d4c0dbc64b70af90fd698a233a518aa5d07e595d983b8c0526c8f7fb878760405161131a929190612d65565b60405180910390a46113308187878787876118e8565b505050505050565b61134484848484611acf565b8160036000858152602001908152602001600020600082825461136791906131e0565b9250508190555050505050565b61137f838383611c65565b806003600084815260200190815260200160002060008282546113a29190613236565b92505081905550505050565b600073ffffffffffffffffffffffffffffffffffffffff168473ffffffffffffffffffffffffffffffffffffffff16141561141e576040517f08c379a000000000000000000000000000000000000000000000000000000000815260040161141590612ed4565b60405180910390fd5b600061142861101c565b905061144881878761143988611e82565b61144288611e82565b87611630565b600080600086815260200190815260200160002060008873ffffffffffffffffffffffffffffffffffffffff1673ffffffffffffffffffffffffffffffffffffffff168152602001908152602001600020549050838110156114df576040517f08c379a00000000000000000000000000000000000000000000000000000000081526004016114d690612f34565b60405180910390fd5b83810360008087815260200190815260200160002060008973ffffffffffffffffffffffffffffffffffffffff1673ffffffffffffffffffffffffffffffffffffffff168152602001908152602001600020819055508360008087815260200190815260200160002060008873ffffffffffffffffffffffffffffffffffffffff1673ffffffffffffffffffffffffffffffffffffffff168152602001908152602001600020600082825461159491906131e0565b925050819055508573ffffffffffffffffffffffffffffffffffffffff168773ffffffffffffffffffffffffffffffffffffffff168373ffffffffffffffffffffffffffffffffffffffff167fc3d58168c5ae7397731d063d5bbf3d657854427343f4c083240f7aacaa2d0f628888604051611611929190613098565b60405180910390a4611627828888888888611efc565b50505050505050565b6000600560008560008151811061164a57611649613460565b5b6020026020010151815260200190815260200160002060009054906101000a900473ffffffffffffffffffffffffffffffffffffffff169050600073ffffffffffffffffffffffffffffffffffffffff168173ffffffffffffffffffffffffffffffffffffffff1614156116f3576040517f08c379a00000000000000000000000000000000000000000000000000000000081526004016116ea90612fd4565b60405180910390fd5b60005b845181101561186957600073ffffffffffffffffffffffffffffffffffffffff168673ffffffffffffffffffffffffffffffffffffffff161461179a5760006117598787848151811061174c5761174b613460565b5b60200260200101516103f3565b14611799576040517f08c379a000000000000000000000000000000000000000000000000000000000815260040161179090612eb4565b60405180910390fd5b5b8173ffffffffffffffffffffffffffffffffffffffff16600560008784815181106117c8576117c7613460565b5b6020026020010151815260200190815260200160002060009054906101000a900473ffffffffffffffffffffffffffffffffffffffff1673ffffffffffffffffffffffffffffffffffffffff1614611855576040517f08c379a000000000000000000000000000000000000000000000000000000000815260040161184c90612f54565b60405180910390fd5b60018161186291906131e0565b90506116f6565b508073ffffffffffffffffffffffffffffffffffffffff1663f0f39f5d8888888888886040518763ffffffff1660e01b81526004016118ad96959493929190612c0b565b600060405180830381600087803b1580156118c757600080fd5b505af11580156118db573d6000803e3d6000fd5b5050505050505050505050565b6119078473ffffffffffffffffffffffffffffffffffffffff166120e3565b15611ac7578373ffffffffffffffffffffffffffffffffffffffff1663bc197c8187878686866040518663ffffffff1660e01b815260040161194d959493929190612c81565b602060405180830381600087803b15801561196757600080fd5b505af192505050801561199857506040513d601f19601f82011682018060405250810190611995919061278a565b60015b611a3e576119a46134be565b806308c379a01415611a0157506119b9613a10565b806119c45750611a03565b806040517f08c379a00000000000000000000000000000000000000000000000000000000081526004016119f89190612dd2565b60405180910390fd5b505b6040517f08c379a0000000000000000000000000000000000000000000000000000000008152600401611a3590612df4565b60405180910390fd5b63bc197c8160e01b7bffffffffffffffffffffffffffffffffffffffffffffffffffffffff1916817bffffffffffffffffffffffffffffffffffffffffffffffffffffffff191614611ac5576040517f08c379a0000000000000000000000000000000000000000000000000000000008152600401611abc90612e14565b60405180910390fd5b505b505050505050565b600073ffffffffffffffffffffffffffffffffffffffff168473ffffffffffffffffffffffffffffffffffffffff161415611b3f576040517f08c379a0000000000000000000000000000000000000000000000000000000008152600401611b3690613034565b60405180910390fd5b6000611b4961101c565b9050611b6a81600087611b5b88611e82565b611b6488611e82565b87611630565b8260008086815260200190815260200160002060008773ffffffffffffffffffffffffffffffffffffffff1673ffffffffffffffffffffffffffffffffffffffff1681526020019081526020016000206000828254611bc991906131e0565b925050819055508473ffffffffffffffffffffffffffffffffffffffff16600073ffffffffffffffffffffffffffffffffffffffff168273ffffffffffffffffffffffffffffffffffffffff167fc3d58168c5ae7397731d063d5bbf3d657854427343f4c083240f7aacaa2d0f628787604051611c47929190613098565b60405180910390a4611c5e81600087878787611efc565b5050505050565b600073ffffffffffffffffffffffffffffffffffffffff168373ffffffffffffffffffffffffffffffffffffffff161415611cd5576040517f08c379a0000000000000000000000000000000000000000000000000000000008152600401611ccc90612f14565b60405180910390fd5b6000611cdf61101c565b9050611d0f81856000611cf187611e82565b611cfa87611e82565b60405180602001604052806000815250611630565b600080600085815260200190815260200160002060008673ffffffffffffffffffffffffffffffffffffffff1673ffffffffffffffffffffffffffffffffffffffff16815260200190815260200160002054905082811015611da6576040517f08c379a0000000000000000000000000000000000000000000000000000000008152600401611d9d90612e74565b60405180910390fd5b82810360008086815260200190815260200160002060008773ffffffffffffffffffffffffffffffffffffffff1673ffffffffffffffffffffffffffffffffffffffff16815260200190815260200160002081905550600073ffffffffffffffffffffffffffffffffffffffff168573ffffffffffffffffffffffffffffffffffffffff168373ffffffffffffffffffffffffffffffffffffffff167fc3d58168c5ae7397731d063d5bbf3d657854427343f4c083240f7aacaa2d0f628787604051611e73929190613098565b60405180910390a45050505050565b60606000600167ffffffffffffffff811115611ea157611ea061348f565b5b604051908082528060200260200182016040528015611ecf5781602001602082028036833780820191505090505b5090508281600081518110611ee757611ee6613460565b5b60200260200101818152505080915050919050565b611f1b8473ffffffffffffffffffffffffffffffffffffffff166120e3565b156120db578373ffffffffffffffffffffffffffffffffffffffff1663f23a6e6187878686866040518663ffffffff1660e01b8152600401611f61959493929190612ce9565b602060405180830381600087803b158015611f7b57600080fd5b505af1925050508015611fac57506040513d601f19601f82011682018060405250810190611fa9919061278a565b60015b61205257611fb86134be565b806308c379a014156120155750611fcd613a10565b80611fd85750612017565b806040517f08c379a000000000000000000000000000000000000000000000000000000000815260040161200c9190612dd2565b60405180910390fd5b505b6040517f08c379a000000000000000000000000000000000000000000000000000000000815260040161204990612df4565b60405180910390fd5b63f23a6e6160e01b7bffffffffffffffffffffffffffffffffffffffffffffffffffffffff1916817bffffffffffffffffffffffffffffffffffffffffffffffffffffffff1916146120d9576040517f08c379a00000000000000000000000000000000000000000000000000000000081526004016120d090612e14565b60405180910390fd5b505b505050505050565b600080823b905060008111915050919050565b6000612109612104846130e6565b6130c1565b9050808382526020820190508285602086028201111561212c5761212b6134e5565b5b60005b8581101561215c57816121428882612218565b84526020840193506020830192505060018101905061212f565b5050509392505050565b600061217961217484613112565b6130c1565b9050808382526020820190508285602086028201111561219c5761219b6134e5565b5b60005b858110156121cc57816121b2888261230b565b84526020840193506020830192505060018101905061219f565b5050509392505050565b60006121e96121e48461313e565b6130c1565b905082815260208101848484011115612205576122046134ea565b5b612210848285613314565b509392505050565b60008135905061222781613aa6565b92915050565b600082601f830112612242576122416134e0565b5b81356122528482602086016120f6565b91505092915050565b600082601f8301126122705761226f6134e0565b5b8135612280848260208601612166565b91505092915050565b60008135905061229881613abd565b92915050565b6000815190506122ad81613abd565b92915050565b6000813590506122c281613ad4565b92915050565b6000815190506122d781613ad4565b92915050565b600082601f8301126122f2576122f16134e0565b5b81356123028482602086016121d6565b91505092915050565b60008135905061231a81613aeb565b92915050565b60008060408385031215612337576123366134f4565b5b600061234585828601612218565b925050602061235685828601612218565b9150509250929050565b600080600080600060a0868803121561237c5761237b6134f4565b5b600061238a88828901612218565b955050602061239b88828901612218565b945050604086013567ffffffffffffffff8111156123bc576123bb6134ef565b5b6123c88882890161225b565b935050606086013567ffffffffffffffff8111156123e9576123e86134ef565b5b6123f58882890161225b565b925050608086013567ffffffffffffffff811115612416576124156134ef565b5b612422888289016122dd565b9150509295509295909350565b600080600080600060a0868803121561244b5761244a6134f4565b5b600061245988828901612218565b955050602061246a88828901612218565b945050604061247b8882890161230b565b935050606061248c8882890161230b565b925050608086013567ffffffffffffffff8111156124ad576124ac6134ef565b5b6124b9888289016122dd565b9150509295509295909350565b600080604083850312156124dd576124dc6134f4565b5b60006124eb85828601612218565b92505060206124fc85828601612289565b9150509250929050565b6000806040838503121561251d5761251c6134f4565b5b600061252b85828601612218565b925050602061253c8582860161230b565b9150509250929050565b60008060006060848603121561255f5761255e6134f4565b5b600061256d86828701612218565b935050602061257e8682870161230b565b925050604084013567ffffffffffffffff81111561259f5761259e6134ef565b5b6125ab868287016122dd565b9150509250925092565b600080604083850312156125cc576125cb6134f4565b5b600083013567ffffffffffffffff8111156125ea576125e96134ef565b5b6125f68582860161222d565b925050602083013567ffffffffffffffff811115612617576126166134ef565b5b6126238582860161225b565b9150509250929050565b60008060408385031215612644576126436134f4565b5b600083013567ffffffffffffffff811115612662576126616134ef565b5b61266e8582860161222d565b925050602083013567ffffffffffffffff81111561268f5761268e6134ef565b5b61269b858286016122dd565b9150509250929050565b6000806000606084860312156126be576126bd6134f4565b5b600084013567ffffffffffffffff8111156126dc576126db6134ef565b5b6126e88682870161222d565b93505060206126f98682870161230b565b925050604084013567ffffffffffffffff81111561271a576127196134ef565b5b612726868287016122dd565b9150509250925092565b600060208284031215612746576127456134f4565b5b60006127548482850161229e565b91505092915050565b600060208284031215612773576127726134f4565b5b6000612781848285016122b3565b91505092915050565b6000602082840312156127a05761279f6134f4565b5b60006127ae848285016122c8565b91505092915050565b6000602082840312156127cd576127cc6134f4565b5b60006127db8482850161230b565b91505092915050565b600080604083850312156127fb576127fa6134f4565b5b60006128098582860161230b565b925050602061281a85828601612218565b9150509250929050565b60006128308383612bd2565b60208301905092915050565b6128458161326a565b82525050565b60006128568261317f565b61286081856131ad565b935061286b8361316f565b8060005b8381101561289c5781516128838882612824565b975061288e836131a0565b92505060018101905061286f565b5085935050505092915050565b6128b28161327c565b82525050565b60006128c38261318a565b6128cd81856131be565b93506128dd818560208601613323565b6128e6816134f9565b840191505092915050565b6128fa816132de565b82525050565b600061290b82613195565b61291581856131cf565b9350612925818560208601613323565b61292e816134f9565b840191505092915050565b60006129466034836131cf565b915061295182613517565b604082019050919050565b60006129696028836131cf565b915061297482613566565b604082019050919050565b600061298c600f836131cf565b9150612997826135b5565b602082019050919050565b60006129af602b836131cf565b91506129ba826135de565b604082019050919050565b60006129d26024836131cf565b91506129dd8261362d565b604082019050919050565b60006129f56029836131cf565b9150612a008261367c565b604082019050919050565b6000612a186016836131cf565b9150612a23826136cb565b602082019050919050565b6000612a3b6025836131cf565b9150612a46826136f4565b604082019050919050565b6000612a5e6032836131cf565b9150612a6982613743565b604082019050919050565b6000612a816023836131cf565b9150612a8c82613792565b604082019050919050565b6000612aa4602a836131cf565b9150612aaf826137e1565b604082019050919050565b6000612ac7601e836131cf565b9150612ad282613830565b602082019050919050565b6000612aea6019836131cf565b9150612af582613859565b602082019050919050565b6000612b0d601a836131cf565b9150612b1882613882565b602082019050919050565b6000612b306029836131cf565b9150612b3b826138ab565b604082019050919050565b6000612b536011836131cf565b9150612b5e826138fa565b602082019050919050565b6000612b766029836131cf565b9150612b8182613923565b604082019050919050565b6000612b996028836131cf565b9150612ba482613972565b604082019050919050565b6000612bbc6021836131cf565b9150612bc7826139c1565b604082019050919050565b612bdb816132d4565b82525050565b612bea816132d4565b82525050565b6000602082019050612c05600083018461283c565b92915050565b600060c082019050612c20600083018961283c565b612c2d602083018861283c565b612c3a604083018761283c565b8181036060830152612c4c818661284b565b90508181036080830152612c60818561284b565b905081810360a0830152612c7481846128b8565b9050979650505050505050565b600060a082019050612c96600083018861283c565b612ca3602083018761283c565b8181036040830152612cb5818661284b565b90508181036060830152612cc9818561284b565b90508181036080830152612cdd81846128b8565b90509695505050505050565b600060a082019050612cfe600083018861283c565b612d0b602083018761283c565b612d186040830186612be1565b612d256060830185612be1565b8181036080830152612d3781846128b8565b90509695505050505050565b60006020820190508181036000830152612d5d818461284b565b905092915050565b60006040820190508181036000830152612d7f818561284b565b90508181036020830152612d93818461284b565b90509392505050565b6000602082019050612db160008301846128a9565b92915050565b6000602082019050612dcc60008301846128f1565b92915050565b60006020820190508181036000830152612dec8184612900565b905092915050565b60006020820190508181036000830152612e0d81612939565b9050919050565b60006020820190508181036000830152612e2d8161295c565b9050919050565b60006020820190508181036000830152612e4d8161297f565b9050919050565b60006020820190508181036000830152612e6d816129a2565b9050919050565b60006020820190508181036000830152612e8d816129c5565b9050919050565b60006020820190508181036000830152612ead816129e8565b9050919050565b60006020820190508181036000830152612ecd81612a0b565b9050919050565b60006020820190508181036000830152612eed81612a2e565b9050919050565b60006020820190508181036000830152612f0d81612a51565b9050919050565b60006020820190508181036000830152612f2d81612a74565b9050919050565b60006020820190508181036000830152612f4d81612a97565b9050919050565b60006020820190508181036000830152612f6d81612aba565b9050919050565b60006020820190508181036000830152612f8d81612add565b9050919050565b60006020820190508181036000830152612fad81612b00565b9050919050565b60006020820190508181036000830152612fcd81612b23565b9050919050565b60006020820190508181036000830152612fed81612b46565b9050919050565b6000602082019050818103600083015261300d81612b69565b9050919050565b6000602082019050818103600083015261302d81612b8c565b9050919050565b6000602082019050818103600083015261304d81612baf565b9050919050565b60006020820190506130696000830184612be1565b92915050565b60006040820190506130846000830185612be1565b613091602083018461283c565b9392505050565b60006040820190506130ad6000830185612be1565b6130ba6020830184612be1565b9392505050565b60006130cb6130dc565b90506130d78282613388565b919050565b6000604051905090565b600067ffffffffffffffff8211156131015761310061348f565b5b602082029050602081019050919050565b600067ffffffffffffffff82111561312d5761312c61348f565b5b602082029050602081019050919050565b600067ffffffffffffffff8211156131595761315861348f565b5b613162826134f9565b9050602081019050919050565b6000819050602082019050919050565b600081519050919050565b600081519050919050565b600081519050919050565b6000602082019050919050565b600082825260208201905092915050565b600082825260208201905092915050565b600082825260208201905092915050565b60006131eb826132d4565b91506131f6836132d4565b9250827fffffffffffffffffffffffffffffffffffffffffffffffffffffffffffffffff0382111561322b5761322a613402565b5b828201905092915050565b6000613241826132d4565b915061324c836132d4565b92508282101561325f5761325e613402565b5b828203905092915050565b6000613275826132b4565b9050919050565b60008115159050919050565b60007fffffffff0000000000000000000000000000000000000000000000000000000082169050919050565b600073ffffffffffffffffffffffffffffffffffffffff82169050919050565b6000819050919050565b60006132e9826132f0565b9050919050565b60006132fb82613302565b9050919050565b600061330d826132b4565b9050919050565b82818337600083830152505050565b60005b83811015613341578082015181840152602081019050613326565b83811115613350576000848401525b50505050565b6000600282049050600182168061336e57607f821691505b6020821081141561338257613381613431565b5b50919050565b613391826134f9565b810181811067ffffffffffffffff821117156133b0576133af61348f565b5b80604052505050565b60006133c4826132d4565b91507fffffffffffffffffffffffffffffffffffffffffffffffffffffffffffffffff8214156133f7576133f6613402565b5b600182019050919050565b7f4e487b7100000000000000000000000000000000000000000000000000000000600052601160045260246000fd5b7f4e487b7100000000000000000000000000000000000000000000000000000000600052602260045260246000fd5b7f4e487b7100000000000000000000000000000000000000000000000000000000600052603260045260246000fd5b7f4e487b7100000000000000000000000000000000000000000000000000000000600052604160045260246000fd5b600060033d11156134dd5760046000803e6134da60005161350a565b90505b90565b600080fd5b600080fd5b600080fd5b600080fd5b600080fd5b6000601f19601f8301169050919050565b60008160e01c9050919050565b7f455243313135353a207472616e7366657220746f206e6f6e204552433131353560008201527f526563656976657220696d706c656d656e746572000000000000000000000000602082015250565b7f455243313135353a204552433131353552656365697665722072656a6563746560008201527f6420746f6b656e73000000000000000000000000000000000000000000000000602082015250565b7f496e76616c696420616464726573730000000000000000000000000000000000600082015250565b7f455243313135353a2062616c616e636520717565727920666f7220746865207a60008201527f65726f2061646472657373000000000000000000000000000000000000000000602082015250565b7f455243313135353a206275726e20616d6f756e7420657863656564732062616c60008201527f616e636500000000000000000000000000000000000000000000000000000000602082015250565b7f455243313135353a2063616c6c6572206973206e6f74206f776e6572206e6f7260008201527f20617070726f7665640000000000000000000000000000000000000000000000602082015250565b7f5573657220697320616c7265616479206d656d62657200000000000000000000600082015250565b7f455243313135353a207472616e7366657220746f20746865207a65726f20616460008201527f6472657373000000000000000000000000000000000000000000000000000000602082015250565b7f455243313135353a207472616e736665722063616c6c6572206973206e6f742060008201527f6f776e6572206e6f7220617070726f7665640000000000000000000000000000602082015250565b7f455243313135353a206275726e2066726f6d20746865207a65726f206164647260008201527f6573730000000000000000000000000000000000000000000000000000000000602082015250565b7f455243313135353a20696e73756666696369656e742062616c616e636520666f60008201527f72207472616e7366657200000000000000000000000000000000000000000000602082015250565b7f496473206861766520646966666572656e7420636f6e74726f6c6c6572730000600082015250565b7f436f6e74726f6c6c6572206e6f74207265676973746572656400000000000000600082015250565b7f496e76616c6964206d69677261746520636f6e74726f6c6c6572000000000000600082015250565b7f455243313135353a2073657474696e6720617070726f76616c2073746174757360008201527f20666f722073656c660000000000000000000000000000000000000000000000602082015250565b7f506f6420646f65736e2774206578697374000000000000000000000000000000600082015250565b7f455243313135353a206163636f756e747320616e6420696473206c656e67746860008201527f206d69736d617463680000000000000000000000000000000000000000000000602082015250565b7f455243313135353a2069647320616e6420616d6f756e7473206c656e6774682060008201527f6d69736d61746368000000000000000000000000000000000000000000000000602082015250565b7f455243313135353a206d696e7420746f20746865207a65726f2061646472657360008201527f7300000000000000000000000000000000000000000000000000000000000000602082015250565b600060443d1015613a2057613aa3565b613a286130dc565b60043d036004823e80513d602482011167ffffffffffffffff82111715613a50575050613aa3565b808201805167ffffffffffffffff811115613a6e5750505050613aa3565b80602083010160043d038501811115613a8b575050505050613aa3565b613a9a82602001850186613388565b82955050505050505b90565b613aaf8161326a565b8114613aba57600080fd5b50565b613ac68161327c565b8114613ad157600080fd5b50565b613add81613288565b8114613ae857600080fd5b50565b613af4816132d4565b8114613aff57600080fd5b5056fea2646970667358221220a160c301617a5e913e3ab8dc9f4fd6bd1114fb3b6f2391d00225eff9ce72ce8564736f6c63430008070033",
  "devdoc": {
    "kind": "dev",
    "methods": {
      "balanceOf(address,uint256)": {
        "details": "See {IERC1155-balanceOf}. Requirements: - `account` cannot be the zero address."
      },
      "balanceOfBatch(address[],uint256[])": {
        "details": "See {IERC1155-balanceOfBatch}. Requirements: - `accounts` and `ids` must have the same length."
      },
      "burn(address,uint256)": {
        "params": {
          "_account": "The account address holding the membership token to destroy",
          "_id": "The id of the membership token to destroy"
        }
      },
      "constructor": {
        "params": {
          "_controllerRegistry": "The address of the ControllerRegistry contract"
        }
      },
      "exists(uint256)": {
        "details": "Indicates weither any token exist with a given id, or not."
      },
      "isApprovedForAll(address,address)": {
        "details": "See {IERC1155-isApprovedForAll}."
      },
      "migrateMemberController(uint256,address)": {
        "params": {
          "_newController": "The address of the new controller",
          "_podId": "The pod id number"
        }
      },
      "mint(address,uint256,bytes)": {
        "params": {
          "_account": "The account address to assign the membership token to",
          "_id": "The membership token id to mint",
          "data": "Passes a flag for initial creation event"
        }
      },
      "mintSingleBatch(address[],uint256,bytes)": {
        "params": {
          "_accounts": "The account addresses to assign the membership tokens to",
          "_id": "The membership token id to mint",
          "data": "Passes a flag for an initial creation event"
        }
      },
      "safeBatchTransferFrom(address,address,uint256[],uint256[],bytes)": {
        "details": "See {IERC1155-safeBatchTransferFrom}."
      },
      "safeTransferFrom(address,address,uint256,uint256,bytes)": {
        "details": "See {IERC1155-safeTransferFrom}."
      },
      "setApprovalForAll(address,bool)": {
        "details": "See {IERC1155-setApprovalForAll}."
      },
      "supportsInterface(bytes4)": {
        "details": "See {IERC165-supportsInterface}."
      },
      "totalSupply(uint256)": {
        "details": "Total amount of tokens in with a given id."
      },
      "uri(uint256)": {
        "details": "See {IERC1155MetadataURI-uri}. This implementation returns the same URI for *all* token types. It relies on the token type ID substitution mechanism https://eips.ethereum.org/EIPS/eip-1155#metadata[defined in the EIP]. Clients calling this function must replace the `\\{id\\}` substring with the actual token type ID."
      }
    },
    "version": 1
  },
  "userdoc": {
    "kind": "user",
    "methods": {},
    "version": 1
  },
  "storageLayout": {
    "storage": [
      {
        "astId": 517,
        "contract": "contracts/MemberToken.sol:MemberToken",
        "label": "_balances",
        "offset": 0,
        "slot": "0",
        "type": "t_mapping(t_uint256,t_mapping(t_address,t_uint256))"
      },
      {
        "astId": 523,
        "contract": "contracts/MemberToken.sol:MemberToken",
        "label": "_operatorApprovals",
        "offset": 0,
        "slot": "1",
        "type": "t_mapping(t_address,t_mapping(t_address,t_bool))"
      },
      {
        "astId": 525,
        "contract": "contracts/MemberToken.sol:MemberToken",
        "label": "_uri",
        "offset": 0,
        "slot": "2",
        "type": "t_string_storage"
      },
      {
        "astId": 1745,
        "contract": "contracts/MemberToken.sol:MemberToken",
        "label": "_totalSupply",
        "offset": 0,
        "slot": "3",
        "type": "t_mapping(t_uint256,t_uint256)"
      },
      {
        "astId": 3134,
        "contract": "contracts/MemberToken.sol:MemberToken",
        "label": "controllerRegistry",
        "offset": 0,
        "slot": "4",
        "type": "t_contract(IControllerRegistry)4269"
      },
      {
        "astId": 3138,
        "contract": "contracts/MemberToken.sol:MemberToken",
        "label": "memberController",
        "offset": 0,
        "slot": "5",
        "type": "t_mapping(t_uint256,t_address)"
      },
      {
        "astId": 3141,
        "contract": "contracts/MemberToken.sol:MemberToken",
        "label": "nextAvailablePodId",
        "offset": 0,
        "slot": "6",
        "type": "t_uint256"
      }
    ],
    "types": {
      "t_address": {
        "encoding": "inplace",
        "label": "address",
        "numberOfBytes": "20"
      },
      "t_bool": {
        "encoding": "inplace",
        "label": "bool",
        "numberOfBytes": "1"
      },
      "t_contract(IControllerRegistry)4269": {
        "encoding": "inplace",
        "label": "contract IControllerRegistry",
        "numberOfBytes": "20"
      },
      "t_mapping(t_address,t_bool)": {
        "encoding": "mapping",
        "key": "t_address",
        "label": "mapping(address => bool)",
        "numberOfBytes": "32",
        "value": "t_bool"
      },
      "t_mapping(t_address,t_mapping(t_address,t_bool))": {
        "encoding": "mapping",
        "key": "t_address",
        "label": "mapping(address => mapping(address => bool))",
        "numberOfBytes": "32",
        "value": "t_mapping(t_address,t_bool)"
      },
      "t_mapping(t_address,t_uint256)": {
        "encoding": "mapping",
        "key": "t_address",
        "label": "mapping(address => uint256)",
        "numberOfBytes": "32",
        "value": "t_uint256"
      },
      "t_mapping(t_uint256,t_address)": {
        "encoding": "mapping",
        "key": "t_uint256",
        "label": "mapping(uint256 => address)",
        "numberOfBytes": "32",
        "value": "t_address"
      },
      "t_mapping(t_uint256,t_mapping(t_address,t_uint256))": {
        "encoding": "mapping",
        "key": "t_uint256",
        "label": "mapping(uint256 => mapping(address => uint256))",
        "numberOfBytes": "32",
        "value": "t_mapping(t_address,t_uint256)"
      },
      "t_mapping(t_uint256,t_uint256)": {
        "encoding": "mapping",
        "key": "t_uint256",
        "label": "mapping(uint256 => uint256)",
        "numberOfBytes": "32",
        "value": "t_uint256"
      },
      "t_string_storage": {
        "encoding": "bytes",
        "label": "string",
        "numberOfBytes": "32"
      },
      "t_uint256": {
        "encoding": "inplace",
        "label": "uint256",
        "numberOfBytes": "32"
      }
    }
  }
}