{
  "address": "0x8DC995523c9c1C6180c50d0CE0733621E63ef8E1",
  "abi": [
    {
      "inputs": [
        {
          "internalType": "address",
          "name": "_controllerRegistry",
          "type": "address"
        },
        {
          "internalType": "string",
          "name": "uri",
          "type": "string"
        }
      ],
      "stateMutability": "nonpayable",
      "type": "constructor"
    },
    {
      "anonymous": false,
      "inputs": [
        {
          "indexed": true,
          "internalType": "address",
          "name": "account",
          "type": "address"
        },
        {
          "indexed": true,
          "internalType": "address",
          "name": "operator",
          "type": "address"
        },
        {
          "indexed": false,
          "internalType": "bool",
          "name": "approved",
          "type": "bool"
        }
      ],
      "name": "ApprovalForAll",
      "type": "event"
    },
    {
      "anonymous": false,
      "inputs": [
        {
          "indexed": false,
          "internalType": "uint256",
          "name": "podId",
          "type": "uint256"
        },
        {
          "indexed": false,
          "internalType": "address",
          "name": "newController",
          "type": "address"
        }
      ],
      "name": "MigrateMemberController",
      "type": "event"
    },
    {
      "anonymous": false,
      "inputs": [
        {
          "indexed": true,
          "internalType": "address",
          "name": "previousOwner",
          "type": "address"
        },
        {
          "indexed": true,
          "internalType": "address",
          "name": "newOwner",
          "type": "address"
        }
      ],
      "name": "OwnershipTransferred",
      "type": "event"
    },
    {
      "anonymous": false,
      "inputs": [
        {
          "indexed": true,
          "internalType": "address",
          "name": "operator",
          "type": "address"
        },
        {
          "indexed": true,
          "internalType": "address",
          "name": "from",
          "type": "address"
        },
        {
          "indexed": true,
          "internalType": "address",
          "name": "to",
          "type": "address"
        },
        {
          "indexed": false,
          "internalType": "uint256[]",
          "name": "ids",
          "type": "uint256[]"
        },
        {
          "indexed": false,
          "internalType": "uint256[]",
          "name": "values",
          "type": "uint256[]"
        }
      ],
      "name": "TransferBatch",
      "type": "event"
    },
    {
      "anonymous": false,
      "inputs": [
        {
          "indexed": true,
          "internalType": "address",
          "name": "operator",
          "type": "address"
        },
        {
          "indexed": true,
          "internalType": "address",
          "name": "from",
          "type": "address"
        },
        {
          "indexed": true,
          "internalType": "address",
          "name": "to",
          "type": "address"
        },
        {
          "indexed": false,
          "internalType": "uint256",
          "name": "id",
          "type": "uint256"
        },
        {
          "indexed": false,
          "internalType": "uint256",
          "name": "value",
          "type": "uint256"
        }
      ],
      "name": "TransferSingle",
      "type": "event"
    },
    {
      "anonymous": false,
      "inputs": [
        {
          "indexed": false,
          "internalType": "string",
          "name": "value",
          "type": "string"
        },
        {
          "indexed": true,
          "internalType": "uint256",
          "name": "id",
          "type": "uint256"
        }
      ],
      "name": "URI",
      "type": "event"
    },
    {
      "inputs": [],
      "name": "_contractURI",
      "outputs": [
        {
          "internalType": "string",
          "name": "",
          "type": "string"
        }
      ],
      "stateMutability": "view",
      "type": "function"
    },
    {
      "inputs": [
        {
          "internalType": "address",
          "name": "account",
          "type": "address"
        },
        {
          "internalType": "uint256",
          "name": "id",
          "type": "uint256"
        }
      ],
      "name": "balanceOf",
      "outputs": [
        {
          "internalType": "uint256",
          "name": "",
          "type": "uint256"
        }
      ],
      "stateMutability": "view",
      "type": "function"
    },
    {
      "inputs": [
        {
          "internalType": "address[]",
          "name": "accounts",
          "type": "address[]"
        },
        {
          "internalType": "uint256[]",
          "name": "ids",
          "type": "uint256[]"
        }
      ],
      "name": "balanceOfBatch",
      "outputs": [
        {
          "internalType": "uint256[]",
          "name": "",
          "type": "uint256[]"
        }
      ],
      "stateMutability": "view",
      "type": "function"
    },
    {
      "inputs": [
        {
          "internalType": "address",
          "name": "_account",
          "type": "address"
        },
        {
          "internalType": "uint256",
          "name": "_id",
          "type": "uint256"
        }
      ],
      "name": "burn",
      "outputs": [],
      "stateMutability": "nonpayable",
      "type": "function"
    },
    {
      "inputs": [
        {
          "internalType": "address[]",
          "name": "_accounts",
          "type": "address[]"
        },
        {
          "internalType": "uint256",
          "name": "_id",
          "type": "uint256"
        }
      ],
      "name": "burnSingleBatch",
      "outputs": [],
      "stateMutability": "nonpayable",
      "type": "function"
    },
    {
      "inputs": [],
      "name": "contractURI",
      "outputs": [
        {
          "internalType": "string",
          "name": "",
          "type": "string"
        }
      ],
      "stateMutability": "view",
      "type": "function"
    },
    {
      "inputs": [],
      "name": "controllerRegistry",
      "outputs": [
        {
          "internalType": "contract IControllerRegistry",
          "name": "",
          "type": "address"
        }
      ],
      "stateMutability": "view",
      "type": "function"
    },
    {
      "inputs": [
        {
          "internalType": "address[]",
          "name": "_accounts",
          "type": "address[]"
        },
        {
          "internalType": "bytes",
          "name": "data",
          "type": "bytes"
        }
      ],
      "name": "createPod",
      "outputs": [
        {
          "internalType": "uint256",
          "name": "",
          "type": "uint256"
        }
      ],
      "stateMutability": "nonpayable",
      "type": "function"
    },
    {
      "inputs": [
        {
          "internalType": "uint256",
          "name": "id",
          "type": "uint256"
        }
      ],
      "name": "exists",
      "outputs": [
        {
          "internalType": "bool",
          "name": "",
          "type": "bool"
        }
      ],
      "stateMutability": "view",
      "type": "function"
    },
    {
      "inputs": [],
      "name": "getNextAvailablePodId",
      "outputs": [
        {
          "internalType": "uint256",
          "name": "",
          "type": "uint256"
        }
      ],
      "stateMutability": "view",
      "type": "function"
    },
    {
      "inputs": [
        {
          "internalType": "address",
          "name": "account",
          "type": "address"
        },
        {
          "internalType": "address",
          "name": "operator",
          "type": "address"
        }
      ],
      "name": "isApprovedForAll",
      "outputs": [
        {
          "internalType": "bool",
          "name": "",
          "type": "bool"
        }
      ],
      "stateMutability": "view",
      "type": "function"
    },
    {
      "inputs": [
        {
          "internalType": "uint256",
          "name": "",
          "type": "uint256"
        }
      ],
      "name": "memberController",
      "outputs": [
        {
          "internalType": "address",
          "name": "",
          "type": "address"
        }
      ],
      "stateMutability": "view",
      "type": "function"
    },
    {
      "inputs": [
        {
          "internalType": "uint256",
          "name": "_podId",
          "type": "uint256"
        },
        {
          "internalType": "address",
          "name": "_newController",
          "type": "address"
        }
      ],
      "name": "migrateMemberController",
      "outputs": [],
      "stateMutability": "nonpayable",
      "type": "function"
    },
    {
      "inputs": [
        {
          "internalType": "address",
          "name": "_account",
          "type": "address"
        },
        {
          "internalType": "uint256",
          "name": "_id",
          "type": "uint256"
        },
        {
          "internalType": "bytes",
          "name": "data",
          "type": "bytes"
        }
      ],
      "name": "mint",
      "outputs": [],
      "stateMutability": "nonpayable",
      "type": "function"
    },
    {
      "inputs": [
        {
          "internalType": "address[]",
          "name": "_accounts",
          "type": "address[]"
        },
        {
          "internalType": "uint256",
          "name": "_id",
          "type": "uint256"
        },
        {
          "internalType": "bytes",
          "name": "data",
          "type": "bytes"
        }
      ],
      "name": "mintSingleBatch",
      "outputs": [],
      "stateMutability": "nonpayable",
      "type": "function"
    },
    {
      "inputs": [],
      "name": "nextAvailablePodId",
      "outputs": [
        {
          "internalType": "uint256",
          "name": "",
          "type": "uint256"
        }
      ],
      "stateMutability": "view",
      "type": "function"
    },
    {
      "inputs": [],
      "name": "owner",
      "outputs": [
        {
          "internalType": "address",
          "name": "",
          "type": "address"
        }
      ],
      "stateMutability": "view",
      "type": "function"
    },
    {
      "inputs": [],
      "name": "renounceOwnership",
      "outputs": [],
      "stateMutability": "nonpayable",
      "type": "function"
    },
    {
      "inputs": [
        {
          "internalType": "address",
          "name": "from",
          "type": "address"
        },
        {
          "internalType": "address",
          "name": "to",
          "type": "address"
        },
        {
          "internalType": "uint256[]",
          "name": "ids",
          "type": "uint256[]"
        },
        {
          "internalType": "uint256[]",
          "name": "amounts",
          "type": "uint256[]"
        },
        {
          "internalType": "bytes",
          "name": "data",
          "type": "bytes"
        }
      ],
      "name": "safeBatchTransferFrom",
      "outputs": [],
      "stateMutability": "nonpayable",
      "type": "function"
    },
    {
      "inputs": [
        {
          "internalType": "address",
          "name": "from",
          "type": "address"
        },
        {
          "internalType": "address",
          "name": "to",
          "type": "address"
        },
        {
          "internalType": "uint256",
          "name": "id",
          "type": "uint256"
        },
        {
          "internalType": "uint256",
          "name": "amount",
          "type": "uint256"
        },
        {
          "internalType": "bytes",
          "name": "data",
          "type": "bytes"
        }
      ],
      "name": "safeTransferFrom",
      "outputs": [],
      "stateMutability": "nonpayable",
      "type": "function"
    },
    {
      "inputs": [
        {
          "internalType": "address",
          "name": "operator",
          "type": "address"
        },
        {
          "internalType": "bool",
          "name": "approved",
          "type": "bool"
        }
      ],
      "name": "setApprovalForAll",
      "outputs": [],
      "stateMutability": "nonpayable",
      "type": "function"
    },
    {
      "inputs": [
        {
          "internalType": "string",
          "name": "newContractURI",
          "type": "string"
        }
      ],
      "name": "setContractURI",
      "outputs": [],
      "stateMutability": "nonpayable",
      "type": "function"
    },
    {
      "inputs": [
        {
          "internalType": "string",
          "name": "uri",
          "type": "string"
        }
      ],
      "name": "setUri",
      "outputs": [],
      "stateMutability": "nonpayable",
      "type": "function"
    },
    {
      "inputs": [
        {
          "internalType": "bytes4",
          "name": "interfaceId",
          "type": "bytes4"
        }
      ],
      "name": "supportsInterface",
      "outputs": [
        {
          "internalType": "bool",
          "name": "",
          "type": "bool"
        }
      ],
      "stateMutability": "view",
      "type": "function"
    },
    {
      "inputs": [
        {
          "internalType": "uint256",
          "name": "id",
          "type": "uint256"
        }
      ],
      "name": "totalSupply",
      "outputs": [
        {
          "internalType": "uint256",
          "name": "",
          "type": "uint256"
        }
      ],
      "stateMutability": "view",
      "type": "function"
    },
    {
      "inputs": [
        {
          "internalType": "address",
          "name": "newOwner",
          "type": "address"
        }
      ],
      "name": "transferOwnership",
      "outputs": [],
      "stateMutability": "nonpayable",
      "type": "function"
    },
    {
      "inputs": [
        {
          "internalType": "uint256",
          "name": "",
          "type": "uint256"
        }
      ],
      "name": "uri",
      "outputs": [
        {
          "internalType": "string",
          "name": "",
          "type": "string"
        }
      ],
      "stateMutability": "view",
      "type": "function"
    }
  ],
  "transactionHash": "0xc5d1bcf9ff66522252d2c81dfd6e8327dd29008482fd254fbcf379f114fced33",
  "args": [
    "0x0285727ab1A03873e142dfDb940635E15Dd92d18",
    "https://orcaprotocol-nft.vercel.app/assets/testnet/{id}.json"
  ],
  "solcInputHash": "ad4e5f37a674081d15ff85090ee8a137",
  "bytecode": "0x600060075560e0604052603c60808181529062002b6560a03980516200002e9160089160209091019062000156565b503480156200003c57600080fd5b5060405162002ba138038062002ba18339810160408190526200005f91620001fc565b806200006b81620000eb565b50620000773362000104565b6001600160a01b038216620000c45760405162461bcd60e51b815260206004820152600f60248201526e496e76616c6964206164647265737360881b604482015260640160405180910390fd5b50600580546001600160a01b0319166001600160a01b03929092169190911790556200034f565b80516200010090600290602084019062000156565b5050565b600480546001600160a01b038381166001600160a01b0319831681179093556040519116919082907f8be0079c531659141344cd1fd0a4f28419497f9722a3daafe3b4186f6b6457e090600090a35050565b8280546200016490620002fc565b90600052602060002090601f016020900481019282620001885760008555620001d3565b82601f10620001a357805160ff1916838001178555620001d3565b82800160010185558215620001d3579182015b82811115620001d3578251825591602001919060010190620001b6565b50620001e1929150620001e5565b5090565b5b80821115620001e15760008155600101620001e6565b600080604083850312156200021057600080fd5b82516001600160a01b03811681146200022857600080fd5b602084810151919350906001600160401b03808211156200024857600080fd5b818601915086601f8301126200025d57600080fd5b81518181111562000272576200027262000339565b604051601f8201601f19908116603f011681019083821181831017156200029d576200029d62000339565b816040528281528986848701011115620002b657600080fd5b600093505b82841015620002da5784840186015181850187015292850192620002bb565b82841115620002ec5760008684830101525b8096505050505050509250929050565b600181811c908216806200031157607f821691505b602082108114156200033357634e487b7160e01b600052602260045260246000fd5b50919050565b634e487b7160e01b600052604160045260246000fd5b612806806200035f6000396000f3fe608060405234801561001057600080fd5b50600436106101b85760003560e01c806394d008ef116100f9578063bd85b03911610097578063e8a3d48511610071578063e8a3d485146103ce578063e985e9c5146103d6578063f242432a14610412578063f2fde38b1461042557600080fd5b8063bd85b03914610393578063c0e72740146103b3578063db609ada146103bb57600080fd5b80639dc29fac116100d35780639dc29fac14610347578063a22cb4651461035a578063b898410d1461036d578063bbc4541b1461038057600080fd5b806394d008ef1461030e5780639aa0055e146103215780639b642de11461033457600080fd5b80634f558e791161016657806378f716c31161014057806378f716c3146102ce57806382786654146102d75780638da5cb5b146102ea578063938e3d7b146102fb57600080fd5b80634f558e791461029c5780635e933702146102be578063715018a6146102c657600080fd5b80632eb2c2d6116101975780632eb2c2d614610226578063355eb4931461023b5780634e1273f41461027c57600080fd5b8062fdd58e146101bd57806301ffc9a7146101e35780630e89341c14610206575b600080fd5b6101d06101cb36600461213f565b610438565b6040519081526020015b60405180910390f35b6101f66101f1366004612343565b6104e1565b60405190151581526020016101da565b6102196102143660046123ce565b61057e565b6040516101da91906125db565b610239610234366004611ff9565b610612565b005b6102646102493660046123ce565b6006602052600090815260409020546001600160a01b031681565b6040516001600160a01b0390911681526020016101da565b61028f61028a3660046121c0565b6106b4565b6040516101da919061259a565b6101f66102aa3660046123ce565b600090815260036020526040902054151590565b6007546101d0565b6102396107f2565b6101d060075481565b6102396102e53660046123e7565b610858565b6004546001600160a01b0316610264565b61023961030936600461237d565b610a50565b61023961031c366004612169565b610ac1565b6101d061032f366004612224565b610ad3565b61023961034236600461237d565b610bf8565b61023961035536600461213f565b610c5e565b610239610368366004612108565b610c6a565b61023961037b36600461227e565b610d55565b600554610264906001600160a01b031681565b6101d06103a13660046123ce565b60009081526003602052604090205490565b610219610d98565b6102396103c93660046122c3565b610e26565b610219610e70565b6101f66103e4366004611fc6565b6001600160a01b03918216600090815260016020908152604080832093909416825291909152205460ff1690565b6102396104203660046120a3565b610f02565b610239610433366004611fab565b610f9d565b60006001600160a01b0383166104bb5760405162461bcd60e51b815260206004820152602b60248201527f455243313135353a2062616c616e636520717565727920666f7220746865207a60448201527f65726f206164647265737300000000000000000000000000000000000000000060648201526084015b60405180910390fd5b506000908152602081815260408083206001600160a01b03949094168352929052205490565b60006001600160e01b031982167fd9b67a2600000000000000000000000000000000000000000000000000000000148061054457506001600160e01b031982167f0e89341c00000000000000000000000000000000000000000000000000000000145b8061057857507f01ffc9a7000000000000000000000000000000000000000000000000000000006001600160e01b03198316145b92915050565b60606002805461058d90612641565b80601f01602080910402602001604051908101604052809291908181526020018280546105b990612641565b80156106065780601f106105db57610100808354040283529160200191610606565b820191906000526020600020905b8154815290600101906020018083116105e957829003601f168201915b50505050509050919050565b6001600160a01b03851633148061062e575061062e85336103e4565b6106a05760405162461bcd60e51b815260206004820152603260248201527f455243313135353a207472616e736665722063616c6c6572206973206e6f742060448201527f6f776e6572206e6f7220617070726f766564000000000000000000000000000060648201526084016104b2565b6106ad858585858561107c565b5050505050565b6060815183511461072d5760405162461bcd60e51b815260206004820152602960248201527f455243313135353a206163636f756e747320616e6420696473206c656e67746860448201527f206d69736d61746368000000000000000000000000000000000000000000000060648201526084016104b2565b6000835167ffffffffffffffff811115610749576107496126f0565b604051908082528060200260200182016040528015610772578160200160208202803683370190505b50905060005b84518110156107ea576107bd858281518110610796576107966126da565b60200260200101518583815181106107b0576107b06126da565b6020026020010151610438565b8282815181106107cf576107cf6126da565b60209081029190910101526107e3816126a9565b9050610778565b509392505050565b6004546001600160a01b0316331461084c5760405162461bcd60e51b815260206004820181905260248201527f4f776e61626c653a2063616c6c6572206973206e6f7420746865206f776e657260448201526064016104b2565b61085660006112fd565b565b6001600160a01b0381166108ae5760405162461bcd60e51b815260206004820152600f60248201527f496e76616c69642061646472657373000000000000000000000000000000000060448201526064016104b2565b6000828152600660205260409020546001600160a01b031633146109145760405162461bcd60e51b815260206004820152601a60248201527f496e76616c6964206d69677261746520636f6e74726f6c6c657200000000000060448201526064016104b2565b60055460405163c3c5a54760e01b81526001600160a01b0383811660048301529091169063c3c5a5479060240160206040518083038186803b15801561095957600080fd5b505afa15801561096d573d6000803e3d6000fd5b505050506040513d601f19601f820116820180604052508101906109919190612326565b6109dd5760405162461bcd60e51b815260206004820152601960248201527f436f6e74726f6c6c6572206e6f7420726567697374657265640000000000000060448201526064016104b2565b600082815260066020908152604091829020805473ffffffffffffffffffffffffffffffffffffffff19166001600160a01b0385169081179091558251858152918201527fc30443aa4d8d4b5e33b0904fa6687e345e706027fbe9140b5e6459f17077df22910160405180910390a15050565b6004546001600160a01b03163314610aaa5760405162461bcd60e51b815260206004820181905260248201527f4f776e61626c653a2063616c6c6572206973206e6f7420746865206f776e657260448201526064016104b2565b8051610abd906008906020840190611d90565b5050565b610ace838360018461135c565b505050565b6007805460009160019083610ae88385612612565b909155505060055460405163c3c5a54760e01b81523360048201526001600160a01b039091169063c3c5a5479060240160206040518083038186803b158015610b3057600080fd5b505afa158015610b44573d6000803e3d6000fd5b505050506040513d601f19601f82011682018060405250810190610b689190612326565b610bb45760405162461bcd60e51b815260206004820152601960248201527f436f6e74726f6c6c6572206e6f7420726567697374657265640000000000000060448201526064016104b2565b6000818152600660205260409020805473ffffffffffffffffffffffffffffffffffffffff191633179055835115610bf157610bf1848285610e26565b9392505050565b6004546001600160a01b03163314610c525760405162461bcd60e51b815260206004820181905260248201527f4f776e61626c653a2063616c6c6572206973206e6f7420746865206f776e657260448201526064016104b2565b610c5b81611391565b50565b610abd828260016113a4565b336001600160a01b0383161415610ce95760405162461bcd60e51b815260206004820152602960248201527f455243313135353a2073657474696e6720617070726f76616c2073746174757360448201527f20666f722073656c66000000000000000000000000000000000000000000000060648201526084016104b2565b3360008181526001602090815260408083206001600160a01b03871680855290835292819020805460ff191686151590811790915590519081529192917f17307eab39ab6107e8899845ad3d59bd9653f200f220920489ca2b5937696c31910160405180910390a35050565b60005b8251811015610ace57610d86838281518110610d7657610d766126da565b60200260200101518360016113a4565b610d91600182612612565b9050610d58565b60088054610da590612641565b80601f0160208091040260200160405190810160405280929190818152602001828054610dd190612641565b8015610e1e5780601f10610df357610100808354040283529160200191610e1e565b820191906000526020600020905b815481529060010190602001808311610e0157829003601f168201915b505050505081565b60005b8351811015610e6a57610e58848281518110610e4757610e476126da565b60200260200101518460018561135c565b610e63600182612612565b9050610e29565b50505050565b606060088054610e7f90612641565b80601f0160208091040260200160405190810160405280929190818152602001828054610eab90612641565b8015610ef85780601f10610ecd57610100808354040283529160200191610ef8565b820191906000526020600020905b815481529060010190602001808311610edb57829003601f168201915b5050505050905090565b6001600160a01b038516331480610f1e5750610f1e85336103e4565b610f905760405162461bcd60e51b815260206004820152602960248201527f455243313135353a2063616c6c6572206973206e6f74206f776e6572206e6f7260448201527f20617070726f766564000000000000000000000000000000000000000000000060648201526084016104b2565b6106ad85858585856113d7565b6004546001600160a01b03163314610ff75760405162461bcd60e51b815260206004820181905260248201527f4f776e61626c653a2063616c6c6572206973206e6f7420746865206f776e657260448201526064016104b2565b6001600160a01b0381166110735760405162461bcd60e51b815260206004820152602660248201527f4f776e61626c653a206e6577206f776e657220697320746865207a65726f206160448201527f646472657373000000000000000000000000000000000000000000000000000060648201526084016104b2565b610c5b816112fd565b81518351146110f35760405162461bcd60e51b815260206004820152602860248201527f455243313135353a2069647320616e6420616d6f756e7473206c656e6774682060448201527f6d69736d6174636800000000000000000000000000000000000000000000000060648201526084016104b2565b6001600160a01b0384166111575760405162461bcd60e51b815260206004820152602560248201527f455243313135353a207472616e7366657220746f20746865207a65726f206164604482015264647265737360d81b60648201526084016104b2565b33611166818787878787611584565b60005b845181101561128f576000858281518110611186576111866126da565b6020026020010151905060008583815181106111a4576111a46126da565b602090810291909101810151600084815280835260408082206001600160a01b038e1683529093529190912054909150818110156112375760405162461bcd60e51b815260206004820152602a60248201527f455243313135353a20696e73756666696369656e742062616c616e636520666f60448201526939103a3930b739b332b960b11b60648201526084016104b2565b6000838152602081815260408083206001600160a01b038e8116855292528083208585039055908b16825281208054849290611274908490612612565b9250508190555050505080611288906126a9565b9050611169565b50846001600160a01b0316866001600160a01b0316826001600160a01b03167f4a39dc06d4c0dbc64b70af90fd698a233a518aa5d07e595d983b8c0526c8f7fb87876040516112df9291906125ad565b60405180910390a46112f58187878787876117bc565b505050505050565b600480546001600160a01b0383811673ffffffffffffffffffffffffffffffffffffffff19831681179093556040519116919082907f8be0079c531659141344cd1fd0a4f28419497f9722a3daafe3b4186f6b6457e090600090a35050565b61136884848484611971565b60008381526003602052604081208054849290611386908490612612565b909155505050505050565b8051610abd906002906020840190611d90565b6113af838383611a8e565b600082815260036020526040812080548392906113cd90849061262a565b9091555050505050565b6001600160a01b03841661143b5760405162461bcd60e51b815260206004820152602560248201527f455243313135353a207472616e7366657220746f20746865207a65726f206164604482015264647265737360d81b60648201526084016104b2565b3361145a81878761144b88611c3a565b61145488611c3a565b87611584565b6000848152602081815260408083206001600160a01b038a168452909152902054838110156114de5760405162461bcd60e51b815260206004820152602a60248201527f455243313135353a20696e73756666696369656e742062616c616e636520666f60448201526939103a3930b739b332b960b11b60648201526084016104b2565b6000858152602081815260408083206001600160a01b038b811685529252808320878503905590881682528120805486929061151b908490612612565b909155505060408051868152602081018690526001600160a01b03808916928a821692918616917fc3d58168c5ae7397731d063d5bbf3d657854427343f4c083240f7aacaa2d0f62910160405180910390a461157b828888888888611c85565b50505050505050565b6000600660008560008151811061159d5761159d6126da565b6020908102919091018101518252810191909152604001600020546001600160a01b03169050806116105760405162461bcd60e51b815260206004820152601160248201527f506f6420646f65736e277420657869737400000000000000000000000000000060448201526064016104b2565b60005b8451811015611731576001600160a01b0386161561168e57611641868683815181106107b0576107b06126da565b1561168e5760405162461bcd60e51b815260206004820152601660248201527f5573657220697320616c7265616479206d656d6265720000000000000000000060448201526064016104b2565b816001600160a01b0316600660008784815181106116ae576116ae6126da565b6020908102919091018101518252810191909152604001600020546001600160a01b03161461171f5760405162461bcd60e51b815260206004820152601e60248201527f496473206861766520646966666572656e7420636f6e74726f6c6c657273000060448201526064016104b2565b61172a600182612612565b9050611613565b506040517ff0f39f5d0000000000000000000000000000000000000000000000000000000081526001600160a01b0382169063f0f39f5d90611781908a908a908a908a908a908a90600401612492565b600060405180830381600087803b15801561179b57600080fd5b505af11580156117af573d6000803e3d6000fd5b5050505050505050505050565b6001600160a01b0384163b156112f55760405163bc197c8160e01b81526001600160a01b0385169063bc197c819061180090899089908890889088906004016124f9565b602060405180830381600087803b15801561181a57600080fd5b505af192505050801561184a575060408051601f3d908101601f1916820190925261184791810190612360565b60015b61190057611856612706565b806308c379a01415611890575061186b612722565b806118765750611892565b8060405162461bcd60e51b81526004016104b291906125db565b505b60405162461bcd60e51b815260206004820152603460248201527f455243313135353a207472616e7366657220746f206e6f6e204552433131353560448201527f526563656976657220696d706c656d656e74657200000000000000000000000060648201526084016104b2565b6001600160e01b0319811663bc197c8160e01b1461157b5760405162461bcd60e51b815260206004820152602860248201527f455243313135353a204552433131353552656365697665722072656a656374656044820152676420746f6b656e7360c01b60648201526084016104b2565b6001600160a01b0384166119ed5760405162461bcd60e51b815260206004820152602160248201527f455243313135353a206d696e7420746f20746865207a65726f2061646472657360448201527f730000000000000000000000000000000000000000000000000000000000000060648201526084016104b2565b336119fe8160008761144b88611c3a565b6000848152602081815260408083206001600160a01b038916845290915281208054859290611a2e908490612612565b909155505060408051858152602081018590526001600160a01b0380881692600092918516917fc3d58168c5ae7397731d063d5bbf3d657854427343f4c083240f7aacaa2d0f62910160405180910390a46106ad81600087878787611c85565b6001600160a01b038316611b0a5760405162461bcd60e51b815260206004820152602360248201527f455243313135353a206275726e2066726f6d20746865207a65726f206164647260448201527f657373000000000000000000000000000000000000000000000000000000000060648201526084016104b2565b33611b3981856000611b1b87611c3a565b611b2487611c3a565b60405180602001604052806000815250611584565b6000838152602081815260408083206001600160a01b038816845290915290205482811015611bcf5760405162461bcd60e51b8152602060048201526024808201527f455243313135353a206275726e20616d6f756e7420657863656564732062616c60448201527f616e63650000000000000000000000000000000000000000000000000000000060648201526084016104b2565b6000848152602081815260408083206001600160a01b03898116808652918452828520888703905582518981529384018890529092908616917fc3d58168c5ae7397731d063d5bbf3d657854427343f4c083240f7aacaa2d0f62910160405180910390a45050505050565b60408051600180825281830190925260609160009190602080830190803683370190505090508281600081518110611c7457611c746126da565b602090810291909101015292915050565b6001600160a01b0384163b156112f55760405163f23a6e6160e01b81526001600160a01b0385169063f23a6e6190611cc99089908990889088908890600401612557565b602060405180830381600087803b158015611ce357600080fd5b505af1925050508015611d13575060408051601f3d908101601f19168201909252611d1091810190612360565b60015b611d1f57611856612706565b6001600160e01b0319811663f23a6e6160e01b1461157b5760405162461bcd60e51b815260206004820152602860248201527f455243313135353a204552433131353552656365697665722072656a656374656044820152676420746f6b656e7360c01b60648201526084016104b2565b828054611d9c90612641565b90600052602060002090601f016020900481019282611dbe5760008555611e04565b82601f10611dd757805160ff1916838001178555611e04565b82800160010185558215611e04579182015b82811115611e04578251825591602001919060010190611de9565b50611e10929150611e14565b5090565b5b80821115611e105760008155600101611e15565b600067ffffffffffffffff831115611e4357611e436126f0565b604051611e5a601f8501601f19166020018261267c565b809150838152848484011115611e6f57600080fd5b83836020830137600060208583010152509392505050565b80356001600160a01b0381168114611e9e57600080fd5b919050565b600082601f830112611eb457600080fd5b81356020611ec1826125ee565b604051611ece828261267c565b8381528281019150858301600585901b87018401881015611eee57600080fd5b60005b85811015611f1457611f0282611e87565b84529284019290840190600101611ef1565b5090979650505050505050565b600082601f830112611f3257600080fd5b81356020611f3f826125ee565b604051611f4c828261267c565b8381528281019150858301600585901b87018401881015611f6c57600080fd5b60005b85811015611f1457813584529284019290840190600101611f6f565b600082601f830112611f9c57600080fd5b610bf183833560208501611e29565b600060208284031215611fbd57600080fd5b610bf182611e87565b60008060408385031215611fd957600080fd5b611fe283611e87565b9150611ff060208401611e87565b90509250929050565b600080600080600060a0868803121561201157600080fd5b61201a86611e87565b945061202860208701611e87565b9350604086013567ffffffffffffffff8082111561204557600080fd5b61205189838a01611f21565b9450606088013591508082111561206757600080fd5b61207389838a01611f21565b9350608088013591508082111561208957600080fd5b5061209688828901611f8b565b9150509295509295909350565b600080600080600060a086880312156120bb57600080fd5b6120c486611e87565b94506120d260208701611e87565b93506040860135925060608601359150608086013567ffffffffffffffff8111156120fc57600080fd5b61209688828901611f8b565b6000806040838503121561211b57600080fd5b61212483611e87565b91506020830135612134816127ac565b809150509250929050565b6000806040838503121561215257600080fd5b61215b83611e87565b946020939093013593505050565b60008060006060848603121561217e57600080fd5b61218784611e87565b925060208401359150604084013567ffffffffffffffff8111156121aa57600080fd5b6121b686828701611f8b565b9150509250925092565b600080604083850312156121d357600080fd5b823567ffffffffffffffff808211156121eb57600080fd5b6121f786838701611ea3565b9350602085013591508082111561220d57600080fd5b5061221a85828601611f21565b9150509250929050565b6000806040838503121561223757600080fd5b823567ffffffffffffffff8082111561224f57600080fd5b61225b86838701611ea3565b9350602085013591508082111561227157600080fd5b5061221a85828601611f8b565b6000806040838503121561229157600080fd5b823567ffffffffffffffff8111156122a857600080fd5b6122b485828601611ea3565b95602094909401359450505050565b6000806000606084860312156122d857600080fd5b833567ffffffffffffffff808211156122f057600080fd5b6122fc87838801611ea3565b945060208601359350604086013591508082111561231957600080fd5b506121b686828701611f8b565b60006020828403121561233857600080fd5b8151610bf1816127ac565b60006020828403121561235557600080fd5b8135610bf1816127ba565b60006020828403121561237257600080fd5b8151610bf1816127ba565b60006020828403121561238f57600080fd5b813567ffffffffffffffff8111156123a657600080fd5b8201601f810184136123b757600080fd5b6123c684823560208401611e29565b949350505050565b6000602082840312156123e057600080fd5b5035919050565b600080604083850312156123fa57600080fd5b82359150611ff060208401611e87565b600081518084526020808501945080840160005b8381101561243a5781518752958201959082019060010161241e565b509495945050505050565b6000815180845260005b8181101561246b5760208185018101518683018201520161244f565b8181111561247d576000602083870101525b50601f01601f19169290920160200192915050565b60006001600160a01b038089168352808816602084015280871660408401525060c060608301526124c660c083018661240a565b82810360808401526124d8818661240a565b905082810360a08401526124ec8185612445565b9998505050505050505050565b60006001600160a01b03808816835280871660208401525060a0604083015261252560a083018661240a565b8281036060840152612537818661240a565b9050828103608084015261254b8185612445565b98975050505050505050565b60006001600160a01b03808816835280871660208401525084604083015283606083015260a0608083015261258f60a0830184612445565b979650505050505050565b602081526000610bf1602083018461240a565b6040815260006125c0604083018561240a565b82810360208401526125d2818561240a565b95945050505050565b602081526000610bf16020830184612445565b600067ffffffffffffffff821115612608576126086126f0565b5060051b60200190565b60008219821115612625576126256126c4565b500190565b60008282101561263c5761263c6126c4565b500390565b600181811c9082168061265557607f821691505b6020821081141561267657634e487b7160e01b600052602260045260246000fd5b50919050565b601f8201601f1916810167ffffffffffffffff811182821017156126a2576126a26126f0565b6040525050565b60006000198214156126bd576126bd6126c4565b5060010190565b634e487b7160e01b600052601160045260246000fd5b634e487b7160e01b600052603260045260246000fd5b634e487b7160e01b600052604160045260246000fd5b600060033d111561271f5760046000803e5060005160e01c5b90565b600060443d10156127305790565b6040516003193d81016004833e81513d67ffffffffffffffff816024840111818411171561276057505050505090565b82850191508151818111156127785750505050505090565b843d87010160208285010111156127925750505050505090565b6127a16020828601018761267c565b509095945050505050565b8015158114610c5b57600080fd5b6001600160e01b031981168114610c5b57600080fdfea26469706673582212200d619ba6d6540973c136db4a49410a951e8c2632d039bebe1a9989547cef25b264736f6c6343000807003368747470733a2f2f6f72636170726f746f636f6c2d6e66742e76657263656c2e6170702f6173736574732f636f6e74726163742d6d65746164617461",
  "devdoc": {
    "kind": "dev",
    "methods": {
      "balanceOf(address,uint256)": {
        "details": "See {IERC1155-balanceOf}. Requirements: - `account` cannot be the zero address."
      },
      "balanceOfBatch(address[],uint256[])": {
        "details": "See {IERC1155-balanceOfBatch}. Requirements: - `accounts` and `ids` must have the same length."
      },
      "burn(address,uint256)": {
        "params": {
          "_account": "The account address holding the membership token to destroy",
          "_id": "The id of the membership token to destroy"
        }
      },
      "burnSingleBatch(address[],uint256)": {
        "params": {
          "_accounts": "The account addresses to burn the membership tokens from",
          "_id": "The membership token id to burn"
        }
      },
      "constructor": {
        "params": {
          "_controllerRegistry": "The address of the ControllerRegistry contract"
        }
      },
      "exists(uint256)": {
        "details": "Indicates weither any token exist with a given id, or not."
      },
      "isApprovedForAll(address,address)": {
        "details": "See {IERC1155-isApprovedForAll}."
      },
      "migrateMemberController(uint256,address)": {
        "params": {
          "_newController": "The address of the new controller",
          "_podId": "The pod id number"
        }
      },
      "mint(address,uint256,bytes)": {
        "params": {
          "_account": "The account address to assign the membership token to",
          "_id": "The membership token id to mint",
          "data": "Passes a flag for initial creation event"
        }
      },
      "mintSingleBatch(address[],uint256,bytes)": {
        "params": {
          "_accounts": "The account addresses to assign the membership tokens to",
          "_id": "The membership token id to mint",
          "data": "Passes a flag for an initial creation event"
        }
      },
      "owner()": {
        "details": "Returns the address of the current owner."
      },
      "renounceOwnership()": {
        "details": "Leaves the contract without owner. It will not be possible to call `onlyOwner` functions anymore. Can only be called by the current owner. NOTE: Renouncing ownership will leave the contract without an owner, thereby removing any functionality that is only available to the owner."
      },
      "safeBatchTransferFrom(address,address,uint256[],uint256[],bytes)": {
        "details": "See {IERC1155-safeBatchTransferFrom}."
      },
      "safeTransferFrom(address,address,uint256,uint256,bytes)": {
        "details": "See {IERC1155-safeTransferFrom}."
      },
      "setApprovalForAll(address,bool)": {
        "details": "See {IERC1155-setApprovalForAll}."
      },
      "supportsInterface(bytes4)": {
        "details": "See {IERC165-supportsInterface}."
      },
      "totalSupply(uint256)": {
        "details": "Total amount of tokens in with a given id."
      },
      "transferOwnership(address)": {
        "details": "Transfers ownership of the contract to a new account (`newOwner`). Can only be called by the current owner."
      },
      "uri(uint256)": {
        "details": "See {IERC1155MetadataURI-uri}. This implementation returns the same URI for *all* token types. It relies on the token type ID substitution mechanism https://eips.ethereum.org/EIPS/eip-1155#metadata[defined in the EIP]. Clients calling this function must replace the `\\{id\\}` substring with the actual token type ID."
      }
    },
    "version": 1
  },
  "userdoc": {
    "kind": "user",
    "methods": {},
    "version": 1
  },
  "storageLayout": {
    "storage": [
      {
        "astId": 897,
        "contract": "contracts/MemberToken.sol:MemberToken",
        "label": "_balances",
        "offset": 0,
        "slot": "0",
        "type": "t_mapping(t_uint256,t_mapping(t_address,t_uint256))"
      },
      {
        "astId": 903,
        "contract": "contracts/MemberToken.sol:MemberToken",
        "label": "_operatorApprovals",
        "offset": 0,
        "slot": "1",
        "type": "t_mapping(t_address,t_mapping(t_address,t_bool))"
      },
      {
        "astId": 905,
        "contract": "contracts/MemberToken.sol:MemberToken",
        "label": "_uri",
        "offset": 0,
        "slot": "2",
        "type": "t_string_storage"
      },
      {
        "astId": 2125,
        "contract": "contracts/MemberToken.sol:MemberToken",
        "label": "_totalSupply",
        "offset": 0,
        "slot": "3",
        "type": "t_mapping(t_uint256,t_uint256)"
      },
      {
        "astId": 775,
        "contract": "contracts/MemberToken.sol:MemberToken",
        "label": "_owner",
        "offset": 0,
        "slot": "4",
        "type": "t_address"
      },
      {
        "astId": 4528,
        "contract": "contracts/MemberToken.sol:MemberToken",
        "label": "controllerRegistry",
        "offset": 0,
        "slot": "5",
        "type": "t_contract(IControllerRegistry)5845"
      },
      {
        "astId": 4532,
        "contract": "contracts/MemberToken.sol:MemberToken",
        "label": "memberController",
        "offset": 0,
        "slot": "6",
        "type": "t_mapping(t_uint256,t_address)"
      },
      {
        "astId": 4535,
        "contract": "contracts/MemberToken.sol:MemberToken",
        "label": "nextAvailablePodId",
        "offset": 0,
        "slot": "7",
        "type": "t_uint256"
      },
      {
        "astId": 4538,
        "contract": "contracts/MemberToken.sol:MemberToken",
        "label": "_contractURI",
        "offset": 0,
        "slot": "8",
        "type": "t_string_storage"
      }
    ],
    "types": {
      "t_address": {
        "encoding": "inplace",
        "label": "address",
        "numberOfBytes": "20"
      },
      "t_bool": {
        "encoding": "inplace",
        "label": "bool",
        "numberOfBytes": "1"
      },
      "t_contract(IControllerRegistry)5845": {
        "encoding": "inplace",
        "label": "contract IControllerRegistry",
        "numberOfBytes": "20"
      },
      "t_mapping(t_address,t_bool)": {
        "encoding": "mapping",
        "key": "t_address",
        "label": "mapping(address => bool)",
        "numberOfBytes": "32",
        "value": "t_bool"
      },
      "t_mapping(t_address,t_mapping(t_address,t_bool))": {
        "encoding": "mapping",
        "key": "t_address",
        "label": "mapping(address => mapping(address => bool))",
        "numberOfBytes": "32",
        "value": "t_mapping(t_address,t_bool)"
      },
      "t_mapping(t_address,t_uint256)": {
        "encoding": "mapping",
        "key": "t_address",
        "label": "mapping(address => uint256)",
        "numberOfBytes": "32",
        "value": "t_uint256"
      },
      "t_mapping(t_uint256,t_address)": {
        "encoding": "mapping",
        "key": "t_uint256",
        "label": "mapping(uint256 => address)",
        "numberOfBytes": "32",
        "value": "t_address"
      },
      "t_mapping(t_uint256,t_mapping(t_address,t_uint256))": {
        "encoding": "mapping",
        "key": "t_uint256",
        "label": "mapping(uint256 => mapping(address => uint256))",
        "numberOfBytes": "32",
        "value": "t_mapping(t_address,t_uint256)"
      },
      "t_mapping(t_uint256,t_uint256)": {
        "encoding": "mapping",
        "key": "t_uint256",
        "label": "mapping(uint256 => uint256)",
        "numberOfBytes": "32",
        "value": "t_uint256"
      },
      "t_string_storage": {
        "encoding": "bytes",
        "label": "string",
        "numberOfBytes": "32"
      },
      "t_uint256": {
        "encoding": "inplace",
        "label": "uint256",
        "numberOfBytes": "32"
      }
    }
  }
}