{
  "address": "0xF071d42DD65CAa10c7C199745c8DEB7E06F8ECda",
  "abi": [
    {
      "inputs": [
        {
          "internalType": "address",
          "name": "_controllerRegistry",
          "type": "address"
        },
        {
          "internalType": "string",
          "name": "uri",
          "type": "string"
        }
      ],
      "stateMutability": "nonpayable",
      "type": "constructor"
    },
    {
      "anonymous": false,
      "inputs": [
        {
          "indexed": true,
          "internalType": "address",
          "name": "account",
          "type": "address"
        },
        {
          "indexed": true,
          "internalType": "address",
          "name": "operator",
          "type": "address"
        },
        {
          "indexed": false,
          "internalType": "bool",
          "name": "approved",
          "type": "bool"
        }
      ],
      "name": "ApprovalForAll",
      "type": "event"
    },
    {
      "anonymous": false,
      "inputs": [
        {
          "indexed": false,
          "internalType": "uint256",
          "name": "podId",
          "type": "uint256"
        },
        {
          "indexed": false,
          "internalType": "address",
          "name": "newController",
          "type": "address"
        }
      ],
      "name": "MigrateMemberController",
      "type": "event"
    },
    {
      "anonymous": false,
      "inputs": [
        {
          "indexed": true,
          "internalType": "address",
          "name": "previousOwner",
          "type": "address"
        },
        {
          "indexed": true,
          "internalType": "address",
          "name": "newOwner",
          "type": "address"
        }
      ],
      "name": "OwnershipTransferred",
      "type": "event"
    },
    {
      "anonymous": false,
      "inputs": [
        {
          "indexed": true,
          "internalType": "address",
          "name": "operator",
          "type": "address"
        },
        {
          "indexed": true,
          "internalType": "address",
          "name": "from",
          "type": "address"
        },
        {
          "indexed": true,
          "internalType": "address",
          "name": "to",
          "type": "address"
        },
        {
          "indexed": false,
          "internalType": "uint256[]",
          "name": "ids",
          "type": "uint256[]"
        },
        {
          "indexed": false,
          "internalType": "uint256[]",
          "name": "values",
          "type": "uint256[]"
        }
      ],
      "name": "TransferBatch",
      "type": "event"
    },
    {
      "anonymous": false,
      "inputs": [
        {
          "indexed": true,
          "internalType": "address",
          "name": "operator",
          "type": "address"
        },
        {
          "indexed": true,
          "internalType": "address",
          "name": "from",
          "type": "address"
        },
        {
          "indexed": true,
          "internalType": "address",
          "name": "to",
          "type": "address"
        },
        {
          "indexed": false,
          "internalType": "uint256",
          "name": "id",
          "type": "uint256"
        },
        {
          "indexed": false,
          "internalType": "uint256",
          "name": "value",
          "type": "uint256"
        }
      ],
      "name": "TransferSingle",
      "type": "event"
    },
    {
      "anonymous": false,
      "inputs": [
        {
          "indexed": false,
          "internalType": "string",
          "name": "value",
          "type": "string"
        },
        {
          "indexed": true,
          "internalType": "uint256",
          "name": "id",
          "type": "uint256"
        }
      ],
      "name": "URI",
      "type": "event"
    },
    {
      "inputs": [
        {
          "internalType": "address",
          "name": "account",
          "type": "address"
        },
        {
          "internalType": "uint256",
          "name": "id",
          "type": "uint256"
        }
      ],
      "name": "balanceOf",
      "outputs": [
        {
          "internalType": "uint256",
          "name": "",
          "type": "uint256"
        }
      ],
      "stateMutability": "view",
      "type": "function"
    },
    {
      "inputs": [
        {
          "internalType": "address[]",
          "name": "accounts",
          "type": "address[]"
        },
        {
          "internalType": "uint256[]",
          "name": "ids",
          "type": "uint256[]"
        }
      ],
      "name": "balanceOfBatch",
      "outputs": [
        {
          "internalType": "uint256[]",
          "name": "",
          "type": "uint256[]"
        }
      ],
      "stateMutability": "view",
      "type": "function"
    },
    {
      "inputs": [
        {
          "internalType": "address",
          "name": "_account",
          "type": "address"
        },
        {
          "internalType": "uint256",
          "name": "_id",
          "type": "uint256"
        }
      ],
      "name": "burn",
      "outputs": [],
      "stateMutability": "nonpayable",
      "type": "function"
    },
    {
      "inputs": [
        {
          "internalType": "address[]",
          "name": "_accounts",
          "type": "address[]"
        },
        {
          "internalType": "uint256",
          "name": "_id",
          "type": "uint256"
        }
      ],
      "name": "burnSingleBatch",
      "outputs": [],
      "stateMutability": "nonpayable",
      "type": "function"
    },
    {
      "inputs": [],
      "name": "controllerRegistry",
      "outputs": [
        {
          "internalType": "contract IControllerRegistry",
          "name": "",
          "type": "address"
        }
      ],
      "stateMutability": "view",
      "type": "function"
    },
    {
      "inputs": [
        {
          "internalType": "address[]",
          "name": "_accounts",
          "type": "address[]"
        },
        {
          "internalType": "bytes",
          "name": "data",
          "type": "bytes"
        }
      ],
      "name": "createPod",
      "outputs": [
        {
          "internalType": "uint256",
          "name": "",
          "type": "uint256"
        }
      ],
      "stateMutability": "nonpayable",
      "type": "function"
    },
    {
      "inputs": [
        {
          "internalType": "uint256",
          "name": "id",
          "type": "uint256"
        }
      ],
      "name": "exists",
      "outputs": [
        {
          "internalType": "bool",
          "name": "",
          "type": "bool"
        }
      ],
      "stateMutability": "view",
      "type": "function"
    },
    {
      "inputs": [],
      "name": "getNextAvailablePodId",
      "outputs": [
        {
          "internalType": "uint256",
          "name": "",
          "type": "uint256"
        }
      ],
      "stateMutability": "view",
      "type": "function"
    },
    {
      "inputs": [
        {
          "internalType": "address",
          "name": "account",
          "type": "address"
        },
        {
          "internalType": "address",
          "name": "operator",
          "type": "address"
        }
      ],
      "name": "isApprovedForAll",
      "outputs": [
        {
          "internalType": "bool",
          "name": "",
          "type": "bool"
        }
      ],
      "stateMutability": "view",
      "type": "function"
    },
    {
      "inputs": [
        {
          "internalType": "uint256",
          "name": "",
          "type": "uint256"
        }
      ],
      "name": "memberController",
      "outputs": [
        {
          "internalType": "address",
          "name": "",
          "type": "address"
        }
      ],
      "stateMutability": "view",
      "type": "function"
    },
    {
      "inputs": [
        {
          "internalType": "uint256",
          "name": "_podId",
          "type": "uint256"
        },
        {
          "internalType": "address",
          "name": "_newController",
          "type": "address"
        }
      ],
      "name": "migrateMemberController",
      "outputs": [],
      "stateMutability": "nonpayable",
      "type": "function"
    },
    {
      "inputs": [
        {
          "internalType": "address",
          "name": "_account",
          "type": "address"
        },
        {
          "internalType": "uint256",
          "name": "_id",
          "type": "uint256"
        },
        {
          "internalType": "bytes",
          "name": "data",
          "type": "bytes"
        }
      ],
      "name": "mint",
      "outputs": [],
      "stateMutability": "nonpayable",
      "type": "function"
    },
    {
      "inputs": [
        {
          "internalType": "address[]",
          "name": "_accounts",
          "type": "address[]"
        },
        {
          "internalType": "uint256",
          "name": "_id",
          "type": "uint256"
        },
        {
          "internalType": "bytes",
          "name": "data",
          "type": "bytes"
        }
      ],
      "name": "mintSingleBatch",
      "outputs": [],
      "stateMutability": "nonpayable",
      "type": "function"
    },
    {
      "inputs": [],
      "name": "nextAvailablePodId",
      "outputs": [
        {
          "internalType": "uint256",
          "name": "",
          "type": "uint256"
        }
      ],
      "stateMutability": "view",
      "type": "function"
    },
    {
      "inputs": [],
      "name": "owner",
      "outputs": [
        {
          "internalType": "address",
          "name": "",
          "type": "address"
        }
      ],
      "stateMutability": "view",
      "type": "function"
    },
    {
      "inputs": [],
      "name": "renounceOwnership",
      "outputs": [],
      "stateMutability": "nonpayable",
      "type": "function"
    },
    {
      "inputs": [
        {
          "internalType": "address",
          "name": "from",
          "type": "address"
        },
        {
          "internalType": "address",
          "name": "to",
          "type": "address"
        },
        {
          "internalType": "uint256[]",
          "name": "ids",
          "type": "uint256[]"
        },
        {
          "internalType": "uint256[]",
          "name": "amounts",
          "type": "uint256[]"
        },
        {
          "internalType": "bytes",
          "name": "data",
          "type": "bytes"
        }
      ],
      "name": "safeBatchTransferFrom",
      "outputs": [],
      "stateMutability": "nonpayable",
      "type": "function"
    },
    {
      "inputs": [
        {
          "internalType": "address",
          "name": "from",
          "type": "address"
        },
        {
          "internalType": "address",
          "name": "to",
          "type": "address"
        },
        {
          "internalType": "uint256",
          "name": "id",
          "type": "uint256"
        },
        {
          "internalType": "uint256",
          "name": "amount",
          "type": "uint256"
        },
        {
          "internalType": "bytes",
          "name": "data",
          "type": "bytes"
        }
      ],
      "name": "safeTransferFrom",
      "outputs": [],
      "stateMutability": "nonpayable",
      "type": "function"
    },
    {
      "inputs": [
        {
          "internalType": "address",
          "name": "operator",
          "type": "address"
        },
        {
          "internalType": "bool",
          "name": "approved",
          "type": "bool"
        }
      ],
      "name": "setApprovalForAll",
      "outputs": [],
      "stateMutability": "nonpayable",
      "type": "function"
    },
    {
      "inputs": [
        {
          "internalType": "string",
          "name": "uri",
          "type": "string"
        }
      ],
      "name": "setUri",
      "outputs": [],
      "stateMutability": "nonpayable",
      "type": "function"
    },
    {
      "inputs": [
        {
          "internalType": "bytes4",
          "name": "interfaceId",
          "type": "bytes4"
        }
      ],
      "name": "supportsInterface",
      "outputs": [
        {
          "internalType": "bool",
          "name": "",
          "type": "bool"
        }
      ],
      "stateMutability": "view",
      "type": "function"
    },
    {
      "inputs": [
        {
          "internalType": "uint256",
          "name": "id",
          "type": "uint256"
        }
      ],
      "name": "totalSupply",
      "outputs": [
        {
          "internalType": "uint256",
          "name": "",
          "type": "uint256"
        }
      ],
      "stateMutability": "view",
      "type": "function"
    },
    {
      "inputs": [
        {
          "internalType": "address",
          "name": "newOwner",
          "type": "address"
        }
      ],
      "name": "transferOwnership",
      "outputs": [],
      "stateMutability": "nonpayable",
      "type": "function"
    },
    {
      "inputs": [
        {
          "internalType": "uint256",
          "name": "",
          "type": "uint256"
        }
      ],
      "name": "uri",
      "outputs": [
        {
          "internalType": "string",
          "name": "",
          "type": "string"
        }
      ],
      "stateMutability": "view",
      "type": "function"
    }
  ],
  "transactionHash": "0x11919af813167f1df39ef6dace569c06b68156499a6d18ec3ec3cd8290dd4bbe",
  "args": [
    "0x5207cB90E7CEF18fFc2307Ba0f4b634F1561C361",
    "https://orcaprotocol-nft.vercel.app/assets/{id}.json"
  ],
  "solcInputHash": "2d5dcd053b59c33bb5368b158a104ff4",
  "bytecode": "0x608060405260006007553480156200001657600080fd5b506040516200296e3803806200296e8339810160408190526200003991620001d6565b806200004581620000c5565b506200005133620000de565b6001600160a01b0382166200009e5760405162461bcd60e51b815260206004820152600f60248201526e496e76616c6964206164647265737360881b604482015260640160405180910390fd5b50600580546001600160a01b0319166001600160a01b039290921691909117905562000329565b8051620000da90600290602084019062000130565b5050565b600480546001600160a01b038381166001600160a01b0319831681179093556040519116919082907f8be0079c531659141344cd1fd0a4f28419497f9722a3daafe3b4186f6b6457e090600090a35050565b8280546200013e90620002d6565b90600052602060002090601f016020900481019282620001625760008555620001ad565b82601f106200017d57805160ff1916838001178555620001ad565b82800160010185558215620001ad579182015b82811115620001ad57825182559160200191906001019062000190565b50620001bb929150620001bf565b5090565b5b80821115620001bb5760008155600101620001c0565b60008060408385031215620001ea57600080fd5b82516001600160a01b03811681146200020257600080fd5b602084810151919350906001600160401b03808211156200022257600080fd5b818601915086601f8301126200023757600080fd5b8151818111156200024c576200024c62000313565b604051601f8201601f19908116603f0116810190838211818310171562000277576200027762000313565b8160405282815289868487010111156200029057600080fd5b600093505b82841015620002b4578484018601518185018701529285019262000295565b82841115620002c65760008684830101525b8096505050505050509250929050565b600181811c90821680620002eb57607f821691505b602082108114156200030d57634e487b7160e01b600052602260045260246000fd5b50919050565b634e487b7160e01b600052604160045260246000fd5b61263580620003396000396000f3fe608060405234801561001057600080fd5b50600436106101975760003560e01c806394d008ef116100e3578063bbc4541b1161008c578063e985e9c511610066578063e985e9c514610392578063f242432a146103ce578063f2fde38b146103e157600080fd5b8063bbc4541b1461034c578063bd85b0391461035f578063db609ada1461037f57600080fd5b80639dc29fac116100bd5780639dc29fac14610313578063a22cb46514610326578063b898410d1461033957600080fd5b806394d008ef146102da5780639aa0055e146102ed5780639b642de11461030057600080fd5b80634f558e791161014557806378f716c31161011f57806378f716c3146102ad57806382786654146102b65780638da5cb5b146102c957600080fd5b80634f558e791461027b5780635e9337021461029d578063715018a6146102a557600080fd5b80632eb2c2d6116101765780632eb2c2d614610205578063355eb4931461021a5780634e1273f41461025b57600080fd5b8062fdd58e1461019c57806301ffc9a7146101c25780630e89341c146101e5575b600080fd5b6101af6101aa366004611f6e565b6103f4565b6040519081526020015b60405180910390f35b6101d56101d0366004612172565b61049d565b60405190151581526020016101b9565b6101f86101f33660046121fd565b61053a565b6040516101b9919061240a565b610218610213366004611e28565b6105ce565b005b6102436102283660046121fd565b6006602052600090815260409020546001600160a01b031681565b6040516001600160a01b0390911681526020016101b9565b61026e610269366004611fef565b610670565b6040516101b991906123c9565b6101d56102893660046121fd565b600090815260036020526040902054151590565b6007546101af565b6102186107ae565b6101af60075481565b6102186102c4366004612216565b610814565b6004546001600160a01b0316610243565b6102186102e8366004611f98565b610a0c565b6101af6102fb366004612053565b610a1e565b61021861030e3660046121ac565b610b43565b610218610321366004611f6e565b610ba9565b610218610334366004611f37565b610bb9565b6102186103473660046120ad565b610ca4565b600554610243906001600160a01b031681565b6101af61036d3660046121fd565b60009081526003602052604090205490565b61021861038d3660046120f2565b610ce7565b6101d56103a0366004611df5565b6001600160a01b03918216600090815260016020908152604080832093909416825291909152205460ff1690565b6102186103dc366004611ed2565b610d31565b6102186103ef366004611dda565b610dcc565b60006001600160a01b0383166104775760405162461bcd60e51b815260206004820152602b60248201527f455243313135353a2062616c616e636520717565727920666f7220746865207a60448201527f65726f206164647265737300000000000000000000000000000000000000000060648201526084015b60405180910390fd5b506000908152602081815260408083206001600160a01b03949094168352929052205490565b60006001600160e01b031982167fd9b67a2600000000000000000000000000000000000000000000000000000000148061050057506001600160e01b031982167f0e89341c00000000000000000000000000000000000000000000000000000000145b8061053457507f01ffc9a7000000000000000000000000000000000000000000000000000000006001600160e01b03198316145b92915050565b60606002805461054990612470565b80601f016020809104026020016040519081016040528092919081815260200182805461057590612470565b80156105c25780601f10610597576101008083540402835291602001916105c2565b820191906000526020600020905b8154815290600101906020018083116105a557829003601f168201915b50505050509050919050565b6001600160a01b0385163314806105ea57506105ea85336103a0565b61065c5760405162461bcd60e51b815260206004820152603260248201527f455243313135353a207472616e736665722063616c6c6572206973206e6f742060448201527f6f776e6572206e6f7220617070726f7665640000000000000000000000000000606482015260840161046e565b6106698585858585610eab565b5050505050565b606081518351146106e95760405162461bcd60e51b815260206004820152602960248201527f455243313135353a206163636f756e747320616e6420696473206c656e67746860448201527f206d69736d617463680000000000000000000000000000000000000000000000606482015260840161046e565b6000835167ffffffffffffffff8111156107055761070561251f565b60405190808252806020026020018201604052801561072e578160200160208202803683370190505b50905060005b84518110156107a65761077985828151811061075257610752612509565b602002602001015185838151811061076c5761076c612509565b60200260200101516103f4565b82828151811061078b5761078b612509565b602090810291909101015261079f816124d8565b9050610734565b509392505050565b6004546001600160a01b031633146108085760405162461bcd60e51b815260206004820181905260248201527f4f776e61626c653a2063616c6c6572206973206e6f7420746865206f776e6572604482015260640161046e565b610812600061112c565b565b6001600160a01b03811661086a5760405162461bcd60e51b815260206004820152600f60248201527f496e76616c696420616464726573730000000000000000000000000000000000604482015260640161046e565b6000828152600660205260409020546001600160a01b031633146108d05760405162461bcd60e51b815260206004820152601a60248201527f496e76616c6964206d69677261746520636f6e74726f6c6c6572000000000000604482015260640161046e565b60055460405163c3c5a54760e01b81526001600160a01b0383811660048301529091169063c3c5a5479060240160206040518083038186803b15801561091557600080fd5b505afa158015610929573d6000803e3d6000fd5b505050506040513d601f19601f8201168201806040525081019061094d9190612155565b6109995760405162461bcd60e51b815260206004820152601960248201527f436f6e74726f6c6c6572206e6f74207265676973746572656400000000000000604482015260640161046e565b600082815260066020908152604091829020805473ffffffffffffffffffffffffffffffffffffffff19166001600160a01b0385169081179091558251858152918201527fc30443aa4d8d4b5e33b0904fa6687e345e706027fbe9140b5e6459f17077df22910160405180910390a15050565b610a19838360018461118b565b505050565b6007805460009160019083610a338385612441565b909155505060055460405163c3c5a54760e01b81523360048201526001600160a01b039091169063c3c5a5479060240160206040518083038186803b158015610a7b57600080fd5b505afa158015610a8f573d6000803e3d6000fd5b505050506040513d601f19601f82011682018060405250810190610ab39190612155565b610aff5760405162461bcd60e51b815260206004820152601960248201527f436f6e74726f6c6c6572206e6f74207265676973746572656400000000000000604482015260640161046e565b6000818152600660205260409020805473ffffffffffffffffffffffffffffffffffffffff191633179055835115610b3c57610b3c848285610ce7565b9392505050565b6004546001600160a01b03163314610b9d5760405162461bcd60e51b815260206004820181905260248201527f4f776e61626c653a2063616c6c6572206973206e6f7420746865206f776e6572604482015260640161046e565b610ba6816111c0565b50565b610bb5828260016111d3565b5050565b336001600160a01b0383161415610c385760405162461bcd60e51b815260206004820152602960248201527f455243313135353a2073657474696e6720617070726f76616c2073746174757360448201527f20666f722073656c660000000000000000000000000000000000000000000000606482015260840161046e565b3360008181526001602090815260408083206001600160a01b03871680855290835292819020805460ff191686151590811790915590519081529192917f17307eab39ab6107e8899845ad3d59bd9653f200f220920489ca2b5937696c31910160405180910390a35050565b60005b8251811015610a1957610cd5838281518110610cc557610cc5612509565b60200260200101518360016111d3565b610ce0600182612441565b9050610ca7565b60005b8351811015610d2b57610d19848281518110610d0857610d08612509565b60200260200101518460018561118b565b610d24600182612441565b9050610cea565b50505050565b6001600160a01b038516331480610d4d5750610d4d85336103a0565b610dbf5760405162461bcd60e51b815260206004820152602960248201527f455243313135353a2063616c6c6572206973206e6f74206f776e6572206e6f7260448201527f20617070726f7665640000000000000000000000000000000000000000000000606482015260840161046e565b6106698585858585611206565b6004546001600160a01b03163314610e265760405162461bcd60e51b815260206004820181905260248201527f4f776e61626c653a2063616c6c6572206973206e6f7420746865206f776e6572604482015260640161046e565b6001600160a01b038116610ea25760405162461bcd60e51b815260206004820152602660248201527f4f776e61626c653a206e6577206f776e657220697320746865207a65726f206160448201527f6464726573730000000000000000000000000000000000000000000000000000606482015260840161046e565b610ba68161112c565b8151835114610f225760405162461bcd60e51b815260206004820152602860248201527f455243313135353a2069647320616e6420616d6f756e7473206c656e6774682060448201527f6d69736d61746368000000000000000000000000000000000000000000000000606482015260840161046e565b6001600160a01b038416610f865760405162461bcd60e51b815260206004820152602560248201527f455243313135353a207472616e7366657220746f20746865207a65726f206164604482015264647265737360d81b606482015260840161046e565b33610f958187878787876113b3565b60005b84518110156110be576000858281518110610fb557610fb5612509565b602002602001015190506000858381518110610fd357610fd3612509565b602090810291909101810151600084815280835260408082206001600160a01b038e1683529093529190912054909150818110156110665760405162461bcd60e51b815260206004820152602a60248201527f455243313135353a20696e73756666696369656e742062616c616e636520666f60448201526939103a3930b739b332b960b11b606482015260840161046e565b6000838152602081815260408083206001600160a01b038e8116855292528083208585039055908b168252812080548492906110a3908490612441565b92505081905550505050806110b7906124d8565b9050610f98565b50846001600160a01b0316866001600160a01b0316826001600160a01b03167f4a39dc06d4c0dbc64b70af90fd698a233a518aa5d07e595d983b8c0526c8f7fb878760405161110e9291906123dc565b60405180910390a46111248187878787876115eb565b505050505050565b600480546001600160a01b0383811673ffffffffffffffffffffffffffffffffffffffff19831681179093556040519116919082907f8be0079c531659141344cd1fd0a4f28419497f9722a3daafe3b4186f6b6457e090600090a35050565b611197848484846117a0565b600083815260036020526040812080548492906111b5908490612441565b909155505050505050565b8051610bb5906002906020840190611bbf565b6111de8383836118bd565b600082815260036020526040812080548392906111fc908490612459565b9091555050505050565b6001600160a01b03841661126a5760405162461bcd60e51b815260206004820152602560248201527f455243313135353a207472616e7366657220746f20746865207a65726f206164604482015264647265737360d81b606482015260840161046e565b3361128981878761127a88611a69565b61128388611a69565b876113b3565b6000848152602081815260408083206001600160a01b038a1684529091529020548381101561130d5760405162461bcd60e51b815260206004820152602a60248201527f455243313135353a20696e73756666696369656e742062616c616e636520666f60448201526939103a3930b739b332b960b11b606482015260840161046e565b6000858152602081815260408083206001600160a01b038b811685529252808320878503905590881682528120805486929061134a908490612441565b909155505060408051868152602081018690526001600160a01b03808916928a821692918616917fc3d58168c5ae7397731d063d5bbf3d657854427343f4c083240f7aacaa2d0f62910160405180910390a46113aa828888888888611ab4565b50505050505050565b600060066000856000815181106113cc576113cc612509565b6020908102919091018101518252810191909152604001600020546001600160a01b031690508061143f5760405162461bcd60e51b815260206004820152601160248201527f506f6420646f65736e2774206578697374000000000000000000000000000000604482015260640161046e565b60005b8451811015611560576001600160a01b038616156114bd576114708686838151811061076c5761076c612509565b156114bd5760405162461bcd60e51b815260206004820152601660248201527f5573657220697320616c7265616479206d656d62657200000000000000000000604482015260640161046e565b816001600160a01b0316600660008784815181106114dd576114dd612509565b6020908102919091018101518252810191909152604001600020546001600160a01b03161461154e5760405162461bcd60e51b815260206004820152601e60248201527f496473206861766520646966666572656e7420636f6e74726f6c6c6572730000604482015260640161046e565b611559600182612441565b9050611442565b506040517ff0f39f5d0000000000000000000000000000000000000000000000000000000081526001600160a01b0382169063f0f39f5d906115b0908a908a908a908a908a908a906004016122c1565b600060405180830381600087803b1580156115ca57600080fd5b505af11580156115de573d6000803e3d6000fd5b5050505050505050505050565b6001600160a01b0384163b156111245760405163bc197c8160e01b81526001600160a01b0385169063bc197c819061162f9089908990889088908890600401612328565b602060405180830381600087803b15801561164957600080fd5b505af1925050508015611679575060408051601f3d908101601f191682019092526116769181019061218f565b60015b61172f57611685612535565b806308c379a014156116bf575061169a612551565b806116a557506116c1565b8060405162461bcd60e51b815260040161046e919061240a565b505b60405162461bcd60e51b815260206004820152603460248201527f455243313135353a207472616e7366657220746f206e6f6e204552433131353560448201527f526563656976657220696d706c656d656e746572000000000000000000000000606482015260840161046e565b6001600160e01b0319811663bc197c8160e01b146113aa5760405162461bcd60e51b815260206004820152602860248201527f455243313135353a204552433131353552656365697665722072656a656374656044820152676420746f6b656e7360c01b606482015260840161046e565b6001600160a01b03841661181c5760405162461bcd60e51b815260206004820152602160248201527f455243313135353a206d696e7420746f20746865207a65726f2061646472657360448201527f7300000000000000000000000000000000000000000000000000000000000000606482015260840161046e565b3361182d8160008761127a88611a69565b6000848152602081815260408083206001600160a01b03891684529091528120805485929061185d908490612441565b909155505060408051858152602081018590526001600160a01b0380881692600092918516917fc3d58168c5ae7397731d063d5bbf3d657854427343f4c083240f7aacaa2d0f62910160405180910390a461066981600087878787611ab4565b6001600160a01b0383166119395760405162461bcd60e51b815260206004820152602360248201527f455243313135353a206275726e2066726f6d20746865207a65726f206164647260448201527f6573730000000000000000000000000000000000000000000000000000000000606482015260840161046e565b336119688185600061194a87611a69565b61195387611a69565b604051806020016040528060008152506113b3565b6000838152602081815260408083206001600160a01b0388168452909152902054828110156119fe5760405162461bcd60e51b8152602060048201526024808201527f455243313135353a206275726e20616d6f756e7420657863656564732062616c60448201527f616e636500000000000000000000000000000000000000000000000000000000606482015260840161046e565b6000848152602081815260408083206001600160a01b03898116808652918452828520888703905582518981529384018890529092908616917fc3d58168c5ae7397731d063d5bbf3d657854427343f4c083240f7aacaa2d0f62910160405180910390a45050505050565b60408051600180825281830190925260609160009190602080830190803683370190505090508281600081518110611aa357611aa3612509565b602090810291909101015292915050565b6001600160a01b0384163b156111245760405163f23a6e6160e01b81526001600160a01b0385169063f23a6e6190611af89089908990889088908890600401612386565b602060405180830381600087803b158015611b1257600080fd5b505af1925050508015611b42575060408051601f3d908101601f19168201909252611b3f9181019061218f565b60015b611b4e57611685612535565b6001600160e01b0319811663f23a6e6160e01b146113aa5760405162461bcd60e51b815260206004820152602860248201527f455243313135353a204552433131353552656365697665722072656a656374656044820152676420746f6b656e7360c01b606482015260840161046e565b828054611bcb90612470565b90600052602060002090601f016020900481019282611bed5760008555611c33565b82601f10611c0657805160ff1916838001178555611c33565b82800160010185558215611c33579182015b82811115611c33578251825591602001919060010190611c18565b50611c3f929150611c43565b5090565b5b80821115611c3f5760008155600101611c44565b600067ffffffffffffffff831115611c7257611c7261251f565b604051611c89601f8501601f1916602001826124ab565b809150838152848484011115611c9e57600080fd5b83836020830137600060208583010152509392505050565b80356001600160a01b0381168114611ccd57600080fd5b919050565b600082601f830112611ce357600080fd5b81356020611cf08261241d565b604051611cfd82826124ab565b8381528281019150858301600585901b87018401881015611d1d57600080fd5b60005b85811015611d4357611d3182611cb6565b84529284019290840190600101611d20565b5090979650505050505050565b600082601f830112611d6157600080fd5b81356020611d6e8261241d565b604051611d7b82826124ab565b8381528281019150858301600585901b87018401881015611d9b57600080fd5b60005b85811015611d4357813584529284019290840190600101611d9e565b600082601f830112611dcb57600080fd5b610b3c83833560208501611c58565b600060208284031215611dec57600080fd5b610b3c82611cb6565b60008060408385031215611e0857600080fd5b611e1183611cb6565b9150611e1f60208401611cb6565b90509250929050565b600080600080600060a08688031215611e4057600080fd5b611e4986611cb6565b9450611e5760208701611cb6565b9350604086013567ffffffffffffffff80821115611e7457600080fd5b611e8089838a01611d50565b94506060880135915080821115611e9657600080fd5b611ea289838a01611d50565b93506080880135915080821115611eb857600080fd5b50611ec588828901611dba565b9150509295509295909350565b600080600080600060a08688031215611eea57600080fd5b611ef386611cb6565b9450611f0160208701611cb6565b93506040860135925060608601359150608086013567ffffffffffffffff811115611f2b57600080fd5b611ec588828901611dba565b60008060408385031215611f4a57600080fd5b611f5383611cb6565b91506020830135611f63816125db565b809150509250929050565b60008060408385031215611f8157600080fd5b611f8a83611cb6565b946020939093013593505050565b600080600060608486031215611fad57600080fd5b611fb684611cb6565b925060208401359150604084013567ffffffffffffffff811115611fd957600080fd5b611fe586828701611dba565b9150509250925092565b6000806040838503121561200257600080fd5b823567ffffffffffffffff8082111561201a57600080fd5b61202686838701611cd2565b9350602085013591508082111561203c57600080fd5b5061204985828601611d50565b9150509250929050565b6000806040838503121561206657600080fd5b823567ffffffffffffffff8082111561207e57600080fd5b61208a86838701611cd2565b935060208501359150808211156120a057600080fd5b5061204985828601611dba565b600080604083850312156120c057600080fd5b823567ffffffffffffffff8111156120d757600080fd5b6120e385828601611cd2565b95602094909401359450505050565b60008060006060848603121561210757600080fd5b833567ffffffffffffffff8082111561211f57600080fd5b61212b87838801611cd2565b945060208601359350604086013591508082111561214857600080fd5b50611fe586828701611dba565b60006020828403121561216757600080fd5b8151610b3c816125db565b60006020828403121561218457600080fd5b8135610b3c816125e9565b6000602082840312156121a157600080fd5b8151610b3c816125e9565b6000602082840312156121be57600080fd5b813567ffffffffffffffff8111156121d557600080fd5b8201601f810184136121e657600080fd5b6121f584823560208401611c58565b949350505050565b60006020828403121561220f57600080fd5b5035919050565b6000806040838503121561222957600080fd5b82359150611e1f60208401611cb6565b600081518084526020808501945080840160005b838110156122695781518752958201959082019060010161224d565b509495945050505050565b6000815180845260005b8181101561229a5760208185018101518683018201520161227e565b818111156122ac576000602083870101525b50601f01601f19169290920160200192915050565b60006001600160a01b038089168352808816602084015280871660408401525060c060608301526122f560c0830186612239565b82810360808401526123078186612239565b905082810360a084015261231b8185612274565b9998505050505050505050565b60006001600160a01b03808816835280871660208401525060a0604083015261235460a0830186612239565b82810360608401526123668186612239565b9050828103608084015261237a8185612274565b98975050505050505050565b60006001600160a01b03808816835280871660208401525084604083015283606083015260a060808301526123be60a0830184612274565b979650505050505050565b602081526000610b3c6020830184612239565b6040815260006123ef6040830185612239565b82810360208401526124018185612239565b95945050505050565b602081526000610b3c6020830184612274565b600067ffffffffffffffff8211156124375761243761251f565b5060051b60200190565b60008219821115612454576124546124f3565b500190565b60008282101561246b5761246b6124f3565b500390565b600181811c9082168061248457607f821691505b602082108114156124a557634e487b7160e01b600052602260045260246000fd5b50919050565b601f8201601f1916810167ffffffffffffffff811182821017156124d1576124d161251f565b6040525050565b60006000198214156124ec576124ec6124f3565b5060010190565b634e487b7160e01b600052601160045260246000fd5b634e487b7160e01b600052603260045260246000fd5b634e487b7160e01b600052604160045260246000fd5b600060033d111561254e5760046000803e5060005160e01c5b90565b600060443d101561255f5790565b6040516003193d81016004833e81513d67ffffffffffffffff816024840111818411171561258f57505050505090565b82850191508151818111156125a75750505050505090565b843d87010160208285010111156125c15750505050505090565b6125d0602082860101876124ab565b509095945050505050565b8015158114610ba657600080fd5b6001600160e01b031981168114610ba657600080fdfea26469706673582212209284ad3d5d4de67b95ef53d3444a934ccd88ad8f0f4bc26b1a84bde935498cca64736f6c63430008070033",
  "devdoc": {
    "kind": "dev",
    "methods": {
      "balanceOf(address,uint256)": {
        "details": "See {IERC1155-balanceOf}. Requirements: - `account` cannot be the zero address."
      },
      "balanceOfBatch(address[],uint256[])": {
        "details": "See {IERC1155-balanceOfBatch}. Requirements: - `accounts` and `ids` must have the same length."
      },
      "burn(address,uint256)": {
        "params": {
          "_account": "The account address holding the membership token to destroy",
          "_id": "The id of the membership token to destroy"
        }
      },
      "burnSingleBatch(address[],uint256)": {
        "params": {
          "_accounts": "The account addresses to burn the membership tokens from",
          "_id": "The membership token id to burn"
        }
      },
      "constructor": {
        "params": {
          "_controllerRegistry": "The address of the ControllerRegistry contract"
        }
      },
      "exists(uint256)": {
        "details": "Indicates weither any token exist with a given id, or not."
      },
      "isApprovedForAll(address,address)": {
        "details": "See {IERC1155-isApprovedForAll}."
      },
      "migrateMemberController(uint256,address)": {
        "params": {
          "_newController": "The address of the new controller",
          "_podId": "The pod id number"
        }
      },
      "mint(address,uint256,bytes)": {
        "params": {
          "_account": "The account address to assign the membership token to",
          "_id": "The membership token id to mint",
          "data": "Passes a flag for initial creation event"
        }
      },
      "mintSingleBatch(address[],uint256,bytes)": {
        "params": {
          "_accounts": "The account addresses to assign the membership tokens to",
          "_id": "The membership token id to mint",
          "data": "Passes a flag for an initial creation event"
        }
      },
      "owner()": {
        "details": "Returns the address of the current owner."
      },
      "renounceOwnership()": {
        "details": "Leaves the contract without owner. It will not be possible to call `onlyOwner` functions anymore. Can only be called by the current owner. NOTE: Renouncing ownership will leave the contract without an owner, thereby removing any functionality that is only available to the owner."
      },
      "safeBatchTransferFrom(address,address,uint256[],uint256[],bytes)": {
        "details": "See {IERC1155-safeBatchTransferFrom}."
      },
      "safeTransferFrom(address,address,uint256,uint256,bytes)": {
        "details": "See {IERC1155-safeTransferFrom}."
      },
      "setApprovalForAll(address,bool)": {
        "details": "See {IERC1155-setApprovalForAll}."
      },
      "supportsInterface(bytes4)": {
        "details": "See {IERC165-supportsInterface}."
      },
      "totalSupply(uint256)": {
        "details": "Total amount of tokens in with a given id."
      },
      "transferOwnership(address)": {
        "details": "Transfers ownership of the contract to a new account (`newOwner`). Can only be called by the current owner."
      },
      "uri(uint256)": {
        "details": "See {IERC1155MetadataURI-uri}. This implementation returns the same URI for *all* token types. It relies on the token type ID substitution mechanism https://eips.ethereum.org/EIPS/eip-1155#metadata[defined in the EIP]. Clients calling this function must replace the `\\{id\\}` substring with the actual token type ID."
      }
    },
    "version": 1
  },
  "userdoc": {
    "kind": "user",
    "methods": {},
    "version": 1
  },
  "storageLayout": {
    "storage": [
      {
        "astId": 897,
        "contract": "contracts/MemberToken.sol:MemberToken",
        "label": "_balances",
        "offset": 0,
        "slot": "0",
        "type": "t_mapping(t_uint256,t_mapping(t_address,t_uint256))"
      },
      {
        "astId": 903,
        "contract": "contracts/MemberToken.sol:MemberToken",
        "label": "_operatorApprovals",
        "offset": 0,
        "slot": "1",
        "type": "t_mapping(t_address,t_mapping(t_address,t_bool))"
      },
      {
        "astId": 905,
        "contract": "contracts/MemberToken.sol:MemberToken",
        "label": "_uri",
        "offset": 0,
        "slot": "2",
        "type": "t_string_storage"
      },
      {
        "astId": 2125,
        "contract": "contracts/MemberToken.sol:MemberToken",
        "label": "_totalSupply",
        "offset": 0,
        "slot": "3",
        "type": "t_mapping(t_uint256,t_uint256)"
      },
      {
        "astId": 775,
        "contract": "contracts/MemberToken.sol:MemberToken",
        "label": "_owner",
        "offset": 0,
        "slot": "4",
        "type": "t_address"
      },
      {
        "astId": 4522,
        "contract": "contracts/MemberToken.sol:MemberToken",
        "label": "controllerRegistry",
        "offset": 0,
        "slot": "5",
        "type": "t_contract(IControllerRegistry)5816"
      },
      {
        "astId": 4526,
        "contract": "contracts/MemberToken.sol:MemberToken",
        "label": "memberController",
        "offset": 0,
        "slot": "6",
        "type": "t_mapping(t_uint256,t_address)"
      },
      {
        "astId": 4529,
        "contract": "contracts/MemberToken.sol:MemberToken",
        "label": "nextAvailablePodId",
        "offset": 0,
        "slot": "7",
        "type": "t_uint256"
      }
    ],
    "types": {
      "t_address": {
        "encoding": "inplace",
        "label": "address",
        "numberOfBytes": "20"
      },
      "t_bool": {
        "encoding": "inplace",
        "label": "bool",
        "numberOfBytes": "1"
      },
      "t_contract(IControllerRegistry)5816": {
        "encoding": "inplace",
        "label": "contract IControllerRegistry",
        "numberOfBytes": "20"
      },
      "t_mapping(t_address,t_bool)": {
        "encoding": "mapping",
        "key": "t_address",
        "label": "mapping(address => bool)",
        "numberOfBytes": "32",
        "value": "t_bool"
      },
      "t_mapping(t_address,t_mapping(t_address,t_bool))": {
        "encoding": "mapping",
        "key": "t_address",
        "label": "mapping(address => mapping(address => bool))",
        "numberOfBytes": "32",
        "value": "t_mapping(t_address,t_bool)"
      },
      "t_mapping(t_address,t_uint256)": {
        "encoding": "mapping",
        "key": "t_address",
        "label": "mapping(address => uint256)",
        "numberOfBytes": "32",
        "value": "t_uint256"
      },
      "t_mapping(t_uint256,t_address)": {
        "encoding": "mapping",
        "key": "t_uint256",
        "label": "mapping(uint256 => address)",
        "numberOfBytes": "32",
        "value": "t_address"
      },
      "t_mapping(t_uint256,t_mapping(t_address,t_uint256))": {
        "encoding": "mapping",
        "key": "t_uint256",
        "label": "mapping(uint256 => mapping(address => uint256))",
        "numberOfBytes": "32",
        "value": "t_mapping(t_address,t_uint256)"
      },
      "t_mapping(t_uint256,t_uint256)": {
        "encoding": "mapping",
        "key": "t_uint256",
        "label": "mapping(uint256 => uint256)",
        "numberOfBytes": "32",
        "value": "t_uint256"
      },
      "t_string_storage": {
        "encoding": "bytes",
        "label": "string",
        "numberOfBytes": "32"
      },
      "t_uint256": {
        "encoding": "inplace",
        "label": "uint256",
        "numberOfBytes": "32"
      }
    }
  }
}