{
  "address": "0xfb015352De6E5876C6B103724Ef023a6bF4D16B4",
  "abi": [
    {
      "inputs": [
        {
          "internalType": "contract ENS",
          "name": "ensAddr",
          "type": "address"
        },
        {
          "internalType": "contract Resolver",
          "name": "resolverAddr",
          "type": "address"
        },
        {
          "internalType": "contract ReverseRegistrar",
          "name": "_reverseRegistrar",
          "type": "address"
        },
        {
          "internalType": "contract IControllerRegistry",
          "name": "controllerRegistryAddr",
          "type": "address"
        },
        {
          "internalType": "bytes32",
          "name": "node",
          "type": "bytes32"
        },
        {
          "internalType": "contract IInviteToken",
          "name": "inviteTokenAddr",
          "type": "address"
        }
      ],
      "stateMutability": "nonpayable",
      "type": "constructor"
    },
    {
      "anonymous": false,
      "inputs": [
        {
          "indexed": true,
          "internalType": "address",
          "name": "previousOwner",
          "type": "address"
        },
        {
          "indexed": true,
          "internalType": "address",
          "name": "newOwner",
          "type": "address"
        }
      ],
      "name": "OwnershipTransferred",
      "type": "event"
    },
    {
      "inputs": [
        {
          "internalType": "address",
          "name": "input",
          "type": "address"
        }
      ],
      "name": "addressToNode",
      "outputs": [
        {
          "internalType": "bytes32",
          "name": "",
          "type": "bytes32"
        }
      ],
      "stateMutability": "nonpayable",
      "type": "function"
    },
    {
      "inputs": [],
      "name": "ens",
      "outputs": [
        {
          "internalType": "contract ENS",
          "name": "",
          "type": "address"
        }
      ],
      "stateMutability": "view",
      "type": "function"
    },
    {
      "inputs": [
        {
          "internalType": "bytes32",
          "name": "label",
          "type": "bytes32"
        }
      ],
      "name": "getEnsNode",
      "outputs": [
        {
          "internalType": "bytes32",
          "name": "",
          "type": "bytes32"
        }
      ],
      "stateMutability": "view",
      "type": "function"
    },
    {
      "inputs": [],
      "name": "getRootNode",
      "outputs": [
        {
          "internalType": "bytes32",
          "name": "",
          "type": "bytes32"
        }
      ],
      "stateMutability": "view",
      "type": "function"
    },
    {
      "inputs": [],
      "name": "owner",
      "outputs": [
        {
          "internalType": "address",
          "name": "",
          "type": "address"
        }
      ],
      "stateMutability": "view",
      "type": "function"
    },
    {
      "inputs": [
        {
          "internalType": "bytes32",
          "name": "label",
          "type": "bytes32"
        },
        {
          "internalType": "address",
          "name": "owner",
          "type": "address"
        }
      ],
      "name": "register",
      "outputs": [],
      "stateMutability": "nonpayable",
      "type": "function"
    },
    {
      "inputs": [
        {
          "internalType": "bytes32",
          "name": "label",
          "type": "bytes32"
        },
        {
          "internalType": "address",
          "name": "podSafe",
          "type": "address"
        },
        {
          "internalType": "address",
          "name": "podCreator",
          "type": "address"
        }
      ],
      "name": "registerPod",
      "outputs": [
        {
          "internalType": "address",
          "name": "",
          "type": "address"
        }
      ],
      "stateMutability": "nonpayable",
      "type": "function"
    },
    {
      "inputs": [],
      "name": "renounceOwnership",
      "outputs": [],
      "stateMutability": "nonpayable",
      "type": "function"
    },
    {
      "inputs": [],
      "name": "resolver",
      "outputs": [
        {
          "internalType": "contract Resolver",
          "name": "",
          "type": "address"
        }
      ],
      "stateMutability": "view",
      "type": "function"
    },
    {
      "inputs": [],
      "name": "reverseRegistrar",
      "outputs": [
        {
          "internalType": "contract ReverseRegistrar",
          "name": "",
          "type": "address"
        }
      ],
      "stateMutability": "view",
      "type": "function"
    },
    {
      "inputs": [
        {
          "internalType": "bytes32",
          "name": "node",
          "type": "bytes32"
        },
        {
          "internalType": "address",
          "name": "newAddress",
          "type": "address"
        }
      ],
      "name": "setAddr",
      "outputs": [],
      "stateMutability": "nonpayable",
      "type": "function"
    },
    {
      "inputs": [
        {
          "internalType": "uint256",
          "name": "_state",
          "type": "uint256"
        }
      ],
      "name": "setRestrictionState",
      "outputs": [],
      "stateMutability": "nonpayable",
      "type": "function"
    },
    {
      "inputs": [
        {
          "internalType": "bytes32",
          "name": "node",
          "type": "bytes32"
        },
        {
          "internalType": "string",
          "name": "key",
          "type": "string"
        },
        {
          "internalType": "string",
          "name": "value",
          "type": "string"
        }
      ],
      "name": "setText",
      "outputs": [],
      "stateMutability": "nonpayable",
      "type": "function"
    },
    {
      "inputs": [],
      "name": "state",
      "outputs": [
        {
          "internalType": "enum PodEnsRegistrar.State",
          "name": "",
          "type": "uint8"
        }
      ],
      "stateMutability": "view",
      "type": "function"
    },
    {
      "inputs": [
        {
          "internalType": "address",
          "name": "newOwner",
          "type": "address"
        }
      ],
      "name": "transferOwnership",
      "outputs": [],
      "stateMutability": "nonpayable",
      "type": "function"
    }
  ],
  "transactionHash": "0x2443e106ba627a0732a5e5149ddc171ace0f9a53df28af91e7c2f59c1a3ad8a9",
  "args": [
    "0x00000000000C2E074eC69A0dFb2997BA6C7d2e1e",
    "0xf6305c19e814d2a75429Fd637d01F7ee0E77d615",
    "0x6F628b68b30Dc3c17f345c9dbBb1E483c2b7aE5c",
    "0x0285727ab1A03873e142dfDb940635E15Dd92d18",
    "0xa74c8b4e0e15dcc91024ac3999fc5df0e6669b98308ddf55dee349ca1e642d08",
    "0x67e3F6e969FEC8521f93793487460FaCE13e6949"
  ],
  "solcInputHash": "91e63e742fce228bf12c7979a1d3605e",
  "bytecode": "0x60806040526006805460ff60a01b191690553480156200001e57600080fd5b5060405162001686380380620016868339810160408190526200004191620002b7565b6200004c3362000267565b6001600160a01b0386166200009a5760405162461bcd60e51b815260206004820152600f60248201526e496e76616c6964206164647265737360881b60448201526064015b60405180910390fd5b6001600160a01b038516620000e45760405162461bcd60e51b815260206004820152600f60248201526e496e76616c6964206164647265737360881b604482015260640162000091565b6001600160a01b0384166200012e5760405162461bcd60e51b815260206004820152600f60248201526e496e76616c6964206164647265737360881b604482015260640162000091565b6001600160a01b038316620001785760405162461bcd60e51b815260206004820152600f60248201526e496e76616c6964206164647265737360881b604482015260640162000091565b81620001b65760405162461bcd60e51b815260206004820152600c60248201526b496e76616c6964206e6f646560a01b604482015260640162000091565b6001600160a01b038116620002005760405162461bcd60e51b815260206004820152600f60248201526e496e76616c6964206164647265737360881b604482015260640162000091565b600180546001600160a01b03199081166001600160a01b039889161790915560028054821696881696909617909555600480548616938716939093179092556005556003805484169285169290921790915560068054909216921691909117905562000358565b600080546001600160a01b038381166001600160a01b0319831681178455604051919092169283917f8be0079c531659141344cd1fd0a4f28419497f9722a3daafe3b4186f6b6457e09190a35050565b60008060008060008060c08789031215620002d157600080fd5b8651620002de816200033f565b6020880151909650620002f1816200033f565b604088015190955062000304816200033f565b606088015190945062000317816200033f565b608088015160a0890151919450925062000331816200033f565b809150509295509295509295565b6001600160a01b03811681146200035557600080fd5b50565b61131e80620003686000396000f3fe608060405234801561001057600080fd5b50600436106100f55760003560e01c80638da5cb5b11610097578063cfeac6a511610066578063cfeac6a5146101ee578063d22057a914610201578063d5fa2b0014610214578063f2fde38b1461022757600080fd5b80638da5cb5b1461019657806398eed3e9146101a7578063b9efd9b5146101ba578063c19d93fb146101cd57600080fd5b806338d1fcc3116100d357806338d1fcc3146101605780633f15457f14610168578063715018a61461017b578063808698531461018357600080fd5b806304f3bcec146100fa57806310f13a8c1461012a578063137a3f601461013f575b600080fd5b60025461010d906001600160a01b031681565b6040516001600160a01b0390911681526020015b60405180910390f35b61013d610138366004611190565b61023a565b005b61015261014d366004611089565b6103af565b604051908152602001610121565b600554610152565b60015461010d906001600160a01b031681565b61013d61044c565b60035461010d906001600160a01b031681565b6000546001600160a01b031661010d565b61010d6101b536600461114e565b6104b2565b61013d6101c83660046110ec565b610b06565b6006546101e190600160a01b900460ff1681565b604051610121919061127f565b6101526101fc3660046110ec565b610bb7565b61013d61020f36600461111e565b610bf3565b61013d61022236600461111e565b610ced565b61013d610235366004611089565b610e43565b6004805460405163c3c5a54760e01b815233928101929092526001600160a01b03169063c3c5a5479060240160206040518083038186803b15801561027e57600080fd5b505afa158015610292573d6000803e3d6000fd5b505050506040513d601f19601f820116820180604052508101906102b691906110ca565b806102da5750336102cf6000546001600160a01b031690565b6001600160a01b0316145b61032b5760405162461bcd60e51b815260206004820152601f60248201527f73656e646572206d75737420626520636f6e74726f6c6c65722f6f776e65720060448201526064015b60405180910390fd5b6002546040517f10f13a8c0000000000000000000000000000000000000000000000000000000081526001600160a01b03909116906310f13a8c906103789086908690869060040161124a565b600060405180830381600087803b15801561039257600080fd5b505af11580156103a6573d6000803e3d6000fd5b50505050505050565b6003546040517fbffbe61c0000000000000000000000000000000000000000000000000000000081526001600160a01b038381166004830152600092169063bffbe61c9060240160206040518083038186803b15801561040e57600080fd5b505afa158015610422573d6000803e3d6000fd5b505050506040513d601f19601f820116820180604052508101906104469190611105565b92915050565b6000546001600160a01b031633146104a65760405162461bcd60e51b815260206004820181905260248201527f4f776e61626c653a2063616c6c6572206973206e6f7420746865206f776e65726044820152606401610322565b6104b06000610f25565b565b60006003600654600160a01b900460ff1660038111156104d4576104d46112a7565b14156105225760405162461bcd60e51b815260206004820152601860248201527f726567697374726174696f6e732061726520636c6f73656400000000000000006044820152606401610322565b6000600654600160a01b900460ff166003811115610542576105426112a7565b141561067a576006546040516370a0823160e01b81526001600160a01b03858116600483015260009216906370a082319060240160206040518083038186803b15801561058e57600080fd5b505afa1580156105a2573d6000803e3d6000fd5b505050506040513d601f19601f820116820180604052508101906105c69190611105565b116106135760405162461bcd60e51b815260206004820152601960248201527f73616665206d7573742068617665205348495020746f6b656e000000000000006044820152606401610322565b600654604051632770a7eb60e21b81526001600160a01b0385811660048301526001602483015290911690639dc29fac90604401600060405180830381600087803b15801561066157600080fd5b505af1158015610675573d6000803e3d6000fd5b505050505b6001600654600160a01b900460ff16600381111561069a5761069a6112a7565b1415610895576006546040516370a0823160e01b81526001600160a01b03858116600483015260009216906370a082319060240160206040518083038186803b1580156106e657600080fd5b505afa1580156106fa573d6000803e3d6000fd5b505050506040513d601f19601f8201168201806040525081019061071e9190611105565b111561079057600654604051632770a7eb60e21b81526001600160a01b0385811660048301526001602483015290911690639dc29fac906044015b600060405180830381600087803b15801561077357600080fd5b505af1158015610787573d6000803e3d6000fd5b50505050610895565b6006546040516370a0823160e01b81526001600160a01b03848116600483015260009216906370a082319060240160206040518083038186803b1580156107d657600080fd5b505afa1580156107ea573d6000803e3d6000fd5b505050506040513d601f19601f8201168201806040525081019061080e9190611105565b111561084d57600654604051632770a7eb60e21b81526001600160a01b0384811660048301526001602483015290911690639dc29fac90604401610759565b60405162461bcd60e51b815260206004820152601d60248201527f73656e646572206f722073616665206d757374206861766520534849500000006044820152606401610322565b6000600554856040516020016108b5929190918252602082015260400190565b60408051808303601f190181529082905280516020909101206004805463c3c5a54760e01b845233918401919091529092506001600160a01b03169063c3c5a5479060240160206040518083038186803b15801561091257600080fd5b505afa158015610926573d6000803e3d6000fd5b505050506040513d601f19601f8201168201806040525081019061094a91906110ca565b6109965760405162461bcd60e51b815260206004820152601960248201527f636f6e74726f6c6c6572206e6f742072656769737465726564000000000000006044820152606401610322565b6001546040517f02571be3000000000000000000000000000000000000000000000000000000008152600481018390526000916001600160a01b0316906302571be39060240160206040518083038186803b1580156109f457600080fd5b505afa158015610a08573d6000803e3d6000fd5b505050506040513d601f19601f82011682018060405250810190610a2c91906110ad565b6001600160a01b031614610a825760405162461bcd60e51b815260206004820152601660248201527f6c6162656c20697320616c7265616479206f776e6564000000000000000000006044820152606401610322565b610a8c8530610f8d565b60025460405162d5fa2b60e81b8152600481018390526001600160a01b0386811660248301529091169063d5fa2b0090604401600060405180830381600087803b158015610ad957600080fd5b505af1158015610aed573d6000803e3d6000fd5b50506003546001600160a01b0316979650505050505050565b6000546001600160a01b03163314610b605760405162461bcd60e51b815260206004820181905260248201527f4f776e61626c653a2063616c6c6572206973206e6f7420746865206f776e65726044820152606401610322565b806003811115610b7257610b726112a7565b600680547fffffffffffffffffffffff00ffffffffffffffffffffffffffffffffffffffff16600160a01b836003811115610baf57610baf6112a7565b021790555050565b6000610bc260055490565b6040805160208101929092528101839052606001604051602081830303815290604052805190602001209050919050565b6004805460405163c3c5a54760e01b815233928101929092526001600160a01b03169063c3c5a5479060240160206040518083038186803b158015610c3757600080fd5b505afa158015610c4b573d6000803e3d6000fd5b505050506040513d601f19601f82011682018060405250810190610c6f91906110ca565b80610c93575033610c886000546001600160a01b031690565b6001600160a01b0316145b610cdf5760405162461bcd60e51b815260206004820152601f60248201527f73656e646572206d75737420626520636f6e74726f6c6c65722f6f776e6572006044820152606401610322565b610ce98282610f8d565b5050565b6004805460405163c3c5a54760e01b815233928101929092526001600160a01b03169063c3c5a5479060240160206040518083038186803b158015610d3157600080fd5b505afa158015610d45573d6000803e3d6000fd5b505050506040513d601f19601f82011682018060405250810190610d6991906110ca565b80610d8d575033610d826000546001600160a01b031690565b6001600160a01b0316145b610dd95760405162461bcd60e51b815260206004820152601f60248201527f73656e646572206d75737420626520636f6e74726f6c6c65722f6f776e6572006044820152606401610322565b60025460405162d5fa2b60e81b8152600481018490526001600160a01b0383811660248301529091169063d5fa2b00906044015b600060405180830381600087803b158015610e2757600080fd5b505af1158015610e3b573d6000803e3d6000fd5b505050505050565b6000546001600160a01b03163314610e9d5760405162461bcd60e51b815260206004820181905260248201527f4f776e61626c653a2063616c6c6572206973206e6f7420746865206f776e65726044820152606401610322565b6001600160a01b038116610f195760405162461bcd60e51b815260206004820152602660248201527f4f776e61626c653a206e6577206f776e657220697320746865207a65726f206160448201527f64647265737300000000000000000000000000000000000000000000000000006064820152608401610322565b610f2281610f25565b50565b600080546001600160a01b038381167fffffffffffffffffffffffff0000000000000000000000000000000000000000831681178455604051919092169283917f8be0079c531659141344cd1fd0a4f28419497f9722a3daafe3b4186f6b6457e09190a35050565b6001546005546002546040517f5ef2c7f00000000000000000000000000000000000000000000000000000000081526004810192909252602482018590526001600160a01b03848116604484015290811660648301526000608483015290911690635ef2c7f09060a401610e0d565b600082601f83011261100d57600080fd5b813567ffffffffffffffff80821115611028576110286112bd565b604051601f8301601f19908116603f01168101908282118183101715611050576110506112bd565b8160405283815286602085880101111561106957600080fd5b836020870160208301376000602085830101528094505050505092915050565b60006020828403121561109b57600080fd5b81356110a6816112d3565b9392505050565b6000602082840312156110bf57600080fd5b81516110a6816112d3565b6000602082840312156110dc57600080fd5b815180151581146110a657600080fd5b6000602082840312156110fe57600080fd5b5035919050565b60006020828403121561111757600080fd5b5051919050565b6000806040838503121561113157600080fd5b823591506020830135611143816112d3565b809150509250929050565b60008060006060848603121561116357600080fd5b833592506020840135611175816112d3565b91506040840135611185816112d3565b809150509250925092565b6000806000606084860312156111a557600080fd5b83359250602084013567ffffffffffffffff808211156111c457600080fd5b6111d087838801610ffc565b935060408601359150808211156111e657600080fd5b506111f386828701610ffc565b9150509250925092565b6000815180845260005b8181101561122357602081850181015186830182015201611207565b81811115611235576000602083870101525b50601f01601f19169290920160200192915050565b83815260606020820152600061126360608301856111fd565b828103604084015261127581856111fd565b9695505050505050565b60208101600483106112a157634e487b7160e01b600052602160045260246000fd5b91905290565b634e487b7160e01b600052602160045260246000fd5b634e487b7160e01b600052604160045260246000fd5b6001600160a01b0381168114610f2257600080fdfea26469706673582212204e1d186135b0a94ddcb284b86d23f71bc2895b16459a8db3697629ec5cb7a75964736f6c63430008070033",
  "devdoc": {
    "kind": "dev",
    "methods": {
      "addressToNode(address)": {
        "params": {
          "input": "- an ENS registered address"
        }
      },
      "constructor": {
        "params": {
          "ensAddr": "The address of the ENS registry.",
          "node": "The node that this registrar administers."
        }
      },
      "getEnsNode(bytes32)": {
        "params": {
          "label": "- label hash of pod name (i.e., labelhash('mypod'))"
        }
      },
      "owner()": {
        "details": "Returns the address of the current owner."
      },
      "register(bytes32,address)": {
        "params": {
          "label": "The hash of the label to register."
        }
      },
      "renounceOwnership()": {
        "details": "Leaves the contract without owner. It will not be possible to call `onlyOwner` functions anymore. Can only be called by the current owner. NOTE: Renouncing ownership will leave the contract without an owner, thereby removing any functionality that is only available to the owner."
      },
      "setText(bytes32,string,string)": {
        "params": {
          "node": "- the node hash of an ENS name"
        }
      },
      "transferOwnership(address)": {
        "details": "Transfers ownership of the contract to a new account (`newOwner`). Can only be called by the current owner."
      }
    },
    "version": 1
  },
  "userdoc": {
    "kind": "user",
    "methods": {
      "addressToNode(address)": {
        "notice": "Returns the reverse registrar node of a given address, e.g., the node of mypod.addr.reverse."
      },
      "constructor": {
        "notice": "Constructor."
      },
      "getEnsNode(bytes32)": {
        "notice": "Generates a node hash from the Registrar's root node + the label hash."
      },
      "register(bytes32,address)": {
        "notice": "Register a name, or change the owner of an existing registration."
      }
    },
    "notice": "A registrar that allocates subdomains to the first person to claim them.",
    "version": 1
  },
  "storageLayout": {
    "storage": [
      {
        "astId": 1342,
        "contract": "contracts/ens/PodEnsRegistrar.sol:PodEnsRegistrar",
        "label": "_owner",
        "offset": 0,
        "slot": "0",
        "type": "t_address"
      },
      {
        "astId": 7131,
        "contract": "contracts/ens/PodEnsRegistrar.sol:PodEnsRegistrar",
        "label": "ens",
        "offset": 0,
        "slot": "1",
        "type": "t_contract(ENS)136"
      },
      {
        "astId": 7134,
        "contract": "contracts/ens/PodEnsRegistrar.sol:PodEnsRegistrar",
        "label": "resolver",
        "offset": 0,
        "slot": "2",
        "type": "t_contract(Resolver)794"
      },
      {
        "astId": 7137,
        "contract": "contracts/ens/PodEnsRegistrar.sol:PodEnsRegistrar",
        "label": "reverseRegistrar",
        "offset": 0,
        "slot": "3",
        "type": "t_contract(ReverseRegistrar)543"
      },
      {
        "astId": 7140,
        "contract": "contracts/ens/PodEnsRegistrar.sol:PodEnsRegistrar",
        "label": "controllerRegistry",
        "offset": 0,
        "slot": "4",
        "type": "t_contract(IControllerRegistry)7581"
      },
      {
        "astId": 7142,
        "contract": "contracts/ens/PodEnsRegistrar.sol:PodEnsRegistrar",
        "label": "rootNode",
        "offset": 0,
        "slot": "5",
        "type": "t_bytes32"
      },
      {
        "astId": 7145,
        "contract": "contracts/ens/PodEnsRegistrar.sol:PodEnsRegistrar",
        "label": "inviteToken",
        "offset": 0,
        "slot": "6",
        "type": "t_contract(IInviteToken)7792"
      },
      {
        "astId": 7150,
        "contract": "contracts/ens/PodEnsRegistrar.sol:PodEnsRegistrar",
        "label": "state",
        "offset": 20,
        "slot": "6",
        "type": "t_enum(State)7128"
      }
    ],
    "types": {
      "t_address": {
        "encoding": "inplace",
        "label": "address",
        "numberOfBytes": "20"
      },
      "t_bytes32": {
        "encoding": "inplace",
        "label": "bytes32",
        "numberOfBytes": "32"
      },
      "t_contract(ENS)136": {
        "encoding": "inplace",
        "label": "contract ENS",
        "numberOfBytes": "20"
      },
      "t_contract(IControllerRegistry)7581": {
        "encoding": "inplace",
        "label": "contract IControllerRegistry",
        "numberOfBytes": "20"
      },
      "t_contract(IInviteToken)7792": {
        "encoding": "inplace",
        "label": "contract IInviteToken",
        "numberOfBytes": "20"
      },
      "t_contract(Resolver)794": {
        "encoding": "inplace",
        "label": "contract Resolver",
        "numberOfBytes": "20"
      },
      "t_contract(ReverseRegistrar)543": {
        "encoding": "inplace",
        "label": "contract ReverseRegistrar",
        "numberOfBytes": "20"
      },
      "t_enum(State)7128": {
        "encoding": "inplace",
        "label": "enum PodEnsRegistrar.State",
        "numberOfBytes": "1"
      }
    }
  }
}