{
  "address": "0x90B5423615cA4d10390D638c0b1202D718417042",
  "abi": [
    {
      "inputs": [
        {
          "internalType": "contract ENS",
          "name": "ensAddr",
          "type": "address"
        },
        {
          "internalType": "contract Resolver",
          "name": "resolverAddr",
          "type": "address"
        },
        {
          "internalType": "address",
          "name": "_reverseRegistrar",
          "type": "address"
        },
        {
          "internalType": "contract IControllerRegistry",
          "name": "controllerRegistryAddr",
          "type": "address"
        },
        {
          "internalType": "bytes32",
          "name": "node",
          "type": "bytes32"
        },
        {
          "internalType": "contract IInviteToken",
          "name": "inviteTokenAddr",
          "type": "address"
        }
      ],
      "stateMutability": "nonpayable",
      "type": "constructor"
    },
    {
      "anonymous": false,
      "inputs": [
        {
          "indexed": true,
          "internalType": "address",
          "name": "previousOwner",
          "type": "address"
        },
        {
          "indexed": true,
          "internalType": "address",
          "name": "newOwner",
          "type": "address"
        }
      ],
      "name": "OwnershipTransferred",
      "type": "event"
    },
    {
      "inputs": [],
      "name": "owner",
      "outputs": [
        {
          "internalType": "address",
          "name": "",
          "type": "address"
        }
      ],
      "stateMutability": "view",
      "type": "function"
    },
    {
      "inputs": [
        {
          "internalType": "bytes32",
          "name": "label",
          "type": "bytes32"
        },
        {
          "internalType": "address",
          "name": "owner",
          "type": "address"
        }
      ],
      "name": "register",
      "outputs": [],
      "stateMutability": "nonpayable",
      "type": "function"
    },
    {
      "inputs": [
        {
          "internalType": "bytes32",
          "name": "label",
          "type": "bytes32"
        },
        {
          "internalType": "address",
          "name": "podSafe",
          "type": "address"
        },
        {
          "internalType": "address",
          "name": "podCreator",
          "type": "address"
        }
      ],
      "name": "registerPod",
      "outputs": [
        {
          "internalType": "address",
          "name": "",
          "type": "address"
        }
      ],
      "stateMutability": "nonpayable",
      "type": "function"
    },
    {
      "inputs": [],
      "name": "renounceOwnership",
      "outputs": [],
      "stateMutability": "nonpayable",
      "type": "function"
    },
    {
      "inputs": [
        {
          "internalType": "bytes32",
          "name": "node",
          "type": "bytes32"
        },
        {
          "internalType": "address",
          "name": "newAddress",
          "type": "address"
        }
      ],
      "name": "setAddr",
      "outputs": [],
      "stateMutability": "nonpayable",
      "type": "function"
    },
    {
      "inputs": [
        {
          "internalType": "uint256",
          "name": "_state",
          "type": "uint256"
        }
      ],
      "name": "setRestrictionState",
      "outputs": [],
      "stateMutability": "nonpayable",
      "type": "function"
    },
    {
      "inputs": [
        {
          "internalType": "bytes32",
          "name": "node",
          "type": "bytes32"
        },
        {
          "internalType": "string",
          "name": "key",
          "type": "string"
        },
        {
          "internalType": "string",
          "name": "value",
          "type": "string"
        }
      ],
      "name": "setText",
      "outputs": [],
      "stateMutability": "nonpayable",
      "type": "function"
    },
    {
      "inputs": [],
      "name": "state",
      "outputs": [
        {
          "internalType": "enum PodEnsRegistrar.State",
          "name": "",
          "type": "uint8"
        }
      ],
      "stateMutability": "view",
      "type": "function"
    },
    {
      "inputs": [
        {
          "internalType": "address",
          "name": "newOwner",
          "type": "address"
        }
      ],
      "name": "transferOwnership",
      "outputs": [],
      "stateMutability": "nonpayable",
      "type": "function"
    }
  ],
  "transactionHash": "0xd3db1b05dde76f3367b00677639d39446a857e3fff061ff0093856e4b21c2b43",
  "args": [
    "0x00000000000C2E074eC69A0dFb2997BA6C7d2e1e",
    "0xf6305c19e814d2a75429Fd637d01F7ee0E77d615",
    "0x6F628b68b30Dc3c17f345c9dbBb1E483c2b7aE5c",
    "0x5b678Db8eA8540B0481E07EE29c7194D436056c4",
    "0xa74c8b4e0e15dcc91024ac3999fc5df0e6669b98308ddf55dee349ca1e642d08",
    "0x0bd45f842e58b8fB648F59eA79bd924Ca0b9F22E"
  ],
  "solcInputHash": "1e7787b98fc73b229729c04bd255a330",
  "bytecode": "0x60806040526006805460ff60a01b191690553480156200001e57600080fd5b506040516200112a3803806200112a833981016040819052620000419162000103565b6200004c33620000b3565b600180546001600160a01b03199081166001600160a01b0398891617909155600280548216968816969096179095556004805486169387169390931790925560055560038054841692851692909217909155600680549092169216919091179055620001a4565b600080546001600160a01b038381166001600160a01b0319831681178455604051919092169283917f8be0079c531659141344cd1fd0a4f28419497f9722a3daafe3b4186f6b6457e09190a35050565b60008060008060008060c087890312156200011d57600080fd5b86516200012a816200018b565b60208801519096506200013d816200018b565b604088015190955062000150816200018b565b606088015190945062000163816200018b565b608088015160a089015191945092506200017d816200018b565b809150509295509295509295565b6001600160a01b0381168114620001a157600080fd5b50565b610f7680620001b46000396000f3fe608060405234801561001057600080fd5b50600436106100a35760003560e01c8063b9efd9b511610076578063d22057a91161005b578063d22057a914610136578063d5fa2b0014610149578063f2fde38b1461015c57600080fd5b8063b9efd9b514610102578063c19d93fb1461011557600080fd5b806310f13a8c146100a8578063715018a6146100bd5780638da5cb5b146100c557806398eed3e9146100ef575b600080fd5b6100bb6100b6366004610ddf565b61016f565b005b6100bb610258565b6000546001600160a01b03165b6040516001600160a01b0390911681526020015b60405180910390f35b6100d26100fd366004610d9d565b6102be565b6100bb610110366004610e59565b61092b565b60065461012990600160a01b900460ff1681565b6040516100e69190610eed565b6100bb610144366004610d6d565b6109dc565b6100bb610157366004610d6d565b610a44565b6100bb61016a366004610d0a565b610b08565b6000546001600160a01b031633146101ce5760405162461bcd60e51b815260206004820181905260248201527f4f776e61626c653a2063616c6c6572206973206e6f7420746865206f776e657260448201526064015b60405180910390fd5b6002546040517f10f13a8c0000000000000000000000000000000000000000000000000000000081526001600160a01b03909116906310f13a8c9061021f9088908890889088908890600401610eb4565b600060405180830381600087803b15801561023957600080fd5b505af115801561024d573d6000803e3d6000fd5b505050505050505050565b6000546001600160a01b031633146102b25760405162461bcd60e51b815260206004820181905260248201527f4f776e61626c653a2063616c6c6572206973206e6f7420746865206f776e657260448201526064016101c5565b6102bc6000610bea565b565b60006003600654600160a01b900460ff1660038111156102e0576102e0610f15565b141561032e5760405162461bcd60e51b815260206004820152601860248201527f726567697374726174696f6e732061726520636c6f736564000000000000000060448201526064016101c5565b6000600654600160a01b900460ff16600381111561034e5761034e610f15565b1415610486576006546040516370a0823160e01b81526001600160a01b03858116600483015260009216906370a082319060240160206040518083038186803b15801561039a57600080fd5b505afa1580156103ae573d6000803e3d6000fd5b505050506040513d601f19601f820116820180604052508101906103d29190610e72565b1161041f5760405162461bcd60e51b815260206004820152601960248201527f73616665206d7573742068617665205348495020746f6b656e0000000000000060448201526064016101c5565b600654604051632770a7eb60e21b81526001600160a01b0385811660048301526001602483015290911690639dc29fac90604401600060405180830381600087803b15801561046d57600080fd5b505af1158015610481573d6000803e3d6000fd5b505050505b6001600654600160a01b900460ff1660038111156104a6576104a6610f15565b14156106a1576006546040516370a0823160e01b81526001600160a01b03858116600483015260009216906370a082319060240160206040518083038186803b1580156104f257600080fd5b505afa158015610506573d6000803e3d6000fd5b505050506040513d601f19601f8201168201806040525081019061052a9190610e72565b111561059c57600654604051632770a7eb60e21b81526001600160a01b0385811660048301526001602483015290911690639dc29fac906044015b600060405180830381600087803b15801561057f57600080fd5b505af1158015610593573d6000803e3d6000fd5b505050506106a1565b6006546040516370a0823160e01b81526001600160a01b03848116600483015260009216906370a082319060240160206040518083038186803b1580156105e257600080fd5b505afa1580156105f6573d6000803e3d6000fd5b505050506040513d601f19601f8201168201806040525081019061061a9190610e72565b111561065957600654604051632770a7eb60e21b81526001600160a01b0384811660048301526001602483015290911690639dc29fac90604401610565565b60405162461bcd60e51b815260206004820152601d60248201527f73656e646572206f722073616665206d7573742068617665205348495000000060448201526064016101c5565b6000600554856040516020016106c1929190918252602082015260400190565b60408051808303601f19018152908290528051602090910120600480547fc3c5a54700000000000000000000000000000000000000000000000000000000845233918401919091529092506001600160a01b03169063c3c5a5479060240160206040518083038186803b15801561073757600080fd5b505afa15801561074b573d6000803e3d6000fd5b505050506040513d601f19601f8201168201806040525081019061076f9190610d4b565b6107bb5760405162461bcd60e51b815260206004820152601960248201527f636f6e74726f6c6c6572206e6f7420726567697374657265640000000000000060448201526064016101c5565b6001546040517f02571be3000000000000000000000000000000000000000000000000000000008152600481018390526000916001600160a01b0316906302571be39060240160206040518083038186803b15801561081957600080fd5b505afa15801561082d573d6000803e3d6000fd5b505050506040513d601f19601f820116820180604052508101906108519190610d2e565b6001600160a01b0316146108a75760405162461bcd60e51b815260206004820152601660248201527f6c6162656c20697320616c7265616479206f776e65640000000000000000000060448201526064016101c5565b6108b18530610c52565b60025460405162d5fa2b60e81b8152600481018390526001600160a01b0386811660248301529091169063d5fa2b0090604401600060405180830381600087803b1580156108fe57600080fd5b505af1158015610912573d6000803e3d6000fd5b50506003546001600160a01b0316979650505050505050565b6000546001600160a01b031633146109855760405162461bcd60e51b815260206004820181905260248201527f4f776e61626c653a2063616c6c6572206973206e6f7420746865206f776e657260448201526064016101c5565b80600381111561099757610997610f15565b600680547fffffffffffffffffffffff00ffffffffffffffffffffffffffffffffffffffff16600160a01b8360038111156109d4576109d4610f15565b021790555050565b6000546001600160a01b03163314610a365760405162461bcd60e51b815260206004820181905260248201527f4f776e61626c653a2063616c6c6572206973206e6f7420746865206f776e657260448201526064016101c5565b610a408282610c52565b5050565b6000546001600160a01b03163314610a9e5760405162461bcd60e51b815260206004820181905260248201527f4f776e61626c653a2063616c6c6572206973206e6f7420746865206f776e657260448201526064016101c5565b60025460405162d5fa2b60e81b8152600481018490526001600160a01b0383811660248301529091169063d5fa2b00906044015b600060405180830381600087803b158015610aec57600080fd5b505af1158015610b00573d6000803e3d6000fd5b505050505050565b6000546001600160a01b03163314610b625760405162461bcd60e51b815260206004820181905260248201527f4f776e61626c653a2063616c6c6572206973206e6f7420746865206f776e657260448201526064016101c5565b6001600160a01b038116610bde5760405162461bcd60e51b815260206004820152602660248201527f4f776e61626c653a206e6577206f776e657220697320746865207a65726f206160448201527f646472657373000000000000000000000000000000000000000000000000000060648201526084016101c5565b610be781610bea565b50565b600080546001600160a01b038381167fffffffffffffffffffffffff0000000000000000000000000000000000000000831681178455604051919092169283917f8be0079c531659141344cd1fd0a4f28419497f9722a3daafe3b4186f6b6457e09190a35050565b6001546005546002546040517f5ef2c7f00000000000000000000000000000000000000000000000000000000081526004810192909252602482018590526001600160a01b03848116604484015290811660648301526000608483015290911690635ef2c7f09060a401610ad2565b60008083601f840112610cd357600080fd5b50813567ffffffffffffffff811115610ceb57600080fd5b602083019150836020828501011115610d0357600080fd5b9250929050565b600060208284031215610d1c57600080fd5b8135610d2781610f2b565b9392505050565b600060208284031215610d4057600080fd5b8151610d2781610f2b565b600060208284031215610d5d57600080fd5b81518015158114610d2757600080fd5b60008060408385031215610d8057600080fd5b823591506020830135610d9281610f2b565b809150509250929050565b600080600060608486031215610db257600080fd5b833592506020840135610dc481610f2b565b91506040840135610dd481610f2b565b809150509250925092565b600080600080600060608688031215610df757600080fd5b85359450602086013567ffffffffffffffff80821115610e1657600080fd5b610e2289838a01610cc1565b90965094506040880135915080821115610e3b57600080fd5b50610e4888828901610cc1565b969995985093965092949392505050565b600060208284031215610e6b57600080fd5b5035919050565b600060208284031215610e8457600080fd5b5051919050565b81835281816020850137506000828201602090810191909152601f909101601f19169091010190565b858152606060208201526000610ece606083018688610e8b565b8281036040840152610ee1818587610e8b565b98975050505050505050565b6020810160048310610f0f57634e487b7160e01b600052602160045260246000fd5b91905290565b634e487b7160e01b600052602160045260246000fd5b6001600160a01b0381168114610be757600080fdfea26469706673582212209389de2f49cbf41082d76659355860ca8d540ea599bcb889272133439746870c64736f6c63430008070033",
  "devdoc": {
    "kind": "dev",
    "methods": {
      "constructor": {
        "params": {
          "ensAddr": "The address of the ENS registry.",
          "node": "The node that this registrar administers."
        }
      },
      "owner()": {
        "details": "Returns the address of the current owner."
      },
      "register(bytes32,address)": {
        "params": {
          "label": "The hash of the label to register."
        }
      },
      "renounceOwnership()": {
        "details": "Leaves the contract without owner. It will not be possible to call `onlyOwner` functions anymore. Can only be called by the current owner. NOTE: Renouncing ownership will leave the contract without an owner, thereby removing any functionality that is only available to the owner."
      },
      "transferOwnership(address)": {
        "details": "Transfers ownership of the contract to a new account (`newOwner`). Can only be called by the current owner."
      }
    },
    "version": 1
  },
  "userdoc": {
    "kind": "user",
    "methods": {
      "constructor": {
        "notice": "Constructor."
      },
      "register(bytes32,address)": {
        "notice": "Register a name, or change the owner of an existing registration."
      }
    },
    "notice": "A registrar that allocates subdomains to the first person to claim them.",
    "version": 1
  },
  "storageLayout": {
    "storage": [
      {
        "astId": 775,
        "contract": "contracts/ens/PodEnsRegistrar.sol:PodEnsRegistrar",
        "label": "_owner",
        "offset": 0,
        "slot": "0",
        "type": "t_address"
      },
      {
        "astId": 5496,
        "contract": "contracts/ens/PodEnsRegistrar.sol:PodEnsRegistrar",
        "label": "ens",
        "offset": 0,
        "slot": "1",
        "type": "t_contract(ENS)136"
      },
      {
        "astId": 5499,
        "contract": "contracts/ens/PodEnsRegistrar.sol:PodEnsRegistrar",
        "label": "resolver",
        "offset": 0,
        "slot": "2",
        "type": "t_contract(Resolver)387"
      },
      {
        "astId": 5501,
        "contract": "contracts/ens/PodEnsRegistrar.sol:PodEnsRegistrar",
        "label": "reverseRegistrar",
        "offset": 0,
        "slot": "3",
        "type": "t_address"
      },
      {
        "astId": 5504,
        "contract": "contracts/ens/PodEnsRegistrar.sol:PodEnsRegistrar",
        "label": "controllerRegistry",
        "offset": 0,
        "slot": "4",
        "type": "t_contract(IControllerRegistry)5819"
      },
      {
        "astId": 5506,
        "contract": "contracts/ens/PodEnsRegistrar.sol:PodEnsRegistrar",
        "label": "rootNode",
        "offset": 0,
        "slot": "5",
        "type": "t_bytes32"
      },
      {
        "astId": 5509,
        "contract": "contracts/ens/PodEnsRegistrar.sol:PodEnsRegistrar",
        "label": "inviteToken",
        "offset": 0,
        "slot": "6",
        "type": "t_contract(IInviteToken)5921"
      },
      {
        "astId": 5514,
        "contract": "contracts/ens/PodEnsRegistrar.sol:PodEnsRegistrar",
        "label": "state",
        "offset": 20,
        "slot": "6",
        "type": "t_enum(State)5493"
      }
    ],
    "types": {
      "t_address": {
        "encoding": "inplace",
        "label": "address",
        "numberOfBytes": "20"
      },
      "t_bytes32": {
        "encoding": "inplace",
        "label": "bytes32",
        "numberOfBytes": "32"
      },
      "t_contract(ENS)136": {
        "encoding": "inplace",
        "label": "contract ENS",
        "numberOfBytes": "20"
      },
      "t_contract(IControllerRegistry)5819": {
        "encoding": "inplace",
        "label": "contract IControllerRegistry",
        "numberOfBytes": "20"
      },
      "t_contract(IInviteToken)5921": {
        "encoding": "inplace",
        "label": "contract IInviteToken",
        "numberOfBytes": "20"
      },
      "t_contract(Resolver)387": {
        "encoding": "inplace",
        "label": "contract Resolver",
        "numberOfBytes": "20"
      },
      "t_enum(State)5493": {
        "encoding": "inplace",
        "label": "enum PodEnsRegistrar.State",
        "numberOfBytes": "1"
      }
    }
  }
}