{
  "address": "0xD89AAd5348A34E440E72f5F596De4fA7e291A3e8",
  "abi": [
    {
      "inputs": [
        {
          "internalType": "address",
          "name": "_memberToken",
          "type": "address"
        },
        {
          "internalType": "address",
          "name": "_controllerRegistry",
          "type": "address"
        },
        {
          "internalType": "address",
          "name": "_proxyFactoryAddress",
          "type": "address"
        },
        {
          "internalType": "address",
          "name": "_gnosisMasterAddress",
          "type": "address"
        },
        {
          "internalType": "address",
          "name": "_podEnsRegistrar",
          "type": "address"
        },
        {
          "internalType": "address",
          "name": "_fallbackHandlerAddress",
          "type": "address"
        }
      ],
      "stateMutability": "nonpayable",
      "type": "constructor"
    },
    {
      "anonymous": false,
      "inputs": [
        {
          "indexed": false,
          "internalType": "uint256",
          "name": "podId",
          "type": "uint256"
        },
        {
          "indexed": false,
          "internalType": "address",
          "name": "safe",
          "type": "address"
        },
        {
          "indexed": false,
          "internalType": "address",
          "name": "admin",
          "type": "address"
        },
        {
          "indexed": false,
          "internalType": "string",
          "name": "ensName",
          "type": "string"
        }
      ],
      "name": "CreatePod",
      "type": "event"
    },
    {
      "anonymous": false,
      "inputs": [
        {
          "indexed": true,
          "internalType": "address",
          "name": "previousOwner",
          "type": "address"
        },
        {
          "indexed": true,
          "internalType": "address",
          "name": "newOwner",
          "type": "address"
        }
      ],
      "name": "OwnershipTransferred",
      "type": "event"
    },
    {
      "anonymous": false,
      "inputs": [
        {
          "indexed": false,
          "internalType": "uint256",
          "name": "podId",
          "type": "uint256"
        },
        {
          "indexed": false,
          "internalType": "address",
          "name": "admin",
          "type": "address"
        }
      ],
      "name": "UpdatePodAdmin",
      "type": "event"
    },
    {
      "inputs": [],
      "name": "FUNCTION_SIG_ENABLE",
      "outputs": [
        {
          "internalType": "string",
          "name": "",
          "type": "string"
        }
      ],
      "stateMutability": "view",
      "type": "function"
    },
    {
      "inputs": [],
      "name": "FUNCTION_SIG_EXEC",
      "outputs": [
        {
          "internalType": "string",
          "name": "",
          "type": "string"
        }
      ],
      "stateMutability": "view",
      "type": "function"
    },
    {
      "inputs": [],
      "name": "FUNCTION_SIG_SETUP",
      "outputs": [
        {
          "internalType": "string",
          "name": "",
          "type": "string"
        }
      ],
      "stateMutability": "view",
      "type": "function"
    },
    {
      "inputs": [
        {
          "internalType": "address",
          "name": "operator",
          "type": "address"
        },
        {
          "internalType": "address",
          "name": "from",
          "type": "address"
        },
        {
          "internalType": "address",
          "name": "to",
          "type": "address"
        },
        {
          "internalType": "uint256[]",
          "name": "ids",
          "type": "uint256[]"
        },
        {
          "internalType": "uint256[]",
          "name": "",
          "type": "uint256[]"
        },
        {
          "internalType": "bytes",
          "name": "data",
          "type": "bytes"
        }
      ],
      "name": "beforeTokenTransfer",
      "outputs": [],
      "stateMutability": "nonpayable",
      "type": "function"
    },
    {
      "inputs": [],
      "name": "controllerRegistry",
      "outputs": [
        {
          "internalType": "contract IControllerRegistry",
          "name": "",
          "type": "address"
        }
      ],
      "stateMutability": "view",
      "type": "function"
    },
    {
      "inputs": [
        {
          "internalType": "address[]",
          "name": "_members",
          "type": "address[]"
        },
        {
          "internalType": "uint256",
          "name": "threshold",
          "type": "uint256"
        },
        {
          "internalType": "address",
          "name": "_admin",
          "type": "address"
        },
        {
          "internalType": "bytes32",
          "name": "_label",
          "type": "bytes32"
        },
        {
          "internalType": "string",
          "name": "_ensString",
          "type": "string"
        },
        {
          "internalType": "uint256",
          "name": "expectedPodId",
          "type": "uint256"
        },
        {
          "internalType": "string",
          "name": "_imageUrl",
          "type": "string"
        }
      ],
      "name": "createPod",
      "outputs": [],
      "stateMutability": "nonpayable",
      "type": "function"
    },
    {
      "inputs": [
        {
          "internalType": "address",
          "name": "_admin",
          "type": "address"
        },
        {
          "internalType": "address",
          "name": "_safe",
          "type": "address"
        },
        {
          "internalType": "bytes32",
          "name": "_label",
          "type": "bytes32"
        },
        {
          "internalType": "string",
          "name": "_ensString",
          "type": "string"
        },
        {
          "internalType": "uint256",
          "name": "expectedPodId",
          "type": "uint256"
        },
        {
          "internalType": "string",
          "name": "_imageUrl",
          "type": "string"
        }
      ],
      "name": "createPodWithSafe",
      "outputs": [],
      "stateMutability": "nonpayable",
      "type": "function"
    },
    {
      "inputs": [
        {
          "internalType": "address",
          "name": "_context",
          "type": "address"
        }
      ],
      "name": "delegateSetup",
      "outputs": [],
      "stateMutability": "nonpayable",
      "type": "function"
    },
    {
      "inputs": [
        {
          "internalType": "address",
          "name": "module",
          "type": "address"
        }
      ],
      "name": "enableModule",
      "outputs": [],
      "stateMutability": "nonpayable",
      "type": "function"
    },
    {
      "inputs": [],
      "name": "fallbackHandlerAddress",
      "outputs": [
        {
          "internalType": "address",
          "name": "",
          "type": "address"
        }
      ],
      "stateMutability": "view",
      "type": "function"
    },
    {
      "inputs": [
        {
          "internalType": "address",
          "name": "safe",
          "type": "address"
        }
      ],
      "name": "getSafeMembers",
      "outputs": [
        {
          "internalType": "address[]",
          "name": "",
          "type": "address[]"
        }
      ],
      "stateMutability": "view",
      "type": "function"
    },
    {
      "inputs": [],
      "name": "gnosisMasterAddress",
      "outputs": [
        {
          "internalType": "address",
          "name": "",
          "type": "address"
        }
      ],
      "stateMutability": "view",
      "type": "function"
    },
    {
      "inputs": [
        {
          "internalType": "address",
          "name": "safe",
          "type": "address"
        },
        {
          "internalType": "address",
          "name": "member",
          "type": "address"
        }
      ],
      "name": "isSafeMember",
      "outputs": [
        {
          "internalType": "bool",
          "name": "",
          "type": "bool"
        }
      ],
      "stateMutability": "view",
      "type": "function"
    },
    {
      "inputs": [
        {
          "internalType": "address",
          "name": "safe",
          "type": "address"
        }
      ],
      "name": "isSafeModuleEnabled",
      "outputs": [
        {
          "internalType": "bool",
          "name": "",
          "type": "bool"
        }
      ],
      "stateMutability": "view",
      "type": "function"
    },
    {
      "inputs": [],
      "name": "memberToken",
      "outputs": [
        {
          "internalType": "contract IMemberToken",
          "name": "",
          "type": "address"
        }
      ],
      "stateMutability": "view",
      "type": "function"
    },
    {
      "inputs": [
        {
          "internalType": "uint256",
          "name": "_podId",
          "type": "uint256"
        },
        {
          "internalType": "address",
          "name": "_newController",
          "type": "address"
        },
        {
          "internalType": "address",
          "name": "_prevModule",
          "type": "address"
        }
      ],
      "name": "migratePodController",
      "outputs": [],
      "stateMutability": "nonpayable",
      "type": "function"
    },
    {
      "inputs": [],
      "name": "owner",
      "outputs": [
        {
          "internalType": "address",
          "name": "",
          "type": "address"
        }
      ],
      "stateMutability": "view",
      "type": "function"
    },
    {
      "inputs": [
        {
          "internalType": "uint256",
          "name": "",
          "type": "uint256"
        }
      ],
      "name": "podAdmin",
      "outputs": [
        {
          "internalType": "address",
          "name": "",
          "type": "address"
        }
      ],
      "stateMutability": "view",
      "type": "function"
    },
    {
      "inputs": [],
      "name": "podEnsRegistrar",
      "outputs": [
        {
          "internalType": "contract IPodEnsRegistrar",
          "name": "",
          "type": "address"
        }
      ],
      "stateMutability": "view",
      "type": "function"
    },
    {
      "inputs": [
        {
          "internalType": "uint256",
          "name": "",
          "type": "uint256"
        }
      ],
      "name": "podIdToSafe",
      "outputs": [
        {
          "internalType": "address",
          "name": "",
          "type": "address"
        }
      ],
      "stateMutability": "view",
      "type": "function"
    },
    {
      "inputs": [],
      "name": "proxyFactoryAddress",
      "outputs": [
        {
          "internalType": "address",
          "name": "",
          "type": "address"
        }
      ],
      "stateMutability": "view",
      "type": "function"
    },
    {
      "inputs": [],
      "name": "renounceOwnership",
      "outputs": [],
      "stateMutability": "nonpayable",
      "type": "function"
    },
    {
      "inputs": [
        {
          "internalType": "address",
          "name": "",
          "type": "address"
        }
      ],
      "name": "safeToPodId",
      "outputs": [
        {
          "internalType": "uint256",
          "name": "",
          "type": "uint256"
        }
      ],
      "stateMutability": "view",
      "type": "function"
    },
    {
      "inputs": [
        {
          "internalType": "address",
          "name": "newOwner",
          "type": "address"
        }
      ],
      "name": "transferOwnership",
      "outputs": [],
      "stateMutability": "nonpayable",
      "type": "function"
    },
    {
      "inputs": [
        {
          "internalType": "uint256",
          "name": "_podId",
          "type": "uint256"
        },
        {
          "internalType": "address",
          "name": "_newAdmin",
          "type": "address"
        }
      ],
      "name": "updatePodAdmin",
      "outputs": [],
      "stateMutability": "nonpayable",
      "type": "function"
    },
    {
      "inputs": [
        {
          "internalType": "address",
          "name": "_podEnsRegistrar",
          "type": "address"
        }
      ],
      "name": "updatePodEnsRegistrar",
      "outputs": [],
      "stateMutability": "nonpayable",
      "type": "function"
    },
    {
      "inputs": [
        {
          "internalType": "uint256",
          "name": "_podId",
          "type": "uint256"
        },
        {
          "internalType": "address",
          "name": "_podAdmin",
          "type": "address"
        },
        {
          "internalType": "address",
          "name": "_safeAddress",
          "type": "address"
        }
      ],
      "name": "updatePodState",
      "outputs": [],
      "stateMutability": "nonpayable",
      "type": "function"
    }
  ],
  "transactionHash": "0x1a9f398f121a8fb234feb509185c1b15b774f67026fad892e5612e55f8ed05d6",
  "args": [
    "0x0762aA185b6ed2dCA77945Ebe92De705e0C37AE3",
    "0x0d97643EE1051B523E4e3b66Df3640bBA6C0F79f",
    "0xa6B71E26C5e0845f74c812102Ca7114b6a896AB2",
    "0xd9Db270c1B5E3Bd161E8c8503c55cEABeE709552",
    "0x55b5a8C7Df8cff8c8C77bD4448CCcb82e1533686",
    "0xd5D82B6aDDc9027B22dCA772Aa68D5d74cdBdF44"
  ],
  "solcInputHash": "522d22d146fd40d9f61e701f8da8f81b",
  "bytecode": "0x6101206040523480156200001257600080fd5b506040516200357e3803806200357e8339810160408190526200003591620002dd565b6001600160601b0319606085811b821660805284811b821660a05282901b1660c05262000069620000633390565b62000270565b6001600160a01b038616620000b75760405162461bcd60e51b815260206004820152600f60248201526e496e76616c6964206164647265737360881b60448201526064015b60405180910390fd5b6001600160a01b038516620001015760405162461bcd60e51b815260206004820152600f60248201526e496e76616c6964206164647265737360881b6044820152606401620000ae565b6001600160a01b0384166200014b5760405162461bcd60e51b815260206004820152600f60248201526e496e76616c6964206164647265737360881b6044820152606401620000ae565b6001600160a01b038316620001955760405162461bcd60e51b815260206004820152600f60248201526e496e76616c6964206164647265737360881b6044820152606401620000ae565b6001600160a01b038216620001df5760405162461bcd60e51b815260206004820152600f60248201526e496e76616c6964206164647265737360881b6044820152606401620000ae565b6001600160a01b038116620002295760405162461bcd60e51b815260206004820152600f60248201526e496e76616c6964206164647265737360881b6044820152606401620000ae565b50606094851b6001600160601b031990811660e0529390941b909216610100525050600180546001600160a01b0319166001600160a01b039092169190911790556200035e565b600080546001600160a01b038381166001600160a01b0319831681178455604051919092169283917f8be0079c531659141344cd1fd0a4f28419497f9722a3daafe3b4186f6b6457e09190a35050565b80516001600160a01b0381168114620002d857600080fd5b919050565b60008060008060008060c08789031215620002f757600080fd5b6200030287620002c0565b95506200031260208801620002c0565b94506200032260408801620002c0565b93506200033260608801620002c0565b92506200034260808801620002c0565b91506200035260a08801620002c0565b90509295509295509295565b60805160601c60a05160601c60c05160601c60e05160601c6101005160601c613194620003ea600039600081816103ab015281816108910152610dd40152600081816102b401528181610fa4015281816110a1015261150f01526000818161044f0152611a0a0152600081816103840152611b020152600081816103d20152611ad501526131946000f3fe608060405234801561001057600080fd5b50600436106101b95760003560e01c80638d092f5d116100f9578063cf00cec911610097578063e1fc2cc111610071578063e1fc2cc114610471578063f0f39f5d14610484578063f2fde38b14610497578063fe258da7146104aa57600080fd5b8063cf00cec914610417578063d5a8449114610437578063e10040451461044a57600080fd5b8063b06a4120116100d3578063b06a41201461037f578063bbc4541b146103a6578063be5405d2146103cd578063c7e2a4fc146103f457600080fd5b80638d092f5d146103325780638da5cb5b1461035b578063afe5c8ff1461036c57600080fd5b80635cb5438411610166578063715018a611610140578063715018a6146102fc57806374d4f6d0146103045780637d49f1db14610317578063827be3cc1461032a57600080fd5b80635cb54384146102af578063610b5925146102d657806362067cd1146102e957600080fd5b80633ef3a75c116101975780633ef3a75c14610253578063436f8d03146102665780634a9b5db7146102a757600080fd5b806326a13d30146101be578063346e5c481461021057806337c591fa14610225575b600080fd5b6101fa6040518060400160405280601681526020017f64656c656761746553657475702861646472657373290000000000000000000081525081565b6040516102079190612f0b565b60405180910390f35b61022361021e366004612c5b565b6104bd565b005b6102456102333660046128bc565b60026020526000908152604090205481565b604051908152602001610207565b6102236102613660046129ee565b610662565b61028f610274366004612c42565b6004602052600090815260409020546001600160a01b031681565b6040516001600160a01b039091168152602001610207565b6101fa610801565b61028f7f000000000000000000000000000000000000000000000000000000000000000081565b6102236102e43660046128bc565b61081d565b6102236102f7366004612c80565b610834565b610223610a94565b6102236103123660046128bc565b610afa565b610223610325366004612aeb565b610b56565b6101fa610b7d565b61028f610340366004612c42565b6003602052600090815260409020546001600160a01b031681565b6000546001600160a01b031661028f565b60015461028f906001600160a01b031681565b61028f7f000000000000000000000000000000000000000000000000000000000000000081565b61028f7f000000000000000000000000000000000000000000000000000000000000000081565b61028f7f000000000000000000000000000000000000000000000000000000000000000081565b6104076104023660046128bc565b610b99565b6040519015158152602001610207565b61042a6104253660046128bc565b610c32565b6040516102079190612dc7565b6102236104453660046128bc565b610ca9565b61028f7f000000000000000000000000000000000000000000000000000000000000000081565b61022361047f366004612c80565b610d6d565b61022361049236600461292f565b611096565b6102236104a53660046128bc565b6112f8565b6104076104b83660046128f6565b6113d7565b6000828152600460209081526040808320546003909252909120546001600160a01b039182169116806105375760405162461bcd60e51b815260206004820152601160248201527f506f6420646f65736e277420657869737400000000000000000000000000000060448201526064015b60405180910390fd5b6001600160a01b0382166105a257336001600160a01b0382161461059d5760405162461bcd60e51b815260206004820152601b60248201527f4f6e6c7920736166652063616e20616464206e65772061646d696e0000000000604482015260640161052e565b6105fa565b336001600160a01b038316146105fa5760405162461bcd60e51b815260206004820152601b60248201527f4f6e6c792061646d696e2063616e207570646174652061646d696e0000000000604482015260640161052e565b60008481526004602090815260409182902080546001600160a01b0319166001600160a01b0387169081179091558251878152918201527ffef38cfc44da305e6203142455e0a2b129109e8fd7b40914acff6874f170e3df910160405180910390a150505050565b6001600160a01b0385166106b85760405162461bcd60e51b815260206004820152601460248201527f696e76616c696420736166652061646472657373000000000000000000000000604482015260640161052e565b6001600160a01b0385166000908152600260205260409020541561071e5760405162461bcd60e51b815260206004820152601360248201527f7361666520616c726561647920696e2075736500000000000000000000000000604482015260640161052e565b61072785610b99565b6107735760405162461bcd60e51b815260206004820152601b60248201527f73616665206d6f64756c65206d75737420626520656e61626c65640000000000604482015260640161052e565b61077d85336113d7565b806107905750336001600160a01b038616145b6107dc5760405162461bcd60e51b815260206004820152601d60248201527f63616c6c6572206d7573742062652073616665206f72206d656d626572000000604482015260640161052e565b60006107e786610c32565b90506107f881878988888888611474565b50505050505050565b6040518060800160405280605a81526020016130bf605a913981565b6001600160a01b0381161561083157600080fd5b50565b6001600160a01b03811661087c5760405162461bcd60e51b815260206004820152600f60248201526e496e76616c6964206164647265737360881b604482015260640161052e565b60405163c3c5a54760e01b81523360048201527f00000000000000000000000000000000000000000000000000000000000000006001600160a01b03169063c3c5a5479060240160206040518083038186803b1580156108db57600080fd5b505afa1580156108ef573d6000803e3d6000fd5b505050506040513d601f19601f820116820180604052508101906109139190612c07565b61095f5760405162461bcd60e51b815260206004820152601960248201527f436f6e74726f6c6c6572206e6f74207265676973746572656400000000000000604482015260640161052e565b6000838152600460205260409020546001600160a01b031615801561099957506000838152600360205260409020546001600160a01b0316155b80156109bb57506001600160a01b038116600090815260026020526040902054155b610a075760405162461bcd60e51b815260206004820152601260248201527f506f6420616c7265616479206578697374730000000000000000000000000000604482015260640161052e565b600083815260046020908152604080832080546001600160a01b038781166001600160a01b03199283168117909355600385528386208054918816919092168117909155845260028352928190208690558051868152918201929092527ffef38cfc44da305e6203142455e0a2b129109e8fd7b40914acff6874f170e3df910160405180910390a1505050565b6000546001600160a01b03163314610aee5760405162461bcd60e51b815260206004820181905260248201527f4f776e61626c653a2063616c6c6572206973206e6f7420746865206f776e6572604482015260640161052e565b610af8600061190e565b565b60405163610b592560e01b81526001600160a01b0382166004820152309063610b592590602401600060405180830381600087803b158015610b3b57600080fd5b505af1158015610b4f573d6000803e3d6000fd5b5050505050565b6000610b62888861195e565b9050610b7388828888888888611474565b5050505050505050565b6040518060800160405280604681526020016131196046913981565b6040517f2d9ad53d0000000000000000000000000000000000000000000000000000000081523060048201526000906001600160a01b03831690632d9ad53d9060240160206040518083038186803b158015610bf457600080fd5b505afa158015610c08573d6000803e3d6000fd5b505050506040513d601f19601f82011682018060405250810190610c2c9190612c07565b92915050565b6060816001600160a01b031663a0e67e2b6040518163ffffffff1660e01b815260040160006040518083038186803b158015610c6d57600080fd5b505afa158015610c81573d6000803e3d6000fd5b505050506040513d6000823e601f3d908101601f19168201604052610c2c9190810190612a6f565b6000546001600160a01b03163314610d035760405162461bcd60e51b815260206004820181905260248201527f4f776e61626c653a2063616c6c6572206973206e6f7420746865206f776e6572604482015260640161052e565b6001600160a01b038116610d4b5760405162461bcd60e51b815260206004820152600f60248201526e496e76616c6964206164647265737360881b604482015260640161052e565b600180546001600160a01b0319166001600160a01b0392909216919091179055565b6001600160a01b038216610db55760405162461bcd60e51b815260206004820152600f60248201526e496e76616c6964206164647265737360881b604482015260640161052e565b60405163c3c5a54760e01b81526001600160a01b0383811660048301527f0000000000000000000000000000000000000000000000000000000000000000169063c3c5a5479060240160206040518083038186803b158015610e1657600080fd5b505afa158015610e2a573d6000803e3d6000fd5b505050506040513d601f19601f82011682018060405250810190610e4e9190612c07565b610e9a5760405162461bcd60e51b815260206004820152601960248201527f436f6e74726f6c6c6572206e6f74207265676973746572656400000000000000604482015260640161052e565b6000838152600460209081526040808320546003909252909120546001600160a01b03918216911633821480610ed85750336001600160a01b038216145b610f245760405162461bcd60e51b815260206004820152601360248201527f55736572206e6f7420617574686f72697a656400000000000000000000000000604482015260640161052e565b600085815260046020818152604080842080546001600160a01b031990811690915560038352818520805490911690556001600160a01b03858116855260029092528084209390935591517f82786654000000000000000000000000000000000000000000000000000000008152908101879052858216602482015285917f00000000000000000000000000000000000000000000000000000000000000001690638278665490604401600060405180830381600087803b158015610fe857600080fd5b505af1158015610ffc573d6000803e3d6000fd5b5050505061100b828686611bfc565b6040517f62067cd1000000000000000000000000000000000000000000000000000000008152600481018790526001600160a01b03848116602483015283811660448301528216906362067cd190606401600060405180830381600087803b15801561107657600080fd5b505af115801561108a573d6000803e3d6000fd5b50505050505050505050565b336001600160a01b037f0000000000000000000000000000000000000000000000000000000000000000161461110e5760405162461bcd60e51b815260206004820152600e60248201527f4e6f7420417574686f72697a6564000000000000000000000000000000000000604482015260640161052e565b6001600160a01b038616301480156111435750600160ff16816000815181106111395761113961307d565b016020015160f81c145b1561114d576112f0565b60005b83518110156107f857600084828151811061116d5761116d61307d565b60209081029190910181015160008181526003835260408082205460049094529020549092506001600160a01b039182169190811690891661123757816001600160a01b03168a6001600160a01b031614806111da5750806001600160a01b03168a6001600160a01b0316145b806111ed57506001600160a01b038a1630145b6112285760405162461bcd60e51b815260206004820152600c60248201526b139bc8149d5b195cc814d95d60a21b604482015260640161052e565b6112328883611f6c565b6112d9565b6001600160a01b0388166112ce57816001600160a01b03168a6001600160a01b031614806112765750806001600160a01b03168a6001600160a01b0316145b8061128957506001600160a01b038a1630145b6112c45760405162461bcd60e51b815260206004820152600c60248201526b139bc8149d5b195cc814d95d60a21b604482015260640161052e565b611232898361211d565b6112d98989846123f9565b5050506001816112e99190612faf565b9050611150565b505050505050565b6000546001600160a01b031633146113525760405162461bcd60e51b815260206004820181905260248201527f4f776e61626c653a2063616c6c6572206973206e6f7420746865206f776e6572604482015260640161052e565b6001600160a01b0381166113ce5760405162461bcd60e51b815260206004820152602660248201527f4f776e61626c653a206e6577206f776e657220697320746865207a65726f206160448201527f6464726573730000000000000000000000000000000000000000000000000000606482015260840161052e565b6108318161190e565b6040517f2f54bf6e0000000000000000000000000000000000000000000000000000000081526001600160a01b03828116600483015260009190841690632f54bf6e9060240160206040518083038186803b15801561143557600080fd5b505afa158015611449573d6000803e3d6000fd5b505050506040513d601f19601f8201168201806040525081019061146d9190612c07565b9392505050565b604080516001808252818301909252600091602082018180368337019050509050600160f81b816000815181106114ad576114ad61307d565b60200101907effffffffffffffffffffffffffffffffffffffffffffffffffffffffffffff1916908160001a9053506040517f9aa0055e0000000000000000000000000000000000000000000000000000000081526000906001600160a01b037f00000000000000000000000000000000000000000000000000000000000000001690639aa0055e90611546908c908690600401612dda565b602060405180830381600087803b15801561156057600080fd5b505af1158015611574573d6000803e3d6000fd5b505050506040513d601f19601f820116820180604052508101906115989190612c29565b90508381146115e95760405162461bcd60e51b815260206004820152601e60248201527f706f64206964206469646e2774206d617463682c2074727920616761696e0000604482015260640161052e565b7fb298a97e1ae845f4ac62f176cde255ccfe5ac42197eae12459c99761bad66a488189898860405161161e9493929190612f1e565b60405180910390a1604080518281526001600160a01b03891660208201527ffef38cfc44da305e6203142455e0a2b129109e8fd7b40914acff6874f170e3df910160405180910390a16001600160a01b0387161561169e57600081815260046020526040902080546001600160a01b0319166001600160a01b0389161790555b600081815260036020908152604080832080546001600160a01b0319166001600160a01b038d8116918217909255808552600290935281842085905560015491517f98eed3e9000000000000000000000000000000000000000000000000000000008152600481018b9052602481019390935233604484015216906398eed3e990606401602060405180830381600087803b15801561173c57600080fd5b505af1158015611750573d6000803e3d6000fd5b505050506040513d601f19601f8201168201806040525081019061177491906128d9565b905061178189828861259b565b6001546040517fcfeac6a5000000000000000000000000000000000000000000000000000000008152600481018990526000916001600160a01b03169063cfeac6a59060240160206040518083038186803b1580156117df57600080fd5b505afa1580156117f3573d6000803e3d6000fd5b505050506040513d601f19601f820116820180604052508101906118179190612c29565b6001546040517f10f13a8c0000000000000000000000000000000000000000000000000000000081529192506001600160a01b0316906310f13a8c906118639084908990600401612e71565b600060405180830381600087803b15801561187d57600080fd5b505af1158015611891573d6000803e3d6000fd5b50506001546001600160a01b031691506310f13a8c9050826118b286612627565b6040518363ffffffff1660e01b81526004016118cf929190612ebe565b600060405180830381600087803b1580156118e957600080fd5b505af11580156118fd573d6000803e3d6000fd5b505050505050505050505050505050565b600080546001600160a01b038381166001600160a01b0319831681178455604051919092169283917f8be0079c531659141344cd1fd0a4f28419497f9722a3daafe3b4186f6b6457e09190a35050565b604080518082018252601681527f64656c656761746553657475702861646472657373290000000000000000000060208201529051306024820152600091829160440160408051601f1981840301815290829052916119bc91612d32565b60405180910390206001600160e01b0319166020820180516001600160e01b0383818316178352505050509050600060405180608001604052806046815260200161311960469139858530857f00000000000000000000000000000000000000000000000000000000000000006000806000604051602401611a45989796959493929190612e08565b60408051601f198184030181529082905291611a6091612d32565b60408051918290039091206020830180516001600160e01b03167fffffffff00000000000000000000000000000000000000000000000000000000909216919091179052517f61b69abd0000000000000000000000000000000000000000000000000000000081529091506001600160a01b037f000000000000000000000000000000000000000000000000000000000000000016906361b69abd90611b2c907f0000000000000000000000000000000000000000000000000000000000000000908590600401612d4e565b602060405180830381600087803b158015611b4657600080fd5b505af1925050508015611b76575060408051601f3d908101601f19168201909252611b73918101906128d9565b60015b611bf2573d808015611ba4576040519150601f19603f3d011682016040523d82523d6000602084013e611ba9565b606091505b5060405162461bcd60e51b815260206004820152601d60248201527f4372656174652050726f787920576974682044617461204661696c6564000000604482015260640161052e565b9250610c2c915050565b6040516001600160a01b038316602482015260009060440160408051601f198184030181529181526020820180516001600160e01b031663610b592560e01b1790525163468721a760e01b81529091506000906001600160a01b0386169063468721a790611c74908890859087908290600401612d70565b602060405180830381600087803b158015611c8e57600080fd5b505af1158015611ca2573d6000803e3d6000fd5b505050506040513d601f19601f82011682018060405250810190611cc69190612c07565b905080611d155760405162461bcd60e51b815260206004820152601a60248201527f4d6967726174696f6e206661696c6564206f6e20656e61626c65000000000000604482015260640161052e565b6040517fcc2f84520000000000000000000000000000000000000000000000000000000081526001600160a01b038481166004830152600160248301526000919087169063cc2f84529060440160006040518083038186803b158015611d7a57600080fd5b505afa158015611d8e573d6000803e3d6000fd5b505050506040513d6000823e601f3d908101601f19168201604052611db69190810190612aa4565b509050306001600160a01b031681600081518110611dd657611dd661307d565b60200260200101516001600160a01b031614611e345760405162461bcd60e51b815260206004820152601460248201527f696e636f727265637420707265764d6f64756c65000000000000000000000000604482015260640161052e565b6040516001600160a01b038516602482015230604482015260009060640160408051601f198184030181529181526020820180516001600160e01b03167fe009cfde000000000000000000000000000000000000000000000000000000001790525163468721a760e01b81529091506000906001600160a01b0389169063468721a790611ecb908b90859087908290600401612d70565b602060405180830381600087803b158015611ee557600080fd5b505af1158015611ef9573d6000803e3d6000fd5b505050506040513d601f19601f82011682018060405250810190611f1d9190612c07565b905080610b735760405162461bcd60e51b815260206004820152601b60248201527f4d6967726174696f6e206661696c6564206f6e2064697361626c650000000000604482015260640161052e565b6000816001600160a01b031663e75235b86040518163ffffffff1660e01b8152600401602060405180830381600087803b158015611fa957600080fd5b505af1158015611fbd573d6000803e3d6000fd5b505050506040513d601f19601f82011682018060405250810190611fe19190612c29565b6040516001600160a01b03851660248201526044810182905290915060009060640160408051601f198184030181529181526020820180516001600160e01b03167f0d582f13000000000000000000000000000000000000000000000000000000001790525163468721a760e01b81529091506000906001600160a01b0385169063468721a79061207c908790859087908290600401612d70565b602060405180830381600087803b15801561209657600080fd5b505af11580156120aa573d6000803e3d6000fd5b505050506040513d601f19601f820116820180604052508101906120ce9190612c07565b905080610b4f5760405162461bcd60e51b815260206004820152601960248201527f4d6f64756c65205472616e73616374696f6e204661696c656400000000000000604482015260640161052e565b6000816001600160a01b031663e75235b86040518163ffffffff1660e01b8152600401602060405180830381600087803b15801561215a57600080fd5b505af115801561216e573d6000803e3d6000fd5b505050506040513d601f19601f820116820180604052508101906121929190612c29565b90506000826001600160a01b031663a0e67e2b6040518163ffffffff1660e01b815260040160006040518083038186803b1580156121cf57600080fd5b505afa1580156121e3573d6000803e3d6000fd5b505050506040513d6000823e601f3d908101601f1916820160405261220b9190810190612a6f565b90506000805b825181101561229457856001600160a01b03168382815181106122365761223661307d565b60200260200101516001600160a01b03161415612282578061225b5760019150612282565b82612267600183612fdb565b815181106122775761227761307d565b602002602001015191505b8061228c81613022565b915050612211565b5082600183516122a49190612fdb565b10156122b8576122b5600184612fdb565b92505b6040516001600160a01b038083166024830152861660448201526064810184905260009060840160408051601f198184030181529181526020820180516001600160e01b03167ff8dc5dd9000000000000000000000000000000000000000000000000000000001790525163468721a760e01b81529091506000906001600160a01b0387169063468721a790612358908990859087908290600401612d70565b602060405180830381600087803b15801561237257600080fd5b505af1158015612386573d6000803e3d6000fd5b505050506040513d601f19601f820116820180604052508101906123aa9190612c07565b9050806107f85760405162461bcd60e51b815260206004820152601960248201527f4d6f64756c65205472616e73616374696f6e204661696c656400000000000000604482015260640161052e565b6000816001600160a01b031663a0e67e2b6040518163ffffffff1660e01b815260040160006040518083038186803b15801561243457600080fd5b505afa158015612448573d6000803e3d6000fd5b505050506040513d6000823e601f3d908101601f191682016040526124709190810190612a6f565b90506000805b82518110156124f957856001600160a01b031683828151811061249b5761249b61307d565b60200260200101516001600160a01b031614156124e757806124c057600191506124e7565b826124cc600183612fdb565b815181106124dc576124dc61307d565b602002602001015191505b806124f181613022565b915050612476565b506040516001600160a01b03808316602483015280871660448301528516606482015260009060840160408051601f198184030181529181526020820180516001600160e01b03167fe318b52b000000000000000000000000000000000000000000000000000000001790525163468721a760e01b81529091506000906001600160a01b0386169063468721a790612358908890859087908290600401612d70565b6000816040516024016125ae9190612f0b565b60408051601f198184030181529181526020820180516001600160e01b03167fc47f0027000000000000000000000000000000000000000000000000000000001790525163468721a760e01b81529091506000906001600160a01b0386169063468721a79061207c908790859087908290600401612d70565b60608161266757505060408051808201909152600181527f3000000000000000000000000000000000000000000000000000000000000000602082015290565b8160005b8115612691578061267b81613022565b915061268a9050600a83612fc7565b915061266b565b60008167ffffffffffffffff8111156126ac576126ac613093565b6040519080825280601f01601f1916602001820160405280156126d6576020820181803683370190505b5090505b8415612759576126eb600183612fdb565b91506126f8600a8661303d565b612703906030612faf565b60f81b8183815181106127185761271861307d565b60200101907effffffffffffffffffffffffffffffffffffffffffffffffffffffffffffff1916908160001a905350612752600a86612fc7565b94506126da565b949350505050565b803561276c816130a9565b919050565b600082601f83011261278257600080fd5b8151602061279761279283612f8b565b612f5a565b80838252828201915082860187848660051b89010111156127b757600080fd5b60005b858110156127df5781516127cd816130a9565b845292840192908401906001016127ba565b5090979650505050505050565b600082601f8301126127fd57600080fd5b8135602061280d61279283612f8b565b80838252828201915082860187848660051b890101111561282d57600080fd5b60005b858110156127df57813584529284019290840190600101612830565b600082601f83011261285d57600080fd5b813567ffffffffffffffff81111561287757612877613093565b61288a601f8201601f1916602001612f5a565b81815284602083860101111561289f57600080fd5b816020850160208301376000918101602001919091529392505050565b6000602082840312156128ce57600080fd5b813561146d816130a9565b6000602082840312156128eb57600080fd5b815161146d816130a9565b6000806040838503121561290957600080fd5b8235612914816130a9565b91506020830135612924816130a9565b809150509250929050565b60008060008060008060c0878903121561294857600080fd5b8635612953816130a9565b95506020870135612963816130a9565b94506040870135612973816130a9565b9350606087013567ffffffffffffffff8082111561299057600080fd5b61299c8a838b016127ec565b945060808901359150808211156129b257600080fd5b6129be8a838b016127ec565b935060a08901359150808211156129d457600080fd5b506129e189828a0161284c565b9150509295509295509295565b60008060008060008060c08789031215612a0757600080fd5b8635612a12816130a9565b95506020870135612a22816130a9565b945060408701359350606087013567ffffffffffffffff80821115612a4657600080fd5b612a528a838b0161284c565b94506080890135935060a08901359150808211156129d457600080fd5b600060208284031215612a8157600080fd5b815167ffffffffffffffff811115612a9857600080fd5b61275984828501612771565b60008060408385031215612ab757600080fd5b825167ffffffffffffffff811115612ace57600080fd5b612ada85828601612771565b9250506020830151612924816130a9565b600080600080600080600060e0888a031215612b0657600080fd5b873567ffffffffffffffff80821115612b1e57600080fd5b818a0191508a601f830112612b3257600080fd5b81356020612b4261279283612f8b565b8083825282820191508286018f848660051b8901011115612b6257600080fd5b600096505b84871015612b8e578035612b7a816130a9565b835260019690960195918301918301612b67565b509b50508b01359850612ba5905060408b01612761565b965060608a0135955060808a0135915080821115612bc257600080fd5b612bce8b838c0161284c565b945060a08a0135935060c08a0135915080821115612beb57600080fd5b50612bf88a828b0161284c565b91505092959891949750929550565b600060208284031215612c1957600080fd5b8151801515811461146d57600080fd5b600060208284031215612c3b57600080fd5b5051919050565b600060208284031215612c5457600080fd5b5035919050565b60008060408385031215612c6e57600080fd5b823591506020830135612924816130a9565b600080600060608486031215612c9557600080fd5b833592506020840135612ca7816130a9565b91506040840135612cb7816130a9565b809150509250925092565b600081518084526020808501945080840160005b83811015612cfb5781516001600160a01b031687529582019590820190600101612cd6565b509495945050505050565b60008151808452612d1e816020860160208601612ff2565b601f01601f19169290920160200192915050565b60008251612d44818460208701612ff2565b9190910192915050565b6001600160a01b03831681526040602082015260006127596040830184612d06565b6001600160a01b0385168152836020820152608060408201526000612d986080830185612d06565b905060028310612db857634e487b7160e01b600052602160045260246000fd5b82606083015295945050505050565b60208152600061146d6020830184612cc2565b604081526000612ded6040830185612cc2565b8281036020840152612dff8185612d06565b95945050505050565b6000610100808352612e1c8184018c612cc2565b90508960208401526001600160a01b03808a1660408501528382036060850152612e46828a612d06565b978116608085015295861660a0840152505060c081019290925290911660e090910152949350505050565b82815260606020820152600660608201527f6176617461720000000000000000000000000000000000000000000000000000608082015260a06040820152600061275960a0830184612d06565b82815260606020820152600560608201527f706f644964000000000000000000000000000000000000000000000000000000608082015260a06040820152600061275960a0830184612d06565b60208152600061146d6020830184612d06565b84815260006001600160a01b03808616602084015280851660408401525060806060830152612f506080830184612d06565b9695505050505050565b604051601f8201601f1916810167ffffffffffffffff81118282101715612f8357612f83613093565b604052919050565b600067ffffffffffffffff821115612fa557612fa5613093565b5060051b60200190565b60008219821115612fc257612fc2613051565b500190565b600082612fd657612fd6613067565b500490565b600082821015612fed57612fed613051565b500390565b60005b8381101561300d578181015183820152602001612ff5565b8381111561301c576000848401525b50505050565b600060001982141561303657613036613051565b5060010190565b60008261304c5761304c613067565b500690565b634e487b7160e01b600052601160045260246000fd5b634e487b7160e01b600052601260045260246000fd5b634e487b7160e01b600052603260045260246000fd5b634e487b7160e01b600052604160045260246000fd5b6001600160a01b038116811461083157600080fdfe657865635472616e73616374696f6e28616464726573732c75696e743235362c62797465732c75696e74382c75696e743235362c75696e743235362c75696e743235362c616464726573732c616464726573732c627974657329736574757028616464726573735b5d2c75696e743235362c616464726573732c62797465732c616464726573732c616464726573732c75696e743235362c6164647265737329a26469706673582212204a29b72a520bfa5d96322abcbc45d3687f2699095a2b388bfe23b05862e2df9164736f6c63430008070033",
  "devdoc": {
    "kind": "dev",
    "methods": {
      "beforeTokenTransfer(address,address,address,uint256[],uint256[],bytes)": {
        "params": {
          "data": "Passes a flag for an initial creation event",
          "from": "The address sending the membership token",
          "ids": "An array of membership token ids to be transfered",
          "operator": "The address that initiated the action",
          "to": "The address recieveing the membership token"
        }
      },
      "constructor": {
        "details": "Will instantiate safe teller with gnosis master and proxy addresses",
        "params": {
          "_controllerRegistry": "The address of the ControllerRegistry contract",
          "_gnosisMasterAddress": "The gnosis master address",
          "_memberToken": "The address of the MemberToken contract",
          "_proxyFactoryAddress": "The proxy factory address"
        }
      },
      "createPod(address[],uint256,address,bytes32,string,uint256,string)": {
        "params": {
          "_admin": "The address of the pod admin",
          "_ensString": "string of pod ens name (i.e.'mypod.pod.xyz')",
          "_label": "label hash of pod name (i.e labelhash('mypod'))",
          "_members": "The addresses of the members of the pod",
          "threshold": "The number of members that are required to sign a transaction"
        }
      },
      "createPodWithSafe(address,address,bytes32,string,uint256,string)": {
        "details": "Used to create a pod with an existing safeWill automatically distribute membership NFTs to current safe members",
        "params": {
          "_admin": "The address of the pod admin",
          "_ensString": "string of pod ens name (i.e.'mypod.pod.xyz')",
          "_label": "label hash of pod name (i.e labelhash('mypod'))",
          "_safe": "The address of existing safe"
        }
      },
      "migratePodController(uint256,address,address)": {
        "details": "This will nullify all pod state on this controllerUpdate state on _newControllerUpdate controller to _newController in Safe and MemberToken",
        "params": {
          "_newController": "The address of the new pod controller",
          "_podId": "The id number of the pod",
          "_prevModule": "The module that points to the orca module in the safe's ModuleManager linked list"
        }
      },
      "owner()": {
        "details": "Returns the address of the current owner."
      },
      "renounceOwnership()": {
        "details": "Leaves the contract without owner. It will not be possible to call `onlyOwner` functions anymore. Can only be called by the current owner. NOTE: Renouncing ownership will leave the contract without an owner, thereby removing any functionality that is only available to the owner."
      },
      "transferOwnership(address)": {
        "details": "Transfers ownership of the contract to a new account (`newOwner`). Can only be called by the current owner."
      },
      "updatePodAdmin(uint256,address)": {
        "params": {
          "_newAdmin": "The address of the new pod admin",
          "_podId": "The id number of the pod"
        }
      },
      "updatePodState(uint256,address,address)": {
        "details": "This is called by another version of controller to migrate a pod to this versionWill only accept calls from registered controllersCan only be called once.",
        "params": {
          "_podAdmin": "The address of the pod admin",
          "_podId": "The id number of the pod",
          "_safeAddress": "The address of the safe"
        }
      }
    },
    "version": 1
  },
  "userdoc": {
    "kind": "user",
    "methods": {},
    "version": 1
  },
  "storageLayout": {
    "storage": [
      {
        "astId": 1231,
        "contract": "contracts/ControllerV1.sol:ControllerV1",
        "label": "_owner",
        "offset": 0,
        "slot": "0",
        "type": "t_address"
      },
      {
        "astId": 4943,
        "contract": "contracts/ControllerV1.sol:ControllerV1",
        "label": "podEnsRegistrar",
        "offset": 0,
        "slot": "1",
        "type": "t_contract(IPodEnsRegistrar)6886"
      },
      {
        "astId": 4947,
        "contract": "contracts/ControllerV1.sol:ControllerV1",
        "label": "safeToPodId",
        "offset": 0,
        "slot": "2",
        "type": "t_mapping(t_address,t_uint256)"
      },
      {
        "astId": 4951,
        "contract": "contracts/ControllerV1.sol:ControllerV1",
        "label": "podIdToSafe",
        "offset": 0,
        "slot": "3",
        "type": "t_mapping(t_uint256,t_address)"
      },
      {
        "astId": 4955,
        "contract": "contracts/ControllerV1.sol:ControllerV1",
        "label": "podAdmin",
        "offset": 0,
        "slot": "4",
        "type": "t_mapping(t_uint256,t_address)"
      }
    ],
    "types": {
      "t_address": {
        "encoding": "inplace",
        "label": "address",
        "numberOfBytes": "20"
      },
      "t_contract(IPodEnsRegistrar)6886": {
        "encoding": "inplace",
        "label": "contract IPodEnsRegistrar",
        "numberOfBytes": "20"
      },
      "t_mapping(t_address,t_uint256)": {
        "encoding": "mapping",
        "key": "t_address",
        "label": "mapping(address => uint256)",
        "numberOfBytes": "32",
        "value": "t_uint256"
      },
      "t_mapping(t_uint256,t_address)": {
        "encoding": "mapping",
        "key": "t_uint256",
        "label": "mapping(uint256 => address)",
        "numberOfBytes": "32",
        "value": "t_address"
      },
      "t_uint256": {
        "encoding": "inplace",
        "label": "uint256",
        "numberOfBytes": "32"
      }
    }
  }
}