{
  "address": "0xDE69E7C2184599093a9E0Bbc5923fa462fdf0302",
  "abi": [
    {
      "inputs": [
        {
          "internalType": "address",
          "name": "_memberToken",
          "type": "address"
        },
        {
          "internalType": "address",
          "name": "_controllerRegistry",
          "type": "address"
        },
        {
          "internalType": "address",
          "name": "_proxyFactoryAddress",
          "type": "address"
        },
        {
          "internalType": "address",
          "name": "_gnosisMasterAddress",
          "type": "address"
        },
        {
          "internalType": "address",
          "name": "_podEnsRegistrar",
          "type": "address"
        },
        {
          "internalType": "address",
          "name": "_fallbackHandlerAddress",
          "type": "address"
        }
      ],
      "stateMutability": "nonpayable",
      "type": "constructor"
    },
    {
      "anonymous": false,
      "inputs": [
        {
          "indexed": false,
          "internalType": "uint256",
          "name": "podId",
          "type": "uint256"
        },
        {
          "indexed": false,
          "internalType": "address",
          "name": "safe",
          "type": "address"
        },
        {
          "indexed": false,
          "internalType": "address",
          "name": "admin",
          "type": "address"
        },
        {
          "indexed": false,
          "internalType": "string",
          "name": "ensName",
          "type": "string"
        }
      ],
      "name": "CreatePod",
      "type": "event"
    },
    {
      "anonymous": false,
      "inputs": [
        {
          "indexed": false,
          "internalType": "uint256",
          "name": "podId",
          "type": "uint256"
        }
      ],
      "name": "DeregisterPod",
      "type": "event"
    },
    {
      "anonymous": false,
      "inputs": [
        {
          "indexed": true,
          "internalType": "address",
          "name": "previousOwner",
          "type": "address"
        },
        {
          "indexed": true,
          "internalType": "address",
          "name": "newOwner",
          "type": "address"
        }
      ],
      "name": "OwnershipTransferred",
      "type": "event"
    },
    {
      "anonymous": false,
      "inputs": [
        {
          "indexed": false,
          "internalType": "uint256",
          "name": "podId",
          "type": "uint256"
        },
        {
          "indexed": false,
          "internalType": "address",
          "name": "admin",
          "type": "address"
        }
      ],
      "name": "UpdatePodAdmin",
      "type": "event"
    },
    {
      "inputs": [],
      "name": "ENCODED_SIG_DISABLE_MOD",
      "outputs": [
        {
          "internalType": "bytes4",
          "name": "",
          "type": "bytes4"
        }
      ],
      "stateMutability": "view",
      "type": "function"
    },
    {
      "inputs": [],
      "name": "ENCODED_SIG_ENABLE_MOD",
      "outputs": [
        {
          "internalType": "bytes4",
          "name": "",
          "type": "bytes4"
        }
      ],
      "stateMutability": "view",
      "type": "function"
    },
    {
      "inputs": [],
      "name": "ENCODED_SIG_SET_GUARD",
      "outputs": [
        {
          "internalType": "bytes4",
          "name": "",
          "type": "bytes4"
        }
      ],
      "stateMutability": "view",
      "type": "function"
    },
    {
      "inputs": [],
      "name": "FUNCTION_SIG_ENABLE",
      "outputs": [
        {
          "internalType": "string",
          "name": "",
          "type": "string"
        }
      ],
      "stateMutability": "view",
      "type": "function"
    },
    {
      "inputs": [],
      "name": "FUNCTION_SIG_EXEC",
      "outputs": [
        {
          "internalType": "string",
          "name": "",
          "type": "string"
        }
      ],
      "stateMutability": "view",
      "type": "function"
    },
    {
      "inputs": [],
      "name": "FUNCTION_SIG_SETUP",
      "outputs": [
        {
          "internalType": "string",
          "name": "",
          "type": "string"
        }
      ],
      "stateMutability": "view",
      "type": "function"
    },
    {
      "inputs": [],
      "name": "VERSION",
      "outputs": [
        {
          "internalType": "string",
          "name": "",
          "type": "string"
        }
      ],
      "stateMutability": "view",
      "type": "function"
    },
    {
      "inputs": [
        {
          "internalType": "address",
          "name": "",
          "type": "address"
        }
      ],
      "name": "areModulesLocked",
      "outputs": [
        {
          "internalType": "bool",
          "name": "",
          "type": "bool"
        }
      ],
      "stateMutability": "view",
      "type": "function"
    },
    {
      "inputs": [
        {
          "internalType": "address",
          "name": "operator",
          "type": "address"
        },
        {
          "internalType": "address",
          "name": "from",
          "type": "address"
        },
        {
          "internalType": "address",
          "name": "to",
          "type": "address"
        },
        {
          "internalType": "uint256[]",
          "name": "ids",
          "type": "uint256[]"
        },
        {
          "internalType": "uint256[]",
          "name": "",
          "type": "uint256[]"
        },
        {
          "internalType": "bytes",
          "name": "data",
          "type": "bytes"
        }
      ],
      "name": "beforeTokenTransfer",
      "outputs": [],
      "stateMutability": "nonpayable",
      "type": "function"
    },
    {
      "inputs": [
        {
          "internalType": "bytes32",
          "name": "",
          "type": "bytes32"
        },
        {
          "internalType": "bool",
          "name": "",
          "type": "bool"
        }
      ],
      "name": "checkAfterExecution",
      "outputs": [],
      "stateMutability": "view",
      "type": "function"
    },
    {
      "inputs": [
        {
          "internalType": "address",
          "name": "to",
          "type": "address"
        },
        {
          "internalType": "uint256",
          "name": "value",
          "type": "uint256"
        },
        {
          "internalType": "bytes",
          "name": "data",
          "type": "bytes"
        },
        {
          "internalType": "enum Enum.Operation",
          "name": "operation",
          "type": "uint8"
        },
        {
          "internalType": "uint256",
          "name": "safeTxGas",
          "type": "uint256"
        },
        {
          "internalType": "uint256",
          "name": "baseGas",
          "type": "uint256"
        },
        {
          "internalType": "uint256",
          "name": "gasPrice",
          "type": "uint256"
        },
        {
          "internalType": "address",
          "name": "gasToken",
          "type": "address"
        },
        {
          "internalType": "address payable",
          "name": "refundReceiver",
          "type": "address"
        },
        {
          "internalType": "bytes",
          "name": "signatures",
          "type": "bytes"
        },
        {
          "internalType": "address",
          "name": "msgSender",
          "type": "address"
        }
      ],
      "name": "checkTransaction",
      "outputs": [],
      "stateMutability": "view",
      "type": "function"
    },
    {
      "inputs": [],
      "name": "controllerRegistry",
      "outputs": [
        {
          "internalType": "contract IControllerRegistry",
          "name": "",
          "type": "address"
        }
      ],
      "stateMutability": "view",
      "type": "function"
    },
    {
      "inputs": [
        {
          "internalType": "address[]",
          "name": "_members",
          "type": "address[]"
        },
        {
          "internalType": "uint256",
          "name": "threshold",
          "type": "uint256"
        },
        {
          "internalType": "address",
          "name": "_admin",
          "type": "address"
        },
        {
          "internalType": "bytes32",
          "name": "_label",
          "type": "bytes32"
        },
        {
          "internalType": "string",
          "name": "_ensString",
          "type": "string"
        },
        {
          "internalType": "uint256",
          "name": "expectedPodId",
          "type": "uint256"
        },
        {
          "internalType": "string",
          "name": "_imageUrl",
          "type": "string"
        }
      ],
      "name": "createPod",
      "outputs": [],
      "stateMutability": "nonpayable",
      "type": "function"
    },
    {
      "inputs": [
        {
          "internalType": "address",
          "name": "_admin",
          "type": "address"
        },
        {
          "internalType": "address",
          "name": "_safe",
          "type": "address"
        },
        {
          "internalType": "bytes32",
          "name": "_label",
          "type": "bytes32"
        },
        {
          "internalType": "string",
          "name": "_ensString",
          "type": "string"
        },
        {
          "internalType": "uint256",
          "name": "expectedPodId",
          "type": "uint256"
        },
        {
          "internalType": "string",
          "name": "_imageUrl",
          "type": "string"
        }
      ],
      "name": "createPodWithSafe",
      "outputs": [],
      "stateMutability": "nonpayable",
      "type": "function"
    },
    {
      "inputs": [
        {
          "internalType": "address",
          "name": "_context",
          "type": "address"
        }
      ],
      "name": "delegateSetup",
      "outputs": [],
      "stateMutability": "nonpayable",
      "type": "function"
    },
    {
      "inputs": [
        {
          "internalType": "address",
          "name": "safe",
          "type": "address"
        },
        {
          "internalType": "address",
          "name": "reverseRegistrar",
          "type": "address"
        },
        {
          "internalType": "address",
          "name": "previousModule",
          "type": "address"
        },
        {
          "internalType": "address",
          "name": "module",
          "type": "address"
        }
      ],
      "name": "disableModule",
      "outputs": [],
      "stateMutability": "nonpayable",
      "type": "function"
    },
    {
      "inputs": [
        {
          "internalType": "uint256",
          "name": "podId",
          "type": "uint256"
        },
        {
          "internalType": "bytes32",
          "name": "label",
          "type": "bytes32"
        },
        {
          "internalType": "address",
          "name": "previousModule",
          "type": "address"
        }
      ],
      "name": "ejectSafe",
      "outputs": [],
      "stateMutability": "nonpayable",
      "type": "function"
    },
    {
      "inputs": [
        {
          "internalType": "address",
          "name": "module",
          "type": "address"
        }
      ],
      "name": "enableModule",
      "outputs": [],
      "stateMutability": "nonpayable",
      "type": "function"
    },
    {
      "inputs": [],
      "name": "fallbackHandlerAddress",
      "outputs": [
        {
          "internalType": "address",
          "name": "",
          "type": "address"
        }
      ],
      "stateMutability": "view",
      "type": "function"
    },
    {
      "inputs": [
        {
          "internalType": "address",
          "name": "safe",
          "type": "address"
        }
      ],
      "name": "getSafeMembers",
      "outputs": [
        {
          "internalType": "address[]",
          "name": "",
          "type": "address[]"
        }
      ],
      "stateMutability": "view",
      "type": "function"
    },
    {
      "inputs": [],
      "name": "gnosisMasterAddress",
      "outputs": [
        {
          "internalType": "address",
          "name": "",
          "type": "address"
        }
      ],
      "stateMutability": "view",
      "type": "function"
    },
    {
      "inputs": [
        {
          "internalType": "address",
          "name": "safe",
          "type": "address"
        },
        {
          "internalType": "address",
          "name": "member",
          "type": "address"
        }
      ],
      "name": "isSafeMember",
      "outputs": [
        {
          "internalType": "bool",
          "name": "",
          "type": "bool"
        }
      ],
      "stateMutability": "view",
      "type": "function"
    },
    {
      "inputs": [
        {
          "internalType": "address",
          "name": "safe",
          "type": "address"
        }
      ],
      "name": "isSafeModuleEnabled",
      "outputs": [
        {
          "internalType": "bool",
          "name": "",
          "type": "bool"
        }
      ],
      "stateMutability": "view",
      "type": "function"
    },
    {
      "inputs": [
        {
          "internalType": "uint256",
          "name": "",
          "type": "uint256"
        }
      ],
      "name": "isTransferLocked",
      "outputs": [
        {
          "internalType": "bool",
          "name": "",
          "type": "bool"
        }
      ],
      "stateMutability": "view",
      "type": "function"
    },
    {
      "inputs": [],
      "name": "memberToken",
      "outputs": [
        {
          "internalType": "contract IMemberToken",
          "name": "",
          "type": "address"
        }
      ],
      "stateMutability": "view",
      "type": "function"
    },
    {
      "inputs": [
        {
          "internalType": "uint256",
          "name": "_podId",
          "type": "uint256"
        },
        {
          "internalType": "address",
          "name": "_newController",
          "type": "address"
        },
        {
          "internalType": "address",
          "name": "_prevModule",
          "type": "address"
        }
      ],
      "name": "migratePodController",
      "outputs": [],
      "stateMutability": "nonpayable",
      "type": "function"
    },
    {
      "inputs": [],
      "name": "owner",
      "outputs": [
        {
          "internalType": "address",
          "name": "",
          "type": "address"
        }
      ],
      "stateMutability": "view",
      "type": "function"
    },
    {
      "inputs": [
        {
          "internalType": "uint256",
          "name": "",
          "type": "uint256"
        }
      ],
      "name": "podAdmin",
      "outputs": [
        {
          "internalType": "address",
          "name": "",
          "type": "address"
        }
      ],
      "stateMutability": "view",
      "type": "function"
    },
    {
      "inputs": [],
      "name": "podEnsRegistrar",
      "outputs": [
        {
          "internalType": "contract IPodEnsRegistrar",
          "name": "",
          "type": "address"
        }
      ],
      "stateMutability": "view",
      "type": "function"
    },
    {
      "inputs": [
        {
          "internalType": "uint256",
          "name": "",
          "type": "uint256"
        }
      ],
      "name": "podIdToSafe",
      "outputs": [
        {
          "internalType": "address",
          "name": "",
          "type": "address"
        }
      ],
      "stateMutability": "view",
      "type": "function"
    },
    {
      "inputs": [],
      "name": "proxyFactoryAddress",
      "outputs": [
        {
          "internalType": "address",
          "name": "",
          "type": "address"
        }
      ],
      "stateMutability": "view",
      "type": "function"
    },
    {
      "inputs": [],
      "name": "renounceOwnership",
      "outputs": [],
      "stateMutability": "nonpayable",
      "type": "function"
    },
    {
      "inputs": [
        {
          "internalType": "address",
          "name": "",
          "type": "address"
        }
      ],
      "name": "safeToPodId",
      "outputs": [
        {
          "internalType": "uint256",
          "name": "",
          "type": "uint256"
        }
      ],
      "stateMutability": "view",
      "type": "function"
    },
    {
      "inputs": [
        {
          "internalType": "uint256",
          "name": "_podId",
          "type": "uint256"
        },
        {
          "internalType": "bool",
          "name": "_isLocked",
          "type": "bool"
        }
      ],
      "name": "setPodModuleLock",
      "outputs": [],
      "stateMutability": "nonpayable",
      "type": "function"
    },
    {
      "inputs": [
        {
          "internalType": "uint256",
          "name": "_podId",
          "type": "uint256"
        },
        {
          "internalType": "bool",
          "name": "_isTransferLocked",
          "type": "bool"
        }
      ],
      "name": "setPodTransferLock",
      "outputs": [],
      "stateMutability": "nonpayable",
      "type": "function"
    },
    {
      "inputs": [
        {
          "internalType": "bytes4",
          "name": "interfaceId",
          "type": "bytes4"
        }
      ],
      "name": "supportsInterface",
      "outputs": [
        {
          "internalType": "bool",
          "name": "",
          "type": "bool"
        }
      ],
      "stateMutability": "view",
      "type": "function"
    },
    {
      "inputs": [
        {
          "internalType": "address",
          "name": "newOwner",
          "type": "address"
        }
      ],
      "name": "transferOwnership",
      "outputs": [],
      "stateMutability": "nonpayable",
      "type": "function"
    },
    {
      "inputs": [
        {
          "internalType": "uint256",
          "name": "_podId",
          "type": "uint256"
        },
        {
          "internalType": "address",
          "name": "_newAdmin",
          "type": "address"
        }
      ],
      "name": "updatePodAdmin",
      "outputs": [],
      "stateMutability": "nonpayable",
      "type": "function"
    },
    {
      "inputs": [
        {
          "internalType": "address",
          "name": "_podEnsRegistrar",
          "type": "address"
        }
      ],
      "name": "updatePodEnsRegistrar",
      "outputs": [],
      "stateMutability": "nonpayable",
      "type": "function"
    },
    {
      "inputs": [
        {
          "internalType": "uint256",
          "name": "_podId",
          "type": "uint256"
        },
        {
          "internalType": "address",
          "name": "_podAdmin",
          "type": "address"
        },
        {
          "internalType": "address",
          "name": "_safeAddress",
          "type": "address"
        }
      ],
      "name": "updatePodState",
      "outputs": [],
      "stateMutability": "nonpayable",
      "type": "function"
    }
  ],
  "transactionHash": "0x2d4488036c55b52dbc2ecd34812585d905d605354aa674decfac0d154b1ee5ee",
  "args": [
    "0x0762aA185b6ed2dCA77945Ebe92De705e0C37AE3",
    "0x0d97643EE1051B523E4e3b66Df3640bBA6C0F79f",
    "0xa6B71E26C5e0845f74c812102Ca7114b6a896AB2",
    "0xd9Db270c1B5E3Bd161E8c8503c55cEABeE709552",
    "0x6a0d1d55CBCc107D4665e05346f5BE4dDE4C3A80",
    "0xf48f2B2d2a534e402487b3ee7C18c33Aec0Fe5e4"
  ],
  "solcInputHash": "3934918611b08ef018310de579476c85",
  "bytecode": "0x6101206040523480156200001257600080fd5b5060405162004964380380620049648339810160408190526200003591620002df565b6001600160601b0319606085811b821660805284811b821660a05282901b1660c05262000069620000633390565b62000270565b6001600160a01b038616620000b75760405162461bcd60e51b815260206004820152600f60248201526e496e76616c6964206164647265737360881b60448201526064015b60405180910390fd5b6001600160a01b038516620001015760405162461bcd60e51b815260206004820152600f60248201526e496e76616c6964206164647265737360881b6044820152606401620000ae565b6001600160a01b0384166200014b5760405162461bcd60e51b815260206004820152600f60248201526e496e76616c6964206164647265737360881b6044820152606401620000ae565b6001600160a01b038316620001955760405162461bcd60e51b815260206004820152600f60248201526e496e76616c6964206164647265737360881b6044820152606401620000ae565b6001600160a01b038216620001df5760405162461bcd60e51b815260206004820152600f60248201526e496e76616c6964206164647265737360881b6044820152606401620000ae565b6001600160a01b038116620002295760405162461bcd60e51b815260206004820152600f60248201526e496e76616c6964206164647265737360881b6044820152606401620000ae565b50606094851b6001600160601b031990811660e0529390941b909216610100525050600280546001600160a01b0319166001600160a01b0390921691909117905562000360565b600180546001600160a01b038381166001600160a01b0319831681179093556040519116919082907f8be0079c531659141344cd1fd0a4f28419497f9722a3daafe3b4186f6b6457e090600090a35050565b80516001600160a01b0381168114620002da57600080fd5b919050565b60008060008060008060c08789031215620002f957600080fd5b6200030487620002c2565b95506200031460208801620002c2565b94506200032460408801620002c2565b93506200033460608801620002c2565b92506200034460808801620002c2565b91506200035460a08801620002c2565b90509295509295509295565b60805160601c60a05160601c60c05160601c60e05160601c6101005160601c614571620003f36000396000818161058701528181610d000152611de10152600081816103f501528181611bc201528181611fb2015281816120b101526125610152600081816106410152612bbd01526000818161054d0152612c9d0152600081816105ae0152612c7001526145716000f3fe608060405234801561001057600080fd5b50600436106102c85760003560e01c80639913627f1161017b578063dd9f4e63116100d8578063e86646541161008c578063f2fde38b11610071578063f2fde38b146106fa578063fe258da71461070d578063ffa1ad741461072057600080fd5b8063e8664654146106c0578063f0f39f5d146106e757600080fd5b8063e1fc2cc1116100bd578063e1fc2cc114610663578063e365490f14610676578063e40225641461069957600080fd5b8063dd9f4e6314610629578063e10040451461063c57600080fd5b8063be5405d21161012f578063cf00cec911610114578063cf00cec9146105e3578063d2cd157a14610603578063d5a844911461061657600080fd5b8063be5405d2146105a9578063c7e2a4fc146105d057600080fd5b8063b06a412011610160578063b06a412014610548578063b2b648e91461056f578063bbc4541b1461058257600080fd5b80639913627f14610512578063afe5c8ff1461053557600080fd5b806362067cd111610229578063827be3cc116101dd5780638da5cb5b116101c25780638da5cb5b146104af57806392c5961a146104c0578063932713681461050057600080fd5b8063827be3cc1461047e5780638d092f5d1461048657600080fd5b806374d4f6d01161020e57806374d4f6d01461044557806375f0bb52146104585780637d49f1db1461046b57600080fd5b806362067cd11461042a578063715018a61461043d57600080fd5b80633ef3a75c116102805780634a9b5db7116102655780634a9b5db7146103e85780635cb54384146103f0578063610b59251461041757600080fd5b80633ef3a75c14610394578063436f8d03146103a757600080fd5b806326a13d30116102b157806326a13d301461030a578063346e5c481461035357806337c591fa1461036657600080fd5b806301ffc9a7146102cd578063146c4361146102f5575b600080fd5b6102e06102db366004613f24565b61075c565b60405190151581526020015b60405180910390f35b610308610303366004613eff565b6107c5565b005b6103466040518060400160405280601681526020017f64656c656761746553657475702861646472657373290000000000000000000081525081565b6040516102ec91906142a6565b610308610361366004613f67565b610907565b610386610374366004613a3d565b60036020526000908152604090205481565b6040519081526020016102ec565b6103086103a2366004613bcb565b610ad1565b6103d06103b5366004613f4e565b6005602052600090815260409020546001600160a01b031681565b6040516001600160a01b0390911681526020016102ec565b610346610c70565b6103d07f000000000000000000000000000000000000000000000000000000000000000081565b610308610425366004613a3d565b610c8c565b610308610438366004613f8c565b610ca3565b610308610f52565b610308610453366004613a3d565b610f66565b610308610466366004613c4c565b610fc2565b610308610479366004613dad565b611132565b610346611159565b6103d0610494366004613f4e565b6004602052600090815260409020546001600160a01b031681565b6001546001600160a01b03166103d0565b6104e77fe009cfde76304ae4f68fc946b1f438cd7befba1599b95737584c332ee622b62981565b6040516001600160e01b031990911681526020016102ec565b61030861050e366004613eff565b5050565b6102e0610520366004613f4e565b60066020526000908152604090205460ff1681565b6002546103d0906001600160a01b031681565b6103d07f000000000000000000000000000000000000000000000000000000000000000081565b61030861057d366004613ab0565b611175565b6103d07f000000000000000000000000000000000000000000000000000000000000000081565b6103d07f000000000000000000000000000000000000000000000000000000000000000081565b6102e06105de366004613a3d565b611399565b6105f66105f1366004613a3d565b611413565b6040516102ec9190614101565b610308610611366004613fce565b61148a565b610308610624366004613a3d565b611c6f565b610308610637366004613eff565b611ce1565b6103d07f000000000000000000000000000000000000000000000000000000000000000081565b610308610671366004613f8c565b611d7a565b6102e0610684366004613a3d565b60006020819052908152604090205460ff1681565b6104e77fe19a9dd9915bcd0262210387ba8f90d343aab4a5989aaae0ed7f2b6edddaff1a81565b6104e77f610b5925afff994a89367f36d1195efacee9e03780fb400aacb2ff998042ec3581565b6103086106f5366004613b0c565b6120a6565b610308610708366004613a3d565b61239c565b6102e061071b366004613a77565b612429565b6103466040518060400160405280600581526020017f312e332e3000000000000000000000000000000000000000000000000000000081525081565b60006001600160e01b031982167fe6d7a83a0000000000000000000000000000000000000000000000000000000014806107bf57506001600160e01b031982167f01ffc9a700000000000000000000000000000000000000000000000000000000145b92915050565b6000828152600560209081526040808320546004909252909120546001600160a01b0391821691168161085457336001600160a01b0382161461084f5760405162461bcd60e51b815260206004820152601f60248201527f4f6e6c7920736166652063616e20736574207472616e73666572206c6f636b0060448201526064015b60405180910390fd5b6108e5565b336001600160a01b03831614806108735750336001600160a01b038216145b6108e55760405162461bcd60e51b815260206004820152602860248201527f4f6e6c792061646d696e206f7220736166652063616e20736574207472616e7360448201527f666572206c6f636b0000000000000000000000000000000000000000000000006064820152608401610846565b5050600091825260066020526040909120805460ff1916911515919091179055565b6000828152600560209081526040808320546004909252909120546001600160a01b0391821691168061097c5760405162461bcd60e51b815260206004820152601160248201527f506f6420646f65736e27742065786973740000000000000000000000000000006044820152606401610846565b6001600160a01b0382166109e757336001600160a01b038216146109e25760405162461bcd60e51b815260206004820152601b60248201527f4f6e6c7920736166652063616e20616464206e65772061646d696e00000000006044820152606401610846565b610a3f565b336001600160a01b03831614610a3f5760405162461bcd60e51b815260206004820152601b60248201527f4f6e6c792061646d696e2063616e207570646174652061646d696e00000000006044820152606401610846565b6001600160a01b038082166000908152602081905260409020805460ff1916918516151591909117905560008481526005602090815260409182902080546001600160a01b0319166001600160a01b0387169081179091558251878152918201527ffef38cfc44da305e6203142455e0a2b129109e8fd7b40914acff6874f170e3df910160405180910390a150505050565b6001600160a01b038516610b275760405162461bcd60e51b815260206004820152601460248201527f696e76616c6964207361666520616464726573730000000000000000000000006044820152606401610846565b6001600160a01b03851660009081526003602052604090205415610b8d5760405162461bcd60e51b815260206004820152601360248201527f7361666520616c726561647920696e20757365000000000000000000000000006044820152606401610846565b610b9685611399565b610be25760405162461bcd60e51b815260206004820152601b60248201527f73616665206d6f64756c65206d75737420626520656e61626c656400000000006044820152606401610846565b610bec8533612429565b80610bff5750336001600160a01b038616145b610c4b5760405162461bcd60e51b815260206004820152601d60248201527f63616c6c6572206d7573742062652073616665206f72206d656d6265720000006044820152606401610846565b6000610c5686611413565b9050610c67818789888888886124c6565b50505050505050565b6040518060800160405280605a815260200161449c605a913981565b6001600160a01b03811615610ca057600080fd5b50565b6001600160a01b038116610ceb5760405162461bcd60e51b815260206004820152600f60248201526e496e76616c6964206164647265737360881b6044820152606401610846565b60405163c3c5a54760e01b81523360048201527f00000000000000000000000000000000000000000000000000000000000000006001600160a01b03169063c3c5a5479060240160206040518083038186803b158015610d4a57600080fd5b505afa158015610d5e573d6000803e3d6000fd5b505050506040513d601f19601f82011682018060405250810190610d829190613ec9565b610dce5760405162461bcd60e51b815260206004820152601960248201527f436f6e74726f6c6c6572206e6f742072656769737465726564000000000000006044820152606401610846565b6000838152600560205260409020546001600160a01b0316158015610e0857506000838152600460205260409020546001600160a01b0316155b8015610e2a57506001600160a01b038116600090815260036020526040902054155b610e765760405162461bcd60e51b815260206004820152601260248201527f506f6420616c72656164792065786973747300000000000000000000000000006044820152606401610846565b6001600160a01b03821615610eca57600083815260056020908152604080832080546001600160a01b0319166001600160a01b038781169190911790915584168352908290529020805460ff191660011790555b600083815260046020908152604080832080546001600160a01b0319166001600160a01b038616908117909155835260039091529020839055610f0c81612950565b604080518481526001600160a01b03841660208201527ffef38cfc44da305e6203142455e0a2b129109e8fd7b40914acff6874f170e3df910160405180910390a1505050565b610f5a612a65565b610f646000612abf565b565b60405163610b592560e01b81526001600160a01b0382166004820152309063610b592590602401600060405180830381600087803b158015610fa757600080fd5b505af1158015610fbb573d6000803e3d6000fd5b5050505050565b3360008181526020819052604090205460ff16610fdf5750611125565b60048a51106111235763610b592560e01b610ff98b61438d565b6001600160e01b03191614156110515760405162461bcd60e51b815260206004820152601560248201527f43616e6e6f7420456e61626c65204d6f64756c657300000000000000000000006044820152606401610846565b637004e7ef60e11b6110628b61438d565b6001600160e01b03191614156110ba5760405162461bcd60e51b815260206004820152601660248201527f43616e6e6f742044697361626c65204d6f64756c6573000000000000000000006044820152606401610846565b63e19a9dd960e01b6110cb8b61438d565b6001600160e01b03191614156111235760405162461bcd60e51b815260206004820152601360248201527f43616e6e6f74204368616e6765204775617264000000000000000000000000006044820152606401610846565b505b5050505050505050505050565b600061113e8888612b11565b905061114f888288888888886124c6565b5050505050505050565b6040518060800160405280604681526020016144f66046913981565b604051632d9ad53d60e01b81526001600160a01b038281166004830152859190821690632d9ad53d9060240160206040518083038186803b1580156111b957600080fd5b505afa1580156111cd573d6000803e3d6000fd5b505050506040513d601f19601f820116820180604052508101906111f19190613ec9565b6111fb5750611393565b604051602060248201526000604482018190529060640160408051601f198184030181529181526020820180516001600160e01b031663c47f002760e01b1790525163468721a760e01b81529091506001600160a01b0383169063468721a790611270908890600090869082906004016140aa565b602060405180830381600087803b15801561128a57600080fd5b505af115801561129e573d6000803e3d6000fd5b505050506040513d601f19601f820116820180604052508101906112c29190613ec9565b506040516001600160a01b0380861660248301528416604482015260009060640160408051601f198184030181529181526020820180516001600160e01b0316637004e7ef60e11b1790525163468721a760e01b81529091506001600160a01b0384169063468721a790611341908a90600090869082906004016140aa565b602060405180830381600087803b15801561135b57600080fd5b505af115801561136f573d6000803e3d6000fd5b505050506040513d601f19601f8201168201806040525081019061114f9190613ec9565b50505050565b604051632d9ad53d60e01b81523060048201526000906001600160a01b03831690632d9ad53d9060240160206040518083038186803b1580156113db57600080fd5b505afa1580156113ef573d6000803e3d6000fd5b505050506040513d601f19601f820116820180604052508101906107bf9190613ec9565b6060816001600160a01b031663a0e67e2b6040518163ffffffff1660e01b815260040160006040518083038186803b15801561144e57600080fd5b505afa158015611462573d6000803e3d6000fd5b505050506040513d6000823e601f3d908101601f191682016040526107bf9190810190613d31565b6000838152600460205260409020546001600160a01b0316806114ef5760405162461bcd60e51b815260206004820152601260248201527f706f64206e6f74207265676973746572656400000000000000000000000000006044820152606401610846565b6040517fcf00cec90000000000000000000000000000000000000000000000000000000081526001600160a01b0382166004820152600090309063cf00cec99060240160006040518083038186803b15801561154a57600080fd5b505afa15801561155e573d6000803e3d6000fd5b505050506040513d6000823e601f3d908101601f191682016040526115869190810190613d31565b90506000600260009054906101000a90046001600160a01b03166001600160a01b03166304f3bcec6040518163ffffffff1660e01b815260040160206040518083038186803b1580156115d857600080fd5b505afa1580156115ec573d6000803e3d6000fd5b505050506040513d601f19601f820116820180604052508101906116109190613a5a565b60025460405163cfeac6a560e01b8152600481018890529192506000916001600160a01b039091169063cfeac6a59060240160206040518083038186803b15801561165a57600080fd5b505afa15801561166e573d6000803e3d6000fd5b505050506040513d601f19601f820116820180604052508101906116929190613ee6565b6040517f3b3b57de000000000000000000000000000000000000000000000000000000008152600481018290529091506000906001600160a01b03841690633b3b57de9060240160206040518083038186803b1580156116f157600080fd5b505afa158015611705573d6000803e3d6000fd5b505050506040513d601f19601f820116820180604052508101906117299190613a5a565b9050846001600160a01b0316816001600160a01b03161461178c5760405162461bcd60e51b815260206004820152601b60248201527f7361666520616e64206c6162656c206469646e2774206d6174636800000000006044820152606401610846565b60025460405163043c4ea360e21b81526001600160a01b03909116906310f13a8c906117bc90859060040161420b565b600060405180830381600087803b1580156117d657600080fd5b505af11580156117ea573d6000803e3d6000fd5b505060025460405163043c4ea360e21b81526001600160a01b0390911692506310f13a8c915061181e90859060040161427b565b600060405180830381600087803b15801561183857600080fd5b505af115801561184c573d6000803e3d6000fd5b50506002546040517fd5fa2b0000000000000000000000000000000000000000000000000000000000815260048101869052600060248201526001600160a01b03909116925063d5fa2b009150604401600060405180830381600087803b1580156118b657600080fd5b505af11580156118ca573d6000803e3d6000fd5b50506002546040517fd22057a9000000000000000000000000000000000000000000000000000000008152600481018b9052600060248201526001600160a01b03909116925063d22057a99150604401600060405180830381600087803b15801561193457600080fd5b505af1158015611948573d6000803e3d6000fd5b5050506000898152600560205260409020546001600160a01b03161590506119f5576000888152600560205260409020546001600160a01b031633146119d05760405162461bcd60e51b815260206004820152600d60248201527f6d7573742062652061646d696e000000000000000000000000000000000000006044820152606401610846565b6001600160a01b0385166000908152602081905260409020805460ff19169055611a4d565b336001600160a01b03861614611a4d5760405162461bcd60e51b815260206004820152601960248201527f7478206d7573742062652073656e742066726f6d2073616665000000000000006044820152606401610846565b306001600160a01b031663b2b648e986600260009054906101000a90046001600160a01b03166001600160a01b031663808698536040518163ffffffff1660e01b815260040160206040518083038186803b158015611aab57600080fd5b505afa158015611abf573d6000803e3d6000fd5b505050506040513d601f19601f82011682018060405250810190611ae39190613a5a565b6040516001600160e01b031960e085901b1681526001600160a01b03928316600482015290821660248201529089166044820152306064820152608401600060405180830381600087803b158015611b3a57600080fd5b505af1158015611b4e573d6000803e3d6000fd5b505050600089815260056020908152604080832080546001600160a01b0319908116909155600480845282852080549092169091556001600160a01b038a81168552600390935281842093909355517fb898410d0000000000000000000000000000000000000000000000000000000081527f0000000000000000000000000000000000000000000000000000000000000000909116925063b898410d91611bfa9188918d9101614142565b600060405180830381600087803b158015611c1457600080fd5b505af1158015611c28573d6000803e3d6000fd5b505050507fbf40bbc71e7cad18fa06345bce0dcaecb93fb664d0808f5afe28904c1d1b25da88604051611c5d91815260200190565b60405180910390a15050505050505050565b611c77612a65565b6001600160a01b038116611cbf5760405162461bcd60e51b815260206004820152600f60248201526e496e76616c6964206164647265737360881b6044820152606401610846565b600280546001600160a01b0319166001600160a01b0392909216919091179055565b6000828152600560205260409020546001600160a01b03163314611d475760405162461bcd60e51b815260206004820181905260248201527f4d7573742062652061646d696e20746f20736574206d6f64756c65206c6f636b6044820152606401610846565b6000828152600460209081526040808320546001600160a01b03168352908290529020805460ff19168215151790555050565b6001600160a01b038216611dc25760405162461bcd60e51b815260206004820152600f60248201526e496e76616c6964206164647265737360881b6044820152606401610846565b60405163c3c5a54760e01b81526001600160a01b0383811660048301527f0000000000000000000000000000000000000000000000000000000000000000169063c3c5a5479060240160206040518083038186803b158015611e2357600080fd5b505afa158015611e37573d6000803e3d6000fd5b505050506040513d601f19601f82011682018060405250810190611e5b9190613ec9565b611ea75760405162461bcd60e51b815260206004820152601960248201527f436f6e74726f6c6c6572206e6f742072656769737465726564000000000000006044820152606401610846565b6000838152600560209081526040808320546004909252909120546001600160a01b03918216911633821480611ee55750336001600160a01b038216145b611f315760405162461bcd60e51b815260206004820152601360248201527f55736572206e6f7420617574686f72697a6564000000000000000000000000006044820152606401610846565b600085815260056020908152604080832080546001600160a01b0319908116909155600480845282852080549092169091556001600160a01b038581168552600390935281842093909355517f82786654000000000000000000000000000000000000000000000000000000008152918201879052858116602483015285917f000000000000000000000000000000000000000000000000000000000000000090911690638278665490604401600060405180830381600087803b158015611ff857600080fd5b505af115801561200c573d6000803e3d6000fd5b5050505061201b828686612da0565b6040517f62067cd1000000000000000000000000000000000000000000000000000000008152600481018790526001600160a01b03848116602483015283811660448301528216906362067cd190606401600060405180830381600087803b15801561208657600080fd5b505af115801561209a573d6000803e3d6000fd5b50505050505050505050565b336001600160a01b037f0000000000000000000000000000000000000000000000000000000000000000161461211e5760405162461bcd60e51b815260206004820152600e60248201527f4e6f7420417574686f72697a65640000000000000000000000000000000000006044820152606401610846565b6001600160a01b03861630148015612137575060008151115b80156121605750600160ff16816000815181106121565761215661444c565b016020015160f81c145b1561216a57612394565b60005b8351811015610c6757600084828151811061218a5761218a61444c565b60209081029190910181015160008181526004835260408082205460059094529020549092506001600160a01b039182169116811580156121d257506001600160a01b038816155b156121e05750505050612394565b6001600160a01b03891661227c57816001600160a01b03168a6001600160a01b0316148061221f5750806001600160a01b03168a6001600160a01b0316145b8061223257506001600160a01b038a1630145b61226d5760405162461bcd60e51b815260206004820152600c60248201526b139bc8149d5b195cc814d95d60a21b6044820152606401610846565b61227788836130f7565b61237d565b6001600160a01b03881661231357816001600160a01b03168a6001600160a01b031614806122bb5750806001600160a01b03168a6001600160a01b0316145b806122ce57506001600160a01b038a1630145b6123095760405162461bcd60e51b815260206004820152600c60248201526b139bc8149d5b195cc814d95d60a21b6044820152606401610846565b61227789836132a8565b60008381526006602052604090205460ff16156123725760405162461bcd60e51b815260206004820152601660248201527f506f64204973205472616e73666572204c6f636b6564000000000000000000006044820152606401610846565b61237d898984613584565b50505060018161238d919061434a565b905061216d565b505050505050565b6123a4612a65565b6001600160a01b0381166124205760405162461bcd60e51b815260206004820152602660248201527f4f776e61626c653a206e6577206f776e657220697320746865207a65726f206160448201527f64647265737300000000000000000000000000000000000000000000000000006064820152608401610846565b610ca081612abf565b6040517f2f54bf6e0000000000000000000000000000000000000000000000000000000081526001600160a01b03828116600483015260009190841690632f54bf6e9060240160206040518083038186803b15801561248757600080fd5b505afa15801561249b573d6000803e3d6000fd5b505050506040513d601f19601f820116820180604052508101906124bf9190613ec9565b9392505050565b604080516001808252818301909252600091602082018180368337019050509050600160f81b816000815181106124ff576124ff61444c565b60200101907effffffffffffffffffffffffffffffffffffffffffffffffffffffffffffff1916908160001a9053506040517f9aa0055e0000000000000000000000000000000000000000000000000000000081526000906001600160a01b037f00000000000000000000000000000000000000000000000000000000000000001690639aa0055e90612598908c908690600401614114565b602060405180830381600087803b1580156125b257600080fd5b505af11580156125c6573d6000803e3d6000fd5b505050506040513d601f19601f820116820180604052508101906125ea9190613ee6565b905083811461263b5760405162461bcd60e51b815260206004820152601e60248201527f706f64206964206469646e2774206d617463682c2074727920616761696e00006044820152606401610846565b7fb298a97e1ae845f4ac62f176cde255ccfe5ac42197eae12459c99761bad66a488189898860405161267094939291906142b9565b60405180910390a1604080518281526001600160a01b03891660208201527ffef38cfc44da305e6203142455e0a2b129109e8fd7b40914acff6874f170e3df910160405180910390a16001600160a01b03871615612713576001600160a01b0388166000908152602081905260409020805460ff19166001179055600081815260056020526040902080546001600160a01b0319166001600160a01b0389161790555b600081815260046020818152604080842080546001600160a01b0319166001600160a01b038e8116918217909255808652600390935281852086905560025491517f98eed3e90000000000000000000000000000000000000000000000000000000081529384018b9052602484019290925233604484015216906398eed3e990606401602060405180830381600087803b1580156127b057600080fd5b505af11580156127c4573d6000803e3d6000fd5b505050506040513d601f19601f820116820180604052508101906127e89190613a5a565b90506127f5898288613726565b60025460405163cfeac6a560e01b8152600481018990526000916001600160a01b03169063cfeac6a59060240160206040518083038186803b15801561283a57600080fd5b505afa15801561284e573d6000803e3d6000fd5b505050506040513d601f19601f820116820180604052508101906128729190613ee6565b60025460405163043c4ea360e21b81529192506001600160a01b0316906310f13a8c906128a590849089906004016141cd565b600060405180830381600087803b1580156128bf57600080fd5b505af11580156128d3573d6000803e3d6000fd5b50506002546001600160a01b031691506310f13a8c9050826128f486613799565b6040518363ffffffff1660e01b8152600401612911929190614250565b600060405180830381600087803b15801561292b57600080fd5b505af115801561293f573d6000803e3d6000fd5b505050505050505050505050505050565b60405130602482015260009060440160408051601f198184030181529181526020820180516001600160e01b031663e19a9dd960e01b1790525163468721a760e01b81529091506000906001600160a01b0384169063468721a7906129bf9086908590879082906004016140aa565b602060405180830381600087803b1580156129d957600080fd5b505af11580156129ed573d6000803e3d6000fd5b505050506040513d601f19601f82011682018060405250810190612a119190613ec9565b905080612a605760405162461bcd60e51b815260206004820152601660248201527f436f756c64206e6f7420656e61626c65206775617264000000000000000000006044820152606401610846565b505050565b6001546001600160a01b03163314610f645760405162461bcd60e51b815260206004820181905260248201527f4f776e61626c653a2063616c6c6572206973206e6f7420746865206f776e65726044820152606401610846565b600180546001600160a01b038381166001600160a01b0319831681179093556040519116919082907f8be0079c531659141344cd1fd0a4f28419497f9722a3daafe3b4186f6b6457e090600090a35050565b604080518082018252601681527f64656c656761746553657475702861646472657373290000000000000000000060208201529051306024820152600091829160440160408051601f198184030181529082905291612b6f9161406c565b60405180910390206001600160e01b0319166020820180516001600160e01b038381831617835250505050905060006040518060800160405280604681526020016144f660469139858530857f00000000000000000000000000000000000000000000000000000000000000006000806000604051602401612bf8989796959493929190614164565b60408051601f198184030181529082905291612c139161406c565b60408051918290039091206020830180516001600160e01b03166001600160e01b0319909216919091179052517f61b69abd0000000000000000000000000000000000000000000000000000000081529091506001600160a01b037f000000000000000000000000000000000000000000000000000000000000000016906361b69abd90612cc7907f0000000000000000000000000000000000000000000000000000000000000000908590600401614088565b602060405180830381600087803b158015612ce157600080fd5b505af1925050508015612d11575060408051601f3d908101601f19168201909252612d0e91810190613a5a565b60015b612d8d573d808015612d3f576040519150601f19603f3d011682016040523d82523d6000602084013e612d44565b606091505b5060405162461bcd60e51b815260206004820152601d60248201527f4372656174652050726f787920576974682044617461204661696c65640000006044820152606401610846565b612d9681612950565b92506107bf915050565b6040516001600160a01b038316602482015260009060440160408051601f198184030181529181526020820180516001600160e01b031663610b592560e01b1790525163468721a760e01b81529091506000906001600160a01b0386169063468721a790612e189088908590879082906004016140aa565b602060405180830381600087803b158015612e3257600080fd5b505af1158015612e46573d6000803e3d6000fd5b505050506040513d601f19601f82011682018060405250810190612e6a9190613ec9565b905080612eb95760405162461bcd60e51b815260206004820152601a60248201527f4d6967726174696f6e206661696c6564206f6e20656e61626c650000000000006044820152606401610846565b6040517fcc2f84520000000000000000000000000000000000000000000000000000000081526001600160a01b038481166004830152600160248301526000919087169063cc2f84529060440160006040518083038186803b158015612f1e57600080fd5b505afa158015612f32573d6000803e3d6000fd5b505050506040513d6000823e601f3d908101601f19168201604052612f5a9190810190613d66565b509050306001600160a01b031681600081518110612f7a57612f7a61444c565b60200260200101516001600160a01b031614612fd85760405162461bcd60e51b815260206004820152601460248201527f696e636f727265637420707265764d6f64756c650000000000000000000000006044820152606401610846565b6040516001600160a01b038516602482015230604482015260009060640160408051601f198184030181529181526020820180516001600160e01b0316637004e7ef60e11b1790525163468721a760e01b81529091506000906001600160a01b0389169063468721a790613056908b908590879082906004016140aa565b602060405180830381600087803b15801561307057600080fd5b505af1158015613084573d6000803e3d6000fd5b505050506040513d601f19601f820116820180604052508101906130a89190613ec9565b90508061114f5760405162461bcd60e51b815260206004820152601b60248201527f4d6967726174696f6e206661696c6564206f6e2064697361626c6500000000006044820152606401610846565b6000816001600160a01b031663e75235b86040518163ffffffff1660e01b8152600401602060405180830381600087803b15801561313457600080fd5b505af1158015613148573d6000803e3d6000fd5b505050506040513d601f19601f8201168201806040525081019061316c9190613ee6565b6040516001600160a01b03851660248201526044810182905290915060009060640160408051601f198184030181529181526020820180516001600160e01b03167f0d582f13000000000000000000000000000000000000000000000000000000001790525163468721a760e01b81529091506000906001600160a01b0385169063468721a7906132079087908590879082906004016140aa565b602060405180830381600087803b15801561322157600080fd5b505af1158015613235573d6000803e3d6000fd5b505050506040513d601f19601f820116820180604052508101906132599190613ec9565b905080610fbb5760405162461bcd60e51b815260206004820152601960248201527f4d6f64756c65205472616e73616374696f6e204661696c6564000000000000006044820152606401610846565b6000816001600160a01b031663e75235b86040518163ffffffff1660e01b8152600401602060405180830381600087803b1580156132e557600080fd5b505af11580156132f9573d6000803e3d6000fd5b505050506040513d601f19601f8201168201806040525081019061331d9190613ee6565b90506000826001600160a01b031663a0e67e2b6040518163ffffffff1660e01b815260040160006040518083038186803b15801561335a57600080fd5b505afa15801561336e573d6000803e3d6000fd5b505050506040513d6000823e601f3d908101601f191682016040526133969190810190613d31565b90506000805b825181101561341f57856001600160a01b03168382815181106133c1576133c161444c565b60200260200101516001600160a01b0316141561340d57806133e6576001915061340d565b826133f2600183614376565b815181106134025761340261444c565b602002602001015191505b80613417816143f1565b91505061339c565b50826001835161342f9190614376565b101561344357613440600184614376565b92505b6040516001600160a01b038083166024830152861660448201526064810184905260009060840160408051601f198184030181529181526020820180516001600160e01b03167ff8dc5dd9000000000000000000000000000000000000000000000000000000001790525163468721a760e01b81529091506000906001600160a01b0387169063468721a7906134e39089908590879082906004016140aa565b602060405180830381600087803b1580156134fd57600080fd5b505af1158015613511573d6000803e3d6000fd5b505050506040513d601f19601f820116820180604052508101906135359190613ec9565b905080610c675760405162461bcd60e51b815260206004820152601960248201527f4d6f64756c65205472616e73616374696f6e204661696c6564000000000000006044820152606401610846565b6000816001600160a01b031663a0e67e2b6040518163ffffffff1660e01b815260040160006040518083038186803b1580156135bf57600080fd5b505afa1580156135d3573d6000803e3d6000fd5b505050506040513d6000823e601f3d908101601f191682016040526135fb9190810190613d31565b90506000805b825181101561368457856001600160a01b03168382815181106136265761362661444c565b60200260200101516001600160a01b03161415613672578061364b5760019150613672565b82613657600183614376565b815181106136675761366761444c565b602002602001015191505b8061367c816143f1565b915050613601565b506040516001600160a01b03808316602483015280871660448301528516606482015260009060840160408051601f198184030181529181526020820180516001600160e01b03167fe318b52b000000000000000000000000000000000000000000000000000000001790525163468721a760e01b81529091506000906001600160a01b0386169063468721a7906134e39088908590879082906004016140aa565b60008160405160240161373991906142a6565b60408051601f198184030181529181526020820180516001600160e01b031663c47f002760e01b1790525163468721a760e01b81529091506000906001600160a01b0386169063468721a7906132079087908590879082906004016140aa565b6060816137d957505060408051808201909152600181527f3000000000000000000000000000000000000000000000000000000000000000602082015290565b8160005b811561380357806137ed816143f1565b91506137fc9050600a83614362565b91506137dd565b60008167ffffffffffffffff81111561381e5761381e614462565b6040519080825280601f01601f191660200182016040528015613848576020820181803683370190505b5090505b84156138cb5761385d600183614376565b915061386a600a8661440c565b61387590603061434a565b60f81b81838151811061388a5761388a61444c565b60200101907effffffffffffffffffffffffffffffffffffffffffffffffffffffffffffff1916908160001a9053506138c4600a86614362565b945061384c565b949350505050565b80356138de81614478565b919050565b600082601f8301126138f457600080fd5b8151602061390961390483614326565b6142f5565b80838252828201915082860187848660051b890101111561392957600080fd5b60005b8581101561395157815161393f81614478565b8452928401929084019060010161392c565b5090979650505050505050565b600082601f83011261396f57600080fd5b8135602061397f61390483614326565b80838252828201915082860187848660051b890101111561399f57600080fd5b60005b85811015613951578135845292840192908401906001016139a2565b600082601f8301126139cf57600080fd5b813567ffffffffffffffff8111156139e9576139e9614462565b6139fc601f8201601f19166020016142f5565b818152846020838601011115613a1157600080fd5b816020850160208301376000918101602001919091529392505050565b8035600281106138de57600080fd5b600060208284031215613a4f57600080fd5b81356124bf81614478565b600060208284031215613a6c57600080fd5b81516124bf81614478565b60008060408385031215613a8a57600080fd5b8235613a9581614478565b91506020830135613aa581614478565b809150509250929050565b60008060008060808587031215613ac657600080fd5b8435613ad181614478565b93506020850135613ae181614478565b92506040850135613af181614478565b91506060850135613b0181614478565b939692955090935050565b60008060008060008060c08789031215613b2557600080fd5b8635613b3081614478565b95506020870135613b4081614478565b94506040870135613b5081614478565b9350606087013567ffffffffffffffff80821115613b6d57600080fd5b613b798a838b0161395e565b94506080890135915080821115613b8f57600080fd5b613b9b8a838b0161395e565b935060a0890135915080821115613bb157600080fd5b50613bbe89828a016139be565b9150509295509295509295565b60008060008060008060c08789031215613be457600080fd5b8635613bef81614478565b95506020870135613bff81614478565b945060408701359350606087013567ffffffffffffffff80821115613c2357600080fd5b613c2f8a838b016139be565b94506080890135935060a0890135915080821115613bb157600080fd5b60008060008060008060008060008060006101608c8e031215613c6e57600080fd5b613c778c6138d3565b9a5060208c0135995067ffffffffffffffff8060408e01351115613c9a57600080fd5b613caa8e60408f01358f016139be565b9950613cb860608e01613a2e565b985060808d0135975060a08d0135965060c08d01359550613cdb60e08e016138d3565b9450613cea6101008e016138d3565b9350806101208e01351115613cfe57600080fd5b50613d108d6101208e01358e016139be565b9150613d1f6101408d016138d3565b90509295989b509295989b9093969950565b600060208284031215613d4357600080fd5b815167ffffffffffffffff811115613d5a57600080fd5b6138cb848285016138e3565b60008060408385031215613d7957600080fd5b825167ffffffffffffffff811115613d9057600080fd5b613d9c858286016138e3565b9250506020830151613aa581614478565b600080600080600080600060e0888a031215613dc857600080fd5b873567ffffffffffffffff80821115613de057600080fd5b818a0191508a601f830112613df457600080fd5b81356020613e0461390483614326565b8083825282820191508286018f848660051b8901011115613e2457600080fd5b600096505b84871015613e50578035613e3c81614478565b835260019690960195918301918301613e29565b509b50508b01359850613e67905060408b016138d3565b965060608a0135955060808a0135915080821115613e8457600080fd5b613e908b838c016139be565b945060a08a0135935060c08a0135915080821115613ead57600080fd5b50613eba8a828b016139be565b91505092959891949750929550565b600060208284031215613edb57600080fd5b81516124bf8161448d565b600060208284031215613ef857600080fd5b5051919050565b60008060408385031215613f1257600080fd5b823591506020830135613aa58161448d565b600060208284031215613f3657600080fd5b81356001600160e01b0319811681146124bf57600080fd5b600060208284031215613f6057600080fd5b5035919050565b60008060408385031215613f7a57600080fd5b823591506020830135613aa581614478565b600080600060608486031215613fa157600080fd5b833592506020840135613fb381614478565b91506040840135613fc381614478565b809150509250925092565b600080600060608486031215613fe357600080fd5b83359250602084013591506040840135613fc381614478565b600081518084526020808501945080840160005b838110156140355781516001600160a01b031687529582019590820190600101614010565b509495945050505050565b600081518084526140588160208601602086016143c5565b601f01601f19169290920160200192915050565b6000825161407e8184602087016143c5565b9190910192915050565b6001600160a01b03831681526040602082015260006138cb6040830184614040565b6001600160a01b03851681528360208201526080604082015260006140d26080830185614040565b9050600283106140f257634e487b7160e01b600052602160045260246000fd5b82606083015295945050505050565b6020815260006124bf6020830184613ffc565b6040815260006141276040830185613ffc565b82810360208401526141398185614040565b95945050505050565b6040815260006141556040830185613ffc565b90508260208301529392505050565b60006101008083526141788184018c613ffc565b90508960208401526001600160a01b03808a16604085015283820360608501526141a2828a614040565b978116608085015295861660a0840152505060c081019290925290911660e090910152949350505050565b8281526060602082015260006141f960608301600681526530bb30ba30b960d11b602082015260400190565b82810360408401526141398185614040565b81815260606020820152600061423760608301600681526530bb30ba30b960d11b602082015260400190565b8281036040840152600081526020810191505092915050565b8281526060602082015260006141f96060830160058152641c1bd9125960da1b602082015260400190565b8181526060602082015260006142376060830160058152641c1bd9125960da1b602082015260400190565b6020815260006124bf6020830184614040565b84815260006001600160a01b038086166020840152808516604084015250608060608301526142eb6080830184614040565b9695505050505050565b604051601f8201601f1916810167ffffffffffffffff8111828210171561431e5761431e614462565b604052919050565b600067ffffffffffffffff82111561434057614340614462565b5060051b60200190565b6000821982111561435d5761435d614420565b500190565b60008261437157614371614436565b500490565b60008282101561438857614388614420565b500390565b6000815160208301516001600160e01b0319808216935060048310156143bd5780818460040360031b1b83161693505b505050919050565b60005b838110156143e05781810151838201526020016143c8565b838111156113935750506000910152565b600060001982141561440557614405614420565b5060010190565b60008261441b5761441b614436565b500690565b634e487b7160e01b600052601160045260246000fd5b634e487b7160e01b600052601260045260246000fd5b634e487b7160e01b600052603260045260246000fd5b634e487b7160e01b600052604160045260246000fd5b6001600160a01b0381168114610ca057600080fd5b8015158114610ca057600080fdfe657865635472616e73616374696f6e28616464726573732c75696e743235362c62797465732c75696e74382c75696e743235362c75696e743235362c75696e743235362c616464726573732c616464726573732c627974657329736574757028616464726573735b5d2c75696e743235362c616464726573732c62797465732c616464726573732c616464726573732c75696e743235362c6164647265737329a2646970667358221220e9e1589ece7656cbcb55340904b4951762a177c2911826ad280cf4367fc2d96164736f6c63430008070033",
  "devdoc": {
    "kind": "dev",
    "methods": {
      "beforeTokenTransfer(address,address,address,uint256[],uint256[],bytes)": {
        "params": {
          "data": "Passes a flag for an initial creation event",
          "from": "The address sending the membership token",
          "ids": "An array of membership token ids to be transfered",
          "operator": "The address that initiated the action",
          "to": "The address recieveing the membership token"
        }
      },
      "checkTransaction(address,uint256,bytes,uint8,uint256,uint256,uint256,address,address,bytes,address)": {
        "details": "This will be called by the safe at execution time time",
        "params": {
          "baseGas": "Gas costs that are independent of the transaction execution(e.g. base transaction fee, signature check, payment of the refund)",
          "data": "Data payload of Safe transaction.",
          "gasPrice": "Gas price that should be used for the payment calculation.",
          "gasToken": "Token address (or 0 if ETH) that is used for the payment.",
          "msgSender": "Account executing safe transaction",
          "operation": "Operation type of Safe transaction.",
          "refundReceiver": "Address of receiver of gas payment (or 0 if tx.origin).",
          "safeTxGas": "Gas that should be used for the Safe transaction.",
          "signatures": "Packed signature data ({bytes32 r}{bytes32 s}{uint8 v})",
          "to": "Destination address of Safe transaction.",
          "value": "Ether value of Safe transaction."
        }
      },
      "constructor": {
        "details": "Will instantiate safe teller with gnosis master and proxy addresses",
        "params": {
          "_controllerRegistry": "The address of the ControllerRegistry contract",
          "_gnosisMasterAddress": "The gnosis master address",
          "_memberToken": "The address of the MemberToken contract",
          "_proxyFactoryAddress": "The proxy factory address"
        }
      },
      "createPod(address[],uint256,address,bytes32,string,uint256,string)": {
        "params": {
          "_admin": "The address of the pod admin",
          "_ensString": "string of pod ens name (i.e.'mypod.pod.xyz')",
          "_label": "label hash of pod name (i.e labelhash('mypod'))",
          "_members": "The addresses of the members of the pod",
          "threshold": "The number of members that are required to sign a transaction"
        }
      },
      "createPodWithSafe(address,address,bytes32,string,uint256,string)": {
        "details": "Used to create a pod with an existing safeWill automatically distribute membership NFTs to current safe members",
        "params": {
          "_admin": "The address of the pod admin",
          "_ensString": "string of pod ens name (i.e.'mypod.pod.xyz')",
          "_label": "label hash of pod name (i.e labelhash('mypod'))",
          "_safe": "The address of existing safe"
        }
      },
      "ejectSafe(uint256,bytes32,address)": {
        "params": {
          "label": "- labelhash of pod ENS name, i.e., `labelhash(\"mypod\")`",
          "podId": "- ID of pod being ejected",
          "previousModule": "- previous module"
        }
      },
      "migratePodController(uint256,address,address)": {
        "details": "This will nullify all pod state on this controllerUpdate state on _newControllerUpdate controller to _newController in Safe and MemberToken",
        "params": {
          "_newController": "The address of the new pod controller",
          "_podId": "The id number of the pod",
          "_prevModule": "The module that points to the orca module in the safe's ModuleManager linked list"
        }
      },
      "owner()": {
        "details": "Returns the address of the current owner."
      },
      "renounceOwnership()": {
        "details": "Leaves the contract without owner. It will not be possible to call `onlyOwner` functions anymore. Can only be called by the current owner. NOTE: Renouncing ownership will leave the contract without an owner, thereby removing any functionality that is only available to the owner."
      },
      "setPodModuleLock(uint256,bool)": {
        "details": "Allows admin to unlock the safe modules and allow them to be edited by members",
        "params": {
          "_isLocked": "true - pod modules cannot be added/removed",
          "_podId": "The id number of the pod"
        }
      },
      "setPodTransferLock(uint256,bool)": {
        "params": {
          "_isTransferLocked": "The address of the new pod admin",
          "_podId": "The id number of the pod"
        }
      },
      "supportsInterface(bytes4)": {
        "details": "Returns true if this contract implements the interface defined by `interfaceId`. See the corresponding https://eips.ethereum.org/EIPS/eip-165#how-interfaces-are-identified[EIP section] to learn more about how these ids are created. This function call must use less than 30 000 gas."
      },
      "transferOwnership(address)": {
        "details": "Transfers ownership of the contract to a new account (`newOwner`). Can only be called by the current owner."
      },
      "updatePodAdmin(uint256,address)": {
        "params": {
          "_newAdmin": "The address of the new pod admin",
          "_podId": "The id number of the pod"
        }
      },
      "updatePodState(uint256,address,address)": {
        "details": "This is called by another version of controller to migrate a pod to this versionWill only accept calls from registered controllersCan only be called once.",
        "params": {
          "_podAdmin": "The address of the pod admin",
          "_podId": "The id number of the pod",
          "_safeAddress": "The address of the safe"
        }
      }
    },
    "version": 1
  },
  "userdoc": {
    "kind": "user",
    "methods": {
      "disableModule(address,address,address,address)": {
        "notice": "Removes the reverse registrar entry and disables module. Intended as clean up during the safe ejection process. Note that an already ejected safe cannot clear the reverse registry entry."
      },
      "ejectSafe(uint256,bytes32,address)": {
        "notice": "Ejects a safe from the Orca ecosystem. Also handles clean up for safes that have already been ejected. Note that the reverse registry entry cannot be cleaned up if the safe has already been ejected."
      }
    },
    "version": 1
  },
  "storageLayout": {
    "storage": [
      {
        "astId": 2200,
        "contract": "contracts/ControllerV1.sol:ControllerV1",
        "label": "areModulesLocked",
        "offset": 0,
        "slot": "0",
        "type": "t_mapping(t_address,t_bool)"
      },
      {
        "astId": 5305,
        "contract": "contracts/ControllerV1.sol:ControllerV1",
        "label": "_owner",
        "offset": 0,
        "slot": "1",
        "type": "t_address"
      },
      {
        "astId": 139,
        "contract": "contracts/ControllerV1.sol:ControllerV1",
        "label": "podEnsRegistrar",
        "offset": 0,
        "slot": "2",
        "type": "t_contract(IPodEnsRegistrar)3041"
      },
      {
        "astId": 146,
        "contract": "contracts/ControllerV1.sol:ControllerV1",
        "label": "safeToPodId",
        "offset": 0,
        "slot": "3",
        "type": "t_mapping(t_address,t_uint256)"
      },
      {
        "astId": 151,
        "contract": "contracts/ControllerV1.sol:ControllerV1",
        "label": "podIdToSafe",
        "offset": 0,
        "slot": "4",
        "type": "t_mapping(t_uint256,t_address)"
      },
      {
        "astId": 155,
        "contract": "contracts/ControllerV1.sol:ControllerV1",
        "label": "podAdmin",
        "offset": 0,
        "slot": "5",
        "type": "t_mapping(t_uint256,t_address)"
      },
      {
        "astId": 159,
        "contract": "contracts/ControllerV1.sol:ControllerV1",
        "label": "isTransferLocked",
        "offset": 0,
        "slot": "6",
        "type": "t_mapping(t_uint256,t_bool)"
      }
    ],
    "types": {
      "t_address": {
        "encoding": "inplace",
        "label": "address",
        "numberOfBytes": "20"
      },
      "t_bool": {
        "encoding": "inplace",
        "label": "bool",
        "numberOfBytes": "1"
      },
      "t_contract(IPodEnsRegistrar)3041": {
        "encoding": "inplace",
        "label": "contract IPodEnsRegistrar",
        "numberOfBytes": "20"
      },
      "t_mapping(t_address,t_bool)": {
        "encoding": "mapping",
        "key": "t_address",
        "label": "mapping(address => bool)",
        "numberOfBytes": "32",
        "value": "t_bool"
      },
      "t_mapping(t_address,t_uint256)": {
        "encoding": "mapping",
        "key": "t_address",
        "label": "mapping(address => uint256)",
        "numberOfBytes": "32",
        "value": "t_uint256"
      },
      "t_mapping(t_uint256,t_address)": {
        "encoding": "mapping",
        "key": "t_uint256",
        "label": "mapping(uint256 => address)",
        "numberOfBytes": "32",
        "value": "t_address"
      },
      "t_mapping(t_uint256,t_bool)": {
        "encoding": "mapping",
        "key": "t_uint256",
        "label": "mapping(uint256 => bool)",
        "numberOfBytes": "32",
        "value": "t_bool"
      },
      "t_uint256": {
        "encoding": "inplace",
        "label": "uint256",
        "numberOfBytes": "32"
      }
    }
  }
}