{
  "address": "0x6a0d1d55CBCc107D4665e05346f5BE4dDE4C3A80",
  "abi": [
    {
      "inputs": [
        {
          "internalType": "contract ENS",
          "name": "ensAddr",
          "type": "address"
        },
        {
          "internalType": "contract Resolver",
          "name": "resolverAddr",
          "type": "address"
        },
        {
          "internalType": "contract ReverseRegistrar",
          "name": "_reverseRegistrar",
          "type": "address"
        },
        {
          "internalType": "contract IControllerRegistry",
          "name": "controllerRegistryAddr",
          "type": "address"
        },
        {
          "internalType": "bytes32",
          "name": "node",
          "type": "bytes32"
        },
        {
          "internalType": "contract IInviteToken",
          "name": "inviteTokenAddr",
          "type": "address"
        }
      ],
      "stateMutability": "nonpayable",
      "type": "constructor"
    },
    {
      "anonymous": false,
      "inputs": [
        {
          "indexed": true,
          "internalType": "address",
          "name": "previousOwner",
          "type": "address"
        },
        {
          "indexed": true,
          "internalType": "address",
          "name": "newOwner",
          "type": "address"
        }
      ],
      "name": "OwnershipTransferred",
      "type": "event"
    },
    {
      "inputs": [
        {
          "internalType": "address",
          "name": "input",
          "type": "address"
        }
      ],
      "name": "addressToNode",
      "outputs": [
        {
          "internalType": "bytes32",
          "name": "",
          "type": "bytes32"
        }
      ],
      "stateMutability": "nonpayable",
      "type": "function"
    },
    {
      "inputs": [],
      "name": "ens",
      "outputs": [
        {
          "internalType": "contract ENS",
          "name": "",
          "type": "address"
        }
      ],
      "stateMutability": "view",
      "type": "function"
    },
    {
      "inputs": [
        {
          "internalType": "bytes32",
          "name": "label",
          "type": "bytes32"
        }
      ],
      "name": "getEnsNode",
      "outputs": [
        {
          "internalType": "bytes32",
          "name": "",
          "type": "bytes32"
        }
      ],
      "stateMutability": "view",
      "type": "function"
    },
    {
      "inputs": [],
      "name": "getRootNode",
      "outputs": [
        {
          "internalType": "bytes32",
          "name": "",
          "type": "bytes32"
        }
      ],
      "stateMutability": "view",
      "type": "function"
    },
    {
      "inputs": [],
      "name": "owner",
      "outputs": [
        {
          "internalType": "address",
          "name": "",
          "type": "address"
        }
      ],
      "stateMutability": "view",
      "type": "function"
    },
    {
      "inputs": [
        {
          "internalType": "bytes32",
          "name": "label",
          "type": "bytes32"
        },
        {
          "internalType": "address",
          "name": "owner",
          "type": "address"
        }
      ],
      "name": "register",
      "outputs": [],
      "stateMutability": "nonpayable",
      "type": "function"
    },
    {
      "inputs": [
        {
          "internalType": "bytes32",
          "name": "label",
          "type": "bytes32"
        },
        {
          "internalType": "address",
          "name": "podSafe",
          "type": "address"
        },
        {
          "internalType": "address",
          "name": "podCreator",
          "type": "address"
        }
      ],
      "name": "registerPod",
      "outputs": [
        {
          "internalType": "address",
          "name": "",
          "type": "address"
        }
      ],
      "stateMutability": "nonpayable",
      "type": "function"
    },
    {
      "inputs": [],
      "name": "renounceOwnership",
      "outputs": [],
      "stateMutability": "nonpayable",
      "type": "function"
    },
    {
      "inputs": [],
      "name": "resolver",
      "outputs": [
        {
          "internalType": "contract Resolver",
          "name": "",
          "type": "address"
        }
      ],
      "stateMutability": "view",
      "type": "function"
    },
    {
      "inputs": [],
      "name": "reverseRegistrar",
      "outputs": [
        {
          "internalType": "contract ReverseRegistrar",
          "name": "",
          "type": "address"
        }
      ],
      "stateMutability": "view",
      "type": "function"
    },
    {
      "inputs": [
        {
          "internalType": "bytes32",
          "name": "node",
          "type": "bytes32"
        },
        {
          "internalType": "address",
          "name": "newAddress",
          "type": "address"
        }
      ],
      "name": "setAddr",
      "outputs": [],
      "stateMutability": "nonpayable",
      "type": "function"
    },
    {
      "inputs": [
        {
          "internalType": "uint256",
          "name": "_state",
          "type": "uint256"
        }
      ],
      "name": "setRestrictionState",
      "outputs": [],
      "stateMutability": "nonpayable",
      "type": "function"
    },
    {
      "inputs": [
        {
          "internalType": "bytes32",
          "name": "node",
          "type": "bytes32"
        },
        {
          "internalType": "string",
          "name": "key",
          "type": "string"
        },
        {
          "internalType": "string",
          "name": "value",
          "type": "string"
        }
      ],
      "name": "setText",
      "outputs": [],
      "stateMutability": "nonpayable",
      "type": "function"
    },
    {
      "inputs": [],
      "name": "state",
      "outputs": [
        {
          "internalType": "enum PodEnsRegistrar.State",
          "name": "",
          "type": "uint8"
        }
      ],
      "stateMutability": "view",
      "type": "function"
    },
    {
      "inputs": [
        {
          "internalType": "address",
          "name": "newOwner",
          "type": "address"
        }
      ],
      "name": "transferOwnership",
      "outputs": [],
      "stateMutability": "nonpayable",
      "type": "function"
    }
  ],
  "transactionHash": "0xad710fd176e8aff54c9ca25e13fbfeea699572d51cfbc1572fbbfe5a436b1594",
  "args": [
    "0x00000000000C2E074eC69A0dFb2997BA6C7d2e1e",
    "0x4976fb03C32e5B8cfe2b6cCB31c09Ba78EBaBa41",
    "0x084b1c3C81545d370f3634392De611CaaBFf8148",
    "0x0d97643EE1051B523E4e3b66Df3640bBA6C0F79f",
    "0x9002824fab8a467e84d5596c10c335823a3a50c2dc35b8ff0a9fcc0557a72776",
    "0x872EdeaD0c56930777A82978d4D7deAE3A2d1539"
  ],
  "solcInputHash": "9633e82b06ab97dc1c9bb33222fb03ce",
  "bytecode": "0x60806040526006805460ff60a01b191690553480156200001e57600080fd5b50604051620015ea380380620015ea8339810160408190526200004191620002b7565b6200004c3362000267565b6001600160a01b0386166200009a5760405162461bcd60e51b815260206004820152600f60248201526e496e76616c6964206164647265737360881b60448201526064015b60405180910390fd5b6001600160a01b038516620000e45760405162461bcd60e51b815260206004820152600f60248201526e496e76616c6964206164647265737360881b604482015260640162000091565b6001600160a01b0384166200012e5760405162461bcd60e51b815260206004820152600f60248201526e496e76616c6964206164647265737360881b604482015260640162000091565b6001600160a01b038316620001785760405162461bcd60e51b815260206004820152600f60248201526e496e76616c6964206164647265737360881b604482015260640162000091565b81620001b65760405162461bcd60e51b815260206004820152600c60248201526b496e76616c6964206e6f646560a01b604482015260640162000091565b6001600160a01b038116620002005760405162461bcd60e51b815260206004820152600f60248201526e496e76616c6964206164647265737360881b604482015260640162000091565b600180546001600160a01b03199081166001600160a01b039889161790915560028054821696881696909617909555600480548616938716939093179092556005556003805484169285169290921790915560068054909216921691909117905562000358565b600080546001600160a01b038381166001600160a01b0319831681178455604051919092169283917f8be0079c531659141344cd1fd0a4f28419497f9722a3daafe3b4186f6b6457e09190a35050565b60008060008060008060c08789031215620002d157600080fd5b8651620002de816200033f565b6020880151909650620002f1816200033f565b604088015190955062000304816200033f565b606088015190945062000317816200033f565b608088015160a0890151919450925062000331816200033f565b809150509295509295509295565b6001600160a01b03811681146200035557600080fd5b50565b61128280620003686000396000f3fe608060405234801561001057600080fd5b50600436106100f55760003560e01c80638da5cb5b11610097578063cfeac6a511610066578063cfeac6a5146101ee578063d22057a914610201578063d5fa2b0014610214578063f2fde38b1461022757600080fd5b80638da5cb5b1461019657806398eed3e9146101a7578063b9efd9b5146101ba578063c19d93fb146101cd57600080fd5b806338d1fcc3116100d357806338d1fcc3146101605780633f15457f14610168578063715018a61461017b578063808698531461018357600080fd5b806304f3bcec146100fa57806310f13a8c1461012a578063137a3f601461013f575b600080fd5b60025461010d906001600160a01b031681565b6040516001600160a01b0390911681526020015b60405180910390f35b61013d6101383660046110f4565b61023a565b005b61015261014d366004610fed565b6103af565b604051908152602001610121565b600554610152565b60015461010d906001600160a01b031681565b61013d61044c565b60035461010d906001600160a01b031681565b6000546001600160a01b031661010d565b61010d6101b53660046110b2565b610460565b61013d6101c8366004611050565b610ab4565b6006546101e190600160a01b900460ff1681565b60405161012191906111e3565b6101526101fc366004611050565b610b13565b61013d61020f366004611082565b610b4f565b61013d610222366004611082565b610c49565b61013d610235366004610fed565b610d9f565b6004805460405163c3c5a54760e01b815233928101929092526001600160a01b03169063c3c5a5479060240160206040518083038186803b15801561027e57600080fd5b505afa158015610292573d6000803e3d6000fd5b505050506040513d601f19601f820116820180604052508101906102b6919061102e565b806102da5750336102cf6000546001600160a01b031690565b6001600160a01b0316145b61032b5760405162461bcd60e51b815260206004820152601f60248201527f73656e646572206d75737420626520636f6e74726f6c6c65722f6f776e65720060448201526064015b60405180910390fd5b6002546040517f10f13a8c0000000000000000000000000000000000000000000000000000000081526001600160a01b03909116906310f13a8c90610378908690869086906004016111ae565b600060405180830381600087803b15801561039257600080fd5b505af11580156103a6573d6000803e3d6000fd5b50505050505050565b6003546040517fbffbe61c0000000000000000000000000000000000000000000000000000000081526001600160a01b038381166004830152600092169063bffbe61c9060240160206040518083038186803b15801561040e57600080fd5b505afa158015610422573d6000803e3d6000fd5b505050506040513d601f19601f820116820180604052508101906104469190611069565b92915050565b610454610e2f565b61045e6000610e89565b565b60006003600654600160a01b900460ff1660038111156104825761048261120b565b14156104d05760405162461bcd60e51b815260206004820152601860248201527f726567697374726174696f6e732061726520636c6f73656400000000000000006044820152606401610322565b6000600654600160a01b900460ff1660038111156104f0576104f061120b565b1415610628576006546040516370a0823160e01b81526001600160a01b03858116600483015260009216906370a082319060240160206040518083038186803b15801561053c57600080fd5b505afa158015610550573d6000803e3d6000fd5b505050506040513d601f19601f820116820180604052508101906105749190611069565b116105c15760405162461bcd60e51b815260206004820152601960248201527f73616665206d7573742068617665205348495020746f6b656e000000000000006044820152606401610322565b600654604051632770a7eb60e21b81526001600160a01b0385811660048301526001602483015290911690639dc29fac90604401600060405180830381600087803b15801561060f57600080fd5b505af1158015610623573d6000803e3d6000fd5b505050505b6001600654600160a01b900460ff1660038111156106485761064861120b565b1415610843576006546040516370a0823160e01b81526001600160a01b03858116600483015260009216906370a082319060240160206040518083038186803b15801561069457600080fd5b505afa1580156106a8573d6000803e3d6000fd5b505050506040513d601f19601f820116820180604052508101906106cc9190611069565b111561073e57600654604051632770a7eb60e21b81526001600160a01b0385811660048301526001602483015290911690639dc29fac906044015b600060405180830381600087803b15801561072157600080fd5b505af1158015610735573d6000803e3d6000fd5b50505050610843565b6006546040516370a0823160e01b81526001600160a01b03848116600483015260009216906370a082319060240160206040518083038186803b15801561078457600080fd5b505afa158015610798573d6000803e3d6000fd5b505050506040513d601f19601f820116820180604052508101906107bc9190611069565b11156107fb57600654604051632770a7eb60e21b81526001600160a01b0384811660048301526001602483015290911690639dc29fac90604401610707565b60405162461bcd60e51b815260206004820152601d60248201527f73656e646572206f722073616665206d757374206861766520534849500000006044820152606401610322565b600060055485604051602001610863929190918252602082015260400190565b60408051808303601f190181529082905280516020909101206004805463c3c5a54760e01b845233918401919091529092506001600160a01b03169063c3c5a5479060240160206040518083038186803b1580156108c057600080fd5b505afa1580156108d4573d6000803e3d6000fd5b505050506040513d601f19601f820116820180604052508101906108f8919061102e565b6109445760405162461bcd60e51b815260206004820152601960248201527f636f6e74726f6c6c6572206e6f742072656769737465726564000000000000006044820152606401610322565b6001546040517f02571be3000000000000000000000000000000000000000000000000000000008152600481018390526000916001600160a01b0316906302571be39060240160206040518083038186803b1580156109a257600080fd5b505afa1580156109b6573d6000803e3d6000fd5b505050506040513d601f19601f820116820180604052508101906109da9190611011565b6001600160a01b031614610a305760405162461bcd60e51b815260206004820152601660248201527f6c6162656c20697320616c7265616479206f776e6564000000000000000000006044820152606401610322565b610a3a8530610ef1565b60025460405162d5fa2b60e81b8152600481018390526001600160a01b0386811660248301529091169063d5fa2b0090604401600060405180830381600087803b158015610a8757600080fd5b505af1158015610a9b573d6000803e3d6000fd5b50506003546001600160a01b0316979650505050505050565b610abc610e2f565b806003811115610ace57610ace61120b565b600680547fffffffffffffffffffffff00ffffffffffffffffffffffffffffffffffffffff16600160a01b836003811115610b0b57610b0b61120b565b021790555050565b6000610b1e60055490565b6040805160208101929092528101839052606001604051602081830303815290604052805190602001209050919050565b6004805460405163c3c5a54760e01b815233928101929092526001600160a01b03169063c3c5a5479060240160206040518083038186803b158015610b9357600080fd5b505afa158015610ba7573d6000803e3d6000fd5b505050506040513d601f19601f82011682018060405250810190610bcb919061102e565b80610bef575033610be46000546001600160a01b031690565b6001600160a01b0316145b610c3b5760405162461bcd60e51b815260206004820152601f60248201527f73656e646572206d75737420626520636f6e74726f6c6c65722f6f776e6572006044820152606401610322565b610c458282610ef1565b5050565b6004805460405163c3c5a54760e01b815233928101929092526001600160a01b03169063c3c5a5479060240160206040518083038186803b158015610c8d57600080fd5b505afa158015610ca1573d6000803e3d6000fd5b505050506040513d601f19601f82011682018060405250810190610cc5919061102e565b80610ce9575033610cde6000546001600160a01b031690565b6001600160a01b0316145b610d355760405162461bcd60e51b815260206004820152601f60248201527f73656e646572206d75737420626520636f6e74726f6c6c65722f6f776e6572006044820152606401610322565b60025460405162d5fa2b60e81b8152600481018490526001600160a01b0383811660248301529091169063d5fa2b00906044015b600060405180830381600087803b158015610d8357600080fd5b505af1158015610d97573d6000803e3d6000fd5b505050505050565b610da7610e2f565b6001600160a01b038116610e235760405162461bcd60e51b815260206004820152602660248201527f4f776e61626c653a206e6577206f776e657220697320746865207a65726f206160448201527f64647265737300000000000000000000000000000000000000000000000000006064820152608401610322565b610e2c81610e89565b50565b6000546001600160a01b0316331461045e5760405162461bcd60e51b815260206004820181905260248201527f4f776e61626c653a2063616c6c6572206973206e6f7420746865206f776e65726044820152606401610322565b600080546001600160a01b038381167fffffffffffffffffffffffff0000000000000000000000000000000000000000831681178455604051919092169283917f8be0079c531659141344cd1fd0a4f28419497f9722a3daafe3b4186f6b6457e09190a35050565b6001546005546002546040517f5ef2c7f00000000000000000000000000000000000000000000000000000000081526004810192909252602482018590526001600160a01b03848116604484015290811660648301526000608483015290911690635ef2c7f09060a401610d69565b600082601f830112610f7157600080fd5b813567ffffffffffffffff80821115610f8c57610f8c611221565b604051601f8301601f19908116603f01168101908282118183101715610fb457610fb4611221565b81604052838152866020858801011115610fcd57600080fd5b836020870160208301376000602085830101528094505050505092915050565b600060208284031215610fff57600080fd5b813561100a81611237565b9392505050565b60006020828403121561102357600080fd5b815161100a81611237565b60006020828403121561104057600080fd5b8151801515811461100a57600080fd5b60006020828403121561106257600080fd5b5035919050565b60006020828403121561107b57600080fd5b5051919050565b6000806040838503121561109557600080fd5b8235915060208301356110a781611237565b809150509250929050565b6000806000606084860312156110c757600080fd5b8335925060208401356110d981611237565b915060408401356110e981611237565b809150509250925092565b60008060006060848603121561110957600080fd5b83359250602084013567ffffffffffffffff8082111561112857600080fd5b61113487838801610f60565b9350604086013591508082111561114a57600080fd5b5061115786828701610f60565b9150509250925092565b6000815180845260005b818110156111875760208185018101518683018201520161116b565b81811115611199576000602083870101525b50601f01601f19169290920160200192915050565b8381526060602082015260006111c76060830185611161565b82810360408401526111d98185611161565b9695505050505050565b602081016004831061120557634e487b7160e01b600052602160045260246000fd5b91905290565b634e487b7160e01b600052602160045260246000fd5b634e487b7160e01b600052604160045260246000fd5b6001600160a01b0381168114610e2c57600080fdfea264697066735822122072b3e008c89351d1fe0d364e526c45be43df346cf846d6eb9a1d5cf04c8494c964736f6c63430008070033",
  "devdoc": {
    "kind": "dev",
    "methods": {
      "addressToNode(address)": {
        "params": {
          "input": "- an ENS registered address"
        }
      },
      "constructor": {
        "params": {
          "ensAddr": "The address of the ENS registry.",
          "node": "The node that this registrar administers."
        }
      },
      "getEnsNode(bytes32)": {
        "params": {
          "label": "- label hash of pod name (i.e., labelhash('mypod'))"
        }
      },
      "owner()": {
        "details": "Returns the address of the current owner."
      },
      "register(bytes32,address)": {
        "params": {
          "label": "The hash of the label to register."
        }
      },
      "renounceOwnership()": {
        "details": "Leaves the contract without owner. It will not be possible to call `onlyOwner` functions anymore. Can only be called by the current owner. NOTE: Renouncing ownership will leave the contract without an owner, thereby removing any functionality that is only available to the owner."
      },
      "setText(bytes32,string,string)": {
        "params": {
          "node": "- the node hash of an ENS name"
        }
      },
      "transferOwnership(address)": {
        "details": "Transfers ownership of the contract to a new account (`newOwner`). Can only be called by the current owner."
      }
    },
    "version": 1
  },
  "userdoc": {
    "kind": "user",
    "methods": {
      "addressToNode(address)": {
        "notice": "Returns the reverse registrar node of a given address, e.g., the node of mypod.addr.reverse."
      },
      "constructor": {
        "notice": "Constructor."
      },
      "getEnsNode(bytes32)": {
        "notice": "Generates a node hash from the Registrar's root node + the label hash."
      },
      "register(bytes32,address)": {
        "notice": "Register a name, or change the owner of an existing registration."
      }
    },
    "notice": "A registrar that allocates subdomains to the first person to claim them.",
    "version": 1
  },
  "storageLayout": {
    "storage": [
      {
        "astId": 5305,
        "contract": "contracts/ens/PodEnsRegistrar.sol:PodEnsRegistrar",
        "label": "_owner",
        "offset": 0,
        "slot": "0",
        "type": "t_address"
      },
      {
        "astId": 3079,
        "contract": "contracts/ens/PodEnsRegistrar.sol:PodEnsRegistrar",
        "label": "ens",
        "offset": 0,
        "slot": "1",
        "type": "t_contract(ENS)4047"
      },
      {
        "astId": 3082,
        "contract": "contracts/ens/PodEnsRegistrar.sol:PodEnsRegistrar",
        "label": "resolver",
        "offset": 0,
        "slot": "2",
        "type": "t_contract(Resolver)4605"
      },
      {
        "astId": 3085,
        "contract": "contracts/ens/PodEnsRegistrar.sol:PodEnsRegistrar",
        "label": "reverseRegistrar",
        "offset": 0,
        "slot": "3",
        "type": "t_contract(ReverseRegistrar)4449"
      },
      {
        "astId": 3088,
        "contract": "contracts/ens/PodEnsRegistrar.sol:PodEnsRegistrar",
        "label": "controllerRegistry",
        "offset": 0,
        "slot": "4",
        "type": "t_contract(IControllerRegistry)3529"
      },
      {
        "astId": 3090,
        "contract": "contracts/ens/PodEnsRegistrar.sol:PodEnsRegistrar",
        "label": "rootNode",
        "offset": 0,
        "slot": "5",
        "type": "t_bytes32"
      },
      {
        "astId": 3093,
        "contract": "contracts/ens/PodEnsRegistrar.sol:PodEnsRegistrar",
        "label": "inviteToken",
        "offset": 0,
        "slot": "6",
        "type": "t_contract(IInviteToken)3740"
      },
      {
        "astId": 3098,
        "contract": "contracts/ens/PodEnsRegistrar.sol:PodEnsRegistrar",
        "label": "state",
        "offset": 20,
        "slot": "6",
        "type": "t_enum(State)3076"
      }
    ],
    "types": {
      "t_address": {
        "encoding": "inplace",
        "label": "address",
        "numberOfBytes": "20"
      },
      "t_bytes32": {
        "encoding": "inplace",
        "label": "bytes32",
        "numberOfBytes": "32"
      },
      "t_contract(ENS)4047": {
        "encoding": "inplace",
        "label": "contract ENS",
        "numberOfBytes": "20"
      },
      "t_contract(IControllerRegistry)3529": {
        "encoding": "inplace",
        "label": "contract IControllerRegistry",
        "numberOfBytes": "20"
      },
      "t_contract(IInviteToken)3740": {
        "encoding": "inplace",
        "label": "contract IInviteToken",
        "numberOfBytes": "20"
      },
      "t_contract(Resolver)4605": {
        "encoding": "inplace",
        "label": "contract Resolver",
        "numberOfBytes": "20"
      },
      "t_contract(ReverseRegistrar)4449": {
        "encoding": "inplace",
        "label": "contract ReverseRegistrar",
        "numberOfBytes": "20"
      },
      "t_enum(State)3076": {
        "encoding": "inplace",
        "label": "enum PodEnsRegistrar.State",
        "numberOfBytes": "1"
      }
    }
  }
}