{
  "address": "0xCfA504F8917d2f285070050c5664eE92aE17140D",
  "abi": [
    {
      "inputs": [
        {
          "internalType": "address",
          "name": "_controllerRegistry",
          "type": "address"
        },
        {
          "internalType": "string",
          "name": "uri",
          "type": "string"
        }
      ],
      "stateMutability": "nonpayable",
      "type": "constructor"
    },
    {
      "anonymous": false,
      "inputs": [
        {
          "indexed": true,
          "internalType": "address",
          "name": "account",
          "type": "address"
        },
        {
          "indexed": true,
          "internalType": "address",
          "name": "operator",
          "type": "address"
        },
        {
          "indexed": false,
          "internalType": "bool",
          "name": "approved",
          "type": "bool"
        }
      ],
      "name": "ApprovalForAll",
      "type": "event"
    },
    {
      "anonymous": false,
      "inputs": [
        {
          "indexed": false,
          "internalType": "uint256",
          "name": "podId",
          "type": "uint256"
        },
        {
          "indexed": false,
          "internalType": "address",
          "name": "newController",
          "type": "address"
        }
      ],
      "name": "MigrateMemberController",
      "type": "event"
    },
    {
      "anonymous": false,
      "inputs": [
        {
          "indexed": true,
          "internalType": "address",
          "name": "previousOwner",
          "type": "address"
        },
        {
          "indexed": true,
          "internalType": "address",
          "name": "newOwner",
          "type": "address"
        }
      ],
      "name": "OwnershipTransferred",
      "type": "event"
    },
    {
      "anonymous": false,
      "inputs": [
        {
          "indexed": true,
          "internalType": "address",
          "name": "operator",
          "type": "address"
        },
        {
          "indexed": true,
          "internalType": "address",
          "name": "from",
          "type": "address"
        },
        {
          "indexed": true,
          "internalType": "address",
          "name": "to",
          "type": "address"
        },
        {
          "indexed": false,
          "internalType": "uint256[]",
          "name": "ids",
          "type": "uint256[]"
        },
        {
          "indexed": false,
          "internalType": "uint256[]",
          "name": "values",
          "type": "uint256[]"
        }
      ],
      "name": "TransferBatch",
      "type": "event"
    },
    {
      "anonymous": false,
      "inputs": [
        {
          "indexed": true,
          "internalType": "address",
          "name": "operator",
          "type": "address"
        },
        {
          "indexed": true,
          "internalType": "address",
          "name": "from",
          "type": "address"
        },
        {
          "indexed": true,
          "internalType": "address",
          "name": "to",
          "type": "address"
        },
        {
          "indexed": false,
          "internalType": "uint256",
          "name": "id",
          "type": "uint256"
        },
        {
          "indexed": false,
          "internalType": "uint256",
          "name": "value",
          "type": "uint256"
        }
      ],
      "name": "TransferSingle",
      "type": "event"
    },
    {
      "anonymous": false,
      "inputs": [
        {
          "indexed": false,
          "internalType": "string",
          "name": "value",
          "type": "string"
        },
        {
          "indexed": true,
          "internalType": "uint256",
          "name": "id",
          "type": "uint256"
        }
      ],
      "name": "URI",
      "type": "event"
    },
    {
      "inputs": [],
      "name": "_contractURI",
      "outputs": [
        {
          "internalType": "string",
          "name": "",
          "type": "string"
        }
      ],
      "stateMutability": "view",
      "type": "function"
    },
    {
      "inputs": [
        {
          "internalType": "address",
          "name": "account",
          "type": "address"
        },
        {
          "internalType": "uint256",
          "name": "id",
          "type": "uint256"
        }
      ],
      "name": "balanceOf",
      "outputs": [
        {
          "internalType": "uint256",
          "name": "",
          "type": "uint256"
        }
      ],
      "stateMutability": "view",
      "type": "function"
    },
    {
      "inputs": [
        {
          "internalType": "address[]",
          "name": "accounts",
          "type": "address[]"
        },
        {
          "internalType": "uint256[]",
          "name": "ids",
          "type": "uint256[]"
        }
      ],
      "name": "balanceOfBatch",
      "outputs": [
        {
          "internalType": "uint256[]",
          "name": "",
          "type": "uint256[]"
        }
      ],
      "stateMutability": "view",
      "type": "function"
    },
    {
      "inputs": [
        {
          "internalType": "address",
          "name": "_account",
          "type": "address"
        },
        {
          "internalType": "uint256",
          "name": "_id",
          "type": "uint256"
        }
      ],
      "name": "burn",
      "outputs": [],
      "stateMutability": "nonpayable",
      "type": "function"
    },
    {
      "inputs": [
        {
          "internalType": "address[]",
          "name": "_accounts",
          "type": "address[]"
        },
        {
          "internalType": "uint256",
          "name": "_id",
          "type": "uint256"
        }
      ],
      "name": "burnSingleBatch",
      "outputs": [],
      "stateMutability": "nonpayable",
      "type": "function"
    },
    {
      "inputs": [],
      "name": "contractURI",
      "outputs": [
        {
          "internalType": "string",
          "name": "",
          "type": "string"
        }
      ],
      "stateMutability": "view",
      "type": "function"
    },
    {
      "inputs": [],
      "name": "controllerRegistry",
      "outputs": [
        {
          "internalType": "contract IControllerRegistry",
          "name": "",
          "type": "address"
        }
      ],
      "stateMutability": "view",
      "type": "function"
    },
    {
      "inputs": [
        {
          "internalType": "address[]",
          "name": "_accounts",
          "type": "address[]"
        },
        {
          "internalType": "bytes",
          "name": "data",
          "type": "bytes"
        }
      ],
      "name": "createPod",
      "outputs": [
        {
          "internalType": "uint256",
          "name": "",
          "type": "uint256"
        }
      ],
      "stateMutability": "nonpayable",
      "type": "function"
    },
    {
      "inputs": [
        {
          "internalType": "uint256",
          "name": "id",
          "type": "uint256"
        }
      ],
      "name": "exists",
      "outputs": [
        {
          "internalType": "bool",
          "name": "",
          "type": "bool"
        }
      ],
      "stateMutability": "view",
      "type": "function"
    },
    {
      "inputs": [],
      "name": "getNextAvailablePodId",
      "outputs": [
        {
          "internalType": "uint256",
          "name": "",
          "type": "uint256"
        }
      ],
      "stateMutability": "view",
      "type": "function"
    },
    {
      "inputs": [
        {
          "internalType": "address",
          "name": "account",
          "type": "address"
        },
        {
          "internalType": "address",
          "name": "operator",
          "type": "address"
        }
      ],
      "name": "isApprovedForAll",
      "outputs": [
        {
          "internalType": "bool",
          "name": "",
          "type": "bool"
        }
      ],
      "stateMutability": "view",
      "type": "function"
    },
    {
      "inputs": [
        {
          "internalType": "uint256",
          "name": "",
          "type": "uint256"
        }
      ],
      "name": "memberController",
      "outputs": [
        {
          "internalType": "address",
          "name": "",
          "type": "address"
        }
      ],
      "stateMutability": "view",
      "type": "function"
    },
    {
      "inputs": [
        {
          "internalType": "uint256",
          "name": "_podId",
          "type": "uint256"
        },
        {
          "internalType": "address",
          "name": "_newController",
          "type": "address"
        }
      ],
      "name": "migrateMemberController",
      "outputs": [],
      "stateMutability": "nonpayable",
      "type": "function"
    },
    {
      "inputs": [
        {
          "internalType": "address",
          "name": "_account",
          "type": "address"
        },
        {
          "internalType": "uint256",
          "name": "_id",
          "type": "uint256"
        },
        {
          "internalType": "bytes",
          "name": "data",
          "type": "bytes"
        }
      ],
      "name": "mint",
      "outputs": [],
      "stateMutability": "nonpayable",
      "type": "function"
    },
    {
      "inputs": [
        {
          "internalType": "address[]",
          "name": "_accounts",
          "type": "address[]"
        },
        {
          "internalType": "uint256",
          "name": "_id",
          "type": "uint256"
        },
        {
          "internalType": "bytes",
          "name": "data",
          "type": "bytes"
        }
      ],
      "name": "mintSingleBatch",
      "outputs": [],
      "stateMutability": "nonpayable",
      "type": "function"
    },
    {
      "inputs": [],
      "name": "nextAvailablePodId",
      "outputs": [
        {
          "internalType": "uint256",
          "name": "",
          "type": "uint256"
        }
      ],
      "stateMutability": "view",
      "type": "function"
    },
    {
      "inputs": [],
      "name": "owner",
      "outputs": [
        {
          "internalType": "address",
          "name": "",
          "type": "address"
        }
      ],
      "stateMutability": "view",
      "type": "function"
    },
    {
      "inputs": [],
      "name": "renounceOwnership",
      "outputs": [],
      "stateMutability": "nonpayable",
      "type": "function"
    },
    {
      "inputs": [
        {
          "internalType": "address",
          "name": "from",
          "type": "address"
        },
        {
          "internalType": "address",
          "name": "to",
          "type": "address"
        },
        {
          "internalType": "uint256[]",
          "name": "ids",
          "type": "uint256[]"
        },
        {
          "internalType": "uint256[]",
          "name": "amounts",
          "type": "uint256[]"
        },
        {
          "internalType": "bytes",
          "name": "data",
          "type": "bytes"
        }
      ],
      "name": "safeBatchTransferFrom",
      "outputs": [],
      "stateMutability": "nonpayable",
      "type": "function"
    },
    {
      "inputs": [
        {
          "internalType": "address",
          "name": "from",
          "type": "address"
        },
        {
          "internalType": "address",
          "name": "to",
          "type": "address"
        },
        {
          "internalType": "uint256",
          "name": "id",
          "type": "uint256"
        },
        {
          "internalType": "uint256",
          "name": "amount",
          "type": "uint256"
        },
        {
          "internalType": "bytes",
          "name": "data",
          "type": "bytes"
        }
      ],
      "name": "safeTransferFrom",
      "outputs": [],
      "stateMutability": "nonpayable",
      "type": "function"
    },
    {
      "inputs": [
        {
          "internalType": "address",
          "name": "operator",
          "type": "address"
        },
        {
          "internalType": "bool",
          "name": "approved",
          "type": "bool"
        }
      ],
      "name": "setApprovalForAll",
      "outputs": [],
      "stateMutability": "nonpayable",
      "type": "function"
    },
    {
      "inputs": [
        {
          "internalType": "string",
          "name": "newContractURI",
          "type": "string"
        }
      ],
      "name": "setContractURI",
      "outputs": [],
      "stateMutability": "nonpayable",
      "type": "function"
    },
    {
      "inputs": [
        {
          "internalType": "string",
          "name": "uri",
          "type": "string"
        }
      ],
      "name": "setUri",
      "outputs": [],
      "stateMutability": "nonpayable",
      "type": "function"
    },
    {
      "inputs": [
        {
          "internalType": "bytes4",
          "name": "interfaceId",
          "type": "bytes4"
        }
      ],
      "name": "supportsInterface",
      "outputs": [
        {
          "internalType": "bool",
          "name": "",
          "type": "bool"
        }
      ],
      "stateMutability": "view",
      "type": "function"
    },
    {
      "inputs": [
        {
          "internalType": "uint256",
          "name": "id",
          "type": "uint256"
        }
      ],
      "name": "totalSupply",
      "outputs": [
        {
          "internalType": "uint256",
          "name": "",
          "type": "uint256"
        }
      ],
      "stateMutability": "view",
      "type": "function"
    },
    {
      "inputs": [
        {
          "internalType": "address",
          "name": "newOwner",
          "type": "address"
        }
      ],
      "name": "transferOwnership",
      "outputs": [],
      "stateMutability": "nonpayable",
      "type": "function"
    },
    {
      "inputs": [
        {
          "internalType": "uint256",
          "name": "",
          "type": "uint256"
        }
      ],
      "name": "uri",
      "outputs": [
        {
          "internalType": "string",
          "name": "",
          "type": "string"
        }
      ],
      "stateMutability": "view",
      "type": "function"
    }
  ],
  "transactionHash": "0x2709dc902ccd29309749cd2df7a253a2b9c255fbcd8ffdeb347d5b53ca7eb13c",
  "args": [
    "0x27164d8F7c4cfBB428B08359fAfE0047c96AF984",
    "https://orcaprotocol-nft.vercel.app/assets/testnet/{id}.json"
  ],
  "numDeployments": 1,
  "solcInputHash": "e99b344e1ca44ea4c90da36abb4bee9c",
  "bytecode": "0x600060075560e0604052603c60808181529062002a5260a03980516200002e9160089160209091019062000156565b503480156200003c57600080fd5b5060405162002a8e38038062002a8e8339810160408190526200005f91620001fc565b806200006b81620000eb565b50620000773362000104565b6001600160a01b038216620000c45760405162461bcd60e51b815260206004820152600f60248201526e496e76616c6964206164647265737360881b604482015260640160405180910390fd5b50600580546001600160a01b0319166001600160a01b03929092169190911790556200034f565b80516200010090600290602084019062000156565b5050565b600480546001600160a01b038381166001600160a01b0319831681179093556040519116919082907f8be0079c531659141344cd1fd0a4f28419497f9722a3daafe3b4186f6b6457e090600090a35050565b8280546200016490620002fc565b90600052602060002090601f016020900481019282620001885760008555620001d3565b82601f10620001a357805160ff1916838001178555620001d3565b82800160010185558215620001d3579182015b82811115620001d3578251825591602001919060010190620001b6565b50620001e1929150620001e5565b5090565b5b80821115620001e15760008155600101620001e6565b600080604083850312156200021057600080fd5b82516001600160a01b03811681146200022857600080fd5b602084810151919350906001600160401b03808211156200024857600080fd5b818601915086601f8301126200025d57600080fd5b81518181111562000272576200027262000339565b604051601f8201601f19908116603f011681019083821181831017156200029d576200029d62000339565b816040528281528986848701011115620002b657600080fd5b600093505b82841015620002da5784840186015181850187015292850192620002bb565b82841115620002ec5760008684830101525b8096505050505050509250929050565b600181811c908216806200031157607f821691505b602082108114156200033357634e487b7160e01b600052602260045260246000fd5b50919050565b634e487b7160e01b600052604160045260246000fd5b6126f3806200035f6000396000f3fe608060405234801561001057600080fd5b50600436106101b85760003560e01c806394d008ef116100f9578063bd85b03911610097578063e8a3d48511610071578063e8a3d485146103ce578063e985e9c5146103d6578063f242432a14610412578063f2fde38b1461042557600080fd5b8063bd85b03914610393578063c0e72740146103b3578063db609ada146103bb57600080fd5b80639dc29fac116100d35780639dc29fac14610347578063a22cb4651461035a578063b898410d1461036d578063bbc4541b1461038057600080fd5b806394d008ef1461030e5780639aa0055e146103215780639b642de11461033457600080fd5b80634f558e791161016657806378f716c31161014057806378f716c3146102ce57806382786654146102d75780638da5cb5b146102ea578063938e3d7b146102fb57600080fd5b80634f558e791461029c5780635e933702146102be578063715018a6146102c657600080fd5b80632eb2c2d6116101975780632eb2c2d614610226578063355eb4931461023b5780634e1273f41461027c57600080fd5b8062fdd58e146101bd57806301ffc9a7146101e35780630e89341c14610206575b600080fd5b6101d06101cb366004612043565b610438565b6040519081526020015b60405180910390f35b6101f66101f1366004612247565b6104e1565b60405190151581526020016101da565b6102196102143660046122d2565b61057e565b6040516101da91906124df565b610239610234366004611efd565b610612565b005b6102646102493660046122d2565b6006602052600090815260409020546001600160a01b031681565b6040516001600160a01b0390911681526020016101da565b61028f61028a3660046120c4565b6106b4565b6040516101da919061249e565b6101f66102aa3660046122d2565b600090815260036020526040902054151590565b6007546101d0565b6102396107f2565b6101d060075481565b6102396102e53660046122eb565b610806565b6004546001600160a01b0316610264565b610239610309366004612281565b6109fe565b61023961031c36600461206d565b610a1d565b6101d061032f366004612128565b610a2f565b610239610342366004612281565b610b54565b610239610355366004612043565b610b68565b61023961036836600461200c565b610b74565b61023961037b366004612182565b610b7f565b600554610264906001600160a01b031681565b6101d06103a13660046122d2565b60009081526003602052604090205490565b610219610bc2565b6102396103c93660046121c7565b610c50565b610219610c9a565b6101f66103e4366004611eca565b6001600160a01b03918216600090815260016020908152604080832093909416825291909152205460ff1690565b610239610420366004611fa7565b610d2c565b610239610433366004611eaf565b610dc7565b60006001600160a01b0383166104bb5760405162461bcd60e51b815260206004820152602a60248201527f455243313135353a2061646472657373207a65726f206973206e6f742061207660448201527f616c6964206f776e65720000000000000000000000000000000000000000000060648201526084015b60405180910390fd5b506000908152602081815260408083206001600160a01b03949094168352929052205490565b60006001600160e01b031982167fd9b67a2600000000000000000000000000000000000000000000000000000000148061054457506001600160e01b031982167f0e89341c00000000000000000000000000000000000000000000000000000000145b8061057857507f01ffc9a7000000000000000000000000000000000000000000000000000000006001600160e01b03198316145b92915050565b60606002805461058d9061252e565b80601f01602080910402602001604051908101604052809291908181526020018280546105b99061252e565b80156106065780601f106105db57610100808354040283529160200191610606565b820191906000526020600020905b8154815290600101906020018083116105e957829003601f168201915b50505050509050919050565b6001600160a01b03851633148061062e575061062e85336103e4565b6106a05760405162461bcd60e51b815260206004820152602f60248201527f455243313135353a2063616c6c6572206973206e6f7420746f6b656e206f776e60448201527f6572206e6f7220617070726f766564000000000000000000000000000000000060648201526084016104b2565b6106ad8585858585610e54565b5050505050565b6060815183511461072d5760405162461bcd60e51b815260206004820152602960248201527f455243313135353a206163636f756e747320616e6420696473206c656e67746860448201527f206d69736d61746368000000000000000000000000000000000000000000000060648201526084016104b2565b6000835167ffffffffffffffff811115610749576107496125dd565b604051908082528060200260200182016040528015610772578160200160208202803683370190505b50905060005b84518110156107ea576107bd858281518110610796576107966125c7565b60200260200101518583815181106107b0576107b06125c7565b6020026020010151610438565b8282815181106107cf576107cf6125c7565b60209081029190910101526107e381612596565b9050610778565b509392505050565b6107fa6110d5565b610804600061112f565b565b6001600160a01b03811661085c5760405162461bcd60e51b815260206004820152600f60248201527f496e76616c69642061646472657373000000000000000000000000000000000060448201526064016104b2565b6000828152600660205260409020546001600160a01b031633146108c25760405162461bcd60e51b815260206004820152601a60248201527f496e76616c6964206d69677261746520636f6e74726f6c6c657200000000000060448201526064016104b2565b60055460405163c3c5a54760e01b81526001600160a01b0383811660048301529091169063c3c5a5479060240160206040518083038186803b15801561090757600080fd5b505afa15801561091b573d6000803e3d6000fd5b505050506040513d601f19601f8201168201806040525081019061093f919061222a565b61098b5760405162461bcd60e51b815260206004820152601960248201527f436f6e74726f6c6c6572206e6f7420726567697374657265640000000000000060448201526064016104b2565b600082815260066020908152604091829020805473ffffffffffffffffffffffffffffffffffffffff19166001600160a01b0385169081179091558251858152918201527fc30443aa4d8d4b5e33b0904fa6687e345e706027fbe9140b5e6459f17077df22910160405180910390a15050565b610a066110d5565b8051610a19906008906020840190611c94565b5050565b610a2a838360018461118e565b505050565b6007805460009160019083610a448385612516565b909155505060055460405163c3c5a54760e01b81523360048201526001600160a01b039091169063c3c5a5479060240160206040518083038186803b158015610a8c57600080fd5b505afa158015610aa0573d6000803e3d6000fd5b505050506040513d601f19601f82011682018060405250810190610ac4919061222a565b610b105760405162461bcd60e51b815260206004820152601960248201527f436f6e74726f6c6c6572206e6f7420726567697374657265640000000000000060448201526064016104b2565b6000818152600660205260409020805473ffffffffffffffffffffffffffffffffffffffff191633179055835115610b4d57610b4d848285610c50565b9392505050565b610b5c6110d5565b610b65816112cd565b50565b610a19828260016112e0565b610a193383836114a3565b60005b8251811015610a2a57610bb0838281518110610ba057610ba06125c7565b60200260200101518360016112e0565b610bbb600182612516565b9050610b82565b60088054610bcf9061252e565b80601f0160208091040260200160405190810160405280929190818152602001828054610bfb9061252e565b8015610c485780601f10610c1d57610100808354040283529160200191610c48565b820191906000526020600020905b815481529060010190602001808311610c2b57829003601f168201915b505050505081565b60005b8351811015610c9457610c82848281518110610c7157610c716125c7565b60200260200101518460018561118e565b610c8d600182612516565b9050610c53565b50505050565b606060088054610ca99061252e565b80601f0160208091040260200160405190810160405280929190818152602001828054610cd59061252e565b8015610d225780601f10610cf757610100808354040283529160200191610d22565b820191906000526020600020905b815481529060010190602001808311610d0557829003601f168201915b5050505050905090565b6001600160a01b038516331480610d485750610d4885336103e4565b610dba5760405162461bcd60e51b815260206004820152602f60248201527f455243313135353a2063616c6c6572206973206e6f7420746f6b656e206f776e60448201527f6572206e6f7220617070726f766564000000000000000000000000000000000060648201526084016104b2565b6106ad8585858585611598565b610dcf6110d5565b6001600160a01b038116610e4b5760405162461bcd60e51b815260206004820152602660248201527f4f776e61626c653a206e6577206f776e657220697320746865207a65726f206160448201527f646472657373000000000000000000000000000000000000000000000000000060648201526084016104b2565b610b658161112f565b8151835114610ecb5760405162461bcd60e51b815260206004820152602860248201527f455243313135353a2069647320616e6420616d6f756e7473206c656e6774682060448201527f6d69736d6174636800000000000000000000000000000000000000000000000060648201526084016104b2565b6001600160a01b038416610f2f5760405162461bcd60e51b815260206004820152602560248201527f455243313135353a207472616e7366657220746f20746865207a65726f206164604482015264647265737360d81b60648201526084016104b2565b33610f3e818787878787611751565b60005b8451811015611067576000858281518110610f5e57610f5e6125c7565b602002602001015190506000858381518110610f7c57610f7c6125c7565b602090810291909101810151600084815280835260408082206001600160a01b038e16835290935291909120549091508181101561100f5760405162461bcd60e51b815260206004820152602a60248201527f455243313135353a20696e73756666696369656e742062616c616e636520666f60448201526939103a3930b739b332b960b11b60648201526084016104b2565b6000838152602081815260408083206001600160a01b038e8116855292528083208585039055908b1682528120805484929061104c908490612516565b925050819055505050508061106090612596565b9050610f41565b50846001600160a01b0316866001600160a01b0316826001600160a01b03167f4a39dc06d4c0dbc64b70af90fd698a233a518aa5d07e595d983b8c0526c8f7fb87876040516110b79291906124b1565b60405180910390a46110cd818787878787611989565b505050505050565b6004546001600160a01b031633146108045760405162461bcd60e51b815260206004820181905260248201527f4f776e61626c653a2063616c6c6572206973206e6f7420746865206f776e657260448201526064016104b2565b600480546001600160a01b0383811673ffffffffffffffffffffffffffffffffffffffff19831681179093556040519116919082907f8be0079c531659141344cd1fd0a4f28419497f9722a3daafe3b4186f6b6457e090600090a35050565b6001600160a01b03841661120a5760405162461bcd60e51b815260206004820152602160248201527f455243313135353a206d696e7420746f20746865207a65726f2061646472657360448201527f730000000000000000000000000000000000000000000000000000000000000060648201526084016104b2565b33600061121685611b3e565b9050600061122385611b3e565b905061123483600089858589611751565b6000868152602081815260408083206001600160a01b038b16845290915281208054879290611264908490612516565b909155505060408051878152602081018790526001600160a01b03808a1692600092918716917fc3d58168c5ae7397731d063d5bbf3d657854427343f4c083240f7aacaa2d0f62910160405180910390a46112c483600089898989611b89565b50505050505050565b8051610a19906002906020840190611c94565b6001600160a01b03831661135c5760405162461bcd60e51b815260206004820152602360248201527f455243313135353a206275726e2066726f6d20746865207a65726f206164647260448201527f657373000000000000000000000000000000000000000000000000000000000060648201526084016104b2565b33600061136884611b3e565b9050600061137584611b3e565b905061139583876000858560405180602001604052806000815250611751565b6000858152602081815260408083206001600160a01b038a1684529091529020548481101561142b5760405162461bcd60e51b8152602060048201526024808201527f455243313135353a206275726e20616d6f756e7420657863656564732062616c60448201527f616e63650000000000000000000000000000000000000000000000000000000060648201526084016104b2565b6000868152602081815260408083206001600160a01b038b81168086529184528285208a8703905582518b81529384018a90529092908816917fc3d58168c5ae7397731d063d5bbf3d657854427343f4c083240f7aacaa2d0f62910160405180910390a46040805160208101909152600090526112c4565b816001600160a01b0316836001600160a01b0316141561152b5760405162461bcd60e51b815260206004820152602960248201527f455243313135353a2073657474696e6720617070726f76616c2073746174757360448201527f20666f722073656c66000000000000000000000000000000000000000000000060648201526084016104b2565b6001600160a01b03838116600081815260016020908152604080832094871680845294825291829020805460ff191686151590811790915591519182527f17307eab39ab6107e8899845ad3d59bd9653f200f220920489ca2b5937696c31910160405180910390a3505050565b6001600160a01b0384166115fc5760405162461bcd60e51b815260206004820152602560248201527f455243313135353a207472616e7366657220746f20746865207a65726f206164604482015264647265737360d81b60648201526084016104b2565b33600061160885611b3e565b9050600061161585611b3e565b9050611625838989858589611751565b6000868152602081815260408083206001600160a01b038c168452909152902054858110156116a95760405162461bcd60e51b815260206004820152602a60248201527f455243313135353a20696e73756666696369656e742062616c616e636520666f60448201526939103a3930b739b332b960b11b60648201526084016104b2565b6000878152602081815260408083206001600160a01b038d8116855292528083208985039055908a168252812080548892906116e6908490612516565b909155505060408051888152602081018890526001600160a01b03808b16928c821692918816917fc3d58168c5ae7397731d063d5bbf3d657854427343f4c083240f7aacaa2d0f62910160405180910390a4611746848a8a8a8a8a611b89565b505050505050505050565b6000600660008560008151811061176a5761176a6125c7565b6020908102919091018101518252810191909152604001600020546001600160a01b03169050806117dd5760405162461bcd60e51b815260206004820152601160248201527f506f6420646f65736e277420657869737400000000000000000000000000000060448201526064016104b2565b60005b84518110156118fe576001600160a01b0386161561185b5761180e868683815181106107b0576107b06125c7565b1561185b5760405162461bcd60e51b815260206004820152601660248201527f5573657220697320616c7265616479206d656d6265720000000000000000000060448201526064016104b2565b816001600160a01b03166006600087848151811061187b5761187b6125c7565b6020908102919091018101518252810191909152604001600020546001600160a01b0316146118ec5760405162461bcd60e51b815260206004820152601e60248201527f496473206861766520646966666572656e7420636f6e74726f6c6c657273000060448201526064016104b2565b6118f7600182612516565b90506117e0565b506040517ff0f39f5d0000000000000000000000000000000000000000000000000000000081526001600160a01b0382169063f0f39f5d9061194e908a908a908a908a908a908a90600401612396565b600060405180830381600087803b15801561196857600080fd5b505af115801561197c573d6000803e3d6000fd5b5050505050505050505050565b6001600160a01b0384163b156110cd5760405163bc197c8160e01b81526001600160a01b0385169063bc197c81906119cd90899089908890889088906004016123fd565b602060405180830381600087803b1580156119e757600080fd5b505af1925050508015611a17575060408051601f3d908101601f19168201909252611a1491810190612264565b60015b611acd57611a236125f3565b806308c379a01415611a5d5750611a3861260f565b80611a435750611a5f565b8060405162461bcd60e51b81526004016104b291906124df565b505b60405162461bcd60e51b815260206004820152603460248201527f455243313135353a207472616e7366657220746f206e6f6e204552433131353560448201527f526563656976657220696d706c656d656e74657200000000000000000000000060648201526084016104b2565b6001600160e01b0319811663bc197c8160e01b146112c45760405162461bcd60e51b815260206004820152602860248201527f455243313135353a204552433131353552656365697665722072656a656374656044820152676420746f6b656e7360c01b60648201526084016104b2565b60408051600180825281830190925260609160009190602080830190803683370190505090508281600081518110611b7857611b786125c7565b602090810291909101015292915050565b6001600160a01b0384163b156110cd5760405163f23a6e6160e01b81526001600160a01b0385169063f23a6e6190611bcd908990899088908890889060040161245b565b602060405180830381600087803b158015611be757600080fd5b505af1925050508015611c17575060408051601f3d908101601f19168201909252611c1491810190612264565b60015b611c2357611a236125f3565b6001600160e01b0319811663f23a6e6160e01b146112c45760405162461bcd60e51b815260206004820152602860248201527f455243313135353a204552433131353552656365697665722072656a656374656044820152676420746f6b656e7360c01b60648201526084016104b2565b828054611ca09061252e565b90600052602060002090601f016020900481019282611cc25760008555611d08565b82601f10611cdb57805160ff1916838001178555611d08565b82800160010185558215611d08579182015b82811115611d08578251825591602001919060010190611ced565b50611d14929150611d18565b5090565b5b80821115611d145760008155600101611d19565b600067ffffffffffffffff831115611d4757611d476125dd565b604051611d5e601f8501601f191660200182612569565b809150838152848484011115611d7357600080fd5b83836020830137600060208583010152509392505050565b80356001600160a01b0381168114611da257600080fd5b919050565b600082601f830112611db857600080fd5b81356020611dc5826124f2565b604051611dd28282612569565b8381528281019150858301600585901b87018401881015611df257600080fd5b60005b85811015611e1857611e0682611d8b565b84529284019290840190600101611df5565b5090979650505050505050565b600082601f830112611e3657600080fd5b81356020611e43826124f2565b604051611e508282612569565b8381528281019150858301600585901b87018401881015611e7057600080fd5b60005b85811015611e1857813584529284019290840190600101611e73565b600082601f830112611ea057600080fd5b610b4d83833560208501611d2d565b600060208284031215611ec157600080fd5b610b4d82611d8b565b60008060408385031215611edd57600080fd5b611ee683611d8b565b9150611ef460208401611d8b565b90509250929050565b600080600080600060a08688031215611f1557600080fd5b611f1e86611d8b565b9450611f2c60208701611d8b565b9350604086013567ffffffffffffffff80821115611f4957600080fd5b611f5589838a01611e25565b94506060880135915080821115611f6b57600080fd5b611f7789838a01611e25565b93506080880135915080821115611f8d57600080fd5b50611f9a88828901611e8f565b9150509295509295909350565b600080600080600060a08688031215611fbf57600080fd5b611fc886611d8b565b9450611fd660208701611d8b565b93506040860135925060608601359150608086013567ffffffffffffffff81111561200057600080fd5b611f9a88828901611e8f565b6000806040838503121561201f57600080fd5b61202883611d8b565b9150602083013561203881612699565b809150509250929050565b6000806040838503121561205657600080fd5b61205f83611d8b565b946020939093013593505050565b60008060006060848603121561208257600080fd5b61208b84611d8b565b925060208401359150604084013567ffffffffffffffff8111156120ae57600080fd5b6120ba86828701611e8f565b9150509250925092565b600080604083850312156120d757600080fd5b823567ffffffffffffffff808211156120ef57600080fd5b6120fb86838701611da7565b9350602085013591508082111561211157600080fd5b5061211e85828601611e25565b9150509250929050565b6000806040838503121561213b57600080fd5b823567ffffffffffffffff8082111561215357600080fd5b61215f86838701611da7565b9350602085013591508082111561217557600080fd5b5061211e85828601611e8f565b6000806040838503121561219557600080fd5b823567ffffffffffffffff8111156121ac57600080fd5b6121b885828601611da7565b95602094909401359450505050565b6000806000606084860312156121dc57600080fd5b833567ffffffffffffffff808211156121f457600080fd5b61220087838801611da7565b945060208601359350604086013591508082111561221d57600080fd5b506120ba86828701611e8f565b60006020828403121561223c57600080fd5b8151610b4d81612699565b60006020828403121561225957600080fd5b8135610b4d816126a7565b60006020828403121561227657600080fd5b8151610b4d816126a7565b60006020828403121561229357600080fd5b813567ffffffffffffffff8111156122aa57600080fd5b8201601f810184136122bb57600080fd5b6122ca84823560208401611d2d565b949350505050565b6000602082840312156122e457600080fd5b5035919050565b600080604083850312156122fe57600080fd5b82359150611ef460208401611d8b565b600081518084526020808501945080840160005b8381101561233e57815187529582019590820190600101612322565b509495945050505050565b6000815180845260005b8181101561236f57602081850181015186830182015201612353565b81811115612381576000602083870101525b50601f01601f19169290920160200192915050565b60006001600160a01b038089168352808816602084015280871660408401525060c060608301526123ca60c083018661230e565b82810360808401526123dc818661230e565b905082810360a08401526123f08185612349565b9998505050505050505050565b60006001600160a01b03808816835280871660208401525060a0604083015261242960a083018661230e565b828103606084015261243b818661230e565b9050828103608084015261244f8185612349565b98975050505050505050565b60006001600160a01b03808816835280871660208401525084604083015283606083015260a0608083015261249360a0830184612349565b979650505050505050565b602081526000610b4d602083018461230e565b6040815260006124c4604083018561230e565b82810360208401526124d6818561230e565b95945050505050565b602081526000610b4d6020830184612349565b600067ffffffffffffffff82111561250c5761250c6125dd565b5060051b60200190565b60008219821115612529576125296125b1565b500190565b600181811c9082168061254257607f821691505b6020821081141561256357634e487b7160e01b600052602260045260246000fd5b50919050565b601f8201601f1916810167ffffffffffffffff8111828210171561258f5761258f6125dd565b6040525050565b60006000198214156125aa576125aa6125b1565b5060010190565b634e487b7160e01b600052601160045260246000fd5b634e487b7160e01b600052603260045260246000fd5b634e487b7160e01b600052604160045260246000fd5b600060033d111561260c5760046000803e5060005160e01c5b90565b600060443d101561261d5790565b6040516003193d81016004833e81513d67ffffffffffffffff816024840111818411171561264d57505050505090565b82850191508151818111156126655750505050505090565b843d870101602082850101111561267f5750505050505090565b61268e60208286010187612569565b509095945050505050565b8015158114610b6557600080fd5b6001600160e01b031981168114610b6557600080fdfea2646970667358221220db5293e71bb22687805ac31587c130bc0a23cf859feaa198c3d35871ee0a2cab64736f6c6343000807003368747470733a2f2f6f72636170726f746f636f6c2d6e66742e76657263656c2e6170702f6173736574732f636f6e74726163742d6d65746164617461",
  "devdoc": {
    "kind": "dev",
    "methods": {
      "balanceOf(address,uint256)": {
        "details": "See {IERC1155-balanceOf}. Requirements: - `account` cannot be the zero address."
      },
      "balanceOfBatch(address[],uint256[])": {
        "details": "See {IERC1155-balanceOfBatch}. Requirements: - `accounts` and `ids` must have the same length."
      },
      "burn(address,uint256)": {
        "params": {
          "_account": "The account address holding the membership token to destroy",
          "_id": "The id of the membership token to destroy"
        }
      },
      "burnSingleBatch(address[],uint256)": {
        "params": {
          "_accounts": "The account addresses to burn the membership tokens from",
          "_id": "The membership token id to burn"
        }
      },
      "constructor": {
        "params": {
          "_controllerRegistry": "The address of the ControllerRegistry contract"
        }
      },
      "exists(uint256)": {
        "details": "Indicates whether any token exist with a given id, or not."
      },
      "isApprovedForAll(address,address)": {
        "details": "See {IERC1155-isApprovedForAll}."
      },
      "migrateMemberController(uint256,address)": {
        "params": {
          "_newController": "The address of the new controller",
          "_podId": "The pod id number"
        }
      },
      "mint(address,uint256,bytes)": {
        "params": {
          "_account": "The account address to assign the membership token to",
          "_id": "The membership token id to mint",
          "data": "Passes a flag for initial creation event"
        }
      },
      "mintSingleBatch(address[],uint256,bytes)": {
        "params": {
          "_accounts": "The account addresses to assign the membership tokens to",
          "_id": "The membership token id to mint",
          "data": "Passes a flag for an initial creation event"
        }
      },
      "owner()": {
        "details": "Returns the address of the current owner."
      },
      "renounceOwnership()": {
        "details": "Leaves the contract without owner. It will not be possible to call `onlyOwner` functions anymore. Can only be called by the current owner. NOTE: Renouncing ownership will leave the contract without an owner, thereby removing any functionality that is only available to the owner."
      },
      "safeBatchTransferFrom(address,address,uint256[],uint256[],bytes)": {
        "details": "See {IERC1155-safeBatchTransferFrom}."
      },
      "safeTransferFrom(address,address,uint256,uint256,bytes)": {
        "details": "See {IERC1155-safeTransferFrom}."
      },
      "setApprovalForAll(address,bool)": {
        "details": "See {IERC1155-setApprovalForAll}."
      },
      "supportsInterface(bytes4)": {
        "details": "See {IERC165-supportsInterface}."
      },
      "totalSupply(uint256)": {
        "details": "Total amount of tokens in with a given id."
      },
      "transferOwnership(address)": {
        "details": "Transfers ownership of the contract to a new account (`newOwner`). Can only be called by the current owner."
      },
      "uri(uint256)": {
        "details": "See {IERC1155MetadataURI-uri}. This implementation returns the same URI for *all* token types. It relies on the token type ID substitution mechanism https://eips.ethereum.org/EIPS/eip-1155#metadata[defined in the EIP]. Clients calling this function must replace the `\\{id\\}` substring with the actual token type ID."
      }
    },
    "version": 1
  },
  "userdoc": {
    "kind": "user",
    "methods": {},
    "version": 1
  },
  "storageLayout": {
    "storage": [
      {
        "astId": 5883,
        "contract": "contracts/MemberToken.sol:MemberToken",
        "label": "_balances",
        "offset": 0,
        "slot": "0",
        "type": "t_mapping(t_uint256,t_mapping(t_address,t_uint256))"
      },
      {
        "astId": 5889,
        "contract": "contracts/MemberToken.sol:MemberToken",
        "label": "_operatorApprovals",
        "offset": 0,
        "slot": "1",
        "type": "t_mapping(t_address,t_mapping(t_address,t_bool))"
      },
      {
        "astId": 5891,
        "contract": "contracts/MemberToken.sol:MemberToken",
        "label": "_uri",
        "offset": 0,
        "slot": "2",
        "type": "t_string_storage"
      },
      {
        "astId": 7253,
        "contract": "contracts/MemberToken.sol:MemberToken",
        "label": "_totalSupply",
        "offset": 0,
        "slot": "3",
        "type": "t_mapping(t_uint256,t_uint256)"
      },
      {
        "astId": 5752,
        "contract": "contracts/MemberToken.sol:MemberToken",
        "label": "_owner",
        "offset": 0,
        "slot": "4",
        "type": "t_address"
      },
      {
        "astId": 1831,
        "contract": "contracts/MemberToken.sol:MemberToken",
        "label": "controllerRegistry",
        "offset": 0,
        "slot": "5",
        "type": "t_contract(IControllerRegistry)3957"
      },
      {
        "astId": 1835,
        "contract": "contracts/MemberToken.sol:MemberToken",
        "label": "memberController",
        "offset": 0,
        "slot": "6",
        "type": "t_mapping(t_uint256,t_address)"
      },
      {
        "astId": 1838,
        "contract": "contracts/MemberToken.sol:MemberToken",
        "label": "nextAvailablePodId",
        "offset": 0,
        "slot": "7",
        "type": "t_uint256"
      },
      {
        "astId": 1841,
        "contract": "contracts/MemberToken.sol:MemberToken",
        "label": "_contractURI",
        "offset": 0,
        "slot": "8",
        "type": "t_string_storage"
      }
    ],
    "types": {
      "t_address": {
        "encoding": "inplace",
        "label": "address",
        "numberOfBytes": "20"
      },
      "t_bool": {
        "encoding": "inplace",
        "label": "bool",
        "numberOfBytes": "1"
      },
      "t_contract(IControllerRegistry)3957": {
        "encoding": "inplace",
        "label": "contract IControllerRegistry",
        "numberOfBytes": "20"
      },
      "t_mapping(t_address,t_bool)": {
        "encoding": "mapping",
        "key": "t_address",
        "label": "mapping(address => bool)",
        "numberOfBytes": "32",
        "value": "t_bool"
      },
      "t_mapping(t_address,t_mapping(t_address,t_bool))": {
        "encoding": "mapping",
        "key": "t_address",
        "label": "mapping(address => mapping(address => bool))",
        "numberOfBytes": "32",
        "value": "t_mapping(t_address,t_bool)"
      },
      "t_mapping(t_address,t_uint256)": {
        "encoding": "mapping",
        "key": "t_address",
        "label": "mapping(address => uint256)",
        "numberOfBytes": "32",
        "value": "t_uint256"
      },
      "t_mapping(t_uint256,t_address)": {
        "encoding": "mapping",
        "key": "t_uint256",
        "label": "mapping(uint256 => address)",
        "numberOfBytes": "32",
        "value": "t_address"
      },
      "t_mapping(t_uint256,t_mapping(t_address,t_uint256))": {
        "encoding": "mapping",
        "key": "t_uint256",
        "label": "mapping(uint256 => mapping(address => uint256))",
        "numberOfBytes": "32",
        "value": "t_mapping(t_address,t_uint256)"
      },
      "t_mapping(t_uint256,t_uint256)": {
        "encoding": "mapping",
        "key": "t_uint256",
        "label": "mapping(uint256 => uint256)",
        "numberOfBytes": "32",
        "value": "t_uint256"
      },
      "t_string_storage": {
        "encoding": "bytes",
        "label": "string",
        "numberOfBytes": "32"
      },
      "t_uint256": {
        "encoding": "inplace",
        "label": "uint256",
        "numberOfBytes": "32"
      }
    }
  }
}