{
  "address": "0x98133D3bCD36bd3212D5C8146d43a2d356a5c8C0",
  "abi": [
    {
      "inputs": [
        {
          "internalType": "address",
          "name": "_memberToken",
          "type": "address"
        }
      ],
      "stateMutability": "nonpayable",
      "type": "constructor"
    },
    {
      "inputs": [
        {
          "internalType": "contract IControllerV1",
          "name": "_controller",
          "type": "address"
        },
        {
          "internalType": "address[][]",
          "name": "_members",
          "type": "address[][]"
        },
        {
          "internalType": "uint256[]",
          "name": "_thresholds",
          "type": "uint256[]"
        },
        {
          "internalType": "address[]",
          "name": "_admins",
          "type": "address[]"
        },
        {
          "internalType": "bytes32[]",
          "name": "_labels",
          "type": "bytes32[]"
        },
        {
          "internalType": "string[]",
          "name": "_ensStrings",
          "type": "string[]"
        },
        {
          "internalType": "string[]",
          "name": "_imageUrls",
          "type": "string[]"
        }
      ],
      "name": "createPods",
      "outputs": [
        {
          "internalType": "address[]",
          "name": "",
          "type": "address[]"
        }
      ],
      "stateMutability": "nonpayable",
      "type": "function"
    }
  ],
  "transactionHash": "0xb1ec1142d5d30b98077591c0ecfb0d2ad0ce15714c11624e5d38ff4e2116ab20",
  "args": [
    "0xeBA322a1EAb019fA66DE1aD5015bDa37734fdCbc"
  ],
  "numDeployments": 1,
  "solcInputHash": "6cd41270e885ec1d9e9690e88dbd3747",
  "bytecode": "0x60a060405234801561001057600080fd5b50604051610f4e380380610f4e83398101604081905261002f91610044565b60601b6001600160601b031916608052610074565b60006020828403121561005657600080fd5b81516001600160a01b038116811461006d57600080fd5b9392505050565b60805160601c610ebc61009260003960006101a70152610ebc6000f3fe608060405234801561001057600080fd5b506004361061002b5760003560e01c80639c4773a514610030575b600080fd5b61004361003e366004610b73565b610059565b6040516100509190610d29565b60405180910390f35b8651606090869081146100b35760405162461bcd60e51b815260206004820152601760248201527f696e636f7272656374206d656d6265727320617272617900000000000000000060448201526064015b60405180910390fd5b808551146101035760405162461bcd60e51b815260206004820152601660248201527f696e636f7272656374206c6162656c732061727261790000000000000000000060448201526064016100aa565b808451146101535760405162461bcd60e51b815260206004820152601a60248201527f696e636f727265637420656e73537472696e677320617272617900000000000060448201526064016100aa565b808351146101a35760405162461bcd60e51b815260206004820152601960248201527f696e636f727265637420696d61676555726c732061727261790000000000000060448201526064016100aa565b60007f00000000000000000000000000000000000000000000000000000000000000006001600160a01b0316635e9337026040518163ffffffff1660e01b815260040160206040518083038186803b1580156101fe57600080fd5b505afa158015610212573d6000803e3d6000fd5b505050506040513d601f19601f820116820180604052508101906102369190610c7f565b90506000610245836001610df9565b67ffffffffffffffff81111561025d5761025d610e58565b604051908082528060200260200182016040528015610286578160200160208202803683370190505b5090506000610296846001610df9565b67ffffffffffffffff8111156102ae576102ae610e58565b6040519080825280602002602001820160405280156102f357816020015b60408051808201909152600080825260208201528152602001906001900390816102cc5790505b50905060005b848110156107935761030c856001610df9565b8a828151811061031e5761031e610e42565b60200260200101516001600160a01b031611158015610369575060006001600160a01b03168a828151811061035557610355610e42565b60200260200101516001600160a01b031614155b1561040157604051806040016040528082866103859190610df9565b81526020018b838151811061039c5761039c610e42565b60200260200101516001600160a01b03168152508282815181106103c2576103c2610e42565b6020026020010181905250308a82815181106103e0576103e0610e42565b60200260200101906001600160a01b031690816001600160a01b0316815250505b60005b8d828151811061041657610416610e42565b6020026020010151518110156105b957610431866001610df9565b8e838151811061044357610443610e42565b6020026020010151828151811061045c5761045c610e42565b60200260200101516001600160a01b0316116105a75761047d826001610df9565b8e838151811061048f5761048f610e42565b602002602001015182815181106104a8576104a8610e42565b60200260200101516001600160a01b0316106105065760405162461bcd60e51b815260206004820152601e60248201527f4d656d62657220646570656e64656e637920626164206f72646572696e67000060448201526064016100aa565b838e838151811061051957610519610e42565b6020026020010151828151811061053257610532610e42565b60200260200101516001600160a01b03168151811061055357610553610e42565b60200260200101518e838151811061056d5761056d610e42565b6020026020010151828151811061058657610586610e42565b60200260200101906001600160a01b031690816001600160a01b0316815250505b806105b181610e11565b915050610404565b508d6001600160a01b0316637d49f1db8e83815181106105db576105db610e42565b60200260200101518e8e858181106105f5576105f5610e42565b905060200201358d858151811061060e5761060e610e42565b60200260200101518d868151811061062857610628610e42565b60200260200101518d878151811061064257610642610e42565b6020026020010151878b6106569190610df9565b8e898151811061066857610668610e42565b60200260200101516040518863ffffffff1660e01b81526004016106929796959493929190610d3c565b600060405180830381600087803b1580156106ac57600080fd5b505af11580156106c0573d6000803e3d6000fd5b505050508d6001600160a01b0316638d092f5d82866106df9190610df9565b6040518263ffffffff1660e01b81526004016106fd91815260200190565b60206040518083038186803b15801561071557600080fd5b505afa158015610729573d6000803e3d6000fd5b505050506040513d601f19601f8201168201806040525081019061074d9190610b4f565b83610759836001610df9565b8151811061076957610769610e42565b6001600160a01b03909216602092830291909101909101528061078b81610e11565b9150506102f9565b5060005b815181101561088c5760008282815181106107b4576107b4610e42565b6020026020010151905060006001600160a01b031681602001516001600160a01b031614610879578e6001600160a01b031663346e5c4882600001518684602001516001600160a01b03168151811061080f5761080f610e42565b60200260200101516040518363ffffffff1660e01b81526004016108469291909182526001600160a01b0316602082015260400190565b600060405180830381600087803b15801561086057600080fd5b505af1158015610874573d6000803e3d6000fd5b505050505b508061088481610e11565b915050610797565b50909c9b505050505050505050505050565b600082601f8301126108af57600080fd5b813560206108c46108bf83610dd5565b610da4565b80838252828201915082860187848660051b89010111156108e457600080fd5b60005b8581101561090c5781356108fa81610e6e565b845292840192908401906001016108e7565b5090979650505050505050565b600082601f83011261092a57600080fd5b8135602061093a6108bf83610dd5565b80838252828201915082860187848660051b890101111561095a57600080fd5b6000805b8681101561099d57823567ffffffffffffffff81111561097c578283fd5b61098a8b88838d010161089e565b865250938501939185019160010161095e565b509198975050505050505050565b600082601f8301126109bc57600080fd5b813560206109cc6108bf83610dd5565b80838252828201915082860187848660051b89010111156109ec57600080fd5b60005b8581101561090c578135845292840192908401906001016109ef565b6000601f8381840112610a1d57600080fd5b82356020610a2d6108bf83610dd5565b80838252828201915082870188848660051b8a01011115610a4d57600080fd5b60005b85811015610ae557813567ffffffffffffffff80821115610a7057600080fd5b818b0191508b603f830112610a8457600080fd5b86820135604082821115610a9a57610a9a610e58565b610aab828c01601f19168a01610da4565b92508183528d81838601011115610ac157600080fd5b818185018a8501375060009082018801528552509284019290840190600101610a50565b509098975050505050505050565b60008083601f840112610b0557600080fd5b50813567ffffffffffffffff811115610b1d57600080fd5b6020830191508360208260051b8501011115610b3857600080fd5b9250929050565b8035610b4a81610e6e565b919050565b600060208284031215610b6157600080fd5b8151610b6c81610e6e565b9392505050565b60008060008060008060008060e0898b031215610b8f57600080fd5b610b9889610b3f565b9750602089013567ffffffffffffffff80821115610bb557600080fd5b610bc18c838d01610919565b985060408b0135915080821115610bd757600080fd5b610be38c838d01610af3565b909850965060608b0135915080821115610bfc57600080fd5b610c088c838d0161089e565b955060808b0135915080821115610c1e57600080fd5b610c2a8c838d016109ab565b945060a08b0135915080821115610c4057600080fd5b610c4c8c838d01610a0b565b935060c08b0135915080821115610c6257600080fd5b50610c6f8b828c01610a0b565b9150509295985092959890939650565b600060208284031215610c9157600080fd5b5051919050565b600081518084526020808501945080840160005b83811015610cd15781516001600160a01b031687529582019590820190600101610cac565b509495945050505050565b6000815180845260005b81811015610d0257602081850181015186830182015201610ce6565b81811115610d14576000602083870101525b50601f01601f19169290920160200192915050565b602081526000610b6c6020830184610c98565b60e081526000610d4f60e083018a610c98565b8860208401526001600160a01b03881660408401528660608401528281036080840152610d7c8187610cdc565b90508460a084015282810360c0840152610d968185610cdc565b9a9950505050505050505050565b604051601f8201601f1916810167ffffffffffffffff81118282101715610dcd57610dcd610e58565b604052919050565b600067ffffffffffffffff821115610def57610def610e58565b5060051b60200190565b60008219821115610e0c57610e0c610e2c565b500190565b6000600019821415610e2557610e25610e2c565b5060010190565b634e487b7160e01b600052601160045260246000fd5b634e487b7160e01b600052603260045260246000fd5b634e487b7160e01b600052604160045260246000fd5b6001600160a01b0381168114610e8357600080fd5b5056fea26469706673582212207e7cb3b35a2f955b94570e7cd955c379273c4a84db1ca00068f9db6ebd8ce83e64736f6c63430008070033",
  "devdoc": {
    "kind": "dev",
    "methods": {},
    "version": 1
  },
  "userdoc": {
    "kind": "user",
    "methods": {},
    "version": 1
  },
  "storageLayout": {
    "storage": [],
    "types": null
  }
}